:030000000203599F
:0C035900787FE4F6D8FD75812D0203A02A
:1004E40002220000021301F402110000011D0001A8
:0504F4001501011001DB
:030023000202B125
:1002B100C0E0C0F0C0D075D00820980302034DAF54
:1002C1001D74162FF8A699051DC298E51D640570C9
:1002D1007BF51DE51664DC7078E51A64CD7072E576
:1002E100172430604314605324F57060AF18EF7524
:1002F100F064A4AEF0AD197C002DF514EC3EF513BD
:10030100D3E5149480E513940C40028044AE13AFFE
:10031100147C007D0A120234EF7805CEC313CE138C
:10032100D8F9F5128E118024E518C394014022E515
:1003310018D39464501B8518158011E518C39401D6
:10034100400FE518D394055008851810309902C262
:0803510099D0D0D0F0D0E032C9
:100026001204FA1205191200031204CAE4FFFE12A2
:10003600044BD2AF7F0312047B8E1B8F1CC3E51CBF
:080046009512E51B95115040D5
:10004E00C3E512951CFFE511951BFE1203E58E2CE0
:10005E008F2DE523252DFFE522352CFED3EF94FFC2
:10006E00EE648094835019E523252DFFE522352C6F
:10007E00FE12044BE52D2523F523E52C3522F52222
:0B008E00D3E51C9512E51B9511403BCB
:10009900E51C9512FFE51B9511FE1203E58E2C8FC9
:1000A9002DC3E523952DE522952CC36480948040CA
:1000B9001AE523952DFFE522952CFE12044BC3E585
:0B00C90023952DF523E522952CF52250
:1000D400E4F521F520F51FF51EE47F6FFEFDFCAB72
:1000E40021AA20A91FA81EC312029B400302003AA2
:1000F400E4FAF9F8E5212401F521EA3520F520E9AF
:0B010400351FF51FE8351EF51E80CEEC
:1003E500C3EF940AEE6480948050057E007F01225D
:1003F500C3EF941EEE648094805010C3EF940AEE10
:100405006480948040057E007F0222C3EF9496EEBF
:10041500648094805010C3EF941EEE6480948040F5
:10042500057E007F0322C3EF94F4EE64809481502F
:1004350010C3EF9496EE6480948040057E007F059E
:06044500227E007F0A2266
:0A05190043DE2053DEF043BC8022D5
:10047B00D3EF6480948F4009EF75F00F1201E5AF55
:10048B00F053BCF0EF42BC43BC40E5BC30E5FBAFE6
:08049B00BDEFFEADBEEDFF2236
:1004FA0043B10853B2F753B1FD43B20253B1FB43C0
:03050A00B2042216
:10000300759850438E40538EFE53890F758BF3754D
:0A0013008DFCC2ABD28E43A8102270
:04050D00EF2430FFA8
:08051100C2998F993099FD2277
:0604A3008B298A2A892B37
:1004A900E4FFFEAB29AA2AA92B8F828E83120207A9
:1004B900600EC299F5993099FD0FBF00010E80E3D6
:0104C9002210
:06010F008D24AB07AA06D7
:10011500E4F525F526F527F5287C277D10120246FE
:10012500EF4E7005752501800312050D7C277D10A6
:10013500AF03AE021202467E037FE8CFCDCFCECC11
:10014500CE120246EF4E700AE525B401057526016B
:10015500800312050D7C037DE8AF03AE0212024653
:100165007E007F64CFCDCFCECCCE120246EF4E704F
:100175000AE526B40105752701800312050D7C03E8
:100185007DE8AF03AE021202467E007F64CFCDCF7D
:10019500CECCCE120246EF4E700AE527B4010575A6
:1001A5002801801B7C007D64AF03AE021202467EEF
:1001B500007F0ACFCDCFCECCCE12024612050DAEB2
:1001C50002AF037C007D0A120246ED2430FF1205C2
:0F01D50011E524600A7F0D1205117F0A12051132
:0101E40022F8
:1004CA00E4F5D875D908F5E9F5F975DA4275F2C097
:0A04DA0075EAFF75FAFF43D84022CF
:04044B00AD07AC0647
:10044F00C374FF9DFF74039CAB07F9D3ED94FFECCE
:10045F009403501753F2C3E925E025E0FFE9C45494
:0B046F00F04F42F2AF03EBF5FA8FEA0A
:01047A00225F
:10036500020026E493A3F8E493A34003F68001F288
:1003750008DFF48029E493A3F85407240CC8C33399
:10038500C4540F4420C8834004F456800146F6DF68
:10039500E4800B01020408102040809004E4E47E10
:1003A500019360BCA3FF543F30E509541FFEE4935D
:1003B500A360010ECF54C025E060A840B8E493A324
:1003C500FAE493A3F8E493A3C8C582C8CAC583CA4F
:1003D500F0A3C8C582C8CAC583CADFE9DEE780BE07
:0104F9000002
:1001E500C2D530F707B2D563F0FF05F030E70CB2A2
:1001F500D5F4048463F0FF05F080018430D502F462
:020205000422D1
:10020700BB010CE58229F582E5833AF583E02250AC
:1002170006E92582F8E622BBFE06E92582F8E222F6
:0D022700E58229F582E5833AF583E4932210
:10023400EF8DF0A4A8F0CF8CF0A428CE8DF0A42EDE
:02024400FE2298
:10024600BC000BBE0029EF8DF084FFADF022E4CC9C
:10025600F875F008EF2FFFEE33FEEC33FCEE9DEC65
:10026600984005FCEE9DFE0FD5F0E9E4CEFD22EDAB
:10027600F8F5F0EE8420D21CFEADF075F008EF2FF5
:10028600FFED33FD4007985006D5F0F222C398FDE6
:050296000FD5F0EA2283
:10029B00EB9FF5F0EA9E42F0E99D42F0EC6480C8DA
:0602AB0064809845F0227A
:00000001FF
