:020000040800F2
:1000000000000120E17B0008717B0008777B00087D
:100010007D7B0008837B0008897B000800000000CE
:100020000000000000000000000000008F7B0008BE
:100030009B7B000800000000A77B0008B37B000842
:10004000297C0008297C0008297C0008297C0008FC
:10005000297C0008297C0008297C0008297C0008EC
:10006000297C0008297C0008297C0008297C0008DC
:10007000297C0008297C0008297C0008297C0008CC
:10008000297C0008297C0008297C0008297C0008BC
:10009000297C0008297C0008297C0008297C0008AC
:1000A000297C0008297C0008297C0008297C00089C
:1000B000297C0008297C0008297C0008297C00088C
:1000C000297C0008297C0008297C0008297C00087C
:1000D000297C0008297C0008297C0008297C00086C
:1000E000297C0008297C0008297C00080000000009
:1000F0000000000000000000000000000000000000
:100100000000000000000000297C0008297C000895
:10011000297C0008297C0008297C0008297C00082B
:10012000297C0008297C0008297C0008297C00081B
:10013000297C0008297C0008297C0008297C00080B
:10014000297C0008297C0008297C0008C17B000864
:10015000000000000000000000000000000000009F
:10016000000000000000000000000000000000008F
:10017000000000000000000000000000000000007F
:10018000000000000000000000000000000000006F
:10019000000000000000000000000000000000005F
:1001A000000000000000000000000000000000004F
:1001B000000000000000000000000000000000003F
:1001C000000000000000000000000000000000002F
:1001D000000000000000000000000000000000001F
:0401E0005FF8E0F1F3
:1001E40010B5054C237833B9044B13B10448AFF36D
:1001F40000800123237010BD7C010020000000005A
:1002040084D2000808B5034B1BB103490348AFF37C
:10021400008008BD000000008001002084D2000896
:1002240053B94AB9002908BF00281CBF4FF0FF3159
:100234004FF0FF3000F076B9ADF1080C6DE904CE53
:1002440000F006F8DDF804E0DDE9022304B07047AD
:100254002DE9F047089E0D4604468846002B4DD1F3
:100264008A42944668D9B2FA82F252B101FA02F390
:10027400C2F1200120FA01F10CFA02FC41EA030860
:1002840094404FEA1C41B8FBF1F71FFA8CFE01FBC6
:10029400178807FB0EF0230C43EA084398420AD957
:1002A4001CEB030307F1FF3580F01E81984240F2F6
:1002B4001B81023F63441B1AB3FBF1F001FB1033B3
:1002C40000FB0EFEA4B244EA0344A6450AD91CEB83
:1002D400040400F1FF3380F00981A64540F2068151
:1002E400644402380021A4EB0E0440EA07401EB126
:1002F4000023D440C6E90043BDE8F0878B4208D907
:10030400002E00F0EE800021C6E900050846BDE895
:10031400F087B3FA83F100294AD1AB4202D3824277
:1003240000F2FC80841A65EB030301209846002E3A
:10033400E2D0C6E90048DFE702B9FFDEB2FA82F292
:10034400002A40F09180A1EB0C0001214FEA1C47E8
:100354001FFA8CFEB0FBF7F307FB1300250C45EAEC
:1003640000450EFB03F0A84208D91CEB050503F178
:10037400FF3802D2A84200F2CE8043462D1AB5FBC4
:10038400F7F007FB10550EFB00FEA4B244EA054447
:10039400A64508D91CEB040400F1FF3502D2A6459A
:1003A40000F2B6802846A4EB0E0440EA03409EE720
:1003B400C1F120078B4022FA07FC4CEA030C25FA12
:1003C40007FA4FEA1C49BAFBF9F820FA07F309FBCC
:1003D40018AA8D401FFA8CFE1D4300FA01F308FB96
:1003E4000EF02C0C44EA0A44A04202FA01F20BD9A2
:1003F4001CEB040408F1FF3A80F08880A04240F22C
:100404008580A8F102086444241AB4FBF9F009FBBE
:10041400104400FB0EFEADB245EA0444A64508D9DB
:100424001CEB040400F1FF356CD2A6456AD90238EE
:10043400644440EA0840A0FB0295A4EB0E04AC42DD
:10044400C846AE4656D353D0002E69D0B3EB08024B
:1004540064EB0E0422FA01F304FA07F71F43CC40BD
:10046400C6E90074002147E70CFA02FCC2F120013E
:1004740025FA01F34FEA1C4720FA01F195400D4398
:10048400B3FBF7F107FB11331FFA8CFE280C40EA8B
:10049400034001FB0EF3834204FA02F408D91CEB77
:1004A400000001F1FF382FD283422DD90239604474
:1004B400C01AB0FBF7F307FB1300ADB245EA0045E1
:1004C40003FB0EF0A84208D91CEB050503F1FF3825
:1004D40016D2A84214D9023B6544281A43EA0141C2
:1004E40038E73146304607E72F46E4E61846F9E692
:1004F4004B45A9D2B9EB020865EB0C0E0138A3E712
:100504004346EAE7284694E74146D1E7D0467BE7ED
:100514006444023847E7023B65442FE7084606E790
:100524003146E9E6704700BF80B500AF0E4B5B690A
:100534000D4A43F0010353610C4B5B690B4A43F4CE
:10054400807353610A2007F0D1FB074B1B69064AED
:1005540043F001031361054B5B69044A43F4807360
:10056400536100BF80BD00BF000C0140001001407A
:1005740080B500AF114B5B69104A43F0010353612E
:100584000F4B5B690E4A43F4807353610A2007F0F2
:10059400ADFB0A4B1B69094A43F001031361084B85
:1005A4005B69074A43F480735361064B1B69054A30
:1005B40043F01003136100BF80BD00BF000C014075
:1005C400001001400018014080B500AF094B1B69C1
:1005D400084A43F008031361012002F0ABFA054B0B
:1005E4005B69044A43F008035361012002F0A2FA54
:1005F40000BF80BD0018014080B582B000AF3B4B06
:100604001B693A4A43F001031361394B5B69384A69
:1006140043F480735361374B1B69364A43F04003FC
:100624001361344B1B69334A43F080031361314B2C
:100634005B69304A43F0080353612E4B1B692D4A12
:1006440043F0020313612B4B1B692A4A43F0040352
:1006540013610A2007F04AFB244B5B69234A43F0E9
:1006640001035361224B5B69214A43F48073536154
:100674000A2007F03BFB00237B6004E0FFF7A4FFA4
:100684007B6801337B607B68092BF7DD194B5B6961
:10069400184A43F001035361164B5B69154A43F052
:1006A40002035361134B5B69124A43F00403536121
:1006B400104B5B690F4A43F020035361142007F089
:1006C40015FB0A4B5B69094A43F001035361084B6C
:1006D4001B69074A43F4807313614FF4FA7007F0FF
:1006E40005FB00BF0837BD4680BD00BF000C0140BC
:1006F400001001400018014080B500AF2E4B1B696B
:100704002D4A43F010031361C82007F0EFFA2A4B77
:100714005B69294A43F002035361274B5B69264A0C
:1007240043F004035361244B5B69234A43F02003E1
:100734005361214B5B69204A43F0400353611E4BD4
:100744005B691D4A43F0800353611C4B5B691B4A80
:1007540043F0010353611A4B5B69194A43F48073F4
:100764005361142007F0C2FA134B5B69124A43F039
:10077400100353610A2007F0B9FA104B5B690F4A62
:1007840043F0010353610E4B1B690D4A43F480731C
:1007940013614FF4FA7007F0A9FA074B1B69064A74
:1007A40043F040031361044B1B69034A43F0800385
:1007B400136100BF80BD00BF00180140000C014060
:1007C4000010014080B582B000AF0346FB71124AAD
:1007D400FB79D360114B1B69104A43F00403136186
:1007E4000E4B5B690D4A43F0020353610B4B5B698B
:1007F4000A4A43F020035361084B5B69074A43F0FC
:1008040010035361012002F095F9FFF7DDFE00BFEC
:100814000837BD4680BD00BF0008014000180140F4
:1008240080B582B000AF0346FB710F4AFB79D360F9
:100834000E4B1B690D4A43F0040313610B4B5B69B8
:100844000A4A43F002035361084B5B69074A43F0C9
:1008540020035361012002F06DF9FFF7B5FE00BFDC
:100864000837BD4680BD00BF0008014000180140A4
:1008740080B582B000AF03460A46FB711346BB71D4
:10088400164B5B69154A43F004035361134B5B69D0
:10089400124A43F002035361BB79002B06D00F4B7D
:1008A4001B690E4A43F02003136105E00B4B5B699F
:1008B4000A4A43F020035361084B5B69074A43F03B
:1008C40010035361064AFB79D360012002F032F928
:1008D400FFF77AFE00BF0837BD4680BD001801400F
:1008E4000008014080B582B000AF03460A46FB71A0
:1008F4001346BB71134B5B69124A43F00403536103
:10090400104B5B690F4A43F002035361BB79002B20
:1009140006D00C4B1B690B4A43F02003136105E01E
:10092400084B5B69074A43F020035361064AFB798D
:10093400D360012002F0FEF8FFF746FE00BF08373F
:10094400BD4680BD001801400008014080B500AFDD
:10095400464B1B78012B02D1FFF7CEFE01E0FFF7D7
:100964004BFE02F01FFB414B1B78012B03D10820E7
:10097400FFF756FF02E00820FFF724FF3B4B1B78EC
:10098400012B04D100210020FFF7ACFF03E000217C
:100994000020FFF76DFF02F0EBFA354B5B69344A38
:1009A40043F080035361012007F0A0F9314B9B68A9
:1009B400DAB2314B9A712E4B1B692D4A43F08003F6
:1009C400136102F0EFFA294B1B78012B04D10021AB
:1009D4000120FFF787FF03E000210120FFF748FF14
:1009E40002F0C6FA224B5B69214A43F0800353614B
:1009F400012007F07BF91F4B9B68DAB21E4B5A713A
:100A04001B4B1B691A4A43F08003136102F0CAFAB4
:100A1400164B1B78012B04D100210220FFF762FF43
:100A240003E000210220FFF723FF02F0A1FA104B9C
:100A34005B690F4A43F080035361012007F056F9C4
:100A44000C4B9B68DAB20C4B1A71094B1B69084AB0
:100A540043F080031361054B1B78012B02D1FFF790
:100A640087FD01E0FFF760FD00BF80BDDA050020CF
:100A74000018014000080140AC03002080B500AF1D
:100A8400FFF7BAFD02F08EFA0420FFF79BFE02F096
:100A94006FFA012007F02AF9474B5B69464A43F095
:100AA40020035361444B5B69434A43F01003536191
:100AB400414B5B69404A43F080035361012007F0D6
:100AC40015F93E4B9B68DAB23D4B1A713A4B1B69E0
:100AD400394A43F080031361322002F02BF8364B7D
:100AE4001B69354A43F020031361334B1B69324AB7
:100AF40043F010031361304B5B692F4A43F08003CA
:100B04005361012007F0F2F82C4B9B68DAB22C4BAE
:100B14005A71294B1B69284A43F080031361322020
:100B240002F008F8244B5B69234A43F02003536125
:100B3400214B1B69204A43F0100313611E4B5B6970
:100B44001D4A43F080035361012007F0CFF81B4B8B
:100B54009B68DAB21A4B9A71174B1B69164A43F019
:100B640080031361322001F0E5FF134B1B69124A25
:100B740043F020031361104B5B690F4A43F01003E9
:100B840053610D4B5B690C4A43F0800353610120B0
:100B940007F0ACF8094B9B68DAB2094BDA71064BE3
:100BA4001B69054A43F080031361322001F0C2FF40
:100BB400FFF7BAFC00BF80BD0018014000080140E7
:100BC400AC03002080B500AFFFF796FD02F0EAF910
:100BD4000420FFF725FE02F0CBF9012007F086F888
:100BE400474B5B69464A43F020035361444B5B69BE
:100BF400434A43F004035361414B5B69404A43F069
:100C040080035361012007F071F83E4B9B68DAB210
:100C14003D4B1A713A4B1B69394A43F08003136107
:100C2400322001F087FF364B1B69354A43F020031D
:100C34001361334B1B69324A43F004031361304B95
:100C44005B692F4A43F080035361012007F04EF89B
:100C54002C4B9B68DAB22C4B5A71294B1B69284ADE
:100C640043F080031361322001F064FF244B5B697D
:100C7400234A43F020035361214B1B69204A43F06C
:100C8400040313611E4B5B691D4A43F080035361E7
:100C9400012007F02BF81B4B9B68DAB21A4B9A71B0
:100CA400174B1B69164A43F080031361322001F08D
:100CB40041FF134B1B69124A43F020031361104B8D
:100CC4005B690F4A43F0040353610D4B5B690C4AA3
:100CD40043F080035361012007F008F8094B9B6837
:100CE400DAB2094BDA71064B1B69054A43F08003FB
:100CF4001361322001F01EFFFFF73AFC00BF80BDF4
:100D04000018014000080140AC03002080B500AF8A
:100D1400FFF772FC02F046F96D4B5B696C4A43F0D5
:100D2400010353614020FFF74DFD0A2001F002FF4B
:100D3400674B5B69664A43F004035361644B1B6968
:100D4400634A43F002031361624B1A79624BDA601F
:100D54000A2001F0EFFEFFF737FC5D4B5B695C4A4C
:100D640043F040035361012006F0C0FF584B1B6958
:100D7400574A43F040031361642006F0B7FF544B15
:100D84005B69534A43F020035361514B5B69504AFA
:100D940043F0100353614020FFF714FD4C4B5B6993
:100DA4004B4A43F004035361494B1B69484A43F0DF
:100DB40002031361474B5A79474BDA600A2001F06A
:100DC400B9FEFFF701FC424B1B69414A43F0200383
:100DD40013613F4B5B693E4A43F0100353613C4B44
:100DE4005B693B4A43F040035361012006F07EFFF8
:100DF400374B1B69364A43F040031361322006F037
:100E040075FF4020FFF7DEFC314B5B69304A43F04D
:100E1400040353612E4B1B692D4A43F002031361F3
:100E24002C4B9A792C4BDA600A2001F083FEFFF7F1
:100E3400CBFB274B5B69264A43F020035361244BC9
:100E44001B69234A43F010031361214B5B69204A59
:100E540043F040035361012006F048FF1C4B1B691B
:100E64001B4A43F040031361322006F03FFF202069
:100E7400FFF7A8FC164B5B69154A43F00403536162
:100E8400134B1B69124A43F002031361114BDA79C5
:100E9400114BDA600A2001F04DFEFFF795FBC820E4
:100EA40001F048FE0A4B5B69094A43F04003536171
:100EB400012006F01BFF064B1B69054A43F0400363
:100EC4001361322006F012FFFFF72EFB00BF80BD36
:100ED40000180140980100200008014080B500AFCF
:100EE400FFF70AFC02F05EF84020FFF799FC0A20A5
:100EF40001F020FE644B5B69634A43F004035361D1
:100F0400614B1B69604A43F0020313615F4B1A791A
:100F14005F4BDA600A2001F00DFEFFF755FB5A4BD8
:100F24005B69594A43F020035361574B5B69564A46
:100F340043F004035361544B5B69534A43F0400349
:100F44005361962001F0F6FD4F4B1B694E4A43F066
:100F540040031361322006F0C9FE4020FFF760FC15
:100F6400494B5B69484A43F004035361464B1B6990
:100F7400454A43F002031361444B5A79444BDA6007
:100F84000A2001F0D7FDFFF71FFB3F4B1B693E4AC8
:100F940043F0200313613C4B5B693B4A43F040033D
:100FA4005361012006F0A2FE374B1B69364A43F019
:100FB40040031361322006F099FE4020FFF730FC15
:100FC400314B5B69304A43F0040353612E4B1B6978
:100FD4002D4A43F0020313612C4B9A792C4BDA60AF
:100FE4000A2001F0A7FDFFF7EFFA274B5B69264AB9
:100FF40043F020035361244B1B69234A43F0040349
:101004001361214B5B69204A43F040035361012083
:1010140006F06CFE1C4B1B691B4A43F04003136132
:10102400322006F063FE2020FFF7FAFB164B5B69C3
:10103400154A43F004035361134B1B69124A43F0EE
:1010440002031361114BDA79114BDA600A2001F0C3
:1010540071FDFFF7B9FA0A2001F06CFD0A4B5B69D8
:10106400094A43F040035361012006F03FFE064B5A
:101074001B69054A43F040031361322006F036FE33
:10108400FFF776FA00BF80BD0018014098010020E8
:101094000008014080B500AFFFF7AEFA01F082FF0F
:1010A4008020FFF78FFB0B4B5B690A4A43F0400338
:1010B4005361C82001F03EFD064B1B69054A43F00D
:1010C40040031361322006F011FEFFF72DFA00BF32
:1010D40080BD00BF0018014080B500AFFFF70CFBD6
:1010E40001F060FF8020FFF79BFB094B5B69084A16
:1010F40043F040035361642006F0F8FD044B1B6980
:10110400034A43F040031361FFF732FA00BF80BD86
:101114000018014080B582B000AFFFF76DFA01F00E
:1011240041FF0320FFF74EFB00237B6056E00023C2
:101134003B6035E001F036FF3A687B6813441B12CC
:10114400DBB201211846FFF793FB3B68DAB27B68F8
:10115400DBB21344DBB200211846FFF789FB01F030
:1011640007FF254B5B69244A43F020035361224B5C
:101174005B69214A43F080035361012001F0DAFCEA
:101184001E4B9A683B680433D1B21D4AD1541A4BA2
:101194001B69194A43F0800313613B6801333B60C8
:1011A4003B681F2BC6DD164BAC221A70144B002271
:1011B4005A70134B20229A70114BA422DA70242106
:1011C4000F4803F097FB00BF0E4B1B78002BFBD09E
:1011D4000C4B00221A707B6820337B607A680A4BC0
:1011E4001B689A42A3D301F0DDFEFFF79DF900BF0F
:1011F4000837BD4680BD00BF00180140000801400B
:10120400AC030020AD080020C805002080B582B0E2
:1012140000AFFFF771FA01F0C5FE0320FFF700FBF2
:1012240000237B6056E000233B6035E001F0BAFE0A
:101234003A687B6813441B12DBB201211846FFF79E
:1012440051FB3B68DAB27B68DBB21344DBB20021AA
:101254001846FFF747FB01F08BFE254B5B69244AD8
:1012640043F020035361224B5B69214A43F080031E
:101274005361012001F05EFC1E4B9A683B68043305
:10128400D1B21D4AD1541A4B1B69194A43F0800349
:1012940013613B6801333B603B681F2BC6DD164B73
:1012A400AC221A70144B00225A70134B20229A70ED
:1012B400114BA422DA7024210F4803F01BFB00BF5A
:1012C4000E4B1B78002BFBD00C4B00221A707B6852
:1012D40020337B607A680A4B1B689A42A3D301F0DF
:1012E40061FEFFF745F900BF0837BD4680BD00BF6A
:1012F4000018014000080140AC030020AD080020A4
:10130400C805002080B582B000AF00237B6062E096
:10131400404B1A687B6813441B0ADBB20121184650
:10132400FFF7A6FA00233B6039E03A4B1B68DAB2B8
:101334007B68DBB21344DAB23B68DBB21344DBB242
:1013440000211846FFF794FA334B1B69324A43F0E5
:1013540002031361304B5B692F4A43F0040353616A
:101364007A683B68134404332C4AD25C2C4BDA6011
:10137400FFF72AF9284B1B69274A43F0010313613D
:10138400012001F0D7FB244B5B69234A43F001039E
:1013940053610A2001F0CEFB3B6801333B603A689D
:1013A400204B1B689A42C0D31B4B5B691A4A43F01B
:1013B40040035361C82001F0BDFB174B1B69164A5B
:1013C40043F040031361052006F090FC7A68154B46
:1013D4001B6813447B607B681F2B99DD0D4B1B68D6
:1013E40020330C4A1360104BAC221A700E4B0022AF
:1013F4005A700D4B01229A700B4BA622DA700A4BDD
:1014040000221A710521084803F074FA00BF083756
:10141400BD4680BDC405002000180140980100208D
:1014240000080140CC050020AC03002080B582B048
:1014340000AF00237B6062E0404B1A687B68134472
:101444001B0ADBB201211846FFF74CFA00233B606C
:1014540039E03A4B1B68DAB27B68DBB21344DAB288
:101464003B68DBB21344DBB200211846FFF73AFABB
:10147400334B1B69324A43F002031361304B5B69FF
:101484002F4A43F0040353617A683B6813440433DE
:101494002C4AD25C2C4BDA60FFF796F8284B1B6978
:1014A400274A43F020031361012001F043FB244B3E
:1014B4005B69234A43F0200353610A2001F03AFB9D
:1014C4003B6801333B603A68204B1B689A42C0D3A7
:1014D4001B4B5B691A4A43F040035361C82001F077
:1014E40029FB174B1B69164A43F040031361042080
:1014F40006F0FCFB7A68154B1B6813447B607B6821
:101504001F2B99DD0D4B1B6820330C4A1360104BC5
:10151400AC221A700E4B00225A700D4B01229A70A5
:101524000B4BA622DA700A4B00221A7105210848D7
:1015340003F0E0F900BF0837BD4680BDC4050020B4
:10154400001801409801002000080140CC0500204B
:10155400AC03002080B582B000AFFFF74DF801F076
:1015640021FD0220FFF72EF900237B6084E0002395
:101574003B6060E001F016FD7B68DA0F13445B10FA
:1015840019463B68DA0F13445B100B441A46404B70
:101594001A60404B1B78022B0DD13F4B1B693E4A0E
:1015A40043F0100313613A4B1B681B0CDBB20021A0
:1015B4001846FFF75DF9364B1B681B0ADBB20121A5
:1015C4001846FFF755F9324B1B68DBB20021184669
:1015D400FFF74EF901F0CCFC2F4B5B692E4A43F028
:1015E400200353612C4B5B692B4A43F08003536106
:1015F400012001F09FFA294B9A683B680433D1B269
:10160400274AD154244B1B69234A43F02003136116
:10161400012001F08FFA214B9A683B680533D1B25F
:101624001F4AD1541C4B1B691B4A43F080031361AE
:101634003B6802333B603B68B3F5007F9ADB184B91
:10164400AC221A70164B02225A70154B00229A7063
:10165400134BA822DA704FF40171114803F04AF9D0
:1016640000BF104B1B78002BFBD00E4B00221A70CE
:101674007B6803F500737B607A680B4B1B689A42A6
:10168400FFF475AFFEF750FF00BF0837BD4680BDBD
:10169400C0050020DA0500200018014000080140C0
:1016A400AC030020AD080020C805002080B582B03E
:1016B40000AFFFF721F801F075FC0220FFF7B0F846
:1016C40000237B6072E000233B604EE001F06AFC83
:1016D4007B68DA0F13445B1019463B68DA0F134436
:1016E4005B100B441A46374B1A60364B1B681B0AB7
:1016F400DBB201211846FFF7F5F8324B1B68DBB269
:1017040000211846FFF7EEF801F032FC2E4B5B691E
:101714002D4A43F0200353612B4B5B692A4A43F063
:1017240080035361012001F005FA284B9A683B6855
:101734000433D1B2264AD154234B1B69224A43F0C5
:1017440020031361012001F0F5F9204B9A683B68EE
:101754000533D1B21E4AD1541B4B1B691A4A43F0BC
:10176400800313613B6802333B603B68B3F5007F41
:10177400ACDB174BAC221A70154B02225A70144B77
:1017840000229A70124BA822DA704FF401711048AB
:1017940003F0B0F800BF0F4B1B78002BFBD00D4BB0
:1017A40000221A707B6803F500737B607A680A4B29
:1017B4001B689A4287D3FEF7DBFE00BF0837BD469D
:1017C40080BD00BFC0050020001801400008014092
:1017D400AC030020AD080020C805002080B500AF90
:1017E400124B1B78012B02D100F0D0F808E00F4B0C
:1017F4001B78032B02D100F06BF901E000F01AF81A
:101804000B4BAC221A700A4B00225A70084B01226F
:101814009A70074BAA22DA70054B00221A7105212F
:10182400034803F067F800BF80BD00BFDA0500205D
:10183400AC03002080B584B000AF4F4B1B791A0471
:101844004D4B5B791B0213434B4A92791343DA0FD6
:1018540013445B107B600023FB601020FEF7B2FF93
:101864000023BB6043E0FB68DAB27B68DBB213445D
:10187400DBB200211846FEF7FBFF404B1B693F4AD1
:1018840043F0020313613D4B5B693C4A43F004039C
:101894005361BB680733384AD25C394BDA60FEF7D0
:1018A40093FE364B1B69354A43F020031361BB6832
:1018B4000833314AD25C324BDA60FEF785FE2F4B97
:1018C4001B692E4A43F001031361012001F032F930
:1018D4002A4B5B69294A43F001035361012001F05B
:1018E40029F9FB680133FB60BB680233BB60BA684B
:1018F400244B1B689A42B6D37B681B0ADBB20121D6
:101904001846FEF7B5FF204B1B78022B0CD11B4B5E
:101914001B691A4A43F0100313617B681B0CDBB28A
:1019240000211846FEF7A4FF144B5B69134A43F0E9
:1019340040035361012001F0FDF8104B1B690F4A6D
:1019440043F040031361082006F0D0F90B4B1B69E8
:101954000A4A43F004031361084B5B69074A43F0E6
:1019640002035361064B0022DA60FEF72DFE00BF2E
:101974001037BD4680BD00BF98010020001801400B
:1019840000080140CC050020DA05002080B584B0B1
:1019940000AF4B4B1B791A04494B5B791B02134371
:1019A400474A92791343DA0F13445B107B60002398
:1019B400FB601020FEF734FF0023BB604CE0FB68A3
:1019C400DAB27B68DBB21344DBB200211846FEF7BF
:1019D40089FF3C4B1B693B4A43F002031361394BBB
:1019E4005B69384A43F004035361BB680733344AE4
:1019F400D25C354BDA60FEF7E7FD324B1B69314AA6
:101A040043F020031361BB6808332D4AD25C2E4B8C
:101A1400DA60FEF7D9FD2B4B5B692A4A43F02003B9
:101A240053610A2001F086F8264B1B69254A43F0CE
:101A340020031361012001F07DF8224B5B69214AE8
:101A440043F020035361012001F074F8FB68013373
:101A5400FB60BB680233BB60BA681C4B1B689A42CC
:101A6400ADD37B681B0ADBB201211846FEF73AFFAF
:101A7400144B5B69134A43F040035361012001F0A6
:101A840059F8104B1B690F4A43F0400313610820B7
:101A940006F02CF90B4B1B690A4A43F0040313614B
:101AA400084B5B69074A43F002035361064B00226B
:101AB400DA60FEF789FD00BF1037BD4680BD00BF68
:101AC400980100200018014000080140CC050020C6
:101AD40080B584B000AF2F4B1B791A042D4B5B7972
:101AE4001B0213432B4A92791343DA0F13445B10FE
:101AF4007B600023FB6010214C2000F04FF8002392
:101B0400BB6027E0FB68DAB27B68DBB21344DBB26C
:101B140019460C2000F042F8BB6807331D4AD35C19
:101B240019462C2000F03AF8BB680833194AD35CF4
:101B340019463C2000F032F800217D2000F02EF8F8
:101B440000217C2000F02AF8FB680133FB60BB68AD
:101B54000233BB60BA68104B1B689A42D2D37B68CD
:101B64001B0ADBB219461C2000F018F8002164207F
:101B740000F014F800216C2000F010F8082006F0A2
:101B8400B5F800214C2000F009F800BF1037BD461D
:101B940080BD00BF98010020CC05002080B586B030
:101BA40000AF03460A46FB711346BB710023FB8258
:101BB400FB799BB29B00FB81BB799BB29B00BB81F1
:101BC40000233B6154E0012000F0B4FFFA893B6933
:101BD400C3F10A0342FA03F303F00103002B06D016
:101BE400294B1B69284A43F00203136105E0264B85
:101BF4005B69254A43F002035361BA893B69C3F127
:101C04000A0342FA03F303F00103002B06D01E4B30
:101C14001B691D4A43F00103136105E01A4B5B691C
:101C2400194A43F001035361174B1B69164A43F0E9
:101C340004031361012000F07DFF134B5B69124A1A
:101C440043F004035361114B9B6803F00103002B21
:101C54000BD03B69C3F10A03012202FA03F31AB25F
:101C6400B7F9163013431BB2FB823B6901333B6166
:101C74003B690A2BA7DDFB8ADB089BB2DBB2184663
:101C84001837BD4680BD00BF001801400008014060
:101C940080B500AF264B1B69254A43F0100313613E
:101CA400234B5B69224A43F00403536101F07AF940
:101CB4001F4B5B691E4A43F0010353611C4B5B6974
:101CC4001B4A43F0020353611A4B5B69194A43F000
:101CD40001035361184B5B69174A43F001035361D5
:101CE400164B5B69154A43F4807353610A2005F06F
:101CF400FDFF0F4B5B690E4A43F0100353610E4B1B
:101D04005B690D4A43F0010353610C4B1B690B4A99
:101D140043F4807313614FF4FA7005F0E7FF01F0A8
:101D240027F94FF4FA7000F005FF00BF80BD00BF33
:101D34000018014000080140000C0140001001405F
:101D440080B582B000AF0023FB80322000F0F2FEA9
:101D54000FE00A2000F0EEFEFB880133FB80FB88D5
:101D640040F6FF72934204D102F098FDFEF700FCA6
:101D740005E0044B9B6803F00103002BE9D008370E
:101D8400BD4680BD0008014080B500AFFFF780FF6D
:101D940008214C20FFF702FF00210C20FFF7FEFE74
:101DA40000216820FFF7FAFE00216C20FFF7F6FE01
:101DB40003461A46164B9A7108214C20FFF7EEFE93
:101DC40001210C20FFF7EAFE00216820FFF7E6FE60
:101DD40000216C20FFF7E2FE03461A460C4B5A71B1
:101DE40008214C20FFF7DAFE02210C20FFF7D6FE73
:101DF40000216820FFF7D2FE00216C20FFF7CEFE01
:101E040003461A46024B1A71FEF7B2FB00BF80BDAF
:101E1400AC03002080B500AFFFF73AFF04214C204B
:101E2400FFF7BCFE00216820FFF7B8FE00216C20FC
:101E3400FFF7B4FE03461A461A4B1A7104214C20CC
:101E4400FFF7ACFE00217A20FFF7A8FE00217E20D8
:101E5400FFF7A4FE03461A46124B5A7104214C2084
:101E6400FFF79CFE00216A20FFF798FE00216E20F8
:101E7400FFF794FE03461A460A4B9A7104214C203C
:101E8400FFF78CFE00217820FFF788FE00217C20DC
:101E9400FFF784FE03461A46024BDA71FEF768FB2D
:101EA40000BF80BDAC03002080B500AFFFF7F0FE9B
:101EB40040214C20FFF772FE274B1B7919462C203A
:101EC400FFF76CFE00216420FFF768FE00216C2000
:101ED400FFF764FEFFF734FF40214C20FFF75EFE5E
:101EE4001D4B5B7919462C20FFF758FE0021742006
:101EF400FFF754FE00217C20FFF750FEFFF720FF80
:101F040040214C20FFF74AFE134B9B7919462C20A5
:101F1400FFF744FE00216620FFF740FE00216E20FB
:101F2400FFF73CFEFFF70CFF20214C20FFF736FEA5
:101F3400094BDB7919462C20FFF730FE0021642081
:101F4400FFF72CFE00216C20FFF728FEFFF7F8FEB8
:101F5400FEF70EFB00BF80BD9801002080B500AFE6
:101F6400FFF796FE80214C20FFF718FE0021642025
:101F7400FFF714FE00216C20FFF710FEFFF7E0FED0
:101F8400FEF7F6FA00BF80BD90B583B000AFFFF74F
:101F94007FFE03214C20FFF701FE00237B6044E019
:101FA40000233B6023E03B68DAB27B68DBB2134476
:101FB400DBB219460C20FFF7F1FD3A687B68134445
:101FC4001B12DBB219461C20FFF7E8FD0021682034
:101FD400FFF7E4FD3B681C1D00216C20FFF7DEFDCC
:101FE40003461A46164B1A553B6801333B603B685F
:101FF4001F2BD8DD124BAC221A70114B00225A70E1
:102004000F4B20229A700E4BA422DA7024210C4824
:1020140002F070FC00BF0B4B1B78002BFBD0094B6C
:1020240000221A707B6820337B607A68064B1B6839
:102034009A42B5D3FEF79CFA00BF0C37BD4690BD5B
:10204400AC030020AD080020C805002080B582B094
:1020540000AF00237B604EE0364B1A687B68134464
:102064001B0ADBB201211846FEF73CFC00233B604F
:102074002DE0304B1B68DAB27B68DBB21344DAB272
:102084003B68DBB21344DBB219460C20FFF786FD34
:10209400284B1A687B6813441B0ADBB219461C20C0
:1020A400FFF77CFD7A683B6813440433224AD35C0F
:1020B40019462C20FFF772FD00216D20FFF76EFDFD
:1020C40000216C20FFF76AFD3B6801333B603A68EE
:1020D4001A4B1B689A42CCD300216420FFF75EFDA3
:1020E40000216C20FFF75AFDFFF72AFE7A68134B94
:1020F4001B6813447B607B681F2BADDD0D4B1B6895
:1021040020330C4A13600E4BAC221A700C4B002285
:102114005A700B4B01229A70094BA622DA70084BB5
:1021240000221A710521064802F0E4FB00BF0837BB
:10213400BD4680BDC405002098010020CC050020C8
:10214400AC03002090B583B000AFFFF7A1FD0221DE
:102154004C20FFF723FD00237B6056E000233B6007
:102164003AE07B68DA0F13445B1019463B68DA0FD8
:1021740013445B100B441A46294B1A60284B1B6806
:10218400DBB219460C20FFF709FD254B1B681B0A1F
:10219400DBB219461C20FFF701FD00216820FFF780
:1021A400FDFC3B681C1D00216C20FFF7F7FC034677
:1021B4001A461C4B1A5500217820FFF7EFFC3B68A8
:1021C4005C1D00217C20FFF7E9FC03461A46154BF1
:1021D4001A553B6802333B603B68B3F5007FC0DBB4
:1021E400104BAC221A700F4B02225A700D4B002276
:1021F4009A700C4BA822DA704FF40171094802F06E
:1022040079FB7B6803F500737B607A68064B1B6877
:102214009A42A3D3FEF7ACF900BF0C37BD4690BD7C
:10222400C0050020AC030020C805002080B500AF25
:102234000F4B5B690E4A43F0010353610D4B5B691D
:102244000C4A43F480735361642000F073FC084B20
:102254001B69074A43F001031361064B5B69054A96
:1022640043F480735361642000F064FC00BF80BDBC
:10227400000C01400010014080B500AF012000F0C7
:1022840059FC0A4B1B69094A43F0040313610120FA
:1022940000F050FC054B5B69044A43F004035361AE
:1022A400012000F047FC00BF80BD00BF000C0140CE
:1022B40080B500AF00F05CFE354B5B69344A43F0F7
:1022C40004035361642000F035FC314B1B69304A30
:1022D40043F004031361642000F02CFC2C4B1B69B5
:1022E4002B4A43F0010313612A4B5B69294A43F4E7
:1022F40080735361274B1B69264A43F02003136103
:10230400302002F03DFB0A2000F014FC224B9B68B5
:10231400DAB2224B9A711E4B1B691D4A43F001032A
:1023240013611C4B5B691B4A43F480735361194B63
:102334001B69184A43F020031361312002F020FB8B
:102344000A2000F0F7FB144B9B68DAB2134B5A7166
:102354000F4B1B690E4A43F0010313610D4B5B697C
:102364000C4A43F4807353610A4B1B69094A43F0D6
:1023740020031361322002F003FB0A2000F0DAFB91
:10238400054B9B68DAB2054B1A7100BF80BD00BFD4
:10239400000C01400010014000080140AC03002083
:1023A40080B500AF1D4B5B691C4A43F004035361C5
:1023B400FFF73CFF00F0DCFD302002F0E1FA174BA0
:1023C4001B69164A43F001031361154B5B69144AF8
:1023D40043F480735361124B1B69114A43F0200389
:1023E40013610A2000F0A6FB0E4B9B68DAB20E4B79
:1023F4009A710A4B1B69094A43F004031361FFF7FE
:102404003BFF0A2000F096FB064B9B68DAB2064BB2
:102414005A71054BFF221A7100BF80BD000C0140A8
:102424000010014000080140AC03002080B500AF5B
:1024340000F0B8FD434B1B69424A43F004031361A7
:10244400414B1B69404A43F0200313613D4B5B69D8
:102454003C4A43F0010353613B4B1B693A4A43F442
:10246400807313614FF4487005F040FC374BDB79FF
:1024740003F00103002B18D14FF4703002F080FAFE
:102484000A2000F057FB304B5B692F4A43F02003CE
:102494005361782000F04EFB2B4B1B692A4A43F012
:1024A40020031361022005F021FC284BDB7903F0A3
:1024B4000203002B18D14FF4404002F061FA0A20C5
:1024C40000F038FB204B5B691F4A43F02003536143
:1024D400782000F02FFB1C4B1B691B4A43F02003A0
:1024E4001361022005F002FC184BDB7903F00403AE
:1024F400002B18D14FF4A03002F042FA0A2000F069
:1025040019FB114B5B69104A43F020035361782097
:1025140000F010FB0C4B1B690B4A43F020031361C2
:10252400022005F0E3FB074B1B69064A43F0010355
:102534001361054B5B69044A43F48073536100BF24
:1025440080BD00BF000C0140001001409801002034
:1025540080B500AF384B5B69374A43F004035361DD
:10256400FFF764FE00F01EFD344B1B69334A43F051
:1025740020031361304B5B692F4A43F0010353611D
:102584002E4B1B692D4A43F4807313614FF448703A
:1025940005F0ACFB2A4BDB7903F00103002B18D1C7
:1025A4004FF4703002F0ECF90A2000F0C3FA234B28
:1025B4005B69224A43F020035361782000F0BAFAA1
:1025C4001E4B1B691D4A43F020031361022005F0D2
:1025D4008DFB1B4BDB7903F00203002B18D14FF466
:1025E400404002F0CDF90A2000F0A4FA134B5B69D5
:1025F400124A43F020035361782000F09BFA0F4BFA
:102604001B690E4A43F020031361022005F06EFBA0
:10261400094B1B69084A43F001031361074B5B69CB
:10262400064A43F480735361034B1B69024A43F027
:102634000403136100BF80BD000C01400010014081
:102644009801002080B500AF1F4B1B691E4A43F060
:10265400040313611D4B1B691C4A43F020031361DF
:10266400194B5B69184A43F001035361174B1B690B
:10267400164A43F4807313614FF4804002F080F9EA
:102684004FF4487005F032FB104B5B690F4A43F07E
:10269400200353610F2005F029FB0C4B1B690B4AE7
:1026A40043F020031361642005F020FB064B1B69F3
:1026B400054A43F001031361044B5B69034A43F485
:1026C4008073536100BF80BD000C014000100140C5
:1026D40080B500AF224B5B69214A43F00403536188
:1026E400204B1B691F4A43F0200313611C4B5B6999
:1026F4001B4A43F0010353611A4B1B69194A43F403
:10270400807313614FF4804002F03AF94FF448703B
:1027140005F0ECFA134B5B69124A43F02003536152
:102724000F2005F0E3FA0F4B1B690E4A43F0200318
:102734001361642005F0DAFA094B1B69084A43F077
:1027440001031361074B5B69064A43F480735361C9
:10275400034B1B69024A43F00403136100BF80BDAD
:10276400000C01400010014080B582B000AF00F0C1
:10277400FFFB354B5B69344A43F004035361642027
:1027840000F0D8F9304B1B692F4A43F0040313615E
:10279400642000F0CFF92C4B1B692B4A43F0010352
:1027A40013612A4B5B69294A43F480735361274BB5
:1027B4001B69264A43F02003136100237B6038E041
:1027C40000233B6014E07A683B68134443F44033CD
:1027D400184602F0D5F80A2000F0ACF91C4B9A68B0
:1027E4003B680433D1B21B4AD1543B6801333B608C
:1027F4003B68B3F5007FE6DB164BAC221A70154B31
:1028040002225A70134B00229A70124BA822DA70DB
:102814004FF401710F4802F06DF800BF0E4B1B78A6
:10282400002BFBD00C4B00221A707B6803F500735D
:102834007B607A68094B1B689A42C1D300BF00BF12
:102844000837BD4680BD00BF000C014000100140A8
:1028540000080140AC030020AD080020C80500209A
:1028640080B582B000AF394B5B69384A43F004034A
:102874005361FFF7DBFC00F07BFB354B1B69344AEB
:1028840043F020031361314B5B69304A43F0010389
:1028940053612F4B5B692E4A43F480735361642068
:1028A40000F048F9294B1B69284A43F001031361DE
:1028B400274B5B69264A43F480735361642000F01C
:1028C40039F94FF4403002F05BF800237B6032E0CA
:1028D40000233B600EE00A2000F02CF91D4B9A689F
:1028E4003B680433D1B21C4AD154FFF7C5FC3B68A2
:1028F40001333B603B68B3F5007FECDB164BAC2245
:102904001A70154B02225A70134B00229A70124B04
:10291400A822DA704FF401710F4801F0EBFF00BFF9
:102924000E4B1B78002BFBD00C4B00221A707B68DB
:1029340003F500737B607A68094B1B689A42C7D31E
:1029440000BF00BF0837BD4680BD00BF000C01407A
:102954000010014000080140AC030020AD08002035
:10296400C805002080B582B000AF2F4B1B692E4AEA
:1029740043F0040313612D4B1B692C4A43F02003DD
:10298400136100237B602EE07B680733284AD35C05
:10299400FF2B24D07A68274B1B68134443F460331D
:1029A400184601F0EDFF7B680733214AD25C224BC5
:1029B400DA600A2000F0BEF81C4B5B691B4A43F046
:1029C40020035361782000F0B5F8184B1B69174AAF
:1029D40043F020031361022005F088F900E000BFF2
:1029E4007B6801337B607B68B3F5007FCCDB114BE4
:1029F4001B6803F500730F4A1360104BAC221A7066
:102A04000E4B00225A700D4B01229A700B4BAA22D6
:102A1400DA700A4B00221A710521084801F06AFF96
:102A240000BF0837BD4680BD000C014000100140C6
:102A340098010020D005002000080140AC030020CC
:102A440080B582B000AF4FF4603001F099FF294B9C
:102A54005B69284A43F004035361274B1B69264AE8
:102A640043F02003136100237B6028E07B68073375
:102A7400224AD35CFF2B02D1FFF7FEFB1CE07B68EC
:102A840007331E4AD25C1E4BDA600A2000F052F86B
:102A9400194B5B69184A43F020035361782000F016
:102AA40049F8154B1B69144A43F0200313610220B3
:102AB40005F01CF9FFF7E0FB7B6801337B607B6862
:102AC400B3F5007FD2DB0F4BAC221A700D4B002202
:102AD4005A700C4B01229A700A4BAA22DA70094BE5
:102AE40000221A710521074801F004FF00BF0837CE
:102AF400BD4680BD000C014000100140980100203B
:102B040000080140AC03002080B400AF074BDB6930
:102B1400064A43F00403D361054B47229A62044BEF
:102B240008221A6000BFBD4680BC704700100240F6
:102B34000008004080B483B000AF78600D4A7B6821
:102B4400D3620C4B00225A620A4B01221A6000BF66
:102B5400084B1B6903F00103002BF9D0054B1B69DB
:102B6400044A23F00103136100BF0C37BD4680BC47
:102B7400704700BF0008004080B483B000AF0E4B24
:102B84009B690D4A43F0100393610B4B9B6903F05F
:102B940010037B607B68084B9B69074A43F004037E
:102BA4009361054B9B6903F004033B603B6800BFE2
:102BB4000C37BD4680BC70470010024080B400AFA3
:102BC400984B9B69974A43F008039361954B9B6923
:102BD400944A43F010039361924B9B69914A43F0EA
:102BE400200393618F4B9B698E4A43F040039361AA
:102BF4008D4B1B688C4A43F4003313608A4B1B686B
:102C0400894A23F480331360874B1B68864A23F474
:102C140040231360844B1B68834A43F440131360BE
:102C2400814B1B68804A23F4400313607F4B1B686D
:102C34007E4A43F0030313607C4B1B687B4A23F0FA
:102C44000C031360784B1B68774A43F0407313609E
:102C5400754B1B68744A23F040631360734B1B6805
:102C6400724A43F440731360704B1B686F4A23F439
:102C7400406313606E4B1B686D4A43F0030313609B
:102C84006B4B1B686A4A23F00C031360684B1B6888
:102C9400674A43F030031360654B1B68644A23F0B2
:102CA400C0031360624B1B68614A43F440731360B2
:102CB4005F4B1B685E4A23F4406313605C4B1B68E4
:102CC4005B4A43F440531360594B1B68584A23F43E
:102CD40040431360564B1B68554A43F4403313601A
:102CE400534B1B68524A23F440231360504B1B6818
:102CF4004F4A43F4401313604D4B1B684C4A23F472
:102D0400400313604A4B1B68494A43F04073136005
:102D1400474B1B68464A23F040631360444B1B68CF
:102D2400434A43F040531360414B1B68404A23F02D
:102D3400404313603E4B5B683D4A43F003035360DA
:102D44003B4B5B683A4A23F00C035360384B5B6897
:102D5400374A43F030035360354B5B68344A23F001
:102D6400C0035360324B5B68314A43F44073536091
:102D74002F4B5B682E4A23F4406353602C4B5B68F3
:102D84002B4A43F440535360294B5B68284A23F48D
:102D940040435360264B5B68254A43F440335360F9
:102DA400234B5B68224A23F440235360204B5B6827
:102DB4001F4A43F4401353601D4B5B681C4A23F4C1
:102DC400400353601A4B5B68194A43F040735360E5
:102DD400174B5B68164A23F040635360144B5B68DF
:102DE400134A43F040535360114B5B68104A23F07D
:102DF400404353600F4B5B680E4A43F00303536038
:102E04000C4B5B680B4A23F00C035360094B5B6863
:102E1400084A43F030035360064B5B68054A23F0CD
:102E2400C00309E00010024000100140000C014002
:102E3400001801400014014053604A4B5B68494A42
:102E440043F440735360474B5B68464A23F4406342
:102E54005360444B5B68434A43F440535360414BD3
:102E64005B68404A23F4404353603E4B5B683D4AF1
:102E740043F4403353603B4B5B683A4A23F44023AA
:102E84005360384B5B68374A43F440135360354B07
:102E94005B68344A23F440035360324B5B68314A25
:102EA40043F0407353602F4B5B682E4A23F040631A
:102EB40053602C4B5B682B4A43F040535360294BBF
:102EC4005B68284A23F040435360274B1B68264A1B
:102ED40043F440531360244B1B68234A23F44043B8
:102EE4001360204B1B681F4A43F4403313601D4B8F
:102EF4001B681C4A23F4402313601C4B5B681B4A69
:102F040043F003035360194B5B68184A23F00C0326
:102F14005360164B1B68154A43F040531360134B20
:102F24001B68124A23F0404313600F4B5B680E4A40
:102F340043F4403353600C4B5B680B4A23F4402347
:102F44005360094B1B68084A43F440131360064B53
:102F54001B68054A23F44003136000BFBD4680BCD0
:102F6400704700BF00140140000C014000100140F4
:102F740080B400AF084B4FF088321A60074B4FF013
:102F840088321A60064B5B69054A43F010035361AB
:102F940000BFBD4680BC70470008014000140140DA
:102FA4000010014080B400AF084B4FF033321A6078
:102FB400074B4FF033321A60064B1B69054A43F046
:102FC4001003136100BFBD4680BC70470008014078
:102FD400001401400010014080B483B000AF0346E8
:102FE400FB71554B9B69544A43F008039361534B5F
:102FF4005B68524A43F44C535360504B5B684F4AEE
:1030040043F44C4353604C4BDB694B4A43F4800319
:10301400D3614B4B1B684A4A43F400431360484B4B
:103024001B68474A23F400431360454BDB68444A5A
:1030340023F00103D360424B1B68414A23F0400351
:1030440013603F4B1B683E4A23F0800313603C4BE4
:103054001B683B4A23F001031360394B5B6823F080
:103064003F03374A43F024035360FB79002B12D10A
:10307400334B1B6A23F03F03314A43F025031362A9
:103084002F4BDB6923F44F4323F0FF032C4A43F017
:10309400B403D36129E0FB79012B14D1284B1B6ABB
:1030A40023F03F03264A43F00B031362244BDB69EE
:1030B40023F44F4323F0FF03214A43F4004343F036
:1030C4001E03D36111E01E4B1B6A23F03F031C4A0D
:1030D40043F0250313621A4BDB6923F44F4323F0B7
:1030E400FF03174A43F0B403D361154B9B6823F4E1
:1030F400434323F0FF03124A43F480439360104B8D
:103104001B680F4A23F01A0313600D4B1B680C4A0B
:1031140043F0010313600A4B1B68094A43F48063BC
:103124001360074BDB68064A23F0FE03D36000BF3D
:103134000C37BD4680BC704700100240000C0140B3
:103144000058004080B485B000AF3B600346FB717B
:103154000B46BB801346BB714FF6FF73FB81634B79
:103164001B68624A23F400631360604B1B685F4A68
:1031740043F4806313605D4B1B685C4A43F48073C3
:1031840013604FF6FF73FB8102E0FB89013BFB8177
:10319400564B5B6903F00103002B02D1FB89002B22
:1031A400F3D1FB89002B01D101239AE04F4B5B69DA
:1031B4004E4B1B6923F0FF02FB794C4913430B610F
:1031C4004FF6FF73FB8102E0FB89013BFB81474B18
:1031D4005B6903F00203002B02D1FB89002BF3D1BE
:1031E400FB89002B01D101237BE0404B5B693F4B02
:1031F4009B69BB79022B20D13C4B1B6923F0FF0355
:10320400BA88120A92B2D2B21146384A0B431361F9
:103214004FF6FF73FB8102E0FB89013BFB81334BDB
:103224005B6903F08003002B02D1FB89002BF3D1EF
:10323400FB89002B01D1012353E02C4B1B6923F0A4
:10324400FF03BA88D2B21146284A0B4313614FF6E2
:10325400FF73FB8102E0FB89013BFB81234B5B692C
:1032640003F08003002B02D1FB89002BF3D1FB89EF
:10327400002B01D1012334E00023BB6026E01B4B6B
:103284001B6923F0FF03B98BBA680A4411463A68F4
:103294000A4412781146154A0B4313614FF6FF7323
:1032A400FB8102E0FB89013BFB81104B5B6903F06E
:1032B4008003002B02D1FB89002BF3D1FB89002B67
:1032C40001D101230DE0BB680133BB603B8BBA68BD
:1032D4009A42D4DB054B1B68044A43F40073136021
:1032E400002318461437BD4680BC70470058004080
:1032F40080B485B000AF3B600346FB710B46BB71E5
:103304001346BB804FF6FF73FB81934B1B68924AB5
:1033140023F400631360904B1B688F4A43F480636B
:1033240013608D4B1B688C4A43F48073136002E076
:10333400FB89013BFB81884B5B6903F00103002B94
:1033440002D1FB89002BF3D1FB89002B01D101238E
:10335400FCE0814B5B69804B1B6923F0FF02FB7926
:103364007D4913430B614FF6FF73FB8102E0FB8938
:10337400013BFB81784B5B6903F00203002B02D114
:10338400FB89002BF3D1FB89002B01D10123DDE064
:10339400714B5B69704B9B69BB79022B20D16E4BDF
:1033A4001B6923F0FF03BA88120A92B2D2B2114603
:1033B400694A0B4313614FF6FF73BB8102E0BB897B
:1033C400013BBB81644B5B6903F08003002B02D19A
:1033D400BB89002BF3D1BB89002B01D10123B5E0BC
:1033E4005D4B1B6923F0FF03BA88D2B211465A4AD7
:1033F4000B4313614FF6FF73FB8102E0FB89013B32
:10340400FB81554B5B6903F08003002B02D1FB89E0
:10341400002BF3D1FB89002B01D1012396E04E4B05
:103424001B684D4A43F4807313604FF6FF73FB81AE
:1034340002E0FB89013BFB81474B5B6903F001031D
:10344400002B02D1FB89002BF3D1FB89002B01D186
:1034540001237BE0404B5B693F4B1B6923F0FF0377
:10346400FA7942F00102D2B211463B4A0B4313618E
:103474004FF6FF73FB8102E0FB89013BFB81364B76
:103484005B6903F00203002B02D1FB89002BF3D10B
:10349400FB89002B01D1012358E02F4B5B692E4B94
:1034A4009B690023BB604CE0BB695A1EBB689A420F
:1034B4001CD94FF6FF73FB8102E0FB89013BFB81C2
:1034C400254B5B6903F04003002B02D1FB89002BE1
:1034D400F3D1FB89002B01D1012337E01E4B19697D
:1034E400BB683A681344CAB21A7027E01A4B1B68C7
:1034F400194A23F480631360174B1B68164A43F47C
:10350400007313604FF6FF73FB8102E0FB89013BFC
:10351400FB81114B5B6903F04003002B02D1FB8953
:10352400002BF3D1FB89002B01D101230EE00A4BC0
:103534001969BB683A681344CAB21A70BB6801338C
:10354400BB60BB68BA699A42AED8002318461437E8
:10355400BD4680BC704700BF0058004080B500AF36
:1035640004F062FB00F06CF8FFF728FB2F4B5B695B
:103574002E4A43F0200353610A2004F0B7FB2B4B7F
:103584001B692A4A43F020031361642004F0AEFB54
:10359400FFF7F2FA09F042F9FFF7B6FA0020FFF755
:1035A4001BFD062004F098F900F0B6F8FFF7FAFCCA
:1035B400002001F0E5F91E4B5B691D4A43F08003CE
:1035C40053611A4B1B69194A43F001031361184BE9
:1035D4005B69174A43F480735361154B1B69144AA2
:1035E40043F020031361114B1B69104A43F0040399
:1035F4001361104B5B690F4A43F0100353610E4B88
:103604005B690D4A43F010035361084B1B69074A79
:1036140043F008031361094B1B78002BFBD000F027
:10362400FFF8064B00221A70F5E700BF000C0140BA
:10363400001001400018014000140140AC080020B3
:1036440080B59CB000AF07F138033822002118463A
:1036540009F00EFE07F1240300221A605A609A60F2
:10366400DA601A613B1D20220021184609F000FE91
:103674000123BB634FF480333B6400237B64012349
:10368400FB640023FB630223BB654FF48033FB65BB
:103694004FF4E0133B6600237B6607F138031846BA
:1036A40005F07EFC0346002B01D000F02FF80F2319
:1036B4007B620223BB620023FB624FF480633B63A3
:1036C40000237B6307F124030221184605F07EFFE3
:1036D4000346002B01D000F019F812237B604FF44D
:1036E4000043FB6000233B623B1D184606F092F941
:1036F4000346002B01D000F009F8034B01221A60A5
:1037040000BF7037BD4680BD7000424280B400AF38
:1037140072B600BFFEE7000080B400AF184B9B698F
:10372400174A43F004039361164B5B68154A43F050
:1037340030035360134B5B68124A23F0C003536099
:10374400104B5B680F4A43F0800353600C4B9B693A
:103754000B4A43F4804393610B4B0822DA600A4B13
:1037640000221A61084B41F64C529A60064BDB6802
:10377400054A43F40053D36000BFBD4680BC704784
:1037840000100240000801400038014080B483B0BA
:1037940000AF0346FB71084AFB79536000BF064B38
:1037A4001B6803F08003002BF9D000BF00BF0C3767
:1037B400BD4680BC704700BF0038014080B582B070
:1037C40000AF0346FB80FB8840F6F612934221D8F3
:1037D400DC20FFF7DBFFDC20FFF7D8FFFB880F4A74
:1037E400A2FB03235B099BB2DBB21846FFF7CEFFB3
:1037F400FB880A4AA2FB03125209642101FB02F26C
:103804009B1A9BB2DBB21846FFF7C0FFCD20FFF72F
:10381400BDFF00E000BF0837BD4680BD1F85EB51EA
:1038240080B584B000AFB64B1B78DBB2AC2B03D0B1
:1038340001F034F801F025B8B14BDB78DBB2A03BE2
:103844005A2B01F2178001A252F823F0113F00080D
:103854007D3F000805400008AF4000082D410008E6
:103864009F4100085D420008934200080543000898
:103874007F43000853440008794800087948000849
:103884007948000879480008794800087544000818
:10389400A744000859450008FB450008674600088E
:1038A4006D46000879480008154700087948000863
:1038B40079480008794800087948000879480008E0
:1038C40079480008794800087948000879480008D0
:1038D40079480008794800087948000879480008C0
:1038E40079480008794800087948000879480008B0
:1038F40079480008794800087948000879480008A0
:10390400794800087948000879480008C539000852
:1039140079480008CD39000879480008794800083A
:10392400794800087948000879480008794800086F
:1039340079480008BD39000879480008794800082A
:10394400794800087948000879480008BD4700080C
:10395400FD470008534800087948000879480008E2
:10396400794800087948000879480008794800082F
:10397400794800087948000879480008794800081F
:103984007948000879480008794800082F3A000867
:10399400253B0008AD3B0008213D0008794800089C
:1039A40079480008853D000879480008733E0008FE
:1039B40079480008CB3E000800F086FF00F061BFA4
:1039C40000F0F6FF00F05DBF4D4B1B79DBB29BB2FC
:1039D4001A46920013441A4691001A460B461344A1
:1039E4009B009AB2464B5B79DBB29BB21344FB81DA
:1039F400FB891846FFF7E2FE4FF47A7004F076F97B
:103A0400404BAC221A703F4B00225A703D4B0122AE
:103A14009A703C4BD222DA703A4B00221A7105217B
:103A2400384800F067FF00F02CBFFFF7A1FA364BCF
:103A34005B69354A43F020035361344B1B69334AB5
:103A440043F004031361314B1B69304A43F0010313
:103A540013612D4B5B692C4A43F480735361284BEB
:103A64005B79DBB21A04264B9B79DBB21B0213434E
:103A7400234AD279D2B213431A46254B1A60204BFB
:103A84001B79DAB2234B1A701D4B1B7ADBB21B0273
:103A94001AB21B4B5B7ADBB21BB213431BB29AB252
:103AA4001D4B1A80164B1B7BDBB29BB21A4692004D
:103AB40013441A4691001A460B4613449B009AB2CB
:103AC4000F4B5B7BDBB29BB213449AB2134B1A804D
:103AD400124B1B88002B08D0104B1B881846FFF78D
:103AE4006DFE4FF47A7004F001F901F01DF8064BF5
:103AF4001B69054A43F02003136100F0C2BE00BFF6
:103B040098010020AC03002000100140000C01408B
:103B1400C8050020DA050020D8050020DC050020B7
:103B2400894B1B69884A43F004031361864B1B6964
:103B3400854A43F001031361844B5B69834A43F470
:103B440080735361814B1B69804A43F020031361E6
:103B54007F4B1B79DAB27F4B1A707D4B5B79DBB2FA
:103B64009BB21A46920013441A4691001A460B4619
:103B740013449B009AB2764B9B79DBB29BB21344FD
:103B84009AB2754B1A80744B1B88002B08D0724B69
:103B94001B881846FFF712FE4FF47A7004F0A6F85B
:103BA40002F006FB00F06DBE684B1B69674A43F0E8
:103BB40020031361644B1B69634A43F001031361DF
:103BC400624B5B69614A43F4807353615E4B1B69CA
:103BD4005D4A43F004031361604B1B695F4A43F47D
:103BE400804313615E4B1B695D4A43F48063136138
:103BF4005C4B00221A605C4B00221A60FFF7D2F97A
:103C0400534B5B79DBB21A04514B9B79DBB21B0239
:103C140013434F4AD279D2B213431A46534B1A6014
:103C24004B4B1B7BDBB21B02494A527BD2B2134380
:103C34001A464F4B1A60464B1B79DAB2454B1A7041
:103C4400434B9B7BDBB29BB21A46920013441A4649
:103C540091001A460B4613449B009AB23C4BDB7B03
:103C6400DBB29BB213449AB23B4B1A803A4B1B888B
:103C7400002B08D0384B1B881846FFF79FFD4FF4E4
:103C84007A7004F033F8334B1B78072B13D0314B85
:103C94001B78112B0FD02F4B1B78122B0BD02D4BD5
:103CA4001B781B2B07D02B4B1B78252B03D0294BC0
:103CB4001B782F2B0FD1244B5B69234A43F001035C
:103CC4005361224B1B69214A43F4807313614FF4FF
:103CD400487004F00BF81E4B1B7ADBB21B021AB2BD
:103CE4001B4B5B7ADBB21BB213431BB29AB2214B60
:103CF4001A80214BAC221A701F4B00225A701E4BA3
:103D040001229A701C4BF322DA701B4B00221A71A9
:103D14000521194800F0EEFD00F0B3BD0C4B9B7972
:103D2400DBB21A460A4B5B79DBB21B021A43084B1F
:103D34001B79DBB21B0413431A46104B1A6001F0C3
:103D440049FA00F09EBD00BF000C01400010014084
:103D540098010020DA050020DC050020001801404D
:103D640000140140D0050020D4050020C80500201F
:103D7400CC050020D8050020AC030020C00500209D
:103D8400FFF710F9A84B1B69A74A43F020031361FE
:103D9400A64B1B69A54A43F001031361A24B5B695F
:103DA400A14A43F480735361A04B1B699F4A43F0BB
:103DB400040313619E4B00221A609E4B00221A607A
:103DC400FFF7F0F89C4B5B79DBB21A049A4B9B79B2
:103DD400DBB21B021343984AD279D2B213431A4678
:103DE400964B1A60944B9B7ADBB21B02924AD27AAE
:103DF400D2B213431A46924B1A608F4B1B79DAB234
:103E0400904B1A708C4B1B7BDBB21B021AB28A4B91
:103E14005B7BDBB21BB213431BB29AB28A4B1A8090
:103E2400854B9B7BDBB29BB21A46920013441A4625
:103E340091001A460B4613449B009AB27E4BDB7BDF
:103E4400DBB29BB213449AB2804B1A807F4B1B881F
:103E5400002B08D07D4B1B881846FFF7AFFC4FF4AE
:103E64007A7003F043FF02F0D1FD00F00ABD724BFB
:103E74001B79DAB2734B1A706F4B5B79DBB29BB26E
:103E84001A46920013441A4691001A460B461344EC
:103E94009B009AB2684B9B79DBB29BB213449AB2F3
:103EA4006A4B1A80694B1B88002B08D0674B1B8810
:103EB4001846FFF783FC4FF47A7003F017FF03F002
:103EC40047F900F0DEBC594B1B69584A43F0010323
:103ED4001361554B5B69544A43F480735361524BED
:103EE4005B69514A43F0800353614F4B1B694E4A4F
:103EF40043F0200313614D4B1B694C4A43F0040308
:103F040013610020FFF75AFC00F0BBBC4A4B1B793D
:103F1400DAB24C4B1A7040F2C440FFF74FFC4FF436
:103F24007A7003F0E3FE474B1B78032B02D1FDF7B5
:103F34002BFF0FE0434B1B78072B02D1FEF7B8F998
:103F440008E0404B1B78082B02D1FEF729FA01E068
:103F5400FCF7FCFC3E4BAC221A703D4B00225A701D
:103F64003B4B03229A703A4BA022DA70072138485F
:103F740000F0C0FC00F085BC2F4B1B79DAB2314B4A
:103F84001A7040F2C440FFF719FC4FF47A7003F042
:103F9400ADFE2C4B1B78012B02D1FCF713FE1DE068
:103FA400284B1B78032B02D1FDF734FF16E0254B79
:103FB4001B78072B03D0234B1B78082B0CD1244BE5
:103FC40000221A71224B00225A71214B00229A714D
:103FD4001F4B0022DA7101E0FCF750FD1C4BAC22B0
:103FE4001A701B4B00225A70194B04229A70184BFA
:103FF400A122DA700821164800F07CFC00F041BCD4
:104004000D4B1B7ADAB20F4B1A7040F2C440FFF723
:10401400D5FB4FF47A7003F069FE0A4B1B78012B31
:1040240018D1FCF75BFF2CE000100140000C0140AC
:10403400D0050020D405002098010020C8050020E8
:10404400CC050020DA050020D8050020DC0500207E
:10405400AC030020A24B1B78032B02D1FDF724FFF5
:104064000FE09F4B1B78072B02D1FEF7DFF908E026
:104074009B4B1B78082B02D1FEF76AFA01E0FCF790
:1040840045FE984BAC221A70964B00225A70954B01
:1040940001229A70934BA222DA70924B00221A7179
:1040A4000521904800F026FCEBE38F4B1B79DAB234
:1040B4008B4B1A7040F2C440FFF780FB4FF47A70C8
:1040C40003F014FE864B1B78012B02D1FDF704F894
:1040D40016E0834B1B78032B02D1FDF73FFF0FE063
:1040E4007F4B1B78072B02D1FEF7ACFA08E07C4B20
:1040F4001B78082B02D1FEF7EBFA01E0FCF7CAFFAC
:10410400784BAC221A70774B00225A70754B0122FF
:104114009A70744BA322DA70724BA1221A71052192
:10412400704800F0E7FBACE36F4B1B79DBB21A4637
:104134006D4B5B79DBB21B021A436B4B9B79DBB291
:104144001B0413431A46694B1A60674BDB79DAB2D6
:10415400634B1A7040F2C440FFF730FB4FF47A709F
:1041640003F0C4FD5E4B1B78012B02D1FDF74EF822
:1041740087E35B4B1B78032B02D1FDF705FF80E33C
:10418400574B1B78072B00F07783554B1B78082B74
:1041940000F07283FCF7BEFF73E3554B00221A60F4
:1041A400514B1B79DBB21A464F4B5B79DBB21B02D6
:1041B4001A434D4B9B79DBB21B0413431A464B4BFA
:1041C4001A60494BDB79DBB21A464A4B1A60464BFC
:1041D4001B7ADAB2424B1A7040F2C440FFF7EEFA8F
:1041E4004FF47A7003F082FD3D4B1B78012B05D10F
:1041F400FCF782FA1120FCF713FB19E0384B1B780B
:10420400032B06D1FDF744FD11214C20FDF7C6FC1C
:104214000EE0334B1B78072B00F03083304B1B78B8
:10422400082B00F02B83FCF7E7F91120FCF7CAFAFE
:104234002C4BAC221A702B4B00225A70294B0122B2
:104244009A70284BA622DA70264B00221A71052197
:10425400244800F04FFB14E3214B1B78012B02D1BF
:10426400FDF7E4F80DE31E4B1B78032B02D1FDF799
:10427400EDFE06E31A4B1B78072B00F00183184B65
:104284001B78082B00F0FC82FDF73CF8F9E20020D3
:10429400FFF794FA124B1B78012B02D1FCF768F953
:1042A400EFE20F4B1B78032B02D1FCF761F9E8E234
:1042B4000B4B1B78072B03D0094B1B78082B0CD115
:1042C4000D4B1B690C4A43F0010313610B4B5B69F3
:1042D4000A4A43F480735361D3E2FCF725F9D0E230
:1042E400DA050020AC03002098010020C805002056
:1042F400C4050020CC050020000C01400010014042
:104304008A4B1B79DBB21A46884B5B79DBB21B0202
:104314001A43864B9B79DBB21B0413431A46844B26
:104324001A60824BDB79DAB2824B1A7040F2C440D5
:10433400FFF744FA4FF47A7003F0D8FC7D4B1B78F6
:10434400012B02D1FDF7B2F99BE27A4B1B78032BC8
:1043540002D1FDF7F7FE94E2764B1B78072B02D1CE
:10436400FEF702FA8DE2734B1B78082B02D1FEF79D
:1043740077FA86E2FDF7EEF883E26C4B1B79DBB249
:104384001A466A4B5B79DBB21B0213435B001A4685
:10439400694B1A60654B9B79DAB2664B1A7040F22E
:1043A400C440FFF70BFA4FF47A7003F09FFC634BA1
:1043B40000221A60624B00221A605E4B1B78012BAC
:1043C40002D1FCF799F92CE05A4B1B78032B02D14C
:1043D400FDF75EFC25E0574B1B78072B03D0554BAC
:1043E4001B78082B1BD1534B1B78082B01D1FDF7ED
:1043F4001DFF514B1B685B084F4A1360514B5B69AF
:10440400504A43F0010353614F4B1B694E4A43F436
:10441400807313614FF4487003F068FC01E0FCF70B
:10442400EBF8FEF7BFFD494BAC221A70474B002254
:104434005A70464B01229A70444BAA22DA70434BBD
:1044440000221A710521414800F054FA19E2394B4F
:104454001B78072B02D1FEF785FA12E2354B1B7845
:10446400082B02D1FEF7ECFA0BE2FDF7B7F908E2EC
:104474002E4B1B79DBB21A462C4B5B79DBB21B0249
:104484001A432A4B9B79DBB21B041A43274BDB7973
:10449400DBB21B0613431A46254B1A6002F026FFB3
:1044A400EFE100237B7200233B720023FB71254B59
:1044B4005B69244A43F4805353619F2003F014FB47
:1044C400002003F011FB0346FB71002003F00CFBFA
:1044D40003467B72002003F007FB03463B7200BFD8
:1044E4001B4B9B6803F08003002BF9D1154B1B6910
:1044F400144A43F480531361144BAC221A70134BC7
:1045040000225A70114B03229A70104BB122DA70B8
:104514000E4A7B7A13710D4A3B7A53710B4AFB792D
:1045240093710721094800F0E5F9AAE198010020F8
:10453400C8050020DA050020CC050020D0050020A5
:10454400D4050020000C014000100140AC03002001
:10455400003800400023FB720023BB72A04B5B6950
:104564009F4A43F480535361052003F0BDFA0020B1
:1045740003F0BAFA0346FB7200BF9A4B9B6803F040
:104584008003002BF9D1964B1B69954A43F4805361
:104594001361934B5B69924A43F480535361352012
:1045A40003F0A2FA002003F09FFA0346BB7200BF97
:1045B4008C4B9B6803F08003002BF9D1884B1B695B
:1045C400874A43F480531361874BAC221A70864B9D
:1045D40000225A70844B02229A70834BB222DA7002
:1045E400814AFB7A1371804ABB7A537106217E4853
:1045F40000F080F945E17D4B1B79DBB21A467B4B19
:104604005B79DBB21B021A43784B9B79DBB21B0448
:104614001A43764BDB79DBB21B0613431A46744B01
:104624001A60724B1B7ADBB21A46704B5B7ADBB2B0
:104634001B0213431A466F4B1A606B4BAC221A7061
:10464400694B00225A70684B01229A70664BB4225F
:10465400DA70654B00221A710521634800F04AF9AB
:104664000FE102F0E9FE0CE15D4B5B695C4A43F447
:1046740080535361062003F037FA00BF594B9B68FF
:1046840003F08003002BF9D1554B1B69544A43F4C2
:104694008053136100BF02F0A7FE034603F0020338
:1046A400002BF8D04E4B5B694D4A43F48053536161
:1046B400C72003F019FA00BF4A4B9B6803F080033C
:1046C400002BF9D1464B1B69454A43F480531361CF
:1046D40000BF02F089FE034603F00103002BF8D06B
:1046E40041F2707003F002FB3F4BAC221A703E4B58
:1046F40000225A703C4B01229A703B4BB522DA706F
:10470400394B00221A710521374800F0F3F8B8E05C
:10471400364B1B797B73354B5B793B73304B5B6951
:104724002F4A43F480535361502003F0DDF900BF56
:104734002C4B9B6803F08003002BF9D1284B1B6999
:10474400274A43F480531361322003F0CFFA244BF9
:104754005B69234A43F480535361012003F0C4F995
:104764003B7B184603F0C0F97B7B184603F0BCF989
:1047740000BF1C4B9B6803F08003002BF9D1184B3E
:104784001B69174A43F480531361322003F0AEFAD5
:10479400154BAC221A70144B00225A70124B012292
:1047A4009A70114BB722DA700F4B00221A7105214F
:1047B4000D4800F09FF864E00C4B1B79DBB21A46FD
:1047C4000A4B5B79DBB21B021A43084B9B79DBB2C1
:1047D4001B0413431A46064B1A6002F0E9FE50E02C
:1047E400000C014000380040AC0300209801002078
:1047F400C8050020CC050020234B1B79DBB21A46E8
:10480400214B5B79DBB21B021A431F4B9B79DBB252
:104814001B0413431A461D4B1A601B4BDB79DBB296
:104824001A461B4B1A601B4BAC221A70194B002200
:104834005A70184B01229A70164BE222DA70154B0B
:1048440000221A710521134800F054F819E00E4BA8
:104854009B79DBB21A460C4B5B79DBB21B021A4321
:10486400094B1B79DBB21B0413431A460A4B1A602B
:1048740002F04CFF00BF04E000BF02E000BF00E014
:1048840000BF1037BD4680BD98010020C805002038
:10489400CC050020AC030020C005002080B582B008
:1048A40000AFAC233B7000237B700123BB70EE236D
:1048B400FB7000233B713B460521184600F01AF8B3
:1048C40000BF0837BD4680BD80B582B000AFAC23C1
:1048D4003B7000237B700123BB70DA23FB70002341
:1048E4003B713B460521184600F004F800BF083729
:1048F400BD4680BD80B584B000AF78600B467B8038
:104904007B881946786808F087F80346FB7397F9A3
:104914000F30002BF4D100BF00BF1037BD4680BD5F
:1049240080B584B000AF03463960FB711346BB8089
:10493400AC233B72BB881B0A9BB2DBB27B72BB8885
:10494400DBB2BB72FB79FB7207F108030421184642
:1049540008F062F80346FB7397F90F30002BF3D18C
:10496400BB881946386808F057F80346FB7397F973
:104974000F30002BF4D100BF00BF1037BD4680BDFF
:1049840080B483B000AF7860074A7B689BB2D36081
:104994007B681B0A054A03F47F43D36000BF0C37CE
:1049A400BD4680BC704700BF0018014000140140A0
:1049B40080B500AFFEF7F6FA544BDB79DAB2544B0C
:1049C400DA60524B1B79DBB21A04504B5B79DBB2D1
:1049D4001B0213434D4A9279D2B213431A464D4BEC
:1049E4001A604C4B1B681846FFF7CAFF4A4BDB683A
:1049F400494A03F47F43D360444B1B7BDAB2464BF2
:104A0400DB681146444A0B43D360404B1B7ADBB24C
:104A1400002B0CD03F4B1B6803F40073002B06D013
:104A24003E4B1B693D4A43F08003136105E03B4B59
:104A34005B693A4A43F080035361344B5B7ADBB2DF
:104A4400FF2B06D1354B1B69344A43F02003136115
:104A540005E0324B5B69314A43F0200353612B4B31
:104A64009B7ADBB2002B1ED0284B1B7ADBB2002BC7
:104A74000CD02B4B5B692A4A43F001035361274B4B
:104A84001B69264A43F48073136118E0244B1B69A5
:104A9400234A43F001031361204B5B691F4A43F42B
:104AA400807353610BE01E4B5B691D4A43F00103A5
:104AB40053611A4B5B69194A43F480735361134B76
:104AC400DB7ADBB2002B06D0154B1B69144A43F08A
:104AD4000403136105E0124B5B69114A43F00403BC
:104AE4005361104BAC221A700E4B00225A700D4BBE
:104AF40001229A700B4BD022DA700A4BAC221A7145
:104B040005210848FFF7F6FE00BF80BD980100208C
:104B140000080140C40500200014014000100140B9
:104B2400000C0140AC03002080B500AFFEF720FA72
:104B34009A4B1B78013B1A2B00F22D8101A252F8EB
:104B440023F000BFB54B00089B4D00089B4D0008A7
:104B5400094C0008DF4B0008334C00085D4C00088A
:104B6400874C0008DB4C00089B4D00089B4D000857
:104B74009B4D0008054D00089B4D00089B4D000807
:104B84009B4D0008474D0008B14C00089B4D0008A0
:104B94009B4D00089B4D00089B4D00089B4D000851
:104BA4009B4D00089B4D00089B4D0008714D00086B
:104BB40000F0FAF87A4B1B69794A43F00103136158
:104BC400784B5B69774A43F480735361744B1B6978
:104BD400734A43F004031361DEE000F0E5F8704B20
:104BE4001B696F4A43F0010313616E4B5B696D4AA5
:104BF40043F4807353616A4B1B69694A43F00403AD
:104C04001361C9E000F0D0F8654B1B69644A43F0B6
:104C140001031361634B5B69624A43F4807353611C
:104C24005F4B1B695E4A43F004031361B4E000F078
:104C3400BBF85B4B1B695A4A43F001031361594BA0
:104C44005B69584A43F480735361554B1B69544A5A
:104C540043F0040313619FE000F020F9504B1B69FB
:104C64004F4A43F0010313614E4B5B694D4A43F4D1
:104C7400807353614A4B1B69494A43F0040313612F
:104C84008AE000F0FFF9464B1B69454A43F00103F3
:104C94001361444B5B69434A43F480735361404B53
:104CA4001B693F4A43F00403136175E000F0EAF91D
:104CB4003B4B1B693A4A43F001031361394B5B696F
:104CC400384A43F480735361354B1B69344A43F0CB
:104CD4000403136160E000F067F8314B1B69304A4C
:104CE40043F0010313612F4B5B692E4A43F4807335
:104CF40053612B4B1B692A4A43F0040313614BE0B5
:104D040000F056F9264B1B69254A43F00103136151
:104D1400244B5B69234A43F480735361204B1B6823
:104D24001F4A23F4407313601D4B1B681C4A23F471
:104D3400406313601A4B1B68194A43F48063136081
:104D44002AE000F0ABF8164B1B69154A43F0010347
:104D54001361144B5B69134A43F480735361104B22
:104D64001B690F4A43F00403136115E000F096F841
:104D74000B4B1B690A4A43F001031361094B5B693E
:104D8400084A43F480735361054B1B69044A43F09A
:104D94000403136100E000BF00BF80BDDA050020FA
:104DA400000C01400010014080B582B000AF002328
:104DB4007B605DE0334BAC221A70324B02225A7096
:104DC400304B00229A702F4BF022DA702E4B5B6925
:104DD4002D4A43F02003536100233B602DE03A68E1
:104DE4007B6813441846FFF7CBFD284B5B69274AC1
:104DF40043F001035361244B5B69234A43F48073FA
:104E040053610120FDF796FE214B9A683B680433F9
:104E1400D1B21C4AD1541D4B1B691C4A43F00103F7
:104E24001361194B5B69184A43F480735361012081
:104E3400FDF780FE3B6801333B603B68B3F5007FC0
:104E4400CDDB114B1B69104A43F0200313614FF46F
:104E540001710C48FFF74EFD00BF0E4B1B78002B71
:104E6400FBD00C4B00221A707B6803F500737B6047
:104E7400094B1B687A689A429CD300BF00BF08376D
:104E8400BD4680BDAC03002000100140000C014071
:104E940000080140AD080020C805002080B582B09C
:104EA40000AF00237B606BE03A4BAC221A70394BA5
:104EB40002225A70374B00229A70364BF022DA7075
:104EC400354B5B69344A43F02003536100233B6054
:104ED4003BE0324B1B78112B08D13A687B681344B2
:104EE40043F480431846FFF74BFD12E02B4B1B782D
:104EF4001B2B08D13A687B68134443F4802318467B
:104F0400FFF73EFD05E03A687B6813441846FFF757
:104F140037FD234B5B69224A43F0040353610120AC
:104F2400FDF708FE1F4B9A683B680433D1B2194A57
:104F3400D1541B4B1B691A4A43F00403136101202B
:104F4400FDF7F8FD3B6801333B603B68B3F5007F38
:104F5400BFDB114B1B69104A43F0200313614FF46C
:104F640001710C48FFF7C6FC00BF0F4B1B78002BE8
:104F7400FBD00D4B00221A707B6803F500737B6035
:104F84000A4B1B687A689A428ED300BF00BF083769
:104F9400BD4680BDAC03002000100140DA050020AE
:104FA400000C014000080140AD080020C8050020A5
:104FB40090B583B000AF01F027F82E4B1B682D4A43
:104FC40023F4407313602B4B1B682A4A23F4406379
:104FD4001360284B1B68274A43F480631360002343
:104FE4007B6032E0244BAC221A70234B02225A70AD
:104FF400214B00229A70204BF022DA7000233B6090
:105004000EE03A687B681A443B681C1D104601F0A8
:1050140083F803461A46184B1A553B6801333B6024
:105024003B68B3F5007FECDB4FF401711248FFF7E6
:1050340061FC00BF114B1B78002BFBD00F4B0022EF
:105044001A707B6803F500737B600D4B1B687A68EC
:105054009A42C7D3074B1B68064A43F44073136054
:10506400044B1B68034A23F44063136000BF0C37EE
:10507400BD4690BD000C0140AC030020AD080020EB
:10508400C805002080B582B000AF00237B6085E0B6
:10509400484B5B69474A43F020035361464B1B78F6
:1050A400122B12D1454B1B69444A43F0010313618F
:1050B400404B5B693F4A43F4807353613F4B5B69E8
:1050C4003E4A43F0040353610BE03C4B5B693B4AAB
:1050D40043F001035361374B5B69364A43F48073F1
:1050E4005361374BAC221A70354B02225A70344B41
:1050F40000229A70324BF022DA7000233B601CE0ED
:105104007B685A083B6813441846FFF739FC0520AE
:10511400FDF710FD2B4B9A683B685B000533D1B259
:10512400274AD154284B9A683B6802335B00D1B2BA
:10513400234AD1543B6801333B603B68FF2BDFDDDE
:105144001D4B1B78122B06D11C4B1B691B4A43F0C9
:10515400040313610BE0194B1B69184A43F0010364
:105164001361144B5B69134A43F480735361114B0D
:105174001B69104A43F0200313614FF40171104876
:10518400FFF7B8FB00BF114B1B78002BFBD00F4B74
:1051940000221A707B6803F500737B600C4B1B685C
:1051A4007A689A42FFF474AF00BF00BF0837BD4667
:1051B40080BD00BF00100140DA050020000C014052
:1051C400AC0300200008014000140140AD08002099
:1051D400C805002080B500AF4A4B1B78013B2E2B3D
:1051E40000F28C8001A252F823F000BFAD520008F7
:1051F4000153000801530008B3520008B9520008D3
:10520400BF520008C5520008CB520008D152000812
:10521400D75200080153000801530008DD5200086A
:10522400E35200080153000801530008E952000842
:10523400F552000801530008015300080153000807
:1052440001530008015300080153000801530008EA
:1052540001530008EF5200080153000801530008ED
:1052640001530008015300080153000801530008CA
:1052740001530008015300080153000801530008BA
:1052840001530008015300080153000801530008AA
:10529400015300080153000801530008015300089A
:1052A40001530008FB52000800F02EF827E000F03C
:1052B40095F824E000F016F921E000F059F91EE019
:1052C40000F028FB1BE000F039FA18E000F0B6F912
:1052D40015E000F0B5FA12E000F008FC0FE000F071
:1052E40005FC0CE000F06CFB09E000F069FB06E053
:1052F40000F088FC03E000F0F9FC00E000BF00BF10
:1053040080BD00BFDA05002080B582B000AF002365
:105314007B603DE02C4B5B692B4A43F020035361D7
:10532400AA2145F2555000F053FD552142F6AA201A
:1053340000F04EFDA02145F2555000F049FD002338
:105344003B6012E0214B1A683B681A447B68D01812
:105354003A687B68134407331D4AD35CDBB21946B1
:1053640000F036FD3B6801333B603A68194B1B681B
:105374009A42E7D3144B1B69134A43F02003136189
:105384000C2002F0B3FC7A68124B1B6813447B6058
:105394007B68B3F5007FBDDB0F4BAC221A700E4B5C
:1053A40000225A700C4B01229A700B4BF322DA70D4
:1053B400094B00221A7105210748FFF79BFA0023C5
:1053C40018460837BD4680BD00100140C0050020C6
:1053D40098010020CC050020AC03002080B582B0E9
:1053E40000AF3A4B1B69394A43F020031361384B31
:1053F4001B69374A43F001031361344B5B69334A39
:1054040043F480735361324B1B69314A43F0040304
:10541400136100237B603DE07B6807332D4AD35C36
:10542400DBB2FF2B32D02C4B1A687B68134418462E
:10543400FFF7A6FA7B680733264AD35CDAB2274B18
:10544400DA600A20FDF776FB204B5B691F4A43F0C4
:10545400200353610A20FDF76DFB1D4B5B691C4A59
:1054640043F0040353611E20FDF764FB184B1B69D2
:10547400174A43F004031361144B1B69134A43F0A6
:10548400200313616420FDF755FB00E000BF7B6837
:1054940001337B607B68B3F5007FBDDB104BAC222E
:1054A4001A700F4B00225A700D4B01229A700C4B4C
:1054B400F322DA700A4B00221A7105210848FFF71B
:1054C40019FA002318460837BD4680BD0010014074
:1054D400000C014098010020C00500200008014094
:1054E400AC03002080B582B000AF1C4B5B691B4A43
:1054F40043F02003536100237B601FE07A68184B5C
:105504001B6813441846FFF73BFA7B680733154AB8
:10551400D35CDAB2144BDA60144B5B69134A43F080
:10552400040353610120FDF705FB104B1B690F4A6F
:1055340043F0040313617B6801337B607B68B3F53C
:10554400007FDBDB054B1B69044A43F02003136136
:10555400002318460837BD4680BD00BF0010014037
:10556400C00500209801002000080140000C014003
:1055740080B582B000AF2C4B5B692B4A43F020030B
:10558400536100237B602CE07B680733274AD35C9C
:10559400DBB2FF2B21D0AA2145F2555000F018FCB4
:1055A400552142F6AA2000F013FCA02145F25550E3
:1055B40000F00EFC7A681E4B1B681A447B680733A4
:1055C4001A49CB5CDBB21946104600F001FC194BBA
:1055D4001B881846FDF7AEFA00E000BF7B68013374
:1055E4007B607B68B3F5007FCEDB0F4B1B690E4AF3
:1055F40043F020031361104BAC221A700E4B0022AF
:105604005A700D4B01229A700B4BF322DA700A4B3D
:1056140000221A7105210848FFF76CF90023184687
:105624000837BD4680BD00BF00100140980100202E
:10563400C0050020D8050020AC03002080B582B04E
:1056440000AF394B5B69384A43F0200353610023B0
:105654007B6044E07B680833344AD35CDBB2FF2BC5
:1056640006D17B680733314AD35CDBB2FF2B32D0DF
:105674004AF6AA2145F2555000F010FC45F2555166
:1056840042F6AA2000F00AFC4AF2A00145F2555065
:1056940000F004FC0520FDF74DFA254B1A687B68E1
:1056A400134458087B680833204AD35CDBB21B02DE
:1056B4001AB27B6807331D49CB5CDBB21BB21343C0
:1056C4001BB29BB2194600F0E9FB1A4B1B88184623
:1056D400FDF730FA00E000BF7B6802337B607B6833
:1056E400B3F5007FB6DB104B1B690F4A43F0200370
:1056F40013610A20FDF71EFA0F4BAC221A700E4BF1
:1057040000225A700C4B01229A700B4BF322DA7070
:10571400094B00221A7105210748FFF7EBF8002313
:1057240018460837BD4680BD00100140980100208E
:10573400C0050020D8050020AC03002080B582B04D
:1057440000AF00237B6053E0374B5B69364A43F07C
:10575400200353614FF42A4145F2555000F09EFB5B
:105764004FF4AA4142F6AA2000F098FB4FF42041DE
:1057740045F2555000F092FB00233B6023E02B4B95
:105784001A683B681A447B68134458083A687B6873
:1057940013440833264AD35CDBB21B021AB23968BD
:1057A4007B680B4407332249CB5CDBB21BB2134347
:1057B4001BB29BB2194600F071FB0520FDF7BAF944
:1057C4003B6802333B603A681A4B1B689A42D6D353
:1057D400154B1B69144A43F020031361164B1B88B5
:1057E400184602F083FA7A68124B1B6813447B60F4
:1057F4007B68B3F5007FA7DB104BAC221A700F4B0C
:1058040000225A700D4B01229A700C4BF322DA706D
:105814000A4B00221A7105210848FFF76BF8002390
:1058240018460837BD4680BD00100140C005002061
:1058340098010020CC050020D8050020AC030020EE
:1058440080B582B000AF2E4B5B692D4A43F0200334
:10585400536100237B6031E04FF42A4140F25550FC
:1058640000F01CFB4FF4AA4140F2AA2000F016FB02
:105874004FF4204140F2555000F010FB214B1A68C0
:105884007B68134458087B6808331F4AD35CDBB237
:105894001B021AB27B6807331B49CB5CDBB21BB219
:1058A40013431BB29BB2194600F0F8FA174B1B883E
:1058B4001846FDF73FF97B6802337B607B68B3F5DC
:1058C400007FC9DB0E4B1B690D4A43F020031361B3
:1058D4000F4BAC221A700E4B00225A700C4B012253
:1058E4009A700B4BF322DA70094B00221A710521CE
:1058F4000748FEF7FFFF002318460837BD4680BD62
:1059040000100140C005002098010020D8050020A7
:10591400AC03002080B582B000AF00237B6027E099
:10592400214B1A687B6813441846FFF729F87B68F3
:1059340007331E4AD35CDAB21D4BDA600220FDF74E
:10594400F9F81C4B5B691B4A43F0200353611A4B63
:105954001B881846FDF7EEF8164B1B69154A43F0F1
:10596400200313610F20FDF7E5F87B6801337B60AA
:105974007B68B3F5007FD3DB104BAC221A700F4B5E
:1059840000225A700D4B01229A700C4BF322DA70EC
:105994000A4B00221A7105210848FEF7ABFF00BF2D
:1059A4000837BD4680BD00BFC00500209801002017
:1059B4000008014000100140D8050020AC0300207D
:1059C40080B582B000AF404B5B693F4A43F020038F
:1059D400536100237B6056E03C4B1B78112B08D1AC
:1059E4003B4B1A687B68134443F480431846FEF724
:1059F400C7FF364B1B781B2B08D1354B1A687B68C5
:105A0400134443F480231846FEF7BAFF7B68073338
:105A1400304AD35CDAB2304BDA600220FDF78AF800
:105A24002A4B1B78112B05D12C4B5B692B4A43F471
:105A340080435361254B1B781B2B05D1284B5B6995
:105A4400274A43F480635361264B1B881846FDF7AD
:105A540071F81E4B1B78112B05D1204B1B691F4A73
:105A640043F480431361194B1B781B2B05D11C4B4A
:105A74001B691B4A43F4806313610F20FDF75AF836
:105A84007B6801337B607B68B3F5007FA4DB0E4B3E
:105A94001B690D4A43F020031361134BAC221A70A7
:105AA400114B00225A70104B01229A700E4BF322B4
:105AB400DA700D4B00221A7105210B48FEF71AFF0C
:105AC40000BF0837BD4680BD00100140DA05002044
