:020000040800F2
:100000000000012051780008E1770008E777000838
:10001000ED770008F3770008F9770008000000008A
:10002000000000000000000000000000FF77000852
:100030000B780008000000001778000823780008FB
:10004000997800089978000899780008997800084C
:10005000997800089978000899780008997800083C
:10006000997800089978000899780008997800082C
:10007000997800089978000899780008997800081C
:10008000997800089978000899780008997800080C
:1000900099780008997800089978000899780008FC
:1000A00099780008997800089978000899780008EC
:1000B00099780008997800089978000899780008DC
:1000C00099780008997800089978000899780008CC
:1000D00099780008997800089978000899780008BC
:1000E00099780008997800089978000800000000C5
:1000F0000000000000000000000000000000000000
:1001000000000000000000009978000899780008BD
:10011000997800089978000899780008997800087B
:10012000997800089978000899780008997800086B
:10013000997800089978000899780008997800085B
:1001400099780008997800089978000831780008B3
:10015000000000000000000000000000000000009F
:10016000000000000000000000000000000000008F
:10017000000000000000000000000000000000007F
:10018000000000000000000000000000000000006F
:10019000000000000000000000000000000000005F
:1001A000000000000000000000000000000000004F
:1001B000000000000000000000000000000000003F
:1001C000000000000000000000000000000000002F
:1001D000000000000000000000000000000000001F
:0401E0005FF8E0F1F3
:1001E40010B5054C237833B9044B13B10448AFF36D
:1001F40000800123237010BD7C010020000000005A
:10020400F4CE000808B5034B1BB103490348AFF310
:10021400008008BD0000000080010020F4CE00082A
:1002240053B94AB9002908BF00281CBF4FF0FF3159
:100234004FF0FF3000F076B9ADF1080C6DE904CE53
:1002440000F006F8DDF804E0DDE9022304B07047AD
:100254002DE9F047089E0D4604468846002B4DD1F3
:100264008A42944668D9B2FA82F252B101FA02F390
:10027400C2F1200120FA01F10CFA02FC41EA030860
:1002840094404FEA1C41B8FBF1F71FFA8CFE01FBC6
:10029400178807FB0EF0230C43EA084398420AD957
:1002A4001CEB030307F1FF3580F01E81984240F2F6
:1002B4001B81023F63441B1AB3FBF1F001FB1033B3
:1002C40000FB0EFEA4B244EA0344A6450AD91CEB83
:1002D400040400F1FF3380F00981A64540F2068151
:1002E400644402380021A4EB0E0440EA07401EB126
:1002F4000023D440C6E90043BDE8F0878B4208D907
:10030400002E00F0EE800021C6E900050846BDE895
:10031400F087B3FA83F100294AD1AB4202D3824277
:1003240000F2FC80841A65EB030301209846002E3A
:10033400E2D0C6E90048DFE702B9FFDEB2FA82F292
:10034400002A40F09180A1EB0C0001214FEA1C47E8
:100354001FFA8CFEB0FBF7F307FB1300250C45EAEC
:1003640000450EFB03F0A84208D91CEB050503F178
:10037400FF3802D2A84200F2CE8043462D1AB5FBC4
:10038400F7F007FB10550EFB00FEA4B244EA054447
:10039400A64508D91CEB040400F1FF3502D2A6459A
:1003A40000F2B6802846A4EB0E0440EA03409EE720
:1003B400C1F120078B4022FA07FC4CEA030C25FA12
:1003C40007FA4FEA1C49BAFBF9F820FA07F309FBCC
:1003D40018AA8D401FFA8CFE1D4300FA01F308FB96
:1003E4000EF02C0C44EA0A44A04202FA01F20BD9A2
:1003F4001CEB040408F1FF3A80F08880A04240F22C
:100404008580A8F102086444241AB4FBF9F009FBBE
:10041400104400FB0EFEADB245EA0444A64508D9DB
:100424001CEB040400F1FF356CD2A6456AD90238EE
:10043400644440EA0840A0FB0295A4EB0E04AC42DD
:10044400C846AE4656D353D0002E69D0B3EB08024B
:1004540064EB0E0422FA01F304FA07F71F43CC40BD
:10046400C6E90074002147E70CFA02FCC2F120013E
:1004740025FA01F34FEA1C4720FA01F195400D4398
:10048400B3FBF7F107FB11331FFA8CFE280C40EA8B
:10049400034001FB0EF3834204FA02F408D91CEB77
:1004A400000001F1FF382FD283422DD90239604474
:1004B400C01AB0FBF7F307FB1300ADB245EA0045E1
:1004C40003FB0EF0A84208D91CEB050503F1FF3825
:1004D40016D2A84214D9023B6544281A43EA0141C2
:1004E40038E73146304607E72F46E4E61846F9E692
:1004F4004B45A9D2B9EB020865EB0C0E0138A3E712
:100504004346EAE7284694E74146D1E7D0467BE7ED
:100514006444023847E7023B65442FE7084606E790
:100524003146E9E6704700BF80B500AF0E4B5B690A
:100534000D4A43F0010353610C4B5B690B4A43F4CE
:10054400807353610A2007F009FA074B1B69064AB6
:1005540043F001031361054B5B69044A43F4807360
:10056400536100BF80BD00BF000C0140001001407A
:1005740080B500AF114B5B69104A43F0010353612E
:100584000F4B5B690E4A43F4807353610A2007F0F2
:10059400E5F90A4B1B69094A43F001031361084B4F
:1005A4005B69074A43F480735361064B1B69054A30
:1005B40043F01003136100BF80BD00BF000C014075
:1005C400001001400018014080B500AF094B1B69C1
:1005D400084A43F008031361012002F0ABFA054B0B
:1005E4005B69044A43F008035361012002F0A2FA54
:1005F40000BF80BD0018014080B582B000AF3B4B06
:100604001B693A4A43F001031361394B5B69384A69
:1006140043F480735361374B1B69364A43F04003FC
:100624001361344B1B69334A43F080031361314B2C
:100634005B69304A43F0080353612E4B1B692D4A12
:1006440043F0020313612B4B1B692A4A43F0040352
:1006540013610A2007F082F9244B5B69234A43F0B3
:1006640001035361224B5B69214A43F48073536154
:100674000A2007F073F900237B6004E0FFF7A4FF6E
:100684007B6801337B607B68092BF7DD194B5B6961
:10069400184A43F001035361164B5B69154A43F052
:1006A40002035361134B5B69124A43F00403536121
:1006B400104B5B690F4A43F020035361142007F089
:1006C4004DF90A4B5B69094A43F001035361084B36
:1006D4001B69074A43F4807313614FF4FA7007F0FF
:1006E4003DF900BF0837BD4680BD00BF000C014086
:1006F400001001400018014080B500AF2E4B1B696B
:100704002D4A43F010031361C82007F027F92A4B40
:100714005B69294A43F002035361274B5B69264A0C
:1007240043F004035361244B5B69234A43F02003E1
:100734005361214B5B69204A43F0400353611E4BD4
:100744005B691D4A43F0800353611C4B5B691B4A80
:1007540043F0010353611A4B5B69194A43F48073F4
:100764005361142007F0FAF8134B5B69124A43F003
:10077400100353610A2007F0F1F8104B5B690F4A2C
:1007840043F0010353610E4B1B690D4A43F480731C
:1007940013614FF4FA7007F0E1F8074B1B69064A3E
:1007A40043F040031361044B1B69034A43F0800385
:1007B400136100BF80BD00BF00180140000C014060
:1007C4000010014080B582B000AF0346FB71124AAD
:1007D400FB79D360114B1B69104A43F00403136186
:1007E4000E4B5B690D4A43F0020353610B4B5B698B
:1007F4000A4A43F020035361084B5B69074A43F0FC
:1008040010035361012002F095F9FFF7DDFE00BFEC
:100814000837BD4680BD00BF0008014000180140F4
:1008240080B582B000AF0346FB710F4AFB79D360F9
:100834000E4B1B690D4A43F0040313610B4B5B69B8
:100844000A4A43F002035361084B5B69074A43F0C9
:1008540020035361012002F06DF9FFF7B5FE00BFDC
:100864000837BD4680BD00BF0008014000180140A4
:1008740080B582B000AF03460A46FB711346BB71D4
:10088400164B5B69154A43F004035361134B5B69D0
:10089400124A43F002035361BB79002B06D00F4B7D
:1008A4001B690E4A43F02003136105E00B4B5B699F
:1008B4000A4A43F020035361084B5B69074A43F03B
:1008C40010035361064AFB79D360012002F032F928
:1008D400FFF77AFE00BF0837BD4680BD001801400F
:1008E4000008014080B582B000AF03460A46FB71A0
:1008F4001346BB71134B5B69124A43F00403536103
:10090400104B5B690F4A43F002035361BB79002B20
:1009140006D00C4B1B690B4A43F02003136105E01E
:10092400084B5B69074A43F020035361064AFB798D
:10093400D360012002F0FEF8FFF746FE00BF08373F
:10094400BD4680BD001801400008014080B500AFDD
:10095400464B1B78012B02D1FFF7CEFE01E0FFF7D7
:100964004BFE02F01FFB414B1B78012B03D10820E7
:10097400FFF756FF02E00820FFF724FF3B4B1B78EC
:10098400012B04D100210020FFF7ACFF03E000217C
:100994000020FFF76DFF02F0EBFA354B5B69344A38
:1009A40043F080035361012006F0D8FF314B9B686C
:1009B400DAB2314B9A712E4B1B692D4A43F08003F6
:1009C400136102F0EFFA294B1B78012B04D10021AB
:1009D4000120FFF787FF03E000210120FFF748FF14
:1009E40002F0C6FA224B5B69214A43F0800353614B
:1009F400012006F0B3FF1F4B9B68DAB21E4B5A71FD
:100A04001B4B1B691A4A43F08003136102F0CAFAB4
:100A1400164B1B78012B04D100210220FFF762FF43
:100A240003E000210220FFF723FF02F0A1FA104B9C
:100A34005B690F4A43F080035361012006F08EFF87
:100A44000C4B9B68DAB20C4B1A71094B1B69084AB0
:100A540043F080031361054B1B78012B02D1FFF790
:100A640087FD01E0FFF760FD00BF80BDDA050020CF
:100A74000018014000080140AC03002080B500AF1D
:100A8400FFF7BAFD02F08EFA0420FFF79BFE02F096
:100A94006FFA012006F062FF474B5B69464A43F058
:100AA40020035361444B5B69434A43F01003536191
:100AB400414B5B69404A43F080035361012006F0D7
:100AC4004DFF3E4B9B68DAB23D4B1A713A4B1B69A2
:100AD400394A43F080031361322002F02BF8364B7D
:100AE4001B69354A43F020031361334B1B69324AB7
:100AF40043F010031361304B5B692F4A43F08003CA
:100B04005361012006F02AFF2C4B9B68DAB22C4B70
:100B14005A71294B1B69284A43F080031361322020
:100B240002F008F8244B5B69234A43F02003536125
:100B3400214B1B69204A43F0100313611E4B5B6970
:100B44001D4A43F080035361012006F007FF1B4B4D
:100B54009B68DAB21A4B9A71174B1B69164A43F019
:100B640080031361322001F0E5FF134B1B69124A25
:100B740043F020031361104B5B690F4A43F01003E9
:100B840053610D4B5B690C4A43F0800353610120B0
:100B940006F0E4FE094B9B68DAB2094BDA71064BA6
:100BA4001B69054A43F080031361322001F0C2FF40
:100BB400FFF7BAFC00BF80BD0018014000080140E7
:100BC400AC03002080B500AFFFF796FD02F0EAF910
:100BD4000420FFF725FE02F0CBF9012006F0BEFE4B
:100BE400474B5B69464A43F020035361444B5B69BE
:100BF400434A43F004035361414B5B69404A43F069
:100C040080035361012006F0A9FE3E4B9B68DAB2D3
:100C14003D4B1A713A4B1B69394A43F08003136107
:100C2400322001F087FF364B1B69354A43F020031D
:100C34001361334B1B69324A43F004031361304B95
:100C44005B692F4A43F080035361012006F086FE5E
:100C54002C4B9B68DAB22C4B5A71294B1B69284ADE
:100C640043F080031361322001F064FF244B5B697D
:100C7400234A43F020035361214B1B69204A43F06C
:100C8400040313611E4B5B691D4A43F080035361E7
:100C9400012006F063FE1B4B9B68DAB21A4B9A7173
:100CA400174B1B69164A43F080031361322001F08D
:100CB40041FF134B1B69124A43F020031361104B8D
:100CC4005B690F4A43F0040353610D4B5B690C4AA3
:100CD40043F080035361012006F040FE094B9B68FA
:100CE400DAB2094BDA71064B1B69054A43F08003FB
:100CF4001361322001F01EFFFFF73AFC00BF80BDF4
:100D04000018014000080140AC03002080B500AF8A
:100D1400FFF772FC02F046F96D4B5B696C4A43F0D5
:100D2400010353614020FFF74DFD0A2001F002FF4B
:100D3400674B5B69664A43F004035361644B1B6968
:100D4400634A43F002031361624B1A79624BDA601F
:100D54000A2001F0EFFEFFF737FC5D4B5B695C4A4C
:100D640043F040035361012006F0F8FD584B1B6922
:100D7400574A43F040031361642006F0EFFD544BDF
:100D84005B69534A43F020035361514B5B69504AFA
:100D940043F0100353614020FFF714FD4C4B5B6993
:100DA4004B4A43F004035361494B1B69484A43F0DF
:100DB40002031361474B5A79474BDA600A2001F06A
:100DC400B9FEFFF701FC424B1B69414A43F0200383
:100DD40013613F4B5B693E4A43F0100353613C4B44
:100DE4005B693B4A43F040035361012006F0B6FDC2
:100DF400374B1B69364A43F040031361322006F037
:100E0400ADFD4020FFF7DEFC314B5B69304A43F017
:100E1400040353612E4B1B692D4A43F002031361F3
:100E24002C4B9A792C4BDA600A2001F083FEFFF7F1
:100E3400CBFB274B5B69264A43F020035361244BC9
:100E44001B69234A43F010031361214B5B69204A59
:100E540043F040035361012006F080FD1C4B1B69E5
:100E64001B4A43F040031361322006F077FD202033
:100E7400FFF7A8FC164B5B69154A43F00403536162
:100E8400134B1B69124A43F002031361114BDA79C5
:100E9400114BDA600A2001F04DFEFFF795FBC820E4
:100EA40001F048FE0A4B5B69094A43F04003536171
:100EB400012006F053FD064B1B69054A43F040032D
:100EC4001361322006F04AFDFFF72EFB00BF80BD00
:100ED40000180140980100200008014080B500AFCF
:100EE400FFF70AFC02F05EF84020FFF799FC0A20A5
:100EF40001F020FE644B5B69634A43F004035361D1
:100F0400614B1B69604A43F0020313615F4B1A791A
:100F14005F4BDA600A2001F00DFEFFF755FB5A4BD8
:100F24005B69594A43F020035361574B5B69564A46
:100F340043F004035361544B5B69534A43F0400349
:100F44005361962001F0F6FD4F4B1B694E4A43F066
:100F540040031361322006F001FD4020FFF760FCDE
:100F6400494B5B69484A43F004035361464B1B6990
:100F7400454A43F002031361444B5A79444BDA6007
:100F84000A2001F0D7FDFFF71FFB3F4B1B693E4AC8
:100F940043F0200313613C4B5B693B4A43F040033D
:100FA4005361012006F0DAFC374B1B69364A43F0E3
:100FB40040031361322006F0D1FC4020FFF730FCDF
:100FC400314B5B69304A43F0040353612E4B1B6978
:100FD4002D4A43F0020313612C4B9A792C4BDA60AF
:100FE4000A2001F0A7FDFFF7EFFA274B5B69264AB9
:100FF40043F020035361244B1B69234A43F0040349
:101004001361214B5B69204A43F040035361012083
:1010140006F0A4FC1C4B1B691B4A43F040031361FC
:10102400322006F09BFC2020FFF7FAFB164B5B698D
:10103400154A43F004035361134B1B69124A43F0EE
:1010440002031361114BDA79114BDA600A2001F0C3
:1010540071FDFFF7B9FA0A2001F06CFD0A4B5B69D8
:10106400094A43F040035361012006F077FC064B24
:101074001B69054A43F040031361322006F06EFCFD
:10108400FFF776FA00BF80BD0018014098010020E8
:101094000008014080B500AFFFF7AEFA01F082FF0F
:1010A4008020FFF78FFB0B4B5B690A4A43F0400338
:1010B4005361C82001F03EFD064B1B69054A43F00D
:1010C40040031361322006F049FCFFF72DFA00BFFC
:1010D40080BD00BF0018014080B500AFFFF70CFBD6
:1010E40001F060FF8020FFF79BFB094B5B69084A16
:1010F40043F040035361642006F030FC044B1B6949
:10110400034A43F040031361FFF732FA00BF80BD86
:101114000018014080B582B000AFFFF76DFA01F00E
:1011240041FF0320FFF74EFB00237B6056E00023C2
:101134003B6035E001F036FF3A687B6813441B12CC
:10114400DBB201211846FFF793FB3B68DAB27B68F8
:10115400DBB21344DBB200211846FFF789FB01F030
:1011640007FF254B5B69244A43F020035361224B5C
:101174005B69214A43F080035361012001F0DAFCEA
:101184001E4B9A683B680433D1B21D4AD1541A4BA2
:101194001B69194A43F0800313613B6801333B60C8
:1011A4003B681F2BC6DD164BAC221A70144B002271
:1011B4005A70134B20229A70114BA422DA70242106
:1011C4000F4803F0CFF900BF0E4B1B78002BFBD068
:1011D4000C4B00221A707B6820337B607A680A4BC0
:1011E4001B689A42A3D301F0DDFEFFF79DF900BF0F
:1011F4000837BD4680BD00BF00180140000801400B
:10120400AC030020A9080020C805002080B582B0E6
:1012140000AFFFF771FA01F0C5FE0320FFF700FBF2
:1012240000237B6056E000233B6035E001F0BAFE0A
:101234003A687B6813441B12DBB201211846FFF79E
:1012440051FB3B68DAB27B68DBB21344DBB20021AA
:101254001846FFF747FB01F08BFE254B5B69244AD8
:1012640043F020035361224B5B69214A43F080031E
:101274005361012001F05EFC1E4B9A683B68043305
:10128400D1B21D4AD1541A4B1B69194A43F0800349
:1012940013613B6801333B603B681F2BC6DD164B73
:1012A400AC221A70144B00225A70134B20229A70ED
:1012B400114BA422DA7024210F4803F053F900BF24
:1012C4000E4B1B78002BFBD00C4B00221A707B6852
:1012D40020337B607A680A4B1B689A42A3D301F0DF
:1012E40061FEFFF745F900BF0837BD4680BD00BF6A
:1012F4000018014000080140AC030020A9080020A8
:10130400C805002080B582B000AF00237B6062E096
:10131400404B1A687B6813441B0ADBB20121184650
:10132400FFF7A6FA00233B6039E03A4B1B68DAB2B8
:101334007B68DBB21344DAB23B68DBB21344DBB242
:1013440000211846FFF794FA334B1B69324A43F0E5
:1013540002031361304B5B692F4A43F0040353616A
:101364007A683B68134404332C4AD25C2C4BDA6011
:10137400FFF72AF9284B1B69274A43F0010313613D
:10138400012001F0D7FB244B5B69234A43F001039E
:1013940053610A2001F0CEFB3B6801333B603A689D
:1013A400204B1B689A42C0D31B4B5B691A4A43F01B
:1013B40040035361C82001F0BDFB174B1B69164A5B
:1013C40043F040031361052006F0C8FA7A68154B10
:1013D4001B6813447B607B681F2B99DD0D4B1B68D6
:1013E40020330C4A1360104BAC221A700E4B0022AF
:1013F4005A700D4B01229A700B4BA622DA700A4BDD
:1014040000221A710521084803F0ACF800BF083720
:10141400BD4680BDC405002000180140980100208D
:1014240000080140CC050020AC03002080B582B048
:1014340000AF00237B6062E0404B1A687B68134472
:101444001B0ADBB201211846FFF74CFA00233B606C
:1014540039E03A4B1B68DAB27B68DBB21344DAB288
:101464003B68DBB21344DBB200211846FFF73AFABB
:10147400334B1B69324A43F002031361304B5B69FF
:101484002F4A43F0040353617A683B6813440433DE
:101494002C4AD25C2C4BDA60FFF796F8284B1B6978
:1014A400274A43F020031361012001F043FB244B3E
:1014B4005B69234A43F0200353610A2001F03AFB9D
:1014C4003B6801333B603A68204B1B689A42C0D3A7
:1014D4001B4B5B691A4A43F040035361C82001F077
:1014E40029FB174B1B69164A43F040031361042080
:1014F40006F034FA7A68154B1B6813447B607B68EA
:101504001F2B99DD0D4B1B6820330C4A1360104BC5
:10151400AC221A700E4B00225A700D4B01229A70A5
:101524000B4BA622DA700A4B00221A7105210848D7
:1015340003F018F800BF0837BD4680BDC40500207D
:10154400001801409801002000080140CC0500204B
:10155400AC03002080B582B000AFFFF74DF801F076
:1015640021FD0220FFF72EF900237B6084E0002395
:101574003B6060E001F016FD7B68DA0F13445B10FA
:1015840019463B68DA0F13445B100B441A46404B70
:101594001A60404B1B78022B0DD13F4B1B693E4A0E
:1015A40043F0100313613A4B1B681B0CDBB20021A0
:1015B4001846FFF75DF9364B1B681B0ADBB20121A5
:1015C4001846FFF755F9324B1B68DBB20021184669
:1015D400FFF74EF901F0CCFC2F4B5B692E4A43F028
:1015E400200353612C4B5B692B4A43F08003536106
:1015F400012001F09FFA294B9A683B680433D1B269
:10160400274AD154244B1B69234A43F02003136116
:10161400012001F08FFA214B9A683B680533D1B25F
:101624001F4AD1541C4B1B691B4A43F080031361AE
:101634003B6802333B603B68B3F5007F9ADB184B91
:10164400AC221A70164B02225A70154B00229A7063
:10165400134BA822DA704FF40171114802F082FF93
:1016640000BF104B1B78002BFBD00E4B00221A70CE
:101674007B6803F500737B607A680B4B1B689A42A6
:10168400FFF475AFFEF750FF00BF0837BD4680BDBD
:10169400C0050020DA0500200018014000080140C0
:1016A400AC030020A9080020C805002080B582B042
:1016B40000AFFFF721F801F075FC0220FFF7B0F846
:1016C40000237B6072E000233B604EE001F06AFC83
:1016D4007B68DA0F13445B1019463B68DA0F134436
:1016E4005B100B441A46374B1A60364B1B681B0AB7
:1016F400DBB201211846FFF7F5F8324B1B68DBB269
:1017040000211846FFF7EEF801F032FC2E4B5B691E
:101714002D4A43F0200353612B4B5B692A4A43F063
:1017240080035361012001F005FA284B9A683B6855
:101734000433D1B2264AD154234B1B69224A43F0C5
:1017440020031361012001F0F5F9204B9A683B68EE
:101754000533D1B21E4AD1541B4B1B691A4A43F0BC
:10176400800313613B6802333B603B68B3F5007F41
:10177400ACDB174BAC221A70154B02225A70144B77
:1017840000229A70124BA822DA704FF401711048AB
:1017940002F0E8FE00BF0F4B1B78002BFBD00D4B73
:1017A40000221A707B6803F500737B607A680A4B29
:1017B4001B689A4287D3FEF7DBFE00BF0837BD469D
:1017C40080BD00BFC0050020001801400008014092
:1017D400AC030020A9080020C805002080B500AF94
:1017E400124B1B78012B02D100F0D0F808E00F4B0C
:1017F4001B78032B02D100F06BF901E000F01AF81A
:101804000B4BAC221A700A4B00225A70084B01226F
:101814009A70074BAA22DA70054B00221A7105212F
:10182400034802F09FFE00BF80BD00BFDA05002020
:10183400AC03002080B584B000AF4F4B1B791A0471
:101844004D4B5B791B0213434B4A92791343DA0FD6
:1018540013445B107B600023FB601020FEF7B2FF93
:101864000023BB6043E0FB68DAB27B68DBB213445D
:10187400DBB200211846FEF7FBFF404B1B693F4AD1
:1018840043F0020313613D4B5B693C4A43F004039C
:101894005361BB680733384AD25C394BDA60FEF7D0
:1018A40093FE364B1B69354A43F020031361BB6832
:1018B4000833314AD25C324BDA60FEF785FE2F4B97
:1018C4001B692E4A43F001031361012001F032F930
:1018D4002A4B5B69294A43F001035361012001F05B
:1018E40029F9FB680133FB60BB680233BB60BA684B
:1018F400244B1B689A42B6D37B681B0ADBB20121D6
:101904001846FEF7B5FF204B1B78022B0CD11B4B5E
:101914001B691A4A43F0100313617B681B0CDBB28A
:1019240000211846FEF7A4FF144B5B69134A43F0E9
:1019340040035361012001F0FDF8104B1B690F4A6D
:1019440043F040031361082006F008F80B4B1B69B1
:101954000A4A43F004031361084B5B69074A43F0E6
:1019640002035361064B0022DA60FEF72DFE00BF2E
:101974001037BD4680BD00BF98010020001801400B
:1019840000080140CC050020DA05002080B584B0B1
:1019940000AF4B4B1B791A04494B5B791B02134371
:1019A400474A92791343DA0F13445B107B60002398
:1019B400FB601020FEF734FF0023BB604CE0FB68A3
:1019C400DAB27B68DBB21344DBB200211846FEF7BF
:1019D40089FF3C4B1B693B4A43F002031361394BBB
:1019E4005B69384A43F004035361BB680733344AE4
:1019F400D25C354BDA60FEF7E7FD324B1B69314AA6
:101A040043F020031361BB6808332D4AD25C2E4B8C
:101A1400DA60FEF7D9FD2B4B5B692A4A43F02003B9
:101A240053610A2001F086F8264B1B69254A43F0CE
:101A340020031361012001F07DF8224B5B69214AE8
:101A440043F020035361012001F074F8FB68013373
:101A5400FB60BB680233BB60BA681C4B1B689A42CC
:101A6400ADD37B681B0ADBB201211846FEF73AFFAF
:101A7400144B5B69134A43F040035361012001F0A6
:101A840059F8104B1B690F4A43F0400313610820B7
:101A940005F064FF0B4B1B690A4A43F0040313610E
:101AA400084B5B69074A43F002035361064B00226B
:101AB400DA60FEF789FD00BF1037BD4680BD00BF68
:101AC400980100200018014000080140CC050020C6
:101AD40080B584B000AF2F4B1B791A042D4B5B7972
:101AE4001B0213432B4A92791343DA0F13445B10FE
:101AF4007B600023FB6010214C2000F04FF8002392
:101B0400BB6027E0FB68DAB27B68DBB21344DBB26C
:101B140019460C2000F042F8BB6807331D4AD35C19
:101B240019462C2000F03AF8BB680833194AD35CF4
:101B340019463C2000F032F800217D2000F02EF8F8
:101B440000217C2000F02AF8FB680133FB60BB68AD
:101B54000233BB60BA68104B1B689A42D2D37B68CD
:101B64001B0ADBB219461C2000F018F8002164207F
:101B740000F014F800216C2000F010F8082005F0A3
:101B8400EDFE00214C2000F009F800BF1037BD46DF
:101B940080BD00BF98010020CC05002080B586B030
:101BA40000AF03460A46FB711346BB710023FB8258
:101BB400FB799BB29B00FB81BB799BB29B00BB81F1
:101BC40000233B6154E0012000F0B4FFFA893B6933
:101BD400C3F10A0342FA03F303F00103002B06D016
:101BE400294B1B69284A43F00203136105E0264B85
:101BF4005B69254A43F002035361BA893B69C3F127
:101C04000A0342FA03F303F00103002B06D01E4B30
:101C14001B691D4A43F00103136105E01A4B5B691C
:101C2400194A43F001035361174B1B69164A43F0E9
:101C340004031361012000F07DFF134B5B69124A1A
:101C440043F004035361114B9B6803F00103002B21
:101C54000BD03B69C3F10A03012202FA03F31AB25F
:101C6400B7F9163013431BB2FB823B6901333B6166
:101C74003B690A2BA7DDFB8ADB089BB2DBB2184663
:101C84001837BD4680BD00BF001801400008014060
:101C940080B500AF264B1B69254A43F0100313613E
:101CA400234B5B69224A43F00403536101F07AF940
:101CB4001F4B5B691E4A43F0010353611C4B5B6974
:101CC4001B4A43F0020353611A4B5B69194A43F000
:101CD40001035361184B5B69174A43F001035361D5
:101CE400164B5B69154A43F4807353610A2005F06F
:101CF40035FE0F4B5B690E4A43F0100353610E4BE4
:101D04005B690D4A43F0010353610C4B1B690B4A99
:101D140043F4807313614FF4FA7005F01FFE01F071
:101D240027F94FF4FA7000F005FF00BF80BD00BF33
:101D34000018014000080140000C0140001001405F
:101D440080B582B000AF0023FB80322000F0F2FEA9
:101D54000FE00A2000F0EEFEFB880133FB80FB88D5
:101D640040F6FF72934204D102F0D0FBFEF700FC70
:101D740005E0044B9B6803F00103002BE9D008370E
:101D8400BD4680BD0008014080B500AFFFF780FF6D
:101D940008214C20FFF702FF00210C20FFF7FEFE74
:101DA40000216820FFF7FAFE00216C20FFF7F6FE01
:101DB40003461A46164B9A7108214C20FFF7EEFE93
:101DC40001210C20FFF7EAFE00216820FFF7E6FE60
:101DD40000216C20FFF7E2FE03461A460C4B5A71B1
:101DE40008214C20FFF7DAFE02210C20FFF7D6FE73
:101DF40000216820FFF7D2FE00216C20FFF7CEFE01
:101E040003461A46024B1A71FEF7B2FB00BF80BDAF
:101E1400AC03002080B500AFFFF73AFF04214C204B
:101E2400FFF7BCFE00216820FFF7B8FE00216C20FC
:101E3400FFF7B4FE03461A461A4B1A7104214C20CC
:101E4400FFF7ACFE00217A20FFF7A8FE00217E20D8
:101E5400FFF7A4FE03461A46124B5A7104214C2084
:101E6400FFF79CFE00216A20FFF798FE00216E20F8
:101E7400FFF794FE03461A460A4B9A7104214C203C
:101E8400FFF78CFE00217820FFF788FE00217C20DC
:101E9400FFF784FE03461A46024BDA71FEF768FB2D
:101EA40000BF80BDAC03002080B500AFFFF7F0FE9B
:101EB40040214C20FFF772FE274B1B7919462C203A
:101EC400FFF76CFE00216420FFF768FE00216C2000
:101ED400FFF764FEFFF734FF40214C20FFF75EFE5E
:101EE4001D4B5B7919462C20FFF758FE0021742006
:101EF400FFF754FE00217C20FFF750FEFFF720FF80
:101F040040214C20FFF74AFE134B9B7919462C20A5
:101F1400FFF744FE00216620FFF740FE00216E20FB
:101F2400FFF73CFEFFF70CFF20214C20FFF736FEA5
:101F3400094BDB7919462C20FFF730FE0021642081
:101F4400FFF72CFE00216C20FFF728FEFFF7F8FEB8
:101F5400FEF70EFB00BF80BD9801002080B500AFE6
:101F6400FFF796FE80214C20FFF718FE0021642025
:101F7400FFF714FE00216C20FFF710FEFFF7E0FED0
:101F8400FEF7F6FA00BF80BD90B583B000AFFFF74F
:101F94007FFE03214C20FFF701FE00237B6044E019
:101FA40000233B6023E03B68DAB27B68DBB2134476
:101FB400DBB219460C20FFF7F1FD3A687B68134445
:101FC4001B12DBB219461C20FFF7E8FD0021682034
:101FD400FFF7E4FD3B681C1D00216C20FFF7DEFDCC
:101FE40003461A46164B1A553B6801333B603B685F
:101FF4001F2BD8DD124BAC221A70114B00225A70E1
:102004000F4B20229A700E4BA422DA7024210C4824
:1020140002F0A8FA00BF0B4B1B78002BFBD0094B36
:1020240000221A707B6820337B607A68064B1B6839
:102034009A42B5D3FEF79CFA00BF0C37BD4690BD5B
:10204400AC030020A9080020C805002080B582B098
:1020540000AF00237B604EE0364B1A687B68134464
:102064001B0ADBB201211846FEF73CFC00233B604F
:102074002DE0304B1B68DAB27B68DBB21344DAB272
:102084003B68DBB21344DBB219460C20FFF786FD34
:10209400284B1A687B6813441B0ADBB219461C20C0
:1020A400FFF77CFD7A683B6813440433224AD35C0F
:1020B40019462C20FFF772FD00216D20FFF76EFDFD
:1020C40000216C20FFF76AFD3B6801333B603A68EE
:1020D4001A4B1B689A42CCD300216420FFF75EFDA3
:1020E40000216C20FFF75AFDFFF72AFE7A68134B94
:1020F4001B6813447B607B681F2BADDD0D4B1B6895
:1021040020330C4A13600E4BAC221A700C4B002285
:102114005A700B4B01229A70094BA622DA70084BB5
:1021240000221A710521064802F01CFA00BF083784
:10213400BD4680BDC405002098010020CC050020C8
:10214400AC03002090B583B000AFFFF7A1FD0221DE
:102154004C20FFF723FD00237B6056E000233B6007
:102164003AE07B68DA0F13445B1019463B68DA0FD8
:1021740013445B100B441A46294B1A60284B1B6806
:10218400DBB219460C20FFF709FD254B1B681B0A1F
:10219400DBB219461C20FFF701FD00216820FFF780
:1021A400FDFC3B681C1D00216C20FFF7F7FC034677
:1021B4001A461C4B1A5500217820FFF7EFFC3B68A8
:1021C4005C1D00217C20FFF7E9FC03461A46154BF1
:1021D4001A553B6802333B603B68B3F5007FC0DBB4
:1021E400104BAC221A700F4B02225A700D4B002276
:1021F4009A700C4BA822DA704FF40171094802F06E
:10220400B1F97B6803F500737B607A68064B1B6841
:102214009A42A3D3FEF7ACF900BF0C37BD4690BD7C
:10222400C0050020AC030020C805002080B500AF25
:102234000F4B5B690E4A43F0010353610D4B5B691D
:102244000C4A43F480735361642000F073FC084B20
:102254001B69074A43F001031361064B5B69054A96
:1022640043F480735361642000F064FC00BF80BDBC
:10227400000C01400010014080B500AF012000F0C7
:1022840059FC0A4B1B69094A43F0040313610120FA
:1022940000F050FC054B5B69044A43F004035361AE
:1022A400012000F047FC00BF80BD00BF000C0140CE
:1022B40080B500AF00F05CFE354B5B69344A43F0F7
:1022C40004035361642000F035FC314B1B69304A30
:1022D40043F004031361642000F02CFC2C4B1B69B5
:1022E4002B4A43F0010313612A4B5B69294A43F4E7
:1022F40080735361274B1B69264A43F02003136103
:10230400302002F075F90A2000F014FC224B9B687F
:10231400DAB2224B9A711E4B1B691D4A43F001032A
:1023240013611C4B5B691B4A43F480735361194B63
:102334001B69184A43F020031361312002F058F955
:102344000A2000F0F7FB144B9B68DAB2134B5A7166
:102354000F4B1B690E4A43F0010313610D4B5B697C
:102364000C4A43F4807353610A4B1B69094A43F0D6
:1023740020031361322002F03BF90A2000F0DAFB5B
:10238400054B9B68DAB2054B1A7100BF80BD00BFD4
:10239400000C01400010014000080140AC03002083
:1023A40080B500AF1D4B5B691C4A43F004035361C5
:1023B400FFF73CFF00F0DCFD302002F019F9174B69
:1023C4001B69164A43F001031361154B5B69144AF8
:1023D40043F480735361124B1B69114A43F0200389
:1023E40013610A2000F0A6FB0E4B9B68DAB20E4B79
:1023F4009A710A4B1B69094A43F004031361FFF7FE
:102404003BFF0A2000F096FB064B9B68DAB2064BB2
:102414005A71054BFF221A7100BF80BD000C0140A8
:102424000010014000080140AC03002080B500AF5B
:1024340000F0B8FD434B1B69424A43F004031361A7
:10244400414B1B69404A43F0200313613D4B5B69D8
:102454003C4A43F0010353613B4B1B693A4A43F442
:10246400807313614FF4487005F078FA374BDB79C9
:1024740003F00103002B18D14FF4703002F0B8F8C8
:102484000A2000F057FB304B5B692F4A43F02003CE
:102494005361782000F04EFB2B4B1B692A4A43F012
:1024A40020031361022005F059FA284BDB7903F06D
:1024B4000203002B18D14FF4404002F099F80A208F
:1024C40000F038FB204B5B691F4A43F02003536143
:1024D400782000F02FFB1C4B1B691B4A43F02003A0
:1024E4001361022005F03AFA184BDB7903F0040378
:1024F400002B18D14FF4A03002F07AF80A2000F033
:1025040019FB114B5B69104A43F020035361782097
:1025140000F010FB0C4B1B690B4A43F020031361C2
:10252400022005F01BFA074B1B69064A43F001031E
:102534001361054B5B69044A43F48073536100BF24
:1025440080BD00BF000C0140001001409801002034
:1025540080B500AF384B5B69374A43F004035361DD
:10256400FFF764FE00F01EFD344B1B69334A43F051
:1025740020031361304B5B692F4A43F0010353611D
:102584002E4B1B692D4A43F4807313614FF448703A
:1025940005F0E4F92A4BDB7903F00103002B18D191
:1025A4004FF4703002F024F80A2000F0C3FA234BF1
:1025B4005B69224A43F020035361782000F0BAFAA1
:1025C4001E4B1B691D4A43F020031361022005F0D2
:1025D400C5F91B4BDB7903F00203002B18D14FF430
:1025E400404002F005F80A2000F0A4FA134B5B699E
:1025F400124A43F020035361782000F09BFA0F4BFA
:102604001B690E4A43F020031361022005F0A6F96A
:10261400094B1B69084A43F001031361074B5B69CB
:10262400064A43F480735361034B1B69024A43F027
:102634000403136100BF80BD000C01400010014081
:102644009801002080B500AF1F4B1B691E4A43F060
:10265400040313611D4B1B691C4A43F020031361DF
:10266400194B5B69184A43F001035361174B1B690B
:10267400164A43F4807313614FF4804001F0B8FFAD
:102684004FF4487005F06AF9104B5B690F4A43F048
:10269400200353610F2005F061F90C4B1B690B4AB1
:1026A40043F020031361642005F058F9064B1B69BD
:1026B400054A43F001031361044B5B69034A43F485
:1026C4008073536100BF80BD000C014000100140C5
:1026D40080B500AF224B5B69214A43F00403536188
:1026E400204B1B691F4A43F0200313611C4B5B6999
:1026F4001B4A43F0010353611A4B1B69194A43F403
:10270400807313614FF4804001F072FF4FF44870FE
:1027140005F024F9134B5B69124A43F0200353611B
:102724000F2005F01BF90F4B1B690E4A43F02003E1
:102734001361642005F012F9094B1B69084A43F040
:1027440001031361074B5B69064A43F480735361C9
:10275400034B1B69024A43F00403136100BF80BDAD
:10276400000C01400010014080B582B000AF00F0C1
:10277400FFFB354B5B69344A43F004035361642027
:1027840000F0D8F9304B1B692F4A43F0040313615E
:10279400642000F0CFF92C4B1B692B4A43F0010352
:1027A40013612A4B5B69294A43F480735361274BB5
:1027B4001B69264A43F02003136100237B6038E041
:1027C40000233B6014E07A683B68134443F44033CD
:1027D400184601F00DFF0A2000F0ACF91C4B9A6872
:1027E4003B680433D1B21B4AD1543B6801333B608C
:1027F4003B68B3F5007FE6DB164BAC221A70154B31
:1028040002225A70134B00229A70124BA822DA70DB
:102814004FF401710F4801F0A5FE00BF0E4B1B7869
:10282400002BFBD00C4B00221A707B6803F500735D
:102834007B607A68094B1B689A42C1D300BF00BF12
:102844000837BD4680BD00BF000C014000100140A8
:1028540000080140AC030020A9080020C80500209E
:1028640080B582B000AF394B5B69384A43F004034A
:102874005361FFF7DBFC00F07BFB354B1B69344AEB
:1028840043F020031361314B5B69304A43F0010389
:1028940053612F4B5B692E4A43F480735361642068
:1028A40000F048F9294B1B69284A43F001031361DE
:1028B400274B5B69264A43F480735361642000F01C
:1028C40039F94FF4403001F093FE00237B6032E08D
:1028D40000233B600EE00A2000F02CF91D4B9A689F
:1028E4003B680433D1B21C4AD154FFF7C5FC3B68A2
:1028F40001333B603B68B3F5007FECDB164BAC2245
:102904001A70154B02225A70134B00229A70124B04
:10291400A822DA704FF401710F4801F023FE00BFC2
:102924000E4B1B78002BFBD00C4B00221A707B68DB
:1029340003F500737B607A68094B1B689A42C7D31E
:1029440000BF00BF0837BD4680BD00BF000C01407A
:102954000010014000080140AC030020A908002039
:10296400C805002080B582B000AF2F4B1B692E4AEA
:1029740043F0040313612D4B1B692C4A43F02003DD
:10298400136100237B602EE07B680733284AD35C05
:10299400FF2B24D07A68274B1B68134443F460331D
:1029A400184601F025FE7B680733214AD25C224B8E
:1029B400DA600A2000F0BEF81C4B5B691B4A43F046
:1029C40020035361782000F0B5F8184B1B69174AAF
:1029D40043F020031361022004F0C0FF00E000BFB5
:1029E4007B6801337B607B68B3F5007FCCDB114BE4
:1029F4001B6803F500730F4A1360104BAC221A7066
:102A04000E4B00225A700D4B01229A700B4BAA22D6
:102A1400DA700A4B00221A710521084801F0A2FD60
:102A240000BF0837BD4680BD000C014000100140C6
:102A340098010020D005002000080140AC030020CC
:102A440080B582B000AF4FF4603001F0D1FD294B66
:102A54005B69284A43F004035361274B1B69264AE8
:102A640043F02003136100237B6028E07B68073375
:102A7400224AD35CFF2B02D1FFF7FEFB1CE07B68EC
:102A840007331E4AD25C1E4BDA600A2000F052F86B
:102A9400194B5B69184A43F020035361782000F016
:102AA40049F8154B1B69144A43F0200313610220B3
:102AB40004F054FFFFF7E0FB7B6801337B607B6825
:102AC400B3F5007FD2DB0F4BAC221A700D4B002202
:102AD4005A700C4B01229A700A4BAA22DA70094BE5
:102AE40000221A710521074801F03CFD00BF083798
:102AF400BD4680BD000C014000100140980100203B
:102B040000080140AC03002080B400AF074BDB6930
:102B1400064A43F00403D361054B47229A62044BEF
:102B240008221A6000BFBD4680BC704700100240F6
:102B34000008004080B483B000AF78600D4A7B6821
:102B4400D3620C4B00225A620A4B01221A6000BF66
:102B5400084B1B6903F00103002BF9D0054B1B69DB
:102B6400044A23F00103136100BF0C37BD4680BC47
:102B7400704700BF0008004080B483B000AF0E4B24
:102B84009B690D4A43F0100393610B4B9B6903F05F
:102B940010037B607B68084B9B69074A43F004037E
:102BA4009361054B9B6903F004033B603B6800BFE2
:102BB4000C37BD4680BC70470010024080B400AFA3
:102BC400984B9B69974A43F008039361954B9B6923
:102BD400944A43F010039361924B9B69914A43F0EA
:102BE400200393618F4B9B698E4A43F040039361AA
:102BF4008D4B1B688C4A43F4003313608A4B1B686B
:102C0400894A23F480331360874B1B68864A23F474
:102C140040231360844B1B68834A43F440131360BE
:102C2400814B1B68804A23F4400313607F4B1B686D
:102C34007E4A43F0030313607C4B1B687B4A23F0FA
:102C44000C031360784B1B68774A43F0407313609E
:102C5400754B1B68744A23F040631360734B1B6805
:102C6400724A43F440731360704B1B686F4A23F439
:102C7400406313606E4B1B686D4A43F0030313609B
:102C84006B4B1B686A4A23F00C031360684B1B6888
:102C9400674A43F030031360654B1B68644A23F0B2
:102CA400C0031360624B1B68614A43F440731360B2
:102CB4005F4B1B685E4A23F4406313605C4B1B68E4
:102CC4005B4A43F440531360594B1B68584A23F43E
:102CD40040431360564B1B68554A43F4403313601A
:102CE400534B1B68524A23F440231360504B1B6818
:102CF4004F4A43F4401313604D4B1B684C4A23F472
:102D0400400313604A4B1B68494A43F04073136005
:102D1400474B1B68464A23F040631360444B1B68CF
:102D2400434A43F040531360414B1B68404A23F02D
:102D3400404313603E4B5B683D4A43F003035360DA
:102D44003B4B5B683A4A23F00C035360384B5B6897
:102D5400374A43F030035360354B5B68344A23F001
:102D6400C0035360324B5B68314A43F44073536091
:102D74002F4B5B682E4A23F4406353602C4B5B68F3
:102D84002B4A43F440535360294B5B68284A23F48D
:102D940040435360264B5B68254A43F440335360F9
:102DA400234B5B68224A23F440235360204B5B6827
:102DB4001F4A43F4401353601D4B5B681C4A23F4C1
:102DC400400353601A4B5B68194A43F040735360E5
:102DD400174B5B68164A23F040635360144B5B68DF
:102DE400134A43F040535360114B5B68104A23F07D
:102DF400404353600F4B5B680E4A43F00303536038
:102E04000C4B5B680B4A23F00C035360094B5B6863
:102E1400084A43F030035360064B5B68054A23F0CD
:102E2400C00309E00010024000100140000C014002
:102E3400001801400014014053604A4B5B68494A42
:102E440043F440735360474B5B68464A23F4406342
:102E54005360444B5B68434A43F440535360414BD3
:102E64005B68404A23F4404353603E4B5B683D4AF1
:102E740043F4403353603B4B5B683A4A23F44023AA
:102E84005360384B5B68374A43F440135360354B07
:102E94005B68344A23F440035360324B5B68314A25
:102EA40043F0407353602F4B5B682E4A23F040631A
:102EB40053602C4B5B682B4A43F040535360294BBF
:102EC4005B68284A23F040435360274B1B68264A1B
:102ED40043F440531360244B1B68234A23F44043B8
:102EE4001360204B1B681F4A43F4403313601D4B8F
:102EF4001B681C4A23F4402313601C4B5B681B4A69
:102F040043F003035360194B5B68184A23F00C0326
:102F14005360164B1B68154A43F040531360134B20
:102F24001B68124A23F0404313600F4B5B680E4A40
:102F340043F4403353600C4B5B680B4A23F4402347
:102F44005360094B1B68084A43F440131360064B53
:102F54001B68054A23F44003136000BFBD4680BCD0
:102F6400704700BF00140140000C014000100140F4
:102F740080B400AF084B4FF088321A60074B4FF013
:102F840088321A60064B5B69054A43F010035361AB
:102F940000BFBD4680BC70470008014000140140DA
:102FA4000010014080B400AF084B4FF033321A6078
:102FB400074B4FF033321A60064B1B69054A43F046
:102FC4001003136100BFBD4680BC70470008014078
:102FD400001401400010014080B483B000AF0346E8
:102FE400FB71554B9B69544A43F008039361534B5F
:102FF4005B68524A43F44C535360504B5B684F4AEE
:1030040043F44C4353604C4BDB694B4A43F4800319
:10301400D3614B4B1B684A4A43F400431360484B4B
:103024001B68474A23F400431360454BDB68444A5A
:1030340023F00103D360424B1B68414A23F0400351
:1030440013603F4B1B683E4A23F0800313603C4BE4
:103054001B683B4A23F001031360394B5B6823F080
:103064003F03374A43F024035360FB79002B12D10A
:10307400334B1B6A23F03F03314A43F025031362A9
:103084002F4BDB6923F44F4323F0FF032C4A43F017
:10309400B403D36129E0FB79012B14D1284B1B6ABB
:1030A40023F03F03264A43F00B031362244BDB69EE
:1030B40023F44F4323F0FF03214A43F4004343F036
:1030C4001E03D36111E01E4B1B6A23F03F031C4A0D
:1030D40043F0250313621A4BDB6923F44F4323F0B7
:1030E400FF03174A43F0B403D361154B9B6823F4E1
:1030F400434323F0FF03124A43F480439360104B8D
:103104001B680F4A23F01A0313600D4B1B680C4A0B
:1031140043F0010313600A4B1B68094A43F48063BC
:103124001360074BDB68064A23F0FE03D36000BF3D
:103134000C37BD4680BC704700100240000C0140B3
:103144000058004080B485B000AF3B600346FB717B
:103154000B46BB801346BB714FF6FF73FB81634B79
:103164001B68624A23F400631360604B1B685F4A68
:1031740043F4806313605D4B1B685C4A43F48073C3
:1031840013604FF6FF73FB8102E0FB89013BFB8177
:10319400564B5B6903F00103002B02D1FB89002B22
:1031A400F3D1FB89002B01D101239AE04F4B5B69DA
:1031B4004E4B1B6923F0FF02FB794C4913430B610F
:1031C4004FF6FF73FB8102E0FB89013BFB81474B18
:1031D4005B6903F00203002B02D1FB89002BF3D1BE
:1031E400FB89002B01D101237BE0404B5B693F4B02
:1031F4009B69BB79022B20D13C4B1B6923F0FF0355
:10320400BA88120A92B2D2B21146384A0B431361F9
:103214004FF6FF73FB8102E0FB89013BFB81334BDB
:103224005B6903F08003002B02D1FB89002BF3D1EF
:10323400FB89002B01D1012353E02C4B1B6923F0A4
:10324400FF03BA88D2B21146284A0B4313614FF6E2
:10325400FF73FB8102E0FB89013BFB81234B5B692C
:1032640003F08003002B02D1FB89002BF3D1FB89EF
:10327400002B01D1012334E00023BB6026E01B4B6B
:103284001B6923F0FF03B98BBA680A4411463A68F4
:103294000A4412781146154A0B4313614FF6FF7323
:1032A400FB8102E0FB89013BFB81104B5B6903F06E
:1032B4008003002B02D1FB89002BF3D1FB89002B67
:1032C40001D101230DE0BB680133BB603B8BBA68BD
:1032D4009A42D4DB054B1B68044A43F40073136021
:1032E400002318461437BD4680BC70470058004080
:1032F40080B485B000AF3B600346FB710B46BB71E5
:103304001346BB804FF6FF73FB81934B1B68924AB5
:1033140023F400631360904B1B688F4A43F480636B
:1033240013608D4B1B688C4A43F48073136002E076
:10333400FB89013BFB81884B5B6903F00103002B94
:1033440002D1FB89002BF3D1FB89002B01D101238E
:10335400FCE0814B5B69804B1B6923F0FF02FB7926
:103364007D4913430B614FF6FF73FB8102E0FB8938
:10337400013BFB81784B5B6903F00203002B02D114
:10338400FB89002BF3D1FB89002B01D10123DDE064
:10339400714B5B69704B9B69BB79022B20D16E4BDF
:1033A4001B6923F0FF03BA88120A92B2D2B2114603
:1033B400694A0B4313614FF6FF73BB8102E0BB897B
:1033C400013BBB81644B5B6903F08003002B02D19A
:1033D400BB89002BF3D1BB89002B01D10123B5E0BC
:1033E4005D4B1B6923F0FF03BA88D2B211465A4AD7
:1033F4000B4313614FF6FF73FB8102E0FB89013B32
:10340400FB81554B5B6903F08003002B02D1FB89E0
:10341400002BF3D1FB89002B01D1012396E04E4B05
:103424001B684D4A43F4807313604FF6FF73FB81AE
:1034340002E0FB89013BFB81474B5B6903F001031D
:10344400002B02D1FB89002BF3D1FB89002B01D186
:1034540001237BE0404B5B693F4B1B6923F0FF0377
:10346400FA7942F00102D2B211463B4A0B4313618E
:103474004FF6FF73FB8102E0FB89013BFB81364B76
:103484005B6903F00203002B02D1FB89002BF3D10B
:10349400FB89002B01D1012358E02F4B5B692E4B94
:1034A4009B690023BB604CE0BB695A1EBB689A420F
:1034B4001CD94FF6FF73FB8102E0FB89013BFB81C2
:1034C400254B5B6903F04003002B02D1FB89002BE1
:1034D400F3D1FB89002B01D1012337E01E4B19697D
:1034E400BB683A681344CAB21A7027E01A4B1B68C7
:1034F400194A23F480631360174B1B68164A43F47C
:10350400007313604FF6FF73FB8102E0FB89013BFC
:10351400FB81114B5B6903F04003002B02D1FB8953
:10352400002BF3D1FB89002B01D101230EE00A4BC0
:103534001969BB683A681344CAB21A70BB6801338C
:10354400BB60BB68BA699A42AED8002318461437E8
:10355400BD4680BC704700BF0058004080B500AF36
:1035640004F09AF900F070F8FFF728FB314B5B691F
:10357400304A43F0200353610A2004F0EFF92D4B45
:103584001B692C4A43F020031361642004F0E6F91C
:10359400FFF7F2FA08F07AFFFFF7B6FA0020FFF718
:1035A4001BFD062003F0D0FFFFF7FCFC002001F018
:1035B4001FF8214B5B69204A43F0800353611D4B84
:1035C4001B691C4A43F0010313611B4B5B691A4AD4
:1035D40043F480735361184B1B69174A43F020036B
:1035E4001361144B1B69134A43F004031361134B17
:1035F4005B69124A43F010035361114B5B69104A33
:1036040043F0100353610B4B1B690A4A43F0080350
:103614001361094B5B69084A43F040035361094B4A
:103624001B78002BFBD000F07BF8064B00221A70AD
:10363400F5E700BF000C01400010014000180140F4
:1036440000140140A808002080B59CB000AF07F129
:10365400380338220021184609F042FC07F12403FC
:1036640000221A605A609A60DA601A613B1D2022B7
:103674000021184609F034FC0123BB634FF4803366
:103684003B6400237B640123FB640023FB6302236C
:10369400BB654FF48033FB654FF4E0133B660023B6
:1036A4007B6607F13803184605F0B2FA0346002B8F
:1036B40001D000F02FF80F237B620223BB620023AA
:1036C400FB624FF480633B6300237B6307F12403B5
:1036D4000221184605F0B2FD0346002B01D000F08C
:1036E40019F812237B604FF40043FB6000233B6214
:1036F4003B1D184605F0C6FF0346002B01D000F021
:1037040009F8034B01221A6000BF7037BD4680BD23
:103714007000424280B400AF72B600BFFEE7000002
:1037240080B582B000AF9C4B1B78DBB2AC2B03D0CE
:1037340000F0ECFE00F0DDBE974BDB78DBB2A03B83
:103744005A2B00F2CF8601A252F823F0073C00085E
:10375400973C00080D3D00087B3D0008E93D00084A
:103764004B3E0008113F0008473F0008933F000804
:10377400FD3F0008C1400008E9440008E94400088E
:10378400E9440008E9440008E9440008E34000086B
:1037940015410008C94100086B420008D7420008DF
:1037A400DD420008E944000885430008E9440008B4
:1037B400E9440008E9440008E9440008E944000831
:1037C400E9440008E9440008E9440008E944000821
:1037D400E9440008E9440008E9440008E944000811
:1037E400E9440008E9440008E9440008E944000801
:1037F400E9440008E9440008E9440008E9440008F1
:10380400E9440008E9440008E9440008C538000810
:10381400E9440008E9440008E9440008E9440008D0
:10382400E9440008E9440008E9440008E9440008C0
:10383400E9440008BD380008E9440008E9440008E8
:10384400E9440008E9440008E94400082D4400085C
:103854006D440008C3440008E9440008E944000832
:10386400E9440008E9440008E9440008E944000880
:10387400E9440008E9440008E9440008E944000870
:10388400E9440008E9440008E9440008CD38000888
:103894005B390008B5390008E33A0008E944000838
:1038A400E94400080D3B0008E9440008B53B000862
:1038B400E9440008C73B000800F03EFE00F019BED2
:1038C40000F0AEFE00F015BEFFF752FB334B5B6910
:1038D400324A43F020035361314B1B69304A43F0B1
:1038E400040313612E4B1B692D4A43F0010313613A
:1038F4002A4B5B69294A43F480735361264B5B79F5
:10390400DBB21A04244B9B79DBB21B021343224A19
:10391400D279D2B213431A46224B1A601E4B1B793A
:10392400DAB2214B1A701C4B1B7ADBB21B021AB29F
:10393400194B5B7ADBB21BB213431BB29AB21B4B1B
:103944001A8000F029FF154B1B69144A43F0200329
:10395400136100F0CEBD124B1B69114A43F00403FE
:1039640013610F4B1B690E4A43F0010313610B4BA8
:103974005B690A4A43F480735361084B1B69074A25
:1039840043F020031361044B1B79DAB2064B1A701F
:1039940002F046FA00F0ADBD98010020001001408D
:1039A400000C0140C8050020DA050020D8050020DD
:1039B4009D4B1B699C4A43F0200313619B4B1B697D
:1039C4009A4A43F001031361974B5B69964A43F4A7
:1039D40080735361954B1B69944A43F0040313614C
:1039E400934B1B69924A43F480431361914B1B69C7
:1039F400904A43F4806313618F4B00221A608F4B0B
:103A040000221A60FFF7CEFA8D4B5B79DBB21A0401
:103A14008B4B9B79DBB21B021343894AD279D2B216
:103A240013431A46874B1A60854B1B7BDBB21B0280
:103A3400834A527BD2B213431A46834B1A60804B9B
:103A44001B79DAB2814B1A70804B1B78072B13D089
:103A54007E4B1B78112B0FD07C4B1B78122B0BD079
:103A64007A4B1B781B2B07D0784B1B78252B03D064
:103A7400764B1B782F2B0FD16C4B5B696B4A43F051
:103A840001035361684B1B69674A43F480731361F4
:103A94004FF4487003F062FF694B1B7ADBB21B02E0
:103AA4001AB2674B5B7ADBB21BB213431BB29AB2F6
:103AB400674B1A80674BAC221A70664B00225A700F
:103AC400644B01229A70634BF322DA70614B00223B
:103AD4001A7105215F4800F045FD00F00ABD584BFE
:103AE4009B79DBB21A46564B5B79DBB21B021A4355
:103AF400534B1B79DBB21B0413431A46564B1A6013
:103B040001F0A0F900F0F5BCFFF74CFA464B1B6935
:103B1400454A43F020031361444B1B69434A43F075
:103B240001031361404B5B693F4A43F48073536163
:103B34003E4B1B693D4A43F0040313613E4B002294
:103B44001A603E4B00221A60FFF72CFA3C4B5B795B
:103B5400DBB21A043A4B9B79DBB21B021343384A9B
:103B6400D279D2B213431A46364B1A60344B9B7A3D
:103B7400DBB21B02324AD27AD2B213431A46324B18
:103B84001A602F4B1B79DAB2304B1A702C4B1B7B0B
:103B9400DBB21B021AB22A4B5B7BDBB21BB21343B0
:103BA4001BB29AB22A4B1A8002F068FD00F0A1BC45
:103BB400234B1B79DAB2254B1A7003F001F900F09C
:103BC40098BC1A4B1B69194A43F001031361164B45
:103BD4005B69154A43F480735361134B5B69124A62
:103BE40043F080035361104B1B690F4A43F02003D9
:103BF40013610E4B1B690D4A43F00403136100F07B
:103C040078BC0F4B1B79DAB2104B1A700F4B1B7830
:103C1400032B02D1FEF7B8F829E00C4B1B78072BD5
:103C24001CD1FEF745FB22E000100140000C0140CE
:103C34000018014000140140D0050020D4050020E4
:103C440098010020C8050020CC050020DA050020DA
:103C5400D8050020AC030020C0050020A54B1B782C
:103C6400082B02D1FEF79CFB01E0FCF76FFEA24B90
:103C7400AC221A70A04B00225A709F4B03229A70F8
:103C84009D4BA022DA7007219B4800F06BFC00F0EA
:103C940030BC9A4B1B79DAB2964B1A70954B1B7851
:103CA400012B02D1FCF78EFF1DE0924B1B78032BF6
:103CB40002D1FEF7AFF816E08E4B1B78072B03D02A
:103CC4008C4B1B78082B0CD18B4B00221A718A4B1E
:103CD40000225A71884B00229A71874B0022DA71B4
:103CE40001E0FCF7CBFE844BAC221A70824B00221D
:103CF4005A70814B04229A707F4BA122DA700821FA
:103D04007D4800F02FFCF4E37C4B1B7ADAB2794B4C
:103D14001A70784B1B78012B02D1FDF7DFF816E0FF
:103D2400744B1B78032B02D1FEF7BEF80FE0714BE6
:103D34001B78072B02D1FEF779FB08E06D4B1B784B
:103D4400082B02D1FEF704FC01E0FCF7DFFF6A4B0D
:103D5400AC221A70684B00225A70674B01229A7089
:103D6400654BA222DA70644B00221A710521624865
:103D740000F0F8FBBDE3614B1B79DAB25D4B1A70BE
:103D84005C4B1B78012B02D1FDF7A6F916E0594BC9
:103D94001B78032B02D1FEF7E1F80FE0554B1B789B
:103DA400072B02D1FEF74EFC08E0524B1B78082B80
:103DB40002D1FEF78DFC01E0FDF76CF94E4BAC220D
:103DC4001A704D4B00225A704B4B01229A704A4B89
:103DD400A322DA70484BA1221A710521464800F04B
:103DE400C1FB86E3454B1B79DBB21A46434B5B7937
:103DF400DBB21B021A43414B9B79DBB21B04134316
:103E04001A463F4B1A603D4BDB79DAB2394B1A70D4
:103E1400384B1B78012B02D1FDF7F8F969E3354BD8
:103E24001B78032B02D1FEF7AFF862E3314B1B780A
:103E3400072B00F059832F4B1B78082B00F0548379
:103E4400FDF768F955E32F4B00221A602B4B1B79C1
:103E5400DBB21A46294B5B79DBB21B021A43274BB0
:103E64009B79DBB21B0413431A46254B1A60234B80
:103E7400DB79DBB21A46244B1A60204B1B7ADAB288
:103E84001C4B1A701B4B1B78012B05D1FCF734FC1F
:103E94001120FCF7C5FC19E0164B1B78032B06D147
:103EA400FDF7F6FE11214C20FDF778FE0EE0114BD4
:103EB4001B78072B00F01A830E4B1B78082B00F09D
:103EC4001583FCF799FB1120FCF77CFC0A4BAC2210
:103ED4001A70094B00225A70074B01229A70064B44
:103EE400A622DA70044B00221A710521024800F060
:103EF40039FBFEE2DA050020AC0300209801002023
:103F0400C8050020C4050020CC050020A34B1B7865
:103F1400012B02D1FDF78AFAEBE2A04B1B78032BAD
:103F240002D1FEF793F8E4E29C4B1B78072B00F0D8
:103F3400DF829A4B1B78082B00F0DA82FDF7E2F956
:103F4400D7E2964B1B78012B02D1FCF711FBD0E290
:103F5400924B1B78032B02D1FCF70AFBC9E28F4B6F
:103F64001B78072B03D08D4B1B78082B0CD18C4B63
:103F74001B698B4A43F0010313618A4B5B69894ACD
:103F840043F480735361B4E2FCF7CEFAB1E2864B9A
:103F94001B79DBB21A46844B5B79DBB21B021A43F2
:103FA400814B9B79DBB21B0413431A467F4B1A6087
:103FB4007D4BDB79DAB2794B1A70784B1B78012B85
:103FC40002D1FDF773FB94E2744B1B78032B02D1EF
:103FD400FEF7B8F88DE2714B1B78072B02D1FEF780
:103FE400C3FB86E26D4B1B78082B02D1FEF738FC2D
:103FF4007FE2FDF7AFFA7CE26B4B1B79DBB21A462A
:10400400694B5B79DBB21B0213435B001A46684BB6
:104014001A60654B9B79DAB2604B1A70654B0022CB
:104024001A60654B00221A605C4B1B78012B02D18D
:10403400FCF762FB2CE0594B1B78032B02D1FDF7F4
:1040440027FE25E0554B1B78072B03D0534B1B78D9
:10405400082B1BD1514B1B78082B01D1FEF7E6F836
:10406400534B1B685B08524A13604D4B5B694C4AC7
:1040740043F0010353614B4B1B694A4A43F4807379
:1040840013614FF4487003F069FC01E0FCF7B4FAE3
:10409400FEF788FF494BAC221A70484B00225A7035
:1040A400464B01229A70454BAA22DA70434B0022F8
:1040B4001A710521414800F055FA1AE2374B1B7872
:1040C400072B02D1FEF74EFC13E2344B1B78082B6E
:1040D40002D1FEF7B5FC0CE2FDF780FB09E2324B9E
:1040E4001B79DBB21A46304B5B79DBB21B021A43F5
:1040F4002D4B9B79DBB21B041A432B4BDB79DBB2D0
:104104001B0613431A46294B1A6002F027FFF0E1FD
:104114000023FB700023BB7000237B70204B5B6982
:104124001F4A43F4805353619F2003F015FB002082
:1041340003F012FB03467B70002003F00DFB0346E3
:10414400FB70002003F008FB0346BB7000BF1C4B50
:104154009B6803F08003002BF9D1114B1B69104AB3
:1041640043F480531361154BAC221A70134B002295
:104174005A70124B03229A70104BB122DA700F4A14
:10418400FB7813710D4ABB7853710C4A7B78937199
:1041940007210A4800F0E6F9ABE100BFDA05002088
:1041A400000C01400010014098010020C8050020C7
:1041B400CC050020D0050020D4050020AC0300204D
:1041C4000038004000237B7100233B71A04B5B69E6
:1041D4009F4A43F480535361052003F0BDFA002045
:1041E40003F0BAFA03467B7100BF9A4B9B6803F055
:1041F4008003002BF9D1964B1B69954A43F48053F5
:104204001361934B5B69924A43F4805353613520A5
:1042140003F0A2FA002003F09FFA03463B7100BFAB
:104224008C4B9B6803F08003002BF9D1884B1B69EE
:10423400874A43F480531361874BAC221A70864B30
:1042440000225A70844B02229A70834BB222DA7095
:10425400814A7B791371804A3B79537106217E48E8
:1042640000F080F945E17D4B1B79DBB21A467B4BAC
:104274005B79DBB21B021A43784B9B79DBB21B04DC
:104284001A43764BDB79DBB21B0613431A46744B95
:104294001A60724B1B7ADBB21A46704B5B7ADBB244
:1042A4001B0213431A466F4B1A606B4BAC221A70F5
:1042B400694B00225A70684B01229A70664BB422F3
:1042C400DA70654B00221A710521634800F04AF93F
:1042D4000FE102F0E9FE0CE15D4B5B695C4A43F4DB
:1042E40080535361062003F037FA00BF594B9B6893
:1042F40003F08003002BF9D1554B1B69544A43F456
:104304008053136100BF02F0A7FE034603F00203CB
:10431400002BF8D04E4B5B694D4A43F480535361F4
:10432400C72003F019FA00BF4A4B9B6803F08003CF
:10433400002BF9D1464B1B69454A43F48053136162
:1043440000BF02F089FE034603F00103002BF8D0FE
:1043540041F2707003F002FB3F4BAC221A703E4BEB
:1043640000225A703C4B01229A703B4BB522DA7002
:10437400394B00221A710521374800F0F3F8B8E0F0
:10438400364B1B79FB71354B5B79BB71304B5B69E9
:104394002F4A43F480535361502003F0DDF900BFEA
:1043A4002C4B9B6803F08003002BF9D1284B1B692D
:1043B400274A43F480531361322003F0CFFA244B8D
:1043C4005B69234A43F480535361012003F0C4F929
:1043D400BB79184603F0C0F9FB79184603F0BCF921
:1043E40000BF1C4B9B6803F08003002BF9D1184BD2
:1043F4001B69174A43F480531361322003F0AEFA69
:10440400154BAC221A70144B00225A70124B012225
:104414009A70114BB722DA700F4B00221A710521E2
:104424000D4800F09FF864E00C4B1B79DBB21A4690
:104434000A4B5B79DBB21B021A43084B9B79DBB254
:104444001B0413431A46064B1A6002F0E9FE50E0BF
:10445400000C014000380040AC030020980100200B
:10446400C8050020CC050020234B1B79DBB21A467B
:10447400214B5B79DBB21B021A431F4B9B79DBB2E6
:104484001B0413431A461D4B1A601B4BDB79DBB22A
:104494001A461B4B1A601B4BAC221A70194B002294
:1044A4005A70184B01229A70164BE222DA70154B9F
:1044B40000221A710521134800F054F819E00E4B3C
:1044C4009B79DBB21A460C4B5B79DBB21B021A43B5
:1044D400094B1B79DBB21B0413431A460A4B1A60BF
:1044E40002F04CFF00BF04E000BF02E000BF00E0A8
:1044F40000BF0837BD4680BD98010020C8050020D4
:10450400CC050020AC030020C005002080B582B09B
:1045140000AFAC233B7000237B700123BB70EE2300
:10452400FB7000233B713B460521184600F01AF846
:1045340000BF0837BD4680BD80B582B000AFAC2354
:104544003B7000237B700123BB70DA23FB700023D4
:104554003B713B460521184600F004F800BF0837BC
:10456400BD4680BD80B584B000AF78600B467B80CB
:104574007B881946786808F087F80346FB7397F937
:104584000F30002BF4D100BF00BF1037BD4680BDF3
:1045940080B584B000AF03463960FB711346BB801D
:1045A400AC233B72BB881B0A9BB2DBB27B72BB8819
:1045B400DBB2BB72FB79FB7207F1080304211846D6
:1045C40008F062F80346FB7397F90F30002BF3D120
:1045D400BB881946386808F057F80346FB7397F907
:1045E4000F30002BF4D100BF00BF1037BD4680BD93
:1045F40080B483B000AF7860074A7B689BB2D36015
:104604007B681B0A054A03F47F43D36000BF0C3761
:10461400BD4680BC704700BF001801400014014033
:1046240080B500AFFEF7BEFC544BDB79DAB2544BD5
:10463400DA60524B1B79DBB21A04504B5B79DBB264
:104644001B0213434D4A9279D2B213431A464D4B7F
:104654001A604C4B1B681846FFF7CAFF4A4BDB68CD
:10466400494A03F47F43D360444B1B7BDAB2464B85
:10467400DB681146444A0B43D360404B1B7ADBB2E0
:10468400002B0CD03F4B1B6803F40073002B06D0A7
:104694003E4B1B693D4A43F08003136105E03B4BED
:1046A4005B693A4A43F080035361344B5B7ADBB273
:1046B400FF2B06D1354B1B69344A43F020031361A9
:1046C40005E0324B5B69314A43F0200353612B4BC5
:1046D4009B7ADBB2002B1ED0284B1B7ADBB2002B5B
:1046E4000CD02B4B5B692A4A43F001035361274BDF
:1046F4001B69264A43F48073136118E0244B1B6939
:10470400234A43F001031361204B5B691F4A43F4BE
:10471400807353610BE01E4B5B691D4A43F0010338
:1047240053611A4B5B69194A43F480735361134B09
:10473400DB7ADBB2002B06D0154B1B69144A43F01D
:104744000403136105E0124B5B69114A43F004034F
:104754005361104BAC221A700E4B00225A700D4B51
:1047640001229A700B4BD022DA700A4BAC221A71D8
:1047740005210848FFF7F6FE00BF80BD9801002020
:1047840000080140C405002000140140001001404D
:10479400000C0140AC03002080B500AFFEF7E8FB3D
:1047A4009A4B1B78013B1A2B00F22D8101A252F87F
:1047B40023F000BF254800080B4A00080B4A0008F4
:1047C400794800084F480008A3480008CD4800086D
:1047D400F74800084B4900080B4A00080B4A000838
:1047E4000B4A0008754900080B4A00080B4A0008E8
:1047F4000B4A0008B7490008214900080B4A000881
:104804000B4A00080B4A00080B4A00080B4A000830
:104814000B4A00080B4A00080B4A0008E14900084B
:1048240000F0FAF87A4B1B69794A43F001031361EB
:10483400784B5B69774A43F480735361744B1B690B
:10484400734A43F004031361DEE000F0E5F8704BB3
:104854001B696F4A43F0010313616E4B5B696D4A38
:1048640043F4807353616A4B1B69694A43F0040340
:104874001361C9E000F0D0F8654B1B69644A43F04A
:1048840001031361634B5B69624A43F480735361B0
:104894005F4B1B695E4A43F004031361B4E000F00C
:1048A400BBF85B4B1B695A4A43F001031361594B34
:1048B4005B69584A43F480735361554B1B69544AEE
:1048C40043F0040313619FE000F020F9504B1B698F
:1048D4004F4A43F0010313614E4B5B694D4A43F465
:1048E400807353614A4B1B69494A43F004031361C3
:1048F4008AE000F0FFF9464B1B69454A43F0010387
:104904001361444B5B69434A43F480735361404BE6
:104914001B693F4A43F00403136175E000F0EAF9B0
:104924003B4B1B693A4A43F001031361394B5B6902
:10493400384A43F480735361354B1B69344A43F05E
:104944000403136160E000F067F8314B1B69304ADF
:1049540043F0010313612F4B5B692E4A43F48073C8
:1049640053612B4B1B692A4A43F0040313614BE048
:1049740000F056F9264B1B69254A43F001031361E5
:10498400244B5B69234A43F480735361204B1B68B7
:104994001F4A23F4407313601D4B1B681C4A23F405
:1049A400406313601A4B1B68194A43F48063136015
:1049B4002AE000F0ABF8164B1B69154A43F00103DB
:1049C4001361144B5B69134A43F480735361104BB6
:1049D4001B690F4A43F00403136115E000F096F8D5
:1049E4000B4B1B690A4A43F001031361094B5B69D2
:1049F400084A43F480735361054B1B69044A43F02E
:104A04000403136100E000BF00BF80BDDA0500208D
:104A1400000C01400010014080B582B000AF0023BB
:104A24007B605DE0334BAC221A70324B02225A7029
:104A3400304B00229A702F4BF022DA702E4B5B69B8
:104A44002D4A43F02003536100233B602DE03A6874
:104A54007B6813441846FFF7CBFD284B5B69274A54
:104A640043F001035361244B5B69234A43F480738D
:104A740053610120FEF75EF8214B9A683B680433CA
:104A8400D1B21C4AD1541D4B1B691C4A43F001038B
:104A94001361194B5B69184A43F480735361012015
:104AA400FEF748F83B6801333B603B68B3F5007F91
:104AB400CDDB114B1B69104A43F0200313614FF403
:104AC40001710C48FFF74EFD00BF0E4B1B78002B05
:104AD400FBD00C4B00221A707B6803F500737B60DB
:104AE400094B1B687A689A429CD300BF00BF083701
:104AF400BD4680BDAC03002000100140000C014005
:104B040000080140A9080020C805002080B582B033
:104B140000AF00237B606BE03A4BAC221A70394B38
:104B240002225A70374B00229A70364BF022DA7008
:104B3400354B5B69344A43F02003536100233B60E7
:104B44003BE0324B1B78112B08D13A687B68134445
:104B540043F480431846FFF74BFD12E02B4B1B78C0
:104B64001B2B08D13A687B68134443F4802318460E
:104B7400FFF73EFD05E03A687B6813441846FFF7EB
:104B840037FD234B5B69224A43F004035361012040
:104B9400FDF7D0FF1F4B9A683B680433D1B2194A22
:104BA400D1541B4B1B691A4A43F0040313610120BF
:104BB400FDF7C0FF3B6801333B603B68B3F5007F02
:104BC400BFDB114B1B69104A43F0200313614FF400
:104BD40001710C48FFF7C6FC00BF0F4B1B78002B7C
:104BE400FBD00D4B00221A707B6803F500737B60C9
:104BF4000A4B1B687A689A428ED300BF00BF0837FD
:104C0400BD4680BDAC03002000100140DA05002041
:104C1400000C014000080140A9080020C80500203C
:104C240090B583B000AF01F027F82E4B1B682D4AD6
:104C340023F4407313602B4B1B682A4A23F440630C
:104C44001360284B1B68274A43F4806313600023D6
:104C54007B6032E0244BAC221A70234B02225A7040
:104C6400214B00229A70204BF022DA7000233B6023
:104C74000EE03A687B681A443B681C1D104601F03C
:104C840083F803461A46184B1A553B6801333B60B8
:104C94003B68B3F5007FECDB4FF401711248FFF77A
:104CA40061FC00BF114B1B78002BFBD00F4B002283
:104CB4001A707B6803F500737B600D4B1B687A6880
:104CC4009A42C7D3074B1B68064A43F440731360E8
:104CD400044B1B68034A23F44063136000BF0C3782
:104CE400BD4690BD000C0140AC030020A908002083
:104CF400C805002080B582B000AF00237B6085E04A
:104D0400484B5B69474A43F020035361464B1B7889
:104D1400122B12D1454B1B69444A43F00103136122
:104D2400404B5B693F4A43F4807353613F4B5B697B
:104D34003E4A43F0040353610BE03C4B5B693B4A3E
:104D440043F001035361374B5B69364A43F4807384
:104D54005361374BAC221A70354B02225A70344BD4
:104D640000229A70324BF022DA7000233B601CE080
:104D74007B685A083B6813441846FFF739FC052042
:104D8400FDF7D8FE2B4B9A683B685B000533D1B224
:104D9400274AD154284B9A683B6802335B00D1B24E
:104DA400234AD1543B6801333B603B68FF2BDFDD72
:104DB4001D4B1B78122B06D11C4B1B691B4A43F05D
:104DC400040313610BE0194B1B69184A43F00103F8
:104DD4001361144B5B69134A43F480735361114BA1
:104DE4001B69104A43F0200313614FF4017110480A
:104DF400FFF7B8FB00BF114B1B78002BFBD00F4B08
:104E040000221A707B6803F500737B600C4B1B68EF
:104E14007A689A42FFF474AF00BF00BF0837BD46FA
:104E240080BD00BF00100140DA050020000C0140E5
:104E3400AC0300200008014000140140A908002030
:104E4400C805002080B500AF4A4B1B78013B2E2BD0
:104E540000F28C8001A252F823F000BF1D4F00081D
:104E6400714F0008714F0008234F0008294F0008B4
:104E74002F4F0008354F00083B4F0008414F0008F2
:104E8400474F0008714F0008714F00084D4F00084C
:104E9400534F0008714F0008714F0008594F000824
:104EA400654F0008714F0008714F0008714F0008EA
:104EB400714F0008714F0008714F0008714F0008CE
:104EC400714F00085F4F0008714F0008714F0008D0
:104ED400714F0008714F0008714F0008714F0008AE
:104EE400714F0008714F0008714F0008714F00089E
:104EF400714F0008714F0008714F0008714F00088E
:104F0400714F0008714F0008714F0008714F00087D
:104F1400714F00086B4F000800F02EF827E000F0F6
:104F240095F824E000F016F921E000F059F91EE0AC
:104F340000F028FB1BE000F039FA18E000F0B6F9A5
:104F440015E000F0B5FA12E000F008FC0FE000F004
:104F540005FC0CE000F06CFB09E000F069FB06E0E6
:104F640000F088FC03E000F0F9FC00E000BF00BFA3
:104F740080BD00BFDA05002080B582B000AF0023F9
:104F84007B603DE02C4B5B692B4A43F0200353616B
:104F9400AA2145F2555000F053FD552142F6AA20AE
:104FA40000F04EFDA02145F2555000F049FD0023CC
:104FB4003B6012E0214B1A683B681A447B68D018A6
:104FC4003A687B68134407331D4AD35CDBB2194645
:104FD40000F036FD3B6801333B603A68194B1B68AF
:104FE4009A42E7D3144B1B69134A43F0200313611D
:104FF4000C2002F0B3FC7A68124B1B6813447B60EC
:105004007B68B3F5007FBDDB0F4BAC221A700E4BEF
:1050140000225A700C4B01229A700B4BF322DA7067
:10502400094B00221A7105210748FFF79BFA002358
:1050340018460837BD4680BD00100140C005002059
:1050440098010020CC050020AC03002080B582B07C
:1050540000AF3A4B1B69394A43F020031361384BC4
:105064001B69374A43F001031361344B5B69334ACC
:1050740043F480735361324B1B69314A43F0040398
:10508400136100237B603DE07B6807332D4AD35CCA
:10509400DBB2FF2B32D02C4B1A687B6813441846C2
:1050A400FFF7A6FA7B680733264AD35CDAB2274BAC
:1050B400DA600A20FDF73EFD204B5B691F4A43F08E
:1050C400200353610A20FDF735FD1D4B5B691C4A23
:1050D40043F0040353611E20FDF72CFD184B1B699C
:1050E400174A43F004031361144B1B69134A43F03A
:1050F400200313616420FDF71DFD00E000BF7B6801
:1051040001337B607B68B3F5007FBDDB104BAC22C1
:105114001A700F4B00225A700D4B01229A700C4BDF
:10512400F322DA700A4B00221A7105210848FFF7AE
:1051340019FA002318460837BD4680BD0010014007
:10514400000C014098010020C00500200008014027
:10515400AC03002080B582B000AF1C4B5B691B4AD6
:1051640043F02003536100237B601FE07A68184BEF
:105174001B6813441846FFF73BFA7B680733154A4C
:10518400D35CDAB2144BDA60144B5B69134A43F014
:10519400040353610120FDF7CDFC104B1B690F4A3A
:1051A40043F0040313617B6801337B607B68B3F5D0
:1051B400007FDBDB054B1B69044A43F020031361CA
:1051C400002318460837BD4680BD00BF00100140CB
:1051D400C00500209801002000080140000C014097
:1051E40080B582B000AF2C4B5B692B4A43F020039F
:1051F400536100237B602CE07B680733274AD35C30
:10520400DBB2FF2B21D0AA2145F2555000F018FC47
:10521400552142F6AA2000F013FCA02145F2555076
:1052240000F00EFC7A681E4B1B681A447B68073337
:105234001A49CB5CDBB21946104600F001FC194B4D
:105244001B881846FDF776FC00E000BF7B6801333D
:105254007B607B68B3F5007FCEDB0F4B1B690E4A86
:1052640043F020031361104BAC221A700E4B002242
:105274005A700D4B01229A700B4BF322DA700A4BD1
:1052840000221A7105210848FFF76CF9002318461B
:105294000837BD4680BD00BF0010014098010020C2
:1052A400C0050020D8050020AC03002080B582B0E2
:1052B40000AF394B5B69384A43F020035361002344
:1052C4007B6044E07B680833344AD35CDBB2FF2B59
:1052D40006D17B680733314AD35CDBB2FF2B32D073
:1052E4004AF6AA2145F2555000F010FC45F25551FA
:1052F40042F6AA2000F00AFC4AF2A00145F25550F9
:1053040000F004FC0520FDF715FC254B1A687B68AA
:10531400134458087B680833204AD35CDBB21B0271
:105324001AB27B6807331D49CB5CDBB21BB2134353
:105334001BB29BB2194600F0E9FB1A4B1B881846B6
:10534400FDF7F8FB00E000BF7B6802337B607B68FD
:10535400B3F5007FB6DB104B1B690F4A43F0200303
:1053640013610A20FDF7E6FB0F4BAC221A700E4BBB
:1053740000225A700C4B01229A700B4BF322DA7004
:10538400094B00221A7105210748FFF7EBF80023A7
:1053940018460837BD4680BD001001409801002022
:1053A400C0050020D8050020AC03002080B582B0E1
:1053B40000AF00237B6053E0374B5B69364A43F010
:1053C400200353614FF42A4145F2555000F09EFBEF
:1053D4004FF4AA4142F6AA2000F098FB4FF4204172
:1053E40045F2555000F092FB00233B6023E02B4B29
:1053F4001A683B681A447B68134458083A687B6807
:1054040013440833264AD35CDBB21B021AB2396850
:105414007B680B4407332249CB5CDBB21BB21343DA
:105424001BB29BB2194600F071FB0520FDF782FB0D
:105434003B6802333B603A681A4B1B689A42D6D3E6
:10544400154B1B69144A43F020031361164B1B8848
:10545400184602F083FA7A68124B1B6813447B6087
:105464007B68B3F5007FA7DB104BAC221A700F4B9F
:1054740000225A700D4B01229A700C4BF322DA7001
:105484000A4B00221A7105210848FFF76BF8002324
:1054940018460837BD4680BD00100140C0050020F5
:1054A40098010020CC050020D8050020AC03002082
:1054B40080B582B000AF2E4B5B692D4A43F02003C8
:1054C400536100237B6031E04FF42A4140F2555090
:1054D40000F01CFB4FF4AA4140F2AA2000F016FB96
:1054E4004FF4204140F2555000F010FB214B1A6854
:1054F4007B68134458087B6808331F4AD35CDBB2CB
:105504001B021AB27B6807331B49CB5CDBB21BB2AC
:1055140013431BB29BB2194600F0F8FA174B1B88D1
:105524001846FDF707FB7B6802337B607B68B3F5A5
:10553400007FC9DB0E4B1B690D4A43F02003136146
:105544000F4BAC221A700E4B00225A700C4B0122E6
:105554009A700B4BF322DA70094B00221A71052161
:105564000748FEF7FFFF002318460837BD4680BDF5
:1055740000100140C005002098010020D80500203B
:10558400AC03002080B582B000AF00237B6027E02D
:10559400214B1A687B6813441846FFF729F87B6887
:1055A40007331E4AD35CDAB21D4BDA600220FDF7E2
:1055B400C1FA1C4B5B691B4A43F0200353611A4B2D
:1055C4001B881846FDF7B6FA164B1B69154A43F0BB
:1055D400200313610F20FDF7ADFA7B6801337B6074
:1055E4007B68B3F5007FD3DB104BAC221A700F4BF2
:1055F40000225A700D4B01229A700C4BF322DA7080
:105604000A4B00221A7105210848FEF7ABFF00BFC0
:105614000837BD4680BD00BFC005002098010020AA
:105624000008014000100140D8050020AC03002010
:1056340080B582B000AF404B5B693F4A43F0200322
:10564400536100237B6056E03C4B1B78112B08D13F
:105654003B4B1A687B68134443F480431846FEF7B7
:10566400C7FF364B1B781B2B08D1354B1A687B6858
:10567400134443F480231846FEF7BAFF7B680733CC
:10568400304AD35CDAB2304BDA600220FDF752FACA
:105694002A4B1B78112B05D12C4B5B692B4A43F405
:1056A40080435361254B1B781B2B05D1284B5B6929
:1056B400274A43F480635361264B1B881846FDF741
:1056C40039FA1E4B1B78112B05D1204B1B691F4A3D
:1056D40043F480431361194B1B781B2B05D11C4BDE
:1056E4001B691B4A43F4806313610F20FDF722FA00
:1056F4007B6801337B607B68B3F5007FA4DB0E4BD2
:105704001B690D4A43F020031361134BAC221A703A
:10571400114B00225A70104B01229A700E4BF32247
:10572400DA700D4B00221A7105210B48FEF71AFF9F
:1057340000BF0837BD4680BD00100140DA050020D7
:10574400C005002098010020000801400018014015
:1057540000140140D8050020AC03002080B582B0BD
:1057640000AF00F089FA3D4B1B683C4A23F44073B8
:1057740013603A4B1B68394A23F440631360374B78
:105784001B68364A43F48063136000237B603EE069
:105794007B680733324AD35CDBB2FF2B33D0AA21B8
:1057A40045F2555000F09EFA552142F6AA2000F029
:1057B40099FAA02145F2555000F094FA7A68294BE1
:1057C4001B681A447B6807332549CB5CDBB2194656
:1057D400104600F087FA0520FDF7ACF9224B1B7840
:1057E4000D2B06D100BF1D4B9B6803F00403002B57
:1057F400F9D01D4B1B780E2B06D11C4B1B88184669
:10580400FDF798F900E000BF7B6801337B607B689B
:10581400B3F5007FBCDB114B1B68104A43F44073A3
:1058240013600E4B1B680D4A23F440631360104B46
:10583400AC221A700E4B00225A700D4B01229A7042
:105844000B4BF322DA700A4B00221A710521084827
:10585400FEF788FE00BF0837BD4680BD000C01403E
:1058640098010020C0050020DA050020D80500209A
:10587400AC03002080B582B000AF00237B6047E01A
:105884004FF42A4145F2555000F07CF94FF4AA41F7
:1058940042F6AA2000F076F94FF4204145F2555023
:1058A40000F070F900233B6023E0274B1A683B6843
:1058B4001A447B68134458083A687B6813440833D5
:1058C400224AD35CDBB21B021AB239687B680B44F0
:1058D40007331E49CB5CDBB21BB213431BB29BB232
:1058E400194600F04FF90520FDF724F93B6802330F
:1058F4003B603A68164B1B689A42D6D3154B1B88FB
:10590400184602F02BF87A68114B1B6813447B602D
:105914007B68B3F5007FB3DB0F4BAC221A700E4BE0
:1059240000225A700C4B01229A700B4BF322DA704E
:10593400094B00221A7105210748FEF713FE00BF28
:105944000837BD4680BD00BFC00500209801002077
:10595400CC050020D8050020AC03002080B582B01F
:1059640000AF2F4B1B692E4A43F00403136100233D
:105974007B6039E02B4B1A687B6813445B0818463C
:10598400FEF736FE7B680833274AD35CDAB2274B2E
:10599400DA60274BDB68264A03F47F43D3607B68D5
:1059A4000733214AD35CDAB2214BDB681146204A23
:1059B4000B43D3600220FDF7BDF81E4B5B691D4A03
:1059C40043F0200353611C4B1B881846FDF7B2F8C3
:1059D400184B1B69174A43F0200313610A20FDF793
:1059E400A9F87B6802337B607B68B3F5007FC1DB79
:1059F400124BAC221A70114B00225A700F4B012229
:105A04009A700E4BF322DA700C4B00221A710521A6
:105A14000A48FEF7A7FD00BF0837BD4680BD00BF9A
:105A2400000C0140C005002098010020000801403E
:105A34000014014000100140D8050020AC030020F0
:105A440080B582B000AF78600B46FB707868FEF7D3
:105A5400CFFD0E4AFB78D3600520FDF76BF80C4BA5
:105A64005B690B4A43F0040353610F20FDF762F8AE
:105A7400074B1B69064A43F0040313610F20FDF72B
:105A840059F800BF0837BD4680BD00BF000801407B
:105A9400000C014080B584B000AF78607868FEF7F0
:105AA400A7FD174B5B69164A43F020035361154B5E
:105AB4005B69144A43F001035361114B5B69104A5B
:105AC40043F4807353610A20FDF734F80E4B9B684E
