:020000040800F2
:10000000000001203D690008CD680008D3680008A1
:10001000D9680008DF680008E568000800000000F3
:10002000000000000000000000000000EB68000875
:10003000F768000800000000036900080F69000865
:1000400085690008856900088569000885690008D8
:1000500085690008856900088569000885690008C8
:1000600085690008856900088569000885690008B8
:1000700085690008856900088569000885690008A8
:100080008569000885690008856900088569000898
:100090001D690008856900088569000885690008F0
:1000A0008569000885690008856900088569000878
:1000B0008569000885690008856900088569000868
:1000C0008569000885690008856900088569000858
:1000D0008569000885690008856900088569000848
:1000E0008569000885690008856900088569000838
:1000F0008569000885690008856900088569000828
:100100008569000885690008856900088569000817
:100110008569000885690008856900088569000807
:1001200085690008856900088569000885690008F7
:1001300000000000000000000000000000000000BF
:1001400000000000000000000000000000000000AF
:10015000000000000000000000000000000000009F
:10016000000000000000000000000000000000008F
:10017000000000000000000000000000000000007F
:10018000000000000000000000000000000000006F
:10019000000000000000000000000000000000005F
:1001A000000000000000000000000000000000004F
:1001B000000000000000000000000000000000003F
:1001C000000000000000000000000000000000002F
:1001D000000000000000000000000000000000001F
:0401E0005FF8E0F1F3
:1001E40010B5054C237833B9044B13B10448AFF36D
:1001F40000800123237010BD7C010020000000005A
:10020400F4DB000808B5034B1BB103490348AFF303
:10021400008008BD0000000080010020F4DB00081D
:1002240080B500AF0E4B5B690D4A43F00103536187
:100234000C4B5B690B4A43F4807353610A2006F04C
:1002440003FC074B1B69064A43F001031361054B8A
:100254005B69044A43F48073536100BF80BD00BFEF
:10026400000C01400010014080B500AF114B5B69E8
:10027400104A43F0010353610F4B5B690E4A43F488
:10028400807353610A2006F0DFFB0A4B1B69094A9D
:1002940043F001031361084B5B69074A43F480731D
:1002A4005361064B1B69054A43F01003136100BFF9
:1002B40080BD00BF000C0140001001400018014047
:1002C40080B500AF094B1B69084A43F0080313616A
:1002D400012001F03DFE054B5B69044A43F008032D
:1002E4005361012001F034FE00BF80BD00180140BD
:1002F40080B582B000AF3B4B1B693A4A43F001031F
:100304001361394B5B69384A43F480735361374B4B
:100314001B69364A43F040031361344B1B69334A6B
:1003240043F080031361314B5B69304A43F00803A7
:1003340053612E4B1B692D4A43F0020313612B4B6F
:100344001B692A4A43F0040313610A2006F07CFB6C
:10035400244B5B69234A43F001035361224B5B69DD
:10036400214A43F4807353610A2006F06DFB002395
:100374007B6004E0FFF7A4FF7B6801337B607B684C
:10038400092BF7DD194B5B69184A43F001035361EC
:10039400164B5B69154A43F002035361134B5B69C7
:1003A400124A43F004035361104B5B690F4A43F054
:1003B40020035361142006F047FB0A4B5B69094A8A
:1003C40043F001035361084B1B69074A43F48073EC
:1003D40013614FF4FA7006F037FB00BF0837BD46CF
:1003E40080BD00BF000C0140001001400018014016
:1003F40080B500AF2E4B1B692D4A43F010031361E7
:10040400C82006F021FB2A4B5B69294A43F002030A
:100414005361274B5B69264A43F004035361244B21
:100424005B69234A43F020035361214B5B69204AF3
:1004340043F0400353611E4B5B691D4A43F0800344
:1004440053611C4B5B691B4A43F0010353611A4B14
:100454005B69194A43F480735361142006F0F4FA7B
:10046400134B5B69124A43F0100353610A2006F0F0
:10047400EBFA104B5B690F4A43F0010353610E4BD7
:100484001B690D4A43F4807313614FF4FA7006F04C
:10049400DBFA074B1B69064A43F040031361044B24
:1004A4001B69034A43F08003136100BF80BD00BF92
:1004B40000180140000C01400010014080B582B0DA
:1004C40000AF0346FB71124AFB79D360114B1B69E1
:1004D400104A43F0040313610E4B5B690D4A43F069
:1004E400020353610B4B5B690A4A43F020035361D7
:1004F400084B5B69074A43F010035361012001F084
:1005040027FDFFF7DDFE00BF0837BD4680BD00BFF5
:10051400000801400018014080B582B000AF0346D6
:10052400FB710F4AFB79D3600E4B1B690D4A43F0F4
:10053400040313610B4B5B690A4A43F002035361E2
:10054400084B5B69074A43F020035361012001F023
:10055400FFFCFFF7B5FE00BF0837BD4680BD00BFF6
:10056400000801400018014080B582B000AF034686
:100574000A46FB711346BB71164B5B69154A43F07F
:1005840004035361134B5B69124A43F00203536142
:10059400BB79002B06D00F4B1B690E4A43F0200396
:1005A400136105E00B4B5B690A4A43F02003536176
:1005B400084B5B69074A43F010035361064AFB7911
:1005C400D360012001F0C4FCFFF77AFE00BF0837B6
:1005D400BD4680BD001801400008014080B582B0CE
:1005E40000AF03460A46FB711346BB71134B5B69AC
:1005F400124A43F004035361104B5B690F4A43F002
:1006040002035361BB79002B06D00C4B1B690B4AC8
:1006140043F02003136105E0084B5B69074A43F08C
:1006240020035361064AFB79D360012001F090FC5A
:10063400FFF746FE00BF0837BD4680BD00180140E5
:100644000008014080B500AF464B1B78012B02D156
:10065400FFF7CEFE01E0FFF74BFE01F091FE414BA8
:100664001B78012B03D10820FFF756FF02E0082076
:10067400FFF724FF3B4B1B78012B04D10021002002
:10068400FFF7ACFF03E000210020FFF76DFF01F04E
:100694005DFE354B5B69344A43F0800353610120AE
:1006A40006F0D2F9314B9B68DAB2314B9A712E4B7A
:1006B4001B692D4A43F08003136101F061FE294B4D
:1006C4001B78012B04D100210120FFF787FF03E0F1
:1006D40000210120FFF748FF01F038FE224B5B693F
:1006E400214A43F080035361012006F0ADF91F4B0A
:1006F4009B68DAB21E4B5A711B4B1B691A4A43F0B2
:100704008003136101F03CFE164B1B78012B04D1CE
:1007140000210220FFF762FF03E000210220FFF71F
:1007240023FF01F013FE104B5B690F4A43F0800373
:100734005361012006F088F90C4B9B68DAB20C4B2C
:100744001A71094B1B69084A43F080031361054B76
:100754001B78012B02D1FFF787FD01E0FFF760FD55
:1007640000BF80BDDA0500200018014000080140E8
:10077400AC03002080B500AFFFF7BAFD01F000FE26
:100784000420FFF79BFE01F0E1FD012006F05CF977
:10079400474B5B69464A43F020035361444B5B6912
:1007A400434A43F010035361414B5B69404A43F0B1
:1007B40080035361012006F047F93E4B9B68DAB28F
:1007C4003D4B1A713A4B1B69394A43F0800313615C
:1007D400322001F0BDFB364B1B69354A43F0200340
:1007E4001361334B1B69324A43F010031361304BDE
:1007F4005B692F4A43F080035361012006F024F91A
:100804002C4B9B68DAB22C4B5A71294B1B69284A32
:1008140043F080031361322001F09AFB244B5B699F
:10082400234A43F020035361214B1B69204A43F0C0
:10083400100313611E4B5B691D4A43F0800353612F
:10084400012006F001F91B4B9B68DAB21A4B9A712E
:10085400174B1B69164A43F080031361322001F0E1
:1008640077FB134B1B69124A43F020031361104BAF
:100874005B690F4A43F0100353610D4B5B690C4AEB
:1008840043F080035361012006F0DEF8094B9B68B6
:10089400DAB2094BDA71064B1B69054A43F080034F
:1008A4001361322001F054FBFFF7BAFC00BF80BD96
:1008B4000018014000080140AC03002080B500AFDF
:1008C400FFF796FD01F05CFD0420FFF725FE01F023
:1008D4003DFD012006F0B8F8474B5B69464A43F0FA
:1008E40020035361444B5B69434A43F0040353615F
:1008F400414B5B69404A43F080035361012006F099
:10090400A3F83E4B9B68DAB23D4B1A713A4B1B6914
:10091400394A43F080031361322001F019FB364B4E
:100924001B69354A43F020031361334B1B69324A78
:1009340043F004031361304B5B692F4A43F0800397
:100944005361012006F080F82C4B9B68DAB22C4BE3
:100954005A71294B1B69284A43F0800313613220E2
:1009640001F0F6FA244B5B69234A43F020035361F8
:10097400214B1B69204A43F0040313611E4B5B693E
:100984001D4A43F080035361012006F05DF81B4BC0
:100994009B68DAB21A4B9A71174B1B69164A43F0DB
:1009A40080031361322001F0D3FA134B1B69124AFE
:1009B40043F020031361104B5B690F4A43F00403B7
:1009C40053610D4B5B690C4A43F080035361012072
:1009D40006F03AF8094B9B68DAB2094BDA71064B18
:1009E4001B69054A43F080031361322001F0B0FA19
:1009F400FFF73AFC00BF80BD001801400008014029
:100A0400AC03002080B500AFFFF772FC01F0B8FC26
:100A14006D4B5B696C4A43F0010353614020FFF75F
:100A24004DFD0A2001F094FA674B5B69664A43F076
:100A340004035361644B1B69634A43F0020313616B
:100A4400624B1A79624BDA600A2001F081FAFFF7EF
:100A540037FC5D4B5B695C4A43F040035361012002
:100A640005F0F2FF584B1B69574A43F040031361EA
:100A7400642005F0E9FF544B5B69534A43F02003BB
:100A84005361514B5B69504A43F01003536140205A
:100A9400FFF714FD4C4B5B694B4A43F0040353616D
:100AA400494B1B69484A43F002031361474B5A7987
:100AB400474BDA600A2001F04BFAFFF701FC424B86
:100AC4001B69414A43F0200313613F4B5B693E4A73
:100AD40043F0100353613C4B5B693B4A43F04003D2
:100AE4005361012005F0B0FF374B1B69364A43F0D0
:100AF40040031361322005F0A7FF4020FFF7DEFC1E
:100B0400314B5B69304A43F0040353612E4B1B693C
:100B14002D4A43F0020313612C4B9A792C4BDA6073
:100B24000A2001F015FAFFF7CBFB274B5B69264A35
:100B340043F020035361244B1B69234A43F0100301
:100B44001361214B5B69204A43F040035361012048
:100B540005F07AFF1C4B1B691B4A43F040031361E9
:100B6400322005F071FF2020FFF7A8FC164B5B69CB
:100B7400154A43F004035361134B1B69124A43F0B3
:100B840002031361114BDA79114BDA600A2001F088
:100B9400DFF9FFF795FBC82001F0DAF90A4B5B692E
:100BA400094A43F040035361012005F04DFF064B11
:100BB4001B69054A43F040031361322005F044FFEA
:100BC400FFF72EFB00BF80BD0018014098010020F4
:100BD4000008014080B500AFFFF70AFC01F0D0FB2C
:100BE4004020FFF799FC0A2001F0B2F9644B5B69DD
:100BF400634A43F004035361614B1B69604A43F049
:100C0400020313615F4B1A795F4BDA600A2001F02B
:100C14009FF9FFF755FB5A4B5B69594A43F0200390
:100C24005361574B5B69564A43F004035361544B79
:100C34005B69534A43F040035361962001F088F9FD
:100C44004F4B1B694E4A43F040031361322005F0B9
:100C5400FBFE4020FFF760FC494B5B69484A43F0C8
:100C640004035361464B1B69454A43F00203136175
:100C7400444B5A79444BDA600A2001F069F9FFF7D2
:100C84001FFB3F4B1B693E4A43F0200313613C4B5F
:100C94005B693B4A43F040035361012005F0D4FEF5
:100CA400374B1B69364A43F040031361322005F089
:100CB400CBFE4020FFF730FC314B5B69304A43F0F8
:100CC400040353612E4B1B692D4A43F00203136145
:100CD4002C4B9A792C4BDA600A2001F039F9FFF792
:100CE400EFFA274B5B69264A43F020035361244BF8
:100CF4001B69234A43F004031361214B5B69204AB7
:100D040043F040035361012005F09EFE1C4B1B6918
:100D14001B4A43F040031361322005F095FE202066
:100D2400FFF7FAFB164B5B69154A43F00403536162
:100D3400134B1B69124A43F002031361114BDA7916
:100D4400114BDA600A2001F003F9FFF7B9FA0A201F
:100D540001F0FEF80A4B5B69094A43F04003536112
:100D6400012005F071FE064B1B69054A43F0400360
:100D74001361322005F068FEFFF776FA00BF80BDEC
:100D840000180140980100200008014080B500AF20
:100D9400FFF7AEFA01F0F4FA8020FFF78FFB0B4B5C
:100DA4005B690A4A43F040035361C82001F0D0F85C
:100DB400064B1B69054A43F040031361322005F0DA
:100DC40043FEFFF72DFA00BF80BD00BF00180140AD
:100DD40080B500AFFFF70CFB01F0D2FA8020FFF7DB
:100DE4009BFB094B5B69084A43F040035361642051
:100DF40005F02AFE044B1B69034A43F040031361C8
:100E0400FFF732FA00BF80BD0018014080B582B000
:100E140000AFFFF76DFA01F0B3FA0320FFF74EFBC2
:100E240000237B6056E000233B6035E001F0A8FA24
:100E34003A687B6813441B12DBB201211846FFF7A2
:100E440093FB3B68DAB27B68DBB21344DBB200216C
:100E54001846FFF789FB01F079FA254B5B69244AB0
:100E640043F020035361224B5B69214A43F0800322
:100E74005361012001F06CF81E4B9A683B680433FF
:100E8400D1B21D4AD1541A4B1B69194A43F080034D
:100E940013613B6801333B603B681F2BC6DD164B77
:100EA400AC221A70144B00225A70134B20229A70F1
:100EB400114BA422DA7024210F4802F069FC00BF10
:100EC4000E4B1B78002BFBD00C4B00221A707B6856
:100ED40020337B607A680A4B1B689A42A3D301F0E3
:100EE4004FFAFFF79DF900BF0837BD4680BD00BF2C
:100EF4000018014000080140AC030020A9080020AC
:100F0400C805002080B582B000AFFFF771FA01F088
:100F140037FA0320FFF700FB00237B6056E0002331
:100F24003B6035E001F02CFA3A687B6813441B12ED
:100F3400DBB201211846FFF751FB3B68DAB27B684C
:100F4400DBB21344DBB200211846FFF747FB01F084
:100F5400FDF9254B5B69244A43F020035361224B7E
:100F64005B69214A43F080035361012000F0F0FFE4
:100F74001E4B9A683B680433D1B21D4AD1541A4BB4
:100F84001B69194A43F0800313613B6801333B60DA
:100F94003B681F2BC6DD164BAC221A70144B002283
:100FA4005A70134B20229A70114BA422DA70242118
:100FB4000F4802F0EDFB00BF0E4B1B78002BFBD05B
:100FC4000C4B00221A707B6820337B607A680A4BD2
:100FD4001B689A42A3D301F0D3F9FFF745F900BF88
:100FE4000837BD4680BD00BF00180140000801401D
:100FF400AC030020A9080020C805002080B582B0F9
:1010040000AF00237B6062E0404B1A687B681344A6
:101014001B0ADBB201211846FFF7A6FA00233B6046
:1010240039E03A4B1B68DAB27B68DBB21344DAB2BC
:101034003B68DBB21344DBB200211846FFF794FA95
:10104400334B1B69324A43F002031361304B5B6933
:101054002F4A43F0040353617A683B681344043312
:101064002C4AD25C2C4BDA60FFF72AF9284B1B6917
:10107400274A43F001031361012000F069FF244B68
:101084005B69234A43F0010353610A2000F060FFC7
:101094003B6801333B603A68204B1B689A42C0D3DB
:1010A4001B4B5B691A4A43F040035361C82000F0AC
:1010B4004FFF174B1B69164A43F040031361052089
:1010C40005F0C2FC7A68154B1B6813447B607B688F
:1010D4001F2B99DD0D4B1B6820330C4A1360104BFA
:1010E400AC221A700E4B00225A700D4B01229A70DA
:1010F4000B4BA622DA700A4B00221A71052108480C
:1011040002F046FB00BF0837BD4680BDC405002081
:10111400001801409801002000080140CC0500207F
:10112400AC03002080B582B000AF00237B6062E096
:10113400404B1A687B6813441B0ADBB20121184632
:10114400FFF74CFA00233B6039E03A4B1B68DAB2F4
:101154007B68DBB21344DAB23B68DBB21344DBB224
:1011640000211846FFF73AFA334B1B69324A43F021
:1011740002031361304B5B692F4A43F0040353614C
:101184007A683B68134404332C4AD25C2C4BDA60F3
:10119400FFF796F8284B1B69274A43F02003136195
:1011A400012000F0D5FE244B5B69234A43F0200361
:1011B40053610A2000F0CCFE3B6801333B603A687F
:1011C400204B1B689A42C0D31B4B5B691A4A43F0FD
:1011D40040035361C82000F0BBFE174B1B69164A3D
:1011E40043F040031361042005F02EFC7A68154B8C
:1011F4001B6813447B607B681F2B99DD0D4B1B68B8
:1012040020330C4A1360104BAC221A700E4B002290
:101214005A700D4B01229A700B4BA622DA700A4BBE
:1012240000221A710521084802F0B2FA00BF0837FB
:10123400BD4680BDC405002000180140980100206F
:1012440000080140CC050020AC03002080B582B02A
:1012540000AFFFF74DF801F093F80220FFF72EF9E5
:1012640000237B6084E000233B6060E001F088F8A9
:101274007B68DA0F13445B1019463B68DA0F13449A
:101284005B100B441A46404B1A60404B1B78022BF0
:101294000DD13F4B1B693E4A43F0100313613A4B97
:1012A4001B681B0CDBB200211846FFF75DF9364BB7
:1012B4001B681B0ADBB201211846FFF755F9324BB4
:1012C4001B68DBB200211846FFF74EF901F03EF827
:1012D4002F4B5B692E4A43F0200353612C4B5B690F
:1012E4002B4A43F080035361012000F031FE294B67
:1012F4009A683B680433D1B2274AD154244B1B6902
:10130400234A43F020031361012000F021FE214B06
:101314009A683B680533D1B21F4AD1541C4B1B69F0
:101324001B4A43F0800313613B6802333B603B6814
:10133400B3F5007F9ADB184BAC221A70164B0222CD
:101344005A70154B00229A70134BA822DA704FF48E
:101354000171114802F01CFA00BF104B1B78002BDE
:10136400FBD00E4B00221A707B6803F500737B6080
:101374007A680B4B1B689A42FFF475AFFEF750FF77
:1013840000BF0837BD4680BDC0050020DA05002037
:101394000018014000080140AC030020A908002007
:1013A400C805002080B582B000AFFFF721F800F037
:1013B400E7FF0220FFF7B0F800237B6072E0002310
:1013C4003B604EE000F0DCFF7B68DA0F13445B10F7
:1013D40019463B68DA0F13445B100B441A46374B2B
:1013E4001A60364B1B681B0ADBB201211846FFF753
:1013F400F5F8324B1B68DBB200211846FFF7EEF814
:1014040000F0A4FF2E4B5B692D4A43F02003536187
:101414002B4B5B692A4A43F080035361012000F09F
:1014240097FD284B9A683B680433D1B2264AD154BD
:10143400234B1B69224A43F020031361012000F06F
:1014440087FD204B9A683B680533D1B21E4AD154BC
:101454001B4B1B691A4A43F0800313613B68023338
:101464003B603B68B3F5007FACDB174BAC221A70D2
:10147400154B02225A70144B00229A70124BA82268
:10148400DA704FF40171104802F082F900BF0F4B7B
:101494001B78002BFBD00D4B00221A707B6803F5E0
:1014A40000737B607A680A4B1B689A4287D3FEF705
:1014B400DBFE00BF0837BD4680BD00BFC00500206D
:1014C4000018014000080140AC030020A9080020D6
:1014D400C805002080B500AF124B1B78012B02D148
:1014E40000F0D0F808E00F4B1B78032B02D100F07A
:1014F4006BF901E000F01AF80B4BAC221A700A4B9E
:1015040000225A70084B01229A70074BAA22DA7003
:10151400054B00221A710521034802F039F900BF76
:1015240080BD00BFDA050020AC03002080B584B084
:1015340000AF4F4B1B791A044D4B5B791B021343CD
:101544004B4A92791343DA0F13445B107B600023F8
:10155400FB601020FEF7B2FF0023BB6043E0FB6892
:10156400DAB27B68DBB21344DBB200211846FEF723
:10157400FBFF404B1B693F4A43F0020313613D4BA1
:101584005B693C4A43F004035361BB680733384A40
:10159400D25C394BDA60FEF793FE364B1B69354A51
:1015A40043F020031361BB680833314AD25C324BE9
:1015B400DA60FEF785FE2F4B1B692E4A43F00103C8
:1015C4001361012000F0C4FC2A4B5B69294A43F0F3
:1015D40001035361012000F0BBFCFB680133FB6095
:1015E400BB680233BB60BA68244B1B689A42B6D30B
:1015F4007B681B0ADBB201211846FEF7B5FF204BBE
:101604001B78022B0CD11B4B1B691A4A43F01003A5
:1016140013617B681B0CDBB200211846FEF7A4FFA4
:10162400144B5B69134A43F040035361012000F0FB
:101634008FFC104B1B690F4A43F0400313610820D1
:1016440005F002FA0B4B1B690A4A43F004031361C9
:10165400084B5B69074A43F002035361064B0022BF
:10166400DA60FEF72DFE00BF1037BD4680BD00BF17
:10167400980100200018014000080140CC0500201A
:10168400DA05002080B584B000AF4B4B1B791A04F7
:10169400494B5B791B021343474A92791343DA0F90
:1016A40013445B107B600023FB601020FEF734FFC3
:1016B4000023BB604CE0FB68DAB27B68DBB2134406
:1016C400DBB200211846FEF789FF3C4B1B693B4AFD
:1016D40043F002031361394B5B69384A43F0040356
:1016E4005361BB680733344AD25C354BDA60FEF78A
:1016F400E7FD324B1B69314A43F020031361BB6899
:1017040008332D4AD25C2E4BDA60FEF7D9FD2B4B01
:101714005B692A4A43F0200353610A2000F018FC55
:10172400264B1B69254A43F020031361012000F076
:101734000FFC224B5B69214A43F0200353610120D3
:1017440000F006FCFB680133FB60BB680233BB603E
:10175400BA681C4B1B689A42ADD37B681B0ADBB288
:1017640001211846FEF73AFF144B5B69134A43F014
:1017740040035361012000F0EBFB104B1B690F4A3F
:1017840043F040031361082005F05EF90B4B1B691D
:101794000A4A43F004031361084B5B69074A43F0A8
:1017A40002035361064B0022DA60FEF789FD00BF95
:1017B4001037BD4680BD00BF9801002000180140CD
:1017C40000080140CC05002080B584B000AF2F4B49
:1017D4001B791A042D4B5B791B0213432B4A927914
:1017E4001343DA0F13445B107B600023FB6010216A
:1017F4004C2000F04FF80023BB6027E0FB68DAB20E
:101804007B68DBB21344DBB219460C2000F042F8CB
:10181400BB6807331D4AD35C19462C2000F03AF804
:10182400BB680833194AD35C19463C2000F032F8EF
:1018340000217D2000F02EF800217C2000F02AF801
:10184400FB680133FB60BB680233BB60BA68104BB2
:101854001B689A42D2D37B681B0ADBB219461C2050
:1018640000F018F80021642000F014F800216C2026
:1018740000F010F8082005F0E7F800214C2000F0F3
:1018840009F800BF1037BD4680BD00BF9801002095
:10189400CC05002080B586B000AF03460A46FB7134
:1018A4001346BB710023FB82FB799BB29B00FB8137
:1018B400BB799BB29B00BB8100233B6154E00120B8
:1018C40000F046FBFA893B69C3F10A0342FA03F3C9
:1018D40003F00103002B06D0294B1B69284A43F06F
:1018E4000203136105E0264B5B69254A43F00203BA
:1018F4005361BA893B69C3F10A0342FA03F303F063
:101904000103002B06D01E4B1B691D4A43F0010343
:10191400136105E01A4B5B69194A43F001035361F3
:10192400174B1B69164A43F004031361012000F0AE
:101934000FFB134B5B69124A43F004035361114BD1
:101944009B6803F00103002B0BD03B69C3F10A032E
:10195400012202FA03F31AB2B7F9163013431BB289
:10196400FB823B6901333B613B690A2BA7DDFB8AA0
:10197400DB089BB2DBB218461837BD4680BD00BFFA
:10198400001801400008014080B500AF264B1B69D8
:10199400254A43F010031361234B5B69224A43F049
:1019A4000403536100F0ECFC1F4B5B691E4A43F0D7
:1019B400010353611C4B5B691B4A43F002035361EF
:1019C4001A4B5B69194A43F001035361184B5B6975
:1019D400174A43F001035361164B5B69154A43F4FC
:1019E400807353610A2005F02FF80F4B5B690E4A90
:1019F40043F0100353610E4B5B690D4A43F001033E
:101A040053610C4B1B690B4A43F4807313614FF40D
:101A1400FA7005F019F800F099FC4FF4FA7000F030
:101A240097FA00BF80BD00BF0018014000080140C4
:101A3400000C01400010014080B582B000AF0023CB
:101A4400FB80322000F084FA0FE00A2000F080FAD4
:101A5400FB880133FB80FB8840F6FF72934204D17C
:101A640001F06AFEFEF700FC05E0044B9B6803F0FE
:101A74000103002BE9D00837BD4680BD00080140B2
:101A840080B500AFFFF780FF08214C20FFF702FF6D
:101A940000210C20FFF7FEFE00216820FFF7FAFE6C
:101AA40000216C20FFF7F6FE03461A46164B9A7186
:101AB40008214C20FFF7EEFE01210C20FFF7EAFE7F
:101AC40000216820FFF7E6FE00216C20FFF7E2FE0C
:101AD40003461A460C4B5A7108214C20FFF7DAFED4
:101AE40002210C20FFF7D6FE00216820FFF7D2FE6A
:101AF40000216C20FFF7CEFE03461A46024B1A71F2
:101B0400FEF7B2FB00BF80BDAC03002080B500AF80
:101B1400FFF73AFF04214C20FFF7BCFE00216820A8
:101B2400FFF7B8FE00216C20FFF7B4FE03461A4607
:101B34001A4B1A7104214C20FFF7ACFE00217A20C5
:101B4400FFF7A8FE00217E20FFF7A4FE03461A46F5
:101B5400124B5A7104214C20FFF79CFE00216A208D
:101B6400FFF798FE00216E20FFF794FE03461A4605
:101B74000A4B9A7104214C20FFF78CFE0021782037
:101B8400FFF788FE00217C20FFF784FE03461A46F7
:101B9400024BDA71FEF768FB00BF80BDAC03002086
:101BA40080B500AFFFF7F0FE40214C20FFF772FE36
:101BB400274B1B7919462C20FFF76CFE002164206B
:101BC400FFF768FE00216C20FFF764FEFFF734FF87
:101BD40040214C20FFF75EFE1D4B5B7919462C20FB
:101BE400FFF758FE00217420FFF754FE00217C20EB
:101BF400FFF750FEFFF720FF40214C20FFF74AFE7D
:101C0400134B9B7919462C20FFF744FE00216620D4
:101C1400FFF740FE00216E20FFF73CFEFFF70CFFAC
:101C240020214C20FFF736FE094BDB7919462C2086
:101C3400FFF730FE00216420FFF72CFE00216C200A
:101C4400FFF728FEFFF7F8FEFEF70EFB00BF80BD8E
:101C54009801002080B500AFFFF796FE80214C204C
:101C6400FFF718FE00216420FFF714FE00216C200A
:101C7400FFF710FEFFF7E0FEFEF7F6FA00BF80BDA7
:101C840090B583B000AFFFF77FFE03214C20FFF730
:101C940001FE00237B6044E000233B6023E03B68BB
:101CA400DAB27B68DBB21344DBB219460C20FFF7CF
:101CB400F1FD3A687B6813441B12DBB219461C2001
:101CC400FFF7E8FD00216820FFF7E4FD3B681C1DD9
:101CD40000216C20FFF7DEFD03461A46164B1A5509
:101CE4003B6801333B603B681F2BD8DD124BAC22B1
:101CF4001A70114B00225A700F4B20229A700E4B0F
:101D0400A422DA7024210C4801F042FD00BF0B4BE1
:101D14001B78002BFBD0094B00221A707B68203300
:101D24007B607A68064B1B689A42B5D3FEF79CFA2F
:101D340000BF0C37BD4690BDAC030020A9080020AD
:101D4400C805002080B582B000AF00237B604EE060
:101D5400364B1A687B6813441B0ADBB20121184610
:101D6400FEF73CFC00233B602DE0304B1B68DAB2ED
:101D74007B68DBB21344DAB23B68DBB21344DBB2F8
:101D840019460C20FFF786FD284B1A687B6813441C
:101D94001B0ADBB219461C20FFF77CFD7A683B68FE
:101DA40013440433224AD35C19462C20FFF772FDF6
:101DB40000216D20FFF76EFD00216C20FFF76AFD06
:101DC4003B6801333B603A681A4B1B689A42CCD398
:101DD40000216420FFF75EFD00216C20FFF75AFD0F
:101DE400FFF72AFE7A68134B1B6813447B607B68F9
:101DF4001F2BADDD0D4B1B6820330C4A13600E4BBB
:101E0400AC221A700C4B00225A700B4B01229A70B0
:101E1400094BA622DA70084B00221A7105210648E4
:101E240001F0B6FC00BF0837BD4680BDC4050020E4
:101E340098010020CC050020AC03002090B583B0AD
:101E440000AFFFF7A1FD02214C20FFF723FD002383
:101E54007B6056E000233B603AE07B68DA0F134472
:101E64005B1019463B68DA0F13445B100B441A46A7
:101E7400294B1A60284B1B68DBB219460C20FFF76C
:101E840009FD254B1B681B0ADBB219461C20FFF712
:101E940001FD00216820FFF7FDFC3B681C1D0021AB
:101EA4006C20FFF7F7FC03461A461C4B1A55002119
:101EB4007820FFF7EFFC3B685C1D00217C20FFF7D6
:101EC400E9FC03461A46154B1A553B6802333B603E
:101ED4003B68B3F5007FC0DB104BAC221A700F4B8C
:101EE40002225A700D4B00229A700C4BA822DA7011
:101EF4004FF40171094801F04BFC7B6803F5007352
:101F04007B607A68064B1B689A42A3D3FEF7ACF950
:101F140000BF0C37BD4690BDC0050020AC030020B7
:101F2400C805002080B400AF074BDB69064A43F0C4
:101F34000403D361054B47229A62044B08221A60BA
:101F440000BFBD4680BC704700100240000800403E
:101F540080B483B000AF78600D4A7B68D3620C4BC9
:101F640000225A620A4B01221A6000BF084B1B6907
:101F740003F00103002BF9D0054B1B69044A23F03D
:101F84000103136100BF0C37BD4680BC704700BF1E
:101F94000008004080B483B000AF994B9B69984A15
:101FA40043F004039361964B9B6903F004037B6045
:101FB4007B68934B9B69924A43F008039361904B6F
:101FC4009B698F4A43F0100393618D4B9B698C4A44
:101FD40043F0200393618A4B9B69894A43F0400391
:101FE4009361884B1B68874A43F400331360854B25
:101FF4001B68844A23F480331360824B1B68814A34
:1020040023F4402313607F4B1B687E4A43F4401340
:1020140013607C4B1B687B4A23F4400313607A4BA8
:102024001B68794A43F003031360774B1B68764AB5
:1020340023F00C031360744B1B68734A43F440731E
:102044001360714B1B68704A23F4406313606F4B39
:102054001B686E4A43F0030313606C4B1B686B4AA6
:1020640023F00C031360694B1B68684A43F0300388
:102074001360664B1B68654A23F0C0031360634B0F
:102084001B68624A43F440731360604B1B685F4AE9
:1020940023F4406313605D4B1B685C4A43F4405374
:1020A40013605A4B1B68594A23F440431360574B3F
:1020B4001B68564A43F440331360544B1B68534A1D
:1020C40023F440231360514B1B68504A43F44013DC
:1020D40013604E4B1B684D4A23F4400313604B4B73
:1020E4001B684A4A43F040731360484B1B68474AD5
:1020F40023F040631360454B1B68444A43F040534C
:102104001360424B1B68414A23F0404313603F4B2A
:102114005B683E4A43F0030353603C4B5B683B4AB5
:1021240023F00C035360394B5B68384A43F03003A7
:102134005360364B5B68354A23F0C0035360334B1E
:102144005B68324A43F440735360304B5B682F4AF8
:1021540023F4406353602D4B5B682C4A43F4405393
:1021640053602A4B5B68294A23F440435360274B4E
:102174005B68264A43F440335360244B5B68234A2C
:1021840023F440235360214B5B68204A43F44013FB
:1021940053601E4B5B681D4A23F4400353601B4B82
:1021A4005B681A4A43F040735360184B5B68174AE4
:1021B40023F040635360154B5B68144A43F040536B
:1021C4005360124B5B68114A23F040435360104B39
:1021D4005B680F4A43F0030353600D4B5B680C4A82
:1021E40023F00C0353600A4B5B68094A43F0300345
:1021F4005360074B5B68064A23F0C0030AE000BF44
:102204000010024000100140000C01400018014081
:102214000014014053604A4B5B68494A43F44073DD
:102224005360474B5B68464A23F440635360444B16
:102234005B68434A43F440535360414B5B68404AF4
:1022440023F4404353603E4B5B683D4A43F44033C0
:1022540053603B4B5B683A4A23F440235360384B4A
:102264005B68374A43F440135360354B5B68344A28
:1022740023F440035360324B5B68314A43F04073AC
:1022840053602F4B5B682E4A23F0406353602C4B02
:102294005B682B4A43F040535360294B5B68284AE0
:1022A40023F040435360274B1B68264A43F44053B2
:1022B4001360244B1B68234A23F440431360204BD0
:1022C4001B681F4A43F4403313601D4B1B681C4AB0
:1022D40023F4402313601C4B5B681B4A43F0030345
:1022E4005360194B5B68184A23F00C035360164B78
:1022F4001B68154A43F040531360134B1B68124A82
:1023040023F0404313600F4B5B680E4A43F44033A1
:1023140053600C4B5B680B4A23F440235360094B16
:102324001B68084A43F440131360064B1B68054AB4
:1023340023F44003136000BF0C37BD4680BC7047D4
:1023440000140140000C01400010014080B400AFB3
:10235400084B4FF088321A60074B4FF088321A60EE
:10236400064B5B69054A43F01003536100BFBD4649
:1023740080BC704700080140001401400010014077
:1023840080B400AF084B4FF033321A60074B4FF064
:1023940033321A60064B1B69054A43F0100313617C
:1023A40000BFBD4680BC70470008014000140140D6
:1023B4000010014080B483B000AF0346FB71554B5D
:1023C4009B69544A43F008039361534B5B68524A38
:1023D40043F44C535360504B5B684F4A43F44C43B3
:1023E40053604C4BDB694B4A43F48003D3614B4B42
:1023F4001B684A4A43F400431360484B1B68474A2E
:1024040023F400431360454BDB68444A23F0010383
:10241400D360424B1B68414A23F0400313603F4B97
:102424001B683E4A23F0800313603C4B1B683B4A05
:1024340023F001031360394B5B6823F03F03374AF1
:1024440043F024035360FB79002B12D1334B1B6AF6
:1024540023F03F03314A43F0250313622F4BDB691A
:1024640023F44F4323F0FF032C4A43F0B403D36116
:1024740029E0FB79012B14D1284B1B6A23F03F037D
:10248400264A43F00B031362244BDB6923F44F43C6
:1024940023F0FF03214A43F4004343F01E03D361B6
:1024A40011E01E4B1B6A23F03F031C4A43F0250333
:1024B40013621A4BDB6923F44F4323F0FF03174ADB
:1024C40043F0B403D361154B9B6823F4434323F0D7
:1024D400FF03124A43F480439360104B1B680F4A76
:1024E40023F01A0313600D4B1B680C4A43F00103DD
:1024F40013600A4B1B68094A43F480631360074B5B
:10250400DB68064A23F0FE03D36000BF0C37BD46E8
:1025140080BC704700100240000C0140005800408D
:1025240080B485B000AF3B600346FB710B46BB80B3
:102534001346BB714FF6FF73FB81634B1B68624A02
:1025440023F400631360604B1B685F4A43F48063A9
:1025540013605D4B1B685C4A43F4807313604FF651
:10256400FF73FB8102E0FB89013BFB81564B5B69F6
:1025740003F00103002B02D1FB89002BF3D1FB896B
:10258400002B01D101239AE04F4B5B694E4B1B6931
:1025940023F0FF02FB794C4913430B614FF6FF73A1
:1025A400FB8102E0FB89013BFB81474B5B6903F044
:1025B4000203002B02D1FB89002BF3D1FB89002BF2
:1025C40001D101237BE0404B5B693F4B9B69BB79A5
:1025D400022B20D13C4B1B6923F0FF03BA88120A5B
:1025E40092B2D2B21146384A0B4313614FF6FF73CD
:1025F400FB8102E0FB89013BFB81334B5B6903F008
:102604008003002B02D1FB89002BF3D1FB89002B23
:1026140001D1012353E02C4B1B6923F0FF03BA883B
:10262400D2B21146284A0B4313614FF6FF73FB8164
:1026340002E0FB89013BFB81234B5B6903F08003D0
:10264400002B02D1FB89002BF3D1FB89002B01D194
:10265400012334E00023BB6026E01B4B1B6923F0FD
:10266400FF03B98BBA680A4411463A680A441278DF
:102674001146154A0B4313614FF6FF73FB8102E0C9
:10268400FB89013BFB81104B5B6903F08003002B4A
:1026940002D1FB89002BF3D1FB89002B01D101234B
:1026A4000DE0BB680133BB603B8BBA689A42D4DB54
:1026B400054B1B68044A43F4007313600023184657
:1026C4001437BD4680BC70470058004080B485B0C4
:1026D40000AF3B600346FB710B46BB711346BB80E6
:1026E4004FF6FF73FB81934B1B68924A23F40063FC
:1026F4001360904B1B688F4A43F4806313608D4BC7
:102704001B688C4A43F48073136002E0FB89013B2D
:10271400FB81884B5B6903F00103002B02D1FB8929
:10272400002BF3D1FB89002B01D10123FCE0814B69
:102734005B69804B1B6923F0FF02FB797D491343DE
:102744000B614FF6FF73FB8102E0FB89013BFB81C8
:10275400784B5B6903F00203002B02D1FB89002B49
:10276400F3D1FB89002B01D10123DDE0714B5B69BF
:10277400704B9B69BB79022B20D16E4B1B6923F0F4
:10278400FF03BA88120A92B2D2B21146694A0B43C5
:1027940013614FF6FF73BB8102E0BB89013BBB8130
:1027A400644B5B6903F08003002B02D1BB89002BCF
:1027B400F3D1BB89002B01D10123B5E05D4B1B692B
:1027C40023F0FF03BA88D2B211465A4A0B4313616D
:1027D4004FF6FF73FB8102E0FB89013BFB81554B04
:1027E4005B6903F08003002B02D1FB89002BF3D13A
:1027F400FB89002B01D1012396E04E4B1B684D4A07
:1028040043F4807313604FF6FF73FB8102E0FB898E
:10281400013BFB81474B5B6903F00103002B02D1B1
:10282400FB89002BF3D1FB89002B01D101237BE031
:10283400404B5B693F4B1B6923F0FF03FA7942F07D
:102844000102D2B211463B4A0B4313614FF6FF73A8
:10285400FB8102E0FB89013BFB81364B5B6903F0A2
:102864000203002B02D1FB89002BF3D1FB89002B3F
:1028740001D1012358E02F4B5B692E4B9B69002348
:10288400BB604CE0BB695A1EBB689A421CD94FF628
:10289400FF73FB8102E0FB89013BFB81254B5B69F4
:1028A40003F04003002B02D1FB89002BF3D1FB89F9
:1028B400002B01D1012337E01E4B1969BB683A682C
:1028C4001344CAB21A7027E01A4B1B68194A23F43E
:1028D40080631360174B1B68164A43F4007313603C
:1028E4004FF6FF73FB8102E0FB89013BFB81114B37
:1028F4005B6903F04003002B02D1FB89002BF3D169
:10290400FB89002B01D101230EE00A4B1969BB6836
:102914003A681344CAB21A70BB680133BB60BB681F
:10292400BA699A42AED8002318461437BD4680BC13
:10293400704700BF0058004080B500AF04F022F893
:1029440000F068F8FFF726FB2D4B5B692C4A43F037
:10295400200353610A2004F077F8294B1B69284AA5
:1029640043F020031361642004F06EF80AF03AFC8B
:10297400FFF7D8FA0020FFF71DFD062003F05AFEEA
:10298400FFF7FEFC002000F049FF1E4B5B691D4A67
:1029940043F0800353611A4B1B69194A43F0010346
:1029A4001361184B5B69174A43F480735361154BE9
:1029B4001B69144A43F020031361114B1B69104A2D
:1029C40043F004031361104B5B690F4A43F0100397
:1029D40053610E4B5B690D4A43F010035361084B7E
:1029E4001B69074A43F008031361094B1B78002B4A
:1029F400FBD000F071F8064B00221A70F5E700BF17
:102A0400000C014000100140001801400014014076
:102A1400A808002080B596B000AF07F13003282243
:102A2400002118460BF0DCF807F11C0300221A60A1
:102A34005A609A60DA601A613B1D00221A605A607B
:102A44009A60DA601A615A6101233B634FF4803360
:102A54007B630023BB6301233B640223FB644FF4C9
:102A640080333B654FF4E0137B6507F13003184670
:102A740005F0DEFD0346002B01D000F027F80F23FC
:102A8400FB6102233B6200237B624FF48063BB62E1
:102A94000023FB6207F11C030221184606F04AF8E2
:102AA4000346002B01D000F011F810237B600023B3
:102AB400BB613B1D184606F0A3F90346002B01D069
:102AC40000F004F800BF5837BD4680BD80B400AFA5
:102AD40072B600BFFEE7000080B582B000AF9C4B29
:102AE4001B78DBB2AC2B03D000F026FE00F011BE45
:102AF400974BDB78DBB2A03B5A2B00F2098601A28C
:102B040052F823F0B12F0008253000087130000876
:102B1400C33000081531000863310008FD31000896
:102B24001F32000841320008A9320008253300088A
:102B34001537000815370008153700081537000841
:102B4400153700082B3300085D330008E73300080D
:102B540089340008F53400082135000815370008C9
:102B6400C93500081537000815370008153700085F
:102B74001537000815370008153700081537000801
:102B840015370008153700081537000815370008F1
:102B940015370008153700081537000815370008E1
:102BA40015370008153700081537000815370008D1
:102BB40015370008153700081537000815370008C1
:102BC400153700087D2C0008153700081537000854
:102BD40015370008153700081537000815370008A1
:102BE400153700081537000815370008752C00083C
:102BF4001537000815370008153700081537000881
:102C0400153700087136000899360008EF360008B9
:102C14001537000815370008153700081537000860
:102C24001537000815370008153700081537000850
:102C34001537000815370008153700081537000840
:102C440015370008852C0008132D00086D2D000889
:102C5400932E00081537000815370008BD2E00080C
:102C640015370008632F000815370008732F000874
:102C740000F078FD00F04DBD00F0E8FD00F049BD26
:102C8400FFF764FB334B5B69324A43F02003536123
:102C9400314B1B69304A43F0040313612E4B1B690B
:102CA4002D4A43F0010313612A4B5B69294A43F41B
:102CB40080735361264B5B79DBB21A04244B9B79F6
:102CC400DBB21B021343224AD279D2B213431A460F
:102CD400224B1A601E4B1B79DAB2214B1A701C4B23
:102CE4001B7ADBB21B021AB2194B5B7ADBB21BB242
:102CF40013431BB29AB21B4B1A8000F063FE154BB0
:102D04001B69144A43F02003136100F002BD124B07
:102D14001B69114A43F0040313610F4B1B690E4AEC
:102D240043F0010313610B4B5B690A4A43F480735C
:102D34005361084B1B69074A43F020031361044B9A
:102D44001B79DAB2064B1A7002F0E0F800F0E1BC2D
:102D54009801002000100140000C0140C80500202B
:102D6400DA050020D8050020A04B1B699F4A43F0D8
:102D7400200313619E4B1B699D4A43F001031361B9
:102D84009A4B5B69994A43F480735361984B1B696E
:102D9400974A43F004031361964B1B69954A43F425
:102DA40080431361944B1B69934A43F4806313611A
:102DB400924B00221A60924B00221A60FFF7E0FA4D
:102DC400904B5B79DBB21A048E4B9B79DBB21B020E
:102DD40013438C4AD279D2B213431A468A4B1A60EF
:102DE400884B1B7BDBB21B02864A527BD2B2134355
:102DF4001A46864B1A60834B1B79DAB2844B1A70DD
:102E0400834B1B78072B0FD0814B1B78112B0BD0D6
:102E14007F4B1B78122B07D07D4B1B781B2B03D0C9
:102E24007B4B1B78252B0FD1714B5B69704A43F0A8
:102E3400010353616D4B1B696C4A43F48073136146
:102E44004FF4487003F000FE6E4B1B7ADBB21B029A
:102E54001AB26C4B5B7ADBB21BB213431BB29AB24D
:102E64006C4B1A806C4BAC221A706B4B00225A705C
:102E7400694B01229A70684BF322DA70664B002288
:102E84001A710521644800F083FC00F042BC5D4BDC
:102E94009B79DBB21A465B4B5B79DBB21B021A43AC
:102EA400584B1B79DBB21B0413431A465B4B1A6065
:102EB40001F0DEF800F02DBCFFF762FA4B4B1B6902
:102EC4004A4A43F020031361494B1B69484A43F0C3
:102ED40001031361454B5B69444A43F480735361B6
:102EE400434B1B69424A43F004031361434B0022E2
:102EF4001A60434B00221A60FFF742FA414B5B7998
:102F0400DBB21A043F4B9B79DBB21B0213433D4AED
:102F1400D279D2B213431A463B4B1A60394B9B7A8F
:102F2400DBB21B02374AD27AD2B213431A46374B6A
:102F34001A60344B1B79DAB2354B1A70314B1B7B58
:102F4400DBB21B021AB22F4B5B7BDBB21BB2134307
:102F54001BB29AB22F4B1A8002F006FCD9E3294B1C
:102F64001B79DAB22A4B1A7002F0A0FFD1E3204B8E
:102F74001B691F4A43F0010313611C4B5B691B4A25
:102F840043F480735361194B5B69184A43F080031F
:102F94005361164B1B69154A43F020031361144B0C
:102FA4001B69134A43F004031361B2E3154B1B7905
:102FB400DAB2174B1A70164B1B78032B02D1FEF7AB
:102FC4005FFD01E0FDF73EFB134BAC221A70124B80
:102FD40000225A70104B03229A700F4BA022DA7011
:102FE40007210D4800F0D4FB93E300BF001001401B
:102FF400000C01400018014000140140D0050020DD
:10300400D405002098010020C8050020CC0500202C
:10301400DA050020D8050020AC030020C0050020FC
:103024009A4B1B79DAB29A4B1A70994B1B78012B85
:1030340002D1FDF743FC08E0954B1B78032B02D12A
:10304400FEF764FD01E0FDF795FB924BAC221A708C
:10305400904B00225A708F4B04229A708D4BA12200
:10306400DA7008218B4800F093FB52E3874B1B7AFC
:10307400DAB2874B1A70864B1B78012B02D1FDF70D
:10308400A9FD08E0824B1B78032B02D1FEF788FDD3
:1030940001E0FDF7B7FC7F4BAC221A707D4B002298
:1030A4005A707C4B01229A707A4BA222DA70794BC7
:1030B40000221A710521774800F06AFB29E3734B5B
:1030C4001B79DAB2724B1A70714B1B78012B02D147
:1030D400FDF77EFE08E06E4B1B78032B02D1FEF752
:1030E400B9FD01E0FDF752FE6A4BAC221A70694B40
:1030F40000225A70674B01229A70664BA322DA7041
:10310400644BA1221A710521624800F041FB00E3DF
:103114005E4B1B79DBB21A465C4B5B79DBB21B025C
:103124001A435A4B9B79DBB21B0413431A465A4B7E
:103134001A60564BDB79DAB2554B1A70544B1B7834
:10314400012B02D1FDF7DEFEE3E2514B1B78032B8A
:1031540002D1FEF795FDDCE2FDF758FED9E24F4BB4
:1031640000221A60494B1B79DBB21A46474B5B7944
:10317400DBB21B021A43454B9B79DBB21B0413439E
:103184001A46454B1A60414BDB79DBB21A46444B75
:103194001A603E4B1B7ADAB23D4B1A703C4B1B78DB
:1031A400012B05D1FDF724F91120FDF7B5F90FE046
:1031B400374B1B78032B06D1FEF7E6FB11214C207D
:1031C400FEF768FB04E0FDF793F81120FDF776F9AC
:1031D400304BAC221A702F4B00225A702D4B012217
:1031E4009A702C4BA622DA702A4B00221A71052100
:1031F400284800F0CDFA8CE2254B1B78012B02D134
:10320400FDF790FF85E2224B1B78032B02D1FEF7DA
:1032140099FD7EE2FDF7F2FE7BE21D4B1B78012B4C
:1032240002D1FDF721F874E2194B1B78032B02D16C
:10323400FDF71AF86DE2FCF7F3FF6AE2134B1B7912
:10324400DBB21A46114B5B79DBB21B021A430F4BFC
:103254009B79DBB21B0413431A460F4B1A600B4BCA
:10326400DB79DAB20A4B1A70094B1B78012B02D1B5
:10327400FEF798F84DE2064B1B78032B02D1FEF7BC
:10328400DDFD46E2FDF7E2FF43E200BF98010020C6
:10329400DA050020AC030020C8050020C405002086
:1032A400CC050020944B1B79DBB21A46924B5B7918
:1032B400DBB21B0213435B001A46904B1A608E4B21
:1032C4009B79DAB28E4B1A708E4B00221A608E4BA9
:1032D40000221A608A4B1B78012B02D1FDF788F873
:1032E40008E0874B1B78032B02D1FEF74DFB01E06E
:1032F400FCF7FEFFFFF744F8844BAC221A70834BB3
:1033040000225A70814B01229A70804BAA22DA70F3
:103314007E4B00221A7105217C4800F039FAF8E14D
:10332400FEF7D8F8F5E1744B1B79DBB21A46724B01
:103334005B79DBB21B021A436F4B9B79DBB21B0434
:103344001A436D4BDB79DBB21B0613431A46704BF1
:103354001A6002F079FEDCE10023FB700023BB70ED
:1033640000237B706B4B5B696A4A43F4805353615F
:103374009F2003F067FA002003F064FA03467B7091
:10338400002003F05FFA0346FB70002003F05AFAB2
:103394000346BB7000BF604B9B6803F08003002BA7
:1033A400F9D15C4B1B695B4A43F480531361574B5F
:1033B400AC221A70554B00225A70544B03229A7057
:1033C400524BB122DA70514AFB7813714F4ABB78E1
:1033D40053714E4A7B78937107214C4800F0D8F919
:1033E40097E100237B7100233B714A4B5B69494A97
:1033F40043F480535361052003F024FA002003F0C2
:1034040021FA03467B7100BF434B9B6803F08003A2
:10341400002BF9D13F4B1B693E4A43F4805313619F
:103424003C4B5B693B4A43F480535361352003F0C2
:1034340009FA002003F006FA03463B7100BF364B3D
:103444009B6803F08003002BF9D1324B1B69314A8E
:1034540043F4805313612D4BAC221A702B4B002282
:103464005A702A4B02229A70284BB222DA70274AE9
:103474007B791371254A3B7953710621234800F067
:1034840087F946E11C4B1B79DBB21A461A4B5B7970
:10349400DBB21B021A43184B9B79DBB21B041A43A1
:1034A400154BDB79DBB21B0613431A46184B1A6023
:1034B400114B1B7ADBB21A460F4B5B7ADBB21B0251
:1034C40013431A460D4B1A60104BAC221A700F4B63
:1034D40000225A700D4B01229A700C4BB422DA7000
:1034E4000A4B00221A710521084800F051F910E135
:1034F40002F050FE0DE100BF98010020CC05002031
:10350400DA050020D0050020D4050020AC030020FB
:10351400C8050020000C0140003800407F4B5B6967
:103524007E4A43F480535361062003F08BF900BFB5
:103534007B4B9B6803F08003002BF9D1774B1B690D
:10354400764A43F48053136100BF02F0FBFD034647
:1035540003F00203002BF8D0704B5B696F4A43F40D
:1035640080535361C72003F06DF900BF6C4B9B6817
:1035740003F08003002BF9D1684B1B69674A43F4BD
:103584008053136100BF02F0DDFD034603F0010325
:10359400002BF8D041F2707003F056FA614BAC2264
:1035A4001A70604B00225A705E4B01229A705D4B78
:1035B400B522DA705B4B00221A710521594800F0DC
:1035C400E7F8A6E0584B1B79FB71574B5B79BB714D
:1035D400524B5B69514A43F480535361502003F0CA
:1035E40031F900BF4E4B9B6803F08003002BF9D1E7
:1035F4004A4B1B69494A43F480531361322003F058
:1036040023FA464B5B69454A43F4805353610120D6
:1036140003F018F9BB79184603F014F9FB7918463E
:1036240003F010F900BF3E4B9B6803F08003002BAE
:10363400F9D13A4B1B69394A43F480531361322060
:1036440003F002FA374BAC221A70364B00225A7040
:10365400344B01229A70334BB722DA70314B00227B
:103664001A7105212F4800F093F852E02E4B1B7974
:10367400DBB21A462C4B5B79DBB21B021A432A4B92
:103684009B79DBB21B0413431A46284B1A6002F0E1
:103694003DFE3EE0244B1B79DBB21A46224B5B799C
:1036A400DBB21B021A43204B9B79DBB21B0413438E
:1036B4001A461E4B1A601C4BDB79DBB21A461C4BB4
:1036C4001A60184BAC221A70164B00225A70154B14
:1036D40001229A70134BE222DA70124B00221A7103
:1036E4000521104800F054F813E00F4B9B79DBB22E
:1036F4001A460D4B5B79DBB21B021A430A4B1B794A
:10370400DBB21B0413431A460A4B1A6002F0ACFEE8
:1037140000BF00BF0837BD4680BD00BF000C01409C
:1037240000380040AC03002098010020C8050020A8
:10373400CC050020C005002080B582B000AFAC23CA
:103744003B7000237B700123BB70EE23FB700023CE
:103754003B713B460521184600F01AF800BF0837B4
:10376400BD4680BD80B582B000AFAC233B70002362
:103774007B700123BB70DA23FB7000233B713B4653
:103784000521184600F004F800BF0837BD4680BD87
:1037940080B584B000AF78600B467B807B88194687
:1037A400786809F01BFE0346FB7397F90F30002B72
:1037B400F4D100BF00BF1037BD4680BD80B584B0D2
:1037C40000AF03463960FB711346BB80AC233B72E8
:1037D400BB881B0A9BB2DBB27B72BB88DBB2BB72B9
:1037E400FB79FB7207F108030421184609F0F6FD82
:1037F4000346FB7397F90F30002BF3D1BB881946AE
:10380400386809F0EBFD0346FB7397F90F30002B82
:10381400F4D100BF00BF1037BD4680BD80B483B073
:1038240000AF7860074A7B689BB2D3607B681B0A51
:10383400054A03F47F43D36000BF0C37BD4680BC08
:10384400704700BF001801400014014080B500AF6C
:10385400FEF796FD544BDB79DAB2544BDA60524BE7
:103864001B79DBB21A04504B5B79DBB21B021343A6
:103874004D4A9279D2B213431A464D4B1A604C4BBF
:103884001B681846FFF7CAFF4A4BDB68494A03F432
:103894007F43D360444B1B7BDAB2464BDB68114653
:1038A400444A0B43D360404B1B7ADBB2002B0CD051
:1038B4003F4B1B6803F40073002B06D03E4B1B697F
:1038C4003D4A43F08003136105E03B4B5B693A4A90
:1038D40043F080035361344B5B7ADBB2FF2B06D198
:1038E400354B1B69344A43F02003136105E0324B26
:1038F4005B69314A43F0200353612B4B9B7ADBB263
:10390400002B1ED0284B1B7ADBB2002B0CD02B4B88
:103914005B692A4A43F001035361274B1B69264A1A
:1039240043F48073136118E0244B1B69234A43F06A
:1039340001031361204B5B691F4A43F48073536195
:103944000BE01E4B5B691D4A43F0010353611A4BA4
:103954005B69194A43F480735361134BDB7ADBB21E
:10396400002B06D0154B1B69144A43F00403136162
:1039740005E0124B5B69114A43F004035361104B99
:10398400AC221A700E4B00225A700D4B01229A7011
:103994000B4BD022DA700A4BAC221A71052108486D
:1039A400FFF7F6FE00BF80BD98010020000801402B
:1039B400C40500200014014000100140000C014027
:1039C400AC03002080B500AFFEF7C0FC9A4B1B7817
:1039D400013B1A2B00F22D8101A252F823F000BF03
:1039E400513A0008373C0008373C0008A53A000863
:1039F4007B3A0008CF3A0008F93A0008233B000854
:103A0400773B0008373C0008373C0008373C000887
:103A1400A13B0008373C0008373C0008373C00084D
:103A2400E33B00084D3B0008373C0008373C0008E6
:103A3400373C0008373C0008373C0008373C000896
:103A4400373C0008373C00080D3C000800F0FAF849
:103A54007A4B1B69794A43F001031361784B5B6924
:103A6400774A43F480735361744B1B69734A43F080
:103A740004031361DEE000F0E5F8704B1B696F4A44
:103A840043F0010313616E4B5B696D4A43F4807329
:103A940053616A4B1B69694A43F004031361C9E02B
:103AA40000F0D0F8654B1B69644A43F001031361CD
:103AB400634B5B69624A43F4807353615F4B1B69D8
:103AC4005E4A43F004031361B4E000F0BBF85B4BBF
:103AD4001B695A4A43F001031361594B5B69584A05
:103AE40043F480735361554B1B69544A43F00403F8
:103AF40013619FE000F020F9504B1B694F4A43F0DB
:103B0400010313614E4B5B694D4A43F48073536167
:103B14004A4B1B69494A43F0040313618AE000F0ED
:103B2400FFF9464B1B69454A43F001031361444BBB
:103B34005B69434A43F480735361404B1B693F4ABA
:103B440043F00403136175E000F0EAF93B4B1B6991
:103B54003A4A43F001031361394B5B69384A43F431
:103B640080735361354B1B69344A43F0040313617A
:103B740060E000F067F8314B1B69304A43F0010301
:103B840013612F4B5B692E4A43F4807353612B4BB3
:103B94001B692A4A43F0040313614BE000F056F911
:103BA400264B1B69254A43F001031361244B5B69CF
:103BB400234A43F480735361204B1B681F4A23F448
:103BC400407313601D4B1B681C4A23F4406313604D
:103BD4001A4B1B68194A43F4806313602AE000F00F
:103BE400ABF8164B1B69154A43F001031361144BE0
:103BF4005B69134A43F480735361104B1B690F4A8A
:103C040043F00403136115E000F096F80B4B1B69B5
:103C14000A4A43F001031361094B5B69084A43F400
:103C240080735361054B1B69044A43F00403136119
:103C340000E000BF00BF80BDDA050020000C014099
:103C44000010014080B582B000AF00237B605DE0CE
:103C5400334BAC221A70324B02225A70304B002282
:103C64009A702F4BF022DA702E4B5B692D4A43F089
:103C74002003536100233B602DE03A687B681344C2
:103C84001846FFF7CBFD284B5B69274A43F0010335
:103C94005361244B5B69234A43F4807353610120CD
:103CA400FEF756F9214B9A683B680433D1B21C4A9B
:103CB400D1541D4B1B691C4A43F001031361194B7A
:103CC4005B69184A43F4807353610120FEF740F99D
:103CD4003B6801333B603B68B3F5007FCDDB114BA0
:103CE4001B69104A43F0200313614FF401710C481F
:103CF400FFF74EFD00BF0E4B1B78002BFBD00C4B87
:103D040000221A707B6803F500737B60094B1B6803
:103D14007A689A429CD300BF00BF0837BD4680BD75
:103D2400AC03002000100140000C014000080140D9
:103D3400A9080020C805002080B582B000AF002388
:103D44007B606BE03A4BAC221A70394B02225A70FA
:103D5400374B00229A70364BF022DA70354B5B6990
:103D6400344A43F02003536100233B603BE0324B71
:103D74001B78112B08D13A687B68134443F48043C1
:103D84001846FFF74BFD12E02B4B1B781B2B08D179
:103D94003A687B68134443F480231846FFF73EFDDA
:103DA40005E03A687B6813441846FFF737FD234B58
:103DB4005B69224A43F0040353610120FEF7C8F80B
:103DC4001F4B9A683B680433D1B2194AD1541B4B38
:103DD4001B691A4A43F0040313610120FEF7B8F883
:103DE4003B6801333B603B68B3F5007FBFDB114B9D
:103DF4001B69104A43F0200313614FF401710C480E
:103E0400FFF7C6FC00BF0F4B1B78002BFBD00D4BFC
:103E140000221A707B6803F500737B600A4B1B68F1
:103E24007A689A428ED300BF00BF0837BD4680BD72
:103E3400AC03002000100140DA050020000C014012
:103E440000080140A9080020C805002090B583B0EF
:103E540000AF00F087FF2E4B1B682D4A23F44073FC
:103E640013602B4B1B682A4A23F440631360284BCE
:103E74001B68274A43F48063136000237B6032E0AD
:103E8400244BAC221A70234B02225A70214B00227D
:103E94009A70204BF022DA7000233B600EE03A68FF
:103EA4007B681A443B681C1D104600F0E3FF034680
:103EB4001A46184B1A553B6801333B603B68B3F50F
:103EC400007FECDB4FF401711248FFF761FC00BF87
:103ED400114B1B78002BFBD00F4B00221A707B6810
:103EE40003F500737B600D4B1B687A689A42C7D355
:103EF400074B1B68064A43F440731360044B1B686A
:103F0400034A23F44063136000BF0C37BD4690BDE1
:103F1400000C0140AC030020A9080020C8050020C3
:103F240080B582B000AF00237B6085E0484B5B69BD
:103F3400474A43F020035361464B1B78122B12D19E
:103F4400454B1B69444A43F001031361404B5B69D1
:103F54003F4A43F4807353613F4B5B693E4A43F0ED
:103F6400040353610BE03C4B5B693B4A43F00103A0
:103F74005361374B5B69364A43F480735361374B63
:103F8400AC221A70354B02225A70344B00229A70BC
:103F9400324BF022DA7000233B601CE07B685A0845
:103FA4003B6813441846FFF739FC0520FDF7D0FFA2
:103FB4002B4B9A683B685B000533D1B2274AD15436
:103FC400284B9A683B6802335B00D1B2234AD15430
:103FD4003B6801333B603B68FF2BDFDD1D4B1B78E7
:103FE400122B06D11C4B1B691B4A43F004031361BB
:103FF4000BE0194B1B69184A43F001031361144B7E
:104004005B69134A43F480735361114B1B69104A73
:1040140043F0200313614FF401711048FFF7B8FB1C
:1040240000BF114B1B78002BFBD00F4B00221A70E2
:104034007B6803F500737B600C4B1B687A689A42BB
:10404400FFF474AF00BF00BF0837BD4680BD00BF9A
:1040540000100140DA050020000C0140AC030020F0
:104064000008014000140140A9080020C8050020F0
:1040740080B500AF334B1B78013B1A2B5FD801A2EC
:1040840052F823F0F540000843410008434100087A
:10409400FB40000801410008074100080D410008E9
:1040A40013410008194100081F410008434100085A
:1040B40043410008254100082B4100084341000802
:1040C40043410008314100083D41000843410008D4
:1040D40043410008434100084341000843410008AC
:1040E40043410008434100084341000837410008A8
:1040F40000F02AF824E000F091F821E000F012F931
:104104001EE000F055F91BE000F024FB18E000F07D
:1041140035FA15E000F0B2F912E000F0B1FA0FE060
:1041240000F004FC0CE000F001FC09E000F068FB86
:1041340006E000F065FB03E000F084FC00E000BF53
:1041440000BF80BDDA05002080B582B000AF002337
:104154007B603DE02C4B5B692B4A43F020035361A9
:10416400AA2145F2555000F0E1FC552142F6AA205F
:1041740000F0DCFCA02145F2555000F0D7FC0023F0
:104184003B6012E0214B1A683B681A447B68D018E4
:104194003A687B68134407331D4AD35CDBB2194683
:1041A40000F0C4FC3B6801333B603A68194B1B6860
:1041B4009A42E7D3144B1B69134A43F0200313615B
:1041C4000C2002F041FC7A68124B1B6813447B609C
:1041D4007B68B3F5007FBDDB0F4BAC221A700E4B2E
:1041E40000225A700C4B01229A700B4BF322DA70A6
:1041F400094B00221A7105210748FFF7C9FA002369
:1042040018460837BD4680BD00100140C005002097
:1042140098010020CC050020AC03002080B582B0BA
:1042240000AF3A4B1B69394A43F020031361384B02
:104234001B69374A43F001031361344B5B69334A0A
:1042440043F480735361324B1B69314A43F00403D6
:10425400136100237B603DE07B6807332D4AD35C08
:10426400DBB2FF2B32D02C4B1A687B681344184600
:10427400FFF7D4FA7B680733264AD35CDAB2274BBC
:10428400DA600A20FDF764FE204B5B691F4A43F0A5
:10429400200353610A20FDF75BFE1D4B5B691C4A3A
:1042A40043F0040353611E20FDF752FE184B1B69B3
:1042B400174A43F004031361144B1B69134A43F078
:1042C400200313616420FDF743FE00E000BF7B6818
:1042D40001337B607B68B3F5007FBDDB104BAC2200
:1042E4001A700F4B00225A700D4B01229A700C4B1E
:1042F400F322DA700A4B00221A7105210848FFF7ED
:1043040047FA002318460837BD4680BD0010014017
:10431400000C014098010020C00500200008014065
:10432400AC03002080B582B000AF1C4B5B691B4A14
:1043340043F02003536100237B601FE07A68184B2D
:104344001B6813441846FFF769FA7B680733154A5C
:10435400D35CDAB2144BDA60144B5B69134A43F052
:10436400040353610120FDF7F3FD104B1B690F4A51
:1043740043F0040313617B6801337B607B68B3F50E
:10438400007FDBDB054B1B69044A43F02003136108
:10439400002318460837BD4680BD00BF0010014009
:1043A400C00500209801002000080140000C0140D5
:1043B40080B582B000AF2C4B5B692B4A43F02003DD
:1043C400536100237B602CE07B680733274AD35C6E
:1043D400DBB2FF2B21D0AA2145F2555000F0A6FBF9
:1043E400552142F6AA2000F0A1FBA02145F2555028
:1043F40000F09CFB7A681E4B1B681A447B680733E9
:104404001A49CB5CDBB21946104600F08FFB194BFE
:104414001B881846FDF79CFD00E000BF7B68013354
:104424007B607B68B3F5007FCEDB0F4B1B690E4AC4
:1044340043F020031361104BAC221A700E4B002280
:104444005A700D4B01229A700B4BF322DA700A4B0F
:1044540000221A7105210848FFF79AF9002318462B
:104464000837BD4680BD00BF001001409801002000
:10447400C0050020D8050020AC03002080B582B020
:1044840000AF394B5B69384A43F020035361002382
:104494007B6044E07B680833344AD35CDBB2FF2B97
:1044A40006D17B680733314AD35CDBB2FF2B32D0B1
:1044B4004AF6AA2145F2555000F09EFB45F25551AB
:1044C40042F6AA2000F098FB4AF2A00145F25550AA
:1044D40000F092FB0520FDF73BFD254B1A687B6835
:1044E400134458087B680833204AD35CDBB21B02B0
:1044F4001AB27B6807331D49CB5CDBB21BB2134392
:104504001BB29BB2194600F077FB1A4B1B88184666
:10451400FDF71EFD00E000BF7B6802337B607B6813
:10452400B3F5007FB6DB104B1B690F4A43F0200341
:1045340013610A20FDF70CFD0F4BAC221A700E4BD1
:1045440000225A700C4B01229A700B4BF322DA7042
:10455400094B00221A7105210748FFF719F90023B6
:1045640018460837BD4680BD001001409801002060
:10457400C0050020D8050020AC03002080B582B01F
:1045840000AF00237B6053E0374B5B69364A43F04E
:10459400200353614FF42A4145F2555000F02CFB9F
:1045A4004FF4AA4142F6AA2000F026FB4FF4204122
:1045B40045F2555000F020FB00233B6023E02B4BD9
:1045C4001A683B681A447B68134458083A687B6845
:1045D40013440833264AD35CDBB21B021AB239688F
:1045E4007B680B4407332249CB5CDBB21BB2134319
:1045F4001BB29BB2194600F0FFFA0520FDF7A8FC98
:104604003B6802333B603A681A4B1B689A42D6D324
:10461400154B1B69144A43F020031361164B1B8886
:10462400184602F011FA7A68124B1B6813447B6037
:104634007B68B3F5007FA7DB104BAC221A700F4BDD
:1046440000225A700D4B01229A700C4BF322DA703F
:104654000A4B00221A7105210848FFF799F8002334
:1046640018460837BD4680BD00100140C005002033
:1046740098010020CC050020D8050020AC030020C0
:1046840080B582B000AF2E4B5B692D4A43F0200306
:10469400536100237B6031E04FF42A4140F25550CE
:1046A40000F0AAFA4FF4AA4140F2AA2000F0A4FABA
:1046B4004FF4204140F2555000F09EFA214B1A6805
:1046C4007B68134458087B6808331F4AD35CDBB209
:1046D4001B021AB27B6807331B49CB5CDBB21BB2EB
:1046E40013431BB29BB2194600F086FA174B1B8882
:1046F4001846FDF72DFC7B6802337B607B68B3F5BD
:10470400007FC9DB0E4B1B690D4A43F02003136184
:104714000F4BAC221A700E4B00225A700C4B012224
:104724009A700B4BF322DA70094B00221A7105219F
:104734000748FFF72DF8002318460837BD4680BD0B
:1047440000100140C005002098010020D805002079
:10475400AC03002080B582B000AF00237B6027E06B
:10476400214B1A687B6813441846FFF757F87B6897
:1047740007331E4AD35CDAB21D4BDA600220FDF720
:10478400E7FB1C4B5B691B4A43F0200353611A4B44
:104794001B881846FDF7DCFB164B1B69154A43F0D2
:1047A400200313610F20FDF7D3FB7B6801337B608B
:1047B4007B68B3F5007FD3DB104BAC221A700F4B30
:1047C40000225A700D4B01229A700C4BF322DA70BE
:1047D4000A4B00221A7105210848FEF7D9FF00BFD1
:1047E4000837BD4680BD00BFC005002098010020E9
:1047F4000008014000100140D8050020AC0300204F
:1048040080B582B000AF404B5B693F4A43F0200360
:10481400536100237B6056E03C4B1B78112B08D17D
:104824003B4B1A687B68134443F480431846FEF7F5
:10483400F5FF364B1B781B2B08D1354B1A687B6868
:10484400134443F480231846FEF7E8FF7B680733DC
:10485400304AD35CDAB2304BDA600220FDF778FBE1
:104864002A4B1B78112B05D12C4B5B692B4A43F443
:1048740080435361254B1B781B2B05D1284B5B6967
:10488400274A43F480635361264B1B881846FDF77F
:104894005FFB1E4B1B78112B05D1204B1B691F4A54
:1048A40043F480431361194B1B781B2B05D11C4B1C
:1048B4001B691B4A43F4806313610F20FDF748FB17
:1048C4007B6801337B607B68B3F5007FA4DB0E4B10
:1048D4001B690D4A43F020031361134BAC221A7079
:1048E400114B00225A70104B01229A700E4BF32286
:1048F400DA700D4B00221A7105210B48FEF748FFB0
:1049040000BF0837BD4680BD00100140DA05002015
:10491400C005002098010020000801400018014053
:1049240000140140D8050020AC03002080B582B0FB
:1049340000AF00F017FA3D4B1B683C4A23F4407368
:1049440013603A4B1B68394A23F440631360374BB6
:104954001B68364A43F48063136000237B603EE0A7
:104964007B680733324AD35CDBB2FF2B33D0AA21F6
:1049740045F2555000F02CFA552142F6AA2000F0D9
:1049840027FAA02145F2555000F022FA7A68294B03
:104994001B681A447B6807332549CB5CDBB2194694
:1049A400104600F015FA0520FDF7D2FA224B1B78C9
:1049B4000D2B06D100BF1D4B9B6803F00403002B95
:1049C400F9D01D4B1B780E2B06D11C4B1B881846A7
:1049D400FDF7BEFA00E000BF7B6801337B607B68B3
:1049E400B3F5007FBCDB114B1B68104A43F44073E2
:1049F40013600E4B1B680D4A23F440631360104B85
:104A0400AC221A700E4B00225A700D4B01229A7080
:104A14000B4BF322DA700A4B00221A710521084865
:104A2400FEF7B6FE00BF0837BD4680BD000C01404E
:104A340098010020C0050020DA050020D8050020D8
:104A4400AC03002080B582B000AF00237B6047E058
:104A54004FF42A4145F2555000F00AF94FF4AA41A7
:104A640042F6AA2000F004F94FF4204145F25550D3
:104A740000F0FEF800233B6023E0274B1A683B68F4
:104A84001A447B68134458083A687B681344083313
:104A9400224AD35CDBB21B021AB239687B680B442E
:104AA40007331E49CB5CDBB21BB213431BB29BB270
:104AB400194600F0DDF80520FDF74AFA3B68023399
:104AC4003B603A68164B1B689A42D6D3154B1B8839
:104AD400184601F0B9FF7A68114B1B6813447B60D8
:104AE4007B68B3F5007FB3DB0F4BAC221A700E4B1F
:104AF40000225A700C4B01229A700B4BF322DA708D
:104B0400094B00221A7105210748FEF741FE00BF38
:104B14000837BD4680BD00BFC005002098010020B5
:104B2400CC050020D8050020AC03002080B582B05D
:104B340000AF78600B46FB707868FEF76FFE0E4A94
:104B4400FB78D3600520FDF703FA0C4B5B690B4A35
:104B540043F0040353610F20FDF7FAF9074B1B6977
:104B6400064A43F0040313610F20FDF7F1F900BF77
:104B74000837BD4680BD00BF00080140000C01405D
:104B840080B584B000AF78607868FEF747FE174BB5
:104B94005B69164A43F020035361154B5B69144A61
:104BA40043F001035361114B5B69104A43F4807372
:104BB40053610A20FDF7CCF90E4B9B68FB730C4B39
:104BC4001B690B4A43F001031361084B5B69074AF5
:104BD40043F480735361054B1B69044A43F020037B
:104BE4001361FB7B18461037BD4680BD00100140A1
:104BF400000C01400008014080B584B000AF78602B
:104C04000B467B807B88FB737868FEF707FE7B8806
:104C14001B0A9AB2134BDA60134BDB68124A03F493
:104C24007F43D360104BDA68FB7B0F491343CB609F
:104C34000220FDF78DF90D4B5B690C4A43F0040328
:104C440053610520FDF784F9084B1B69074A43F0BB
:104C5400040313610F20FDF77BF900BF1037BD4635
:104C640080BD00BF0008014000140140000C014059
:104C740080B584B000AF78600B467B807B88FB7383
:104C84007868FEF7CBFD7B881B0A9AB2134BDA6077
:104C9400134BDB68124A03F47F43D360104BDA688A
:104CA400FB7B0F491343CB600220FDF751F90D4BF9
:104CB4005B690C4A43F0200353610520FDF748F972
:104CC400084B1B69074A43F0200313610F20FDF7CB
:104CD4003FF900BF1037BD4680BD00BF000801404A
:104CE400001401400010014080B584B000AF78602A
:104CF4007868FEF793FD174B5B69164A43F001038E
:104D04005361154B5B69144A43F480735361052066
:104D1400FDF71EF9114B9B689BB21B02FB81104BE4
:104D24009B68DBB29AB2FB891343FB81094B1B6975
:104D3400084A43F001031361074B5B69064A43F4D5
:104D4400807353610120FDF703F9FB89184610377E
:104D5400BD4680BD000C0140001001400008014028
:104D64000014014080B500AF164B1B69154A43F08F
:104D740020031361144B1B69134A43F001031361AD
:104D8400104B5B690F4A43F4807353610F4B4FF42C
:104D94007042DA601420FDF7DBF80C4B5B690B4AB8
:104DA40043F4005353611420FDF7D2F8074B1B69F9
:104DB400064A43F4005313611420FDF7C9F800BFF9
:104DC40080BD00BF00100140000C014000180140EC
:104DD40080B582B000AF78600B46FB707B68C3F38C
:104DE4000A03224A43F47043D3600120FDF7B0F86C
:104DF4001E4B5B691D4A43F4804353610120FDF758
:104E0400A7F81A4BDB68194A03F47043D360174BB5
:104E1400DA687B68DB0A15491343CB600120FDF790
:104E240097F8124B5B69114A43F480535361012094
:104E3400FDF78EF80D4B1B690C4A43F48043136154
:104E44000120FDF785F80A4AFB78D3600120FDF7BD
:104E54007FF8064B1B69054A43F480531361032012
:104E6400FDF776F800BF0837BD4680BD0018014045
:104E74000008014080B584B000AF78607B68C3F35C
:104E84000A03204A43F47043D3600120FDF760F81D
:104E94001C4B5B691B4A43F4804353610120FDF7BB
:104EA40057F8184BDB68174A03F47043D360154B6B
:104EB400DA687B68DB0A13491343CB600120FDF7F2
:104EC40047F8104B1B690F4A43F4804313610120D8
:104ED400FDF73EF80B4B5B690A4A43F40043536108
:104EE4000220FDF735F8084B9B68FB73054B1B69E3
:104EF400044A43F400431361FB7B18461037BD4654
:104F040080BD00BF001801400008014080B500AF1B
:104F14003C4B1B78013B242B70D801A252F823F0A0
:104F2400B94F00080150000801500008BF4F0008A5
:104F340001500008C54F0008CB4F0008D14F0008AE
:104F440001500008D74F0008DD4F00080150000849
:104F5400E34F000801500008015000080150000808
:104F6400E94F0008FB4F00080150000801500008F9
:104F740001500008015000080150000801500008C9
:104F84000150000801500008EF4F000801500008CC
:104F940001500008015000080150000801500008A9
:104FA4000150000801500008015000080150000899
:104FB400F54F000800F028F821E000F025F81EE085
:104FC40000F09EF81BE000F0EFF818E000F0F2F9B2
:104FD40015E000F06BFA12E000F068FA0FE000F060
:104FE400E1FA0CE000F050F909E000F04DF906E0B8
:104FF40000F04AF903E000F047FB00E000BF00BF07
:1050040080BD00BFDA05002080B500AFFDF7B8F918
:10501400384B5B69374A43F020035361AA2145F2B8
:105024005550FFF783FD552142F6AA20FFF77EFD78
:10503400802145F25550FFF779FDAA2145F25550DC
:10504400FFF774FD552142F6AA20FFF76FFD60219A
:1050540045F25550FFF76AFDFDF778F90A2001F093
:10506400F3FC0020FFF78CFD03461A46224B1A710D
:105074000120FFF785FD03461A461F4B5A71022093
:10508400FFF77EFD03461A461B4B9A711B48FFF738
:1050940077FD03461A46184BDA71FDF771F9AA2118
:1050A40045F25550FFF742FD552142F6AA20FFF77D
:1050B4003DFDF02145F25550FFF738FD0D4B1B69BE
:1050C4000C4A43F0200313610A2001F0BDFC0A4B93
:1050D400F122DA70084BAC221A70074B00225A7086
:1050E400054B04229A7008210348FEF751FB00BFC8
:1050F40080BD00BF00100140AC030020F2FF03009C
:1051040080B500AFFDF73CF9254B5B69244A43F0B9
:1051140020035361AA2145F25550FFF707FD55219D
:1051240042F6AA20FFF702FD902145F25550FFF701
:10513400FDFCFDF70BF90A2001F086FC0020FFF7C7
:105144001FFD03461A46174B1A710120FFF718FD7D
:1051540003461A46134B5A71124B00229A71114B93
:105164000022DA71FDF70CF9F0210020FFF7DEFCD4
:105174000B4B1B690A4A43F020031361094BAC2211
:105184001A70084B00225A70064B04229A70054B81
:10519400F122DA7008210348FEF7FAFA00BF80BD55
:1051A40000100140AC03002080B500AFFDF7CEF83D
:1051B4000020FEF733FB304B1B692F4A43F080037A
:1051C40013614FF4967001F03FFC2B4B5B692A4A44
:1051D40043F020035361294B5B69284A43F00103E0
:1051E4005361254B5B69244A43F480735361322035
:1051F400FCF7AEFE224B9B68DAB2224B1A710120F7
:10520400FEF70CFB3220FCF7A3FE1D4B9B68DAB2C1
:105214001C4B5A711B4B00229A711A4B0022DA71F3
:10522400FDF7AEF8144B1B69134A43F020031361D6
:10523400124B1B69114A43F0010313610E4B5B6966
:105244000D4A43F4807353610B4B5B690A4A43F084
:10525400800353610B4BAC221A700A4B00225A7024
:10526400084B04229A70074BF122DA700821054892
:10527400FEF78EFA00BF80BD00100140000C014013
:1052840000080140AC03002080B500AFFDF75EF8D4
:10529400434B1B781B2B04D14FF48040FEF7BEFA1E
:1052A4000BE03F4B1B78252B04D14FF48020FEF7F5
:1052B400B5FA02E00020FEF7B1FA3A4B1B69394A0D
:1052C40043F001031361384B5B69374A43F480733D
:1052D4005361354B1B69344A43F0800313614FF427
:1052E400967001F0B1FB304B5B692F4A43F0200309
:1052F40053612C4B5B692B4A43F004035361322006
:10530400FCF726FE294B9B68DAB2294B1A71244B11
:105314001B781B2B04D144F20100FEF77FFA0BE04B
:105324001F4B1B78252B04D144F20100FEF776FABB
:1053340002E00120FEF772FA3220FCF709FE1B4B53
:105344009B68DAB21A4B5A71194B00229A71184BA6
:105354000022DA71FDF714F8134B1B69124A43F06B
:10536400200313610F4B1B690E4A43F004031361BE
:105374000D4B5B690C4A43F0800353610C4BAC2228
:105384001A700B4B00225A70094B04229A70084B76
:10539400F122DA7008210648FEF7FAF900BF80BD51
:1053A400DA050020000C0140001001400008014013
:1053B400AC03002080B582B000AF0023FB80FCF773
:1053C400DFFF384B5B69374A43F0200353614FF4E6
:1053D4002A4145F25550FFF70FFC4FF4AA4142F61B
:1053E400AA20FFF709FC4FF4104145F25550FFF78E
:1053F40003FC0520FCF7ACFDFCF7A8FF0A2001F034
:1054040023FB0020FFF770FC03461B0A9BB2DAB2B1
:10541400254B1A714FF42A4145F25550FFF7ECFB26
:105424004FF4AA4142F6AA20FFF7E6FB4FF41041DD
:1054340045F25550FFF7E0FB0520FCF789FDFCF72A
:1054440085FF0A2001F000FB0120FFF74DFC034615
:10545400FB80FB88DAB2144B5A71FB881B0A9BB29F
:10546400DAB2114B9A71104B0022DA710D4B1B69A1
:105474000C4A43F020031361FCF782FF0A4BAC2271
:105484001A70094B00225A70074B04229A70064B7B
:10549400F122DA7008210448FEF77AF900BF0837D0
:1054A400BD4680BD00100140AC03002080B582B031
:1054B40000AF0023FB80FCF763FF384B5B69374A7E
:1054C40043F0200353614FF42A4140F25550FFF753
:1054D40093FB4FF4AA4140F2AA20FFF78DFB4FF44F
:1054E400104140F25550FFF787FB0520FCF730FDD3
:1054F400FCF72CFF0A2001F0A7FA0020FFF7F4FBC9
:1055040003461B0A9BB2DAB2254B1A714FF42A41A7
:1055140040F25550FFF770FB4FF4AA4140F2AA2025
:10552400FFF76AFB4FF4104140F25550FFF764FB5C
:105534000520FCF70DFDFCF709FF0A2001F084FAB1
:105544000120FFF7D1FB0346FB80FB881B0A9BB2BB
:10555400DAB2134B9A71FB88DAB2114B5A71104BC1
:105564000022DA710D4B1B690C4A43F020031361CE
:10557400FCF706FF0A4BAC221A70094B00225A7042
:10558400074B04229A70064BF122DA700821044872
:10559400FEF7FEF800BF0837BD4680BD001001408D
:1055A400AC03002080B500AF344B1B68334A23F4AE
:1055B40040731360314B1B68304A23F4406313601B
:1055C4002E4B1B682D4A43F480631360FFF7CAFB1C
:1055D400FCF7D6FEAA2145F25550FFF7F9FB5521F9
:1055E40042F6AA20FFF7F4FB902145F25550FFF74D
:1055F400EFFB1420FCF7ACFCFCF7A8FE0020FFF73F
:1056040039FC03461A461E4B1A710120FFF732FC7F
:1056140003461A461A4B5A711A48FFF72BFC0346E5
:105624001A46174B9A71164B0022DA71FCF7A8FE42
:10563400F0210020FFF7CCFB1420FCF789FC104B71
:10564400AC221A700E4B00225A700D4B04229A7031
:105654000B4BF122DA7008210948FEF799F8074B41
:105664001B68064A43F440731360044B1B68034AE7
:1056740023F44063136000BF80BD00BF000C0140F1
:10568400AC030020F2FF070080B500AFFCF75EFE1C
:105694000020FEF7C3F8304B1B692F4A43F0010387
:1056A40013612E4B5B692D4A43F4807353612B4B7A
:1056B4001B692A4A43F0800313614FF4967001F08A
:1056C400C3F9264B5B69254A43F020035361224BFF
:1056D4005B69214A43F0040353613220FCF738FC30
:1056E4001F4B9B68DAB21F4B1A710120FEF796F824
:1056F4003220FCF72DFC1A4B9B68DAB2194B5A7115
:10570400184B00229A71174B0022DA71FCF738FE0D
:10571400124B1B69114A43F0200313610E4B1B69A2
:105724000D4A43F0040313610C4B5B690B4A43F0CD
:10573400800353610B4BAC221A700A4B00225A703F
:10574400084B04229A70074BF122DA7008210548AD
:10575400FEF71EF800BF80BD000C014000100140A0
:1057640000080140AC03002080B500AF274B1B7834
:10577400013B112B47D801A252F823F0C957000866
:105784000B5800080B580008CF570008D5570008DD
:10579400DB570008F3570008E1570008E7570008F3
:1057A400ED5700080B5800080B580008F95700087B
:1057B400FF5700080B5800080B5800080B58000846
:1057C4000558000800F024F81EE000F00BF91BE077
:1057D40000F076F918E000F01BF815E000F062F82C
:1057E40012E000F05FF80FE000F0ACF80CE000F01D
:1057F400A3F909E000F016FA06E000F0A1FA03E0CC
:1058040000F0ECFA00E000BF00BF80BDDA05002024
:1058140080B500AF214B5B69204A43F020035361FC
:10582400AA2145F25550FFF781F9552142F6AA20E5
:10583400FFF77CF9802145F25550FFF777F9AA214B
:1058440045F25550FFF772F9552142F6AA20FFF7A9
:105854006DF9102145F25550FFF768F90F4B1B699C
:105864000E4A43F0200313614FF4FA6001F0ECF8A0
:105874000B4BAC221A700A4B00225A70084B0122BF
:105884009A70074BF622DA70054B00221A71052133
:105894000348FDF77DFF00BF80BD00BF001001403D
:1058A400AC03002080B500AF244B5B69234A43F06E
:1058B400200353614FF42A4145F25550FFF79CF9F8
:1058C4004FF4AA4142F6AA20FFF796F94FF400419B
:1058D40045F25550FFF790F94FF42A4145F25550DF
:1058E400FFF78AF94FF4AA4142F6AA20FFF784F998
:1058F4004FF4805145F25550FFF77EF941F2707034
:1059040001F0A2F80D4B1B690C4A43F0200313610C
:105914000B4BAC221A700A4B00225A70084B01221E
:105924009A70074BF622DA70054B00221A71052192
:105934000348FDF72DFF00BF80BD00BF00100140EC
:10594400AC03002080B500AF244B5B69234A43F0CD
:10595400200353614FF42A4140F25550FFF74CF9AC
:105964004FF4AA4140F2AA20FFF746F94FF4004150
:1059740040F25550FFF740F94FF42A4140F2555098
:10598400FFF73AF94FF4AA4140F2AA20FFF734F99D
:105994004FF4805140F25550FFF72EF90F4B1B691D
:1059A4000E4A43F02003136144F6206001F04CF8E2
:1059B4000B4BAC221A700A4B00225A70084B01227E
:1059C4009A70074BF622DA70054B00221A710521F2
:1059D4000348FDF7DDFE00BF80BD00BF001001409D
:1059E400AC03002080B500AF324B1B69314A43F051
:1059F40020031361304B1B692F4A43F001031361E9
:105A04002C4B5B692B4A43F4807353612A4B1B690B
:105A1400294A43F004031361264B5B69254A43F08A
:105A240020035361244B5B69234A43F00103536110
:105A3400204B1B691F4A43F480731361022001F059
:105A440003F81D4B5B691C4A43F004035361C820EF
:105A540000F0FAFF184B1B69174A43F00403136163
:105A6400022000F0F1FF144B1B69134A43F00103B9
:105A74001361104B5B690F4A43F4807353610D4B00
:105A84001B690C4A43F0200313610C4BAC221A70BF
:105A94000A4B00225A70094B01229A70074BF622D6
:105AA400DA70064B00221A7105210448FDF770FED6
:105AB40000BF80BD00100140000C0140AC03002079
:105AC40080B582B000AF194B5B69184A43F02003DC
