:020000040800F2
:100000000050002009340008ED320008F5320008E5
:10001000FD320008053300080D3300080000000021
:100020000000000000000000000000001533000880
:1000300021330008000000002D3300083933000888
:10004000513400085134000851340008513400087C
:10005000513400085134000851340008513400086C
:10006000513400085134000851340008513400085C
:10007000513400085134000851340008513400084C
:10008000513400085134000851340008513400083C
:100090004533000851340008513400085134000839
:1000A000513400085134000851340008513400081C
:1000B000513400085134000851340008513400080C
:1000C00051340008513400085134000851340008FC
:1000D00051340008513400085134000851340008EC
:1000E0005134000851340008513400080000000069
:1000F0000000000000000000000000000000000000
:0C01000000000000000000005FF808F1A3
:10010C0010B5054C237833B9044B13B10448AFF345
:10011C0000800123237010BD7C0100200000000032
:10012C00A4A3000808B5034B1BB103490348AFF364
:10013C00008008BD0000000080010020A4A300087E
:10014C0080B400AF074BDB69064A43F00403D3616C
:10015C00054B47229A62044B08221A6000BFBD4629
:10016C0080BC7047001002400008004080B483B08F
:10017C0000AF78600D4A7B68D3620C4B00225A6248
:10018C000A4B01221A6000BF084B1B6903F00103E4
:10019C00002BF9D0054B1B69044A23F001031361B2
:1001AC0000BF0C37BD4680BC704700BF0008004044
:1001BC0080B485B000AF504B9B694F4A43F020038D
:1001CC0093614D4B9B6903F02003FB60FB684A4B2A
:1001DC009B69494A43F004039361474B9B6903F0C5
:1001EC000403BB60BB68444B9B69434A43F0080360
:1001FC009361414B9B6903F008037B607B683E4B2A
:10020C009B693D4A43F0100393613B4B9B6903F0A0
:10021C0010033B603B68394B1B68384A43F00303BF
:10022C001360364B1B68354A23F00C031360344BB8
:10023C005B68334A43F440135360314B5B68304A7C
:10024C0023F4400353602D4B5B682C4A43F00303AB
:10025C0053602A4B5B68294A23F00C035360274BED
:10026C005B68264A43F030035360244B5B68234A97
:10027C0023F0C0035360234B5B68224A43F4407362
:10028C005360204B5B681F4A23F4406353601B4B45
:10029C001B681A4A43F440731360184B1B68174AC7
:1002AC0023F440631360154B1B68144A43F030036E
:1002BC001360124B1B68114A23F0C00313600F4BE1
:1002CC005B680E4A43F4407353600C4B5B680B4AFB
:1002DC0023F440635360094B5B68084A43F4405372
:1002EC005360064B5B68054A23F44043536000BFE0
:1002FC001437BD4680BC704700100240000C014012
:10030C00001001400008014080B400AF064B4FF0D4
:10031C0088321A60054B5B69044A43F00103536150
:10032C0000BFBD4680BC704700080140000C014076
:10033C0080B400AF064B4FF033321A60054B1B698B
:10034C00044A43F00103136100BFBD4680BC7047F3
:10035C0000080140000C014080B483B000AF03469C
:10036C00FB71524B1B68514A43F04C5313604F4B7B
:10037C001B684E4A43F04C4313604D4BDB694C4AAF
:10038C0043F40013D3614B4B1B684A4A43F40043BC
:10039C001360484B1B68474A23F400431360454BDA
:1003AC00DB68444A23F00103D360424B1B68414A8B
:1003BC0023F0400313603F4B1B683E4A23F080033D
:1003CC0013603C4B1B683B4A23F001031360394B11
:1003DC005B6823F03F03374A43F024035360FB79F7
:1003EC00002B12D1334B1B6A23F03F03314A43F0ED
:1003FC00250313622F4BDB6923F44F4323F0FF03D8
:10040C002C4A43F0B403D36129E0FB79012B14D1BE
:10041C00284B1B6A23F03F03264A43F00B0313625D
:10042C00244BDB6923F44F4323F0FF03214A43F4AD
:10043C00004343F01E03D36111E01E4B1B6A23F0F3
:10044C003F031C4A43F0250313621A4BDB6923F468
:10045C004F4323F0FF03174A43F0B403D361154B0A
:10046C009B6823F4434323F0FF03124A43F4804375
:10047C009360104B1B680F4A23F01A0313600D4B4B
:10048C001B680C4A43F0010313600A4B1B68094AB2
:10049C0043F480631360074BDB68064A23F0FE03CA
:1004AC00D36000BF0C37BD4680BC7047000C0140C8
:1004BC00001002400054004080B485B000AF3B6097
:1004CC000346FB710B46BB801346BB714FF6FF73A3
:1004DC00FB81634B1B68624A23F400631360604B1F
:1004EC001B685F4A43F4806313605D4B1B685C4A76
:1004FC0043F4807313604FF6FF73FB8102E0FB89BA
:10050C00013BFB81564B5B6903F00103002B02D1CD
:10051C00FB89002BF3D1FB89002B01D101239AE03D
:10052C004F4B5B694E4B1B6923F0FF02FB794C4927
:10053C0013430B614FF6FF73FB8102E0FB89013B18
:10054C00FB81474B5B6903F00203002B02D1FB8953
:10055C00002BF3D1FB89002B01D101237BE0404B15
:10056C005B693F4B9B69BB79022B20D13C4B1B69D0
:10057C0023F0FF03BA88120A92B2D2B21146384A5B
:10058C000B4313614FF6FF73FB8102E0FB89013BC8
:10059C00FB81334B5B6903F08003002B02D1FB8999
:1005AC00002BF3D1FB89002B01D1012353E02C4B01
:1005BC001B6923F0FF03BA88D2B21146284A0B43B9
:1005CC0013614FF6FF73FB8102E0FB89013BFB815A
:1005DC00234B5B6903F08003002B02D1FB89002BBA
:1005EC00F3D1FB89002B01D1012334E00023BB6044
:1005FC0026E01B4B1B6923F0FF03B98BBA680A4436
:10060C0011463A680A4412781146154A0B43136195
:10061C004FF6FF73FB8102E0FB89013BFB81104B22
:10062C005B6903F08003002B02D1FB89002BF3D113
:10063C00FB89002B01D101230DE0BB680133BB60AA
:10064C003B8BBA689A42D4DB054B1B68044A43F4D3
:10065C0000731360002318461437BD4680BC7047E6
:10066C000054004080B485B000AF3B600346FB7182
:10067C000B46BB711346BB804FF6FF73FB81934B4C
:10068C001B68924A23F400631360904B1B688F4ADB
:10069C0043F4806313608D4B1B688C4A43F4807366
:1006AC00136002E0FB89013BFB81884B5B6903F023
:1006BC000103002B02D1FB89002BF3D1FB89002B0A
:1006CC0001D10123FCE0814B5B69804B1B6923F05A
:1006DC00FF02FB797D4913430B614FF6FF73FB81DE
:1006EC0002E0FB89013BFB81784B5B6903F0020361
:1006FC00002B02D1FB89002BF3D1FB89002B01D1FC
:10070C000123DDE0714B5B69704B9B69BB79022B5C
:10071C0020D16E4B1B6923F0FF03BA88120A92B2E8
:10072C00D2B21146694A0B4313614FF6FF73BB817A
:10073C0002E0BB89013BBB81644B5B6903F0800326
:10074C00002B02D1BB89002BF3D1BB89002B01D12B
:10075C000123B5E05D4B1B6923F0FF03BA88D2B2CD
:10076C0011465A4A0B4313614FF6FF73FB8102E0AB
:10077C00FB89013BFB81554B5B6903F08003002B2C
:10078C0002D1FB89002BF3D1FB89002B01D1012372
:10079C0096E04E4B1B684D4A43F4807313604FF642
:1007AC00FF73FB8102E0FB89013BFB81474B5B69DB
:1007BC0003F00103002B02D1FB89002BF3D1FB8941
:1007CC00002B01D101237BE0404B5B693F4B1B6944
:1007DC0023F0FF03FA7942F00102D2B211463B4AF0
:1007EC000B4313614FF6FF73FB8102E0FB89013B66
:1007FC00FB81364B5B6903F00203002B02D1FB89B2
:10080C00002BF3D1FB89002B01D1012358E02F4B96
:10081C005B692E4B9B690023BB604CE0BB695A1E85
:10082C00BB689A421CD94FF6FF73FB8102E0FB892F
:10083C00013BFB81254B5B6903F04003002B02D18C
:10084C00FB89002BF3D1FB89002B01D1012337E06D
:10085C001E4B1969BB683A681344CAB21A7027E078
:10086C001A4B1B68194A23F480631360174B1B68DF
:10087C00164A43F4007313604FF6FF73FB8102E0DA
:10088C00FB89013BFB81114B5B6903F04003002B9F
:10089C0002D1FB89002BF3D1FB89002B01D1012361
:1008AC000EE00A4B1969BB683A681344CAB21A7055
:1008BC00BB680133BB60BB68BA699A42AED80023EF
:1008CC0018461437BD4680BC704700BF005400402A
:1008DC0080B500AF344BAC221A70334BBF2283F877
:1008EC003F2002F0B1FD00F069F8FFF761FC2F4BDF
:1008FC005B692E4A43F4806353612D4B5B692C4A30
:10090C0043F480635361294B5B69284A43F40063C9
:10091C0053610A2002F0FAFD254B1B69244A43F46B
:10092C0080631361214B1B69204A43F400631361FC
:10093C00642002F0EBFD09F021F8FFF701FC002028
:10094C00FFF70AFD02F042FC02F006FDFFF7F0FC97
:10095C00002000F08DFC154B5B69144A43F40073C6
:10096C005361144B1B69134A43F4005313610F4B2F
:10097C005B690E4A43F4807353610C4B1B690B4A41
:10098C0043F002031361094B1B69084A43F004034B
:10099C001361094B1B78002BFBD000F0A1F8064B20
:1009AC0000221A70F5E700BF98010020000C0140EE
:1009BC000008014000100140B008002080B594B040
:1009CC0000AF07F1280328220021184609F0B8FCD3
:1009DC0007F1140300221A605A609A60DA601A61F7
:1009EC003B1D00221A605A609A60DA600123BB62D8
:1009FC004FF48033FB6200233B630123BB63022370
:100A0C007B644FF48033BB644FF4E013FB6407F159
:100A1C002803184604F018FC0346002B01D000F004
:100A2C0027F80F237B610223BB610023FB614FF48A
:100A3C0080633B6200237B6207F11403022118469A
:100A4C0004F084FE0346002B01D000F011F81023B3
:100A5C007B6000233B613B1D184604F0D3FF03462B
:100A6C00002B01D000F004F800BF5037BD4680BD0C
:100A7C0080B400AF72B600BF00BFFDE780B582B096
:100A8C0000AF0346FB80FB8840F6F612934221D858
:100A9C00DC2002F09BFCDC2002F098FCFB880F4A67
:100AAC00A2FB03235B099BB2DBB2184602F08EFC5F
:100ABC00FB880A4AA2FB03125209642101FB02F2D1
:100ACC009B1A9BB2DBB2184602F080FCCD2002F0E0
:100ADC007DFC00E000BF0837BD4680BD1F85EB5193
:100AEC0080B582B000AFA24B1B78DBB2AC2B02D02E
:100AFC0000F04CFB34E39E4BDB78DBB2D03B2A2B73
:100B0C0000F22D8301A252F823F000BFCB0B00089A
:100B1C006B110008D10B00086B1100086B11000859
:100B2C006B1100086B1100086B1100086B110008A9
:100B3C006B110008C50B00086B1100086B11000845
:100B4C006B1100086B1100086B110008C71000082E
:100B5C00EF100008451100086B1100086B1100081C
:100B6C006B1100086B1100086B1100086B11000869
:100B7C006B1100086B1100086B1100086B11000859
:100B8C006B1100086B1100086B1100082D0C00088C
:100B9C00FB0C00089D0D0008F10E00086B110008FD
:100BAC006B110008190F00086B11000831100008B8
:100BBC006B1100088310000800F0FEFAD0E200F080
:100BCC00F7FCCDE26A4B1B79DBB21A469200134458
:100BDC001A4691001A460B4613449B009BB2644A7A
:100BEC005279D2B21344FB80FB881846FFF746FFBC
:100BFC004FF4967002F08AFC5E4BAC221A705D4B7F
:100C0C0000225A705B4B01229A705A4BD222DA7036
:100C1C00584B00221A710521564800F0E3FA9FE266
:100C2C00FFF772FB544B5B69534A43F00203536169
:100C3C00514B1B69504A43F0040313614F4B1B6922
:100C4C004E4A43F4005313614B4B5B694A4A43F4DD
:100C5C0080735361464B5B79DBB21A04444B9B792E
:100C6C00DBB21B021343424AD279D2B213431A4667
:100C7C00434B1A603E4B1B79DAB2424B1A703C4B19
:100C8C001B7ADBB21B021AB2394B5B7ADBB21BB29A
:100C9C0013431BB29AB23C4B1A80354B1B7BDBB215
:100CAC001A46920013441A4691001A460B461344F6
:100CBC009B009BB22E4A527BD2B213449AB2334B56
:100CCC001A80324B1B88002B08D0304B1B881846DF
:100CDC00FFF7D4FE4FF4FA7002F018FC00F012FD8E
:100CEC00254B1B69244A43F00203136138E2224B63
:100CFC001B69214A43F004031361204B1B691F4AF3
:100D0C0043F4005313611C4B5B691B4A43F480731F
:100D1C005361194B1B69184A43F002031361144BBE
:100D2C001B79DAB2174B1A70114B5B79DBB21A468E
:100D3C00920013441A4691001A460B4613449B002A
:100D4C009BB20B4A9279D2B213449AB20F4B1A80CF
:100D5C000E4B1B88002B08D00C4B1B881846FFF73A
:100D6C008DFE4FF4967002F0D1FB01F0E1FAF7E141
:100D7C0098010020AC030020000C01400010014041
:100D8C00CC050020DE050020DC050020E00500205D
:100D9C00984B1B69974A43F002031361964B1B69EE
:100DAC00954A43F400531361924B5B69914A43F4A7
:100DBC00807353618F4B1B698E4A43F0040313619C
:100DCC008E4B00221A608E4B00221A60FFF7B0FA8D
:100DDC008C4B5B79DBB21A048A4B9B79DBB21B021E
:100DEC001343884AD279D2B213431A46864B1A60FF
:100DFC00844B1B7BDBB21B02824A527BD2B2134365
:100E0C001A46824B1A607F4B1B79DAB2804B1A70F0
:100E1C007C4B9B7BDBB21A46920013441A46910022
:100E2C001A460B4613449B009BB2764AD27BD2B235
:100E3C0013449AB2774B1A80764B1B88002B08D040
:100E4C00744B1B881846FFF719FE4FF4FA7002F02A
:100E5C005DFB6F4B1B78072B13D06D4B1B78112B45
:100E6C000FD06B4B1B78122B0BD0694B1B781B2BA9
:100E7C0007D0674B1B78252B03D0654B1B782F2B8A
:100E8C000ED15D4B5B695C4A43F400535361594B83
:100E9C001B69584A43F480731361322002F036FB0D
:100EAC00584B1B7ADBB21B021AB2564B5B7ADBB285
:100EBC001BB213431BB29AB2574B1A80574BAC223E
:100ECC001A70564B00225A70544B01229A70534B95
:100EDC00F322DA70514B00221A7105214F4800F0B1
:100EEC0081F93DE1474B9B79DBB21A46454B5B7967
:100EFC00DBB21B021A43434B1B79DBB21B041343BB
:100F0C001A46474B1A6000F083FE29E1FFF710FAEE
:100F1C00384B1B69374A43F002031361364B1B698C
:100F2C00354A43F400531361324B5B69314A43F445
:100F3C00807353612F4B1B692E4A43F004031361DA
:100F4C002E4B00221A602E4B00221A60FFF7F0F98C
:100F5C002C4B5B79DBB21A042A4B9B79DBB21B025C
:100F6C001343284AD279D2B213431A46264B1A603D
:100F7C00244B9B7ADBB21B02224AD27AD2B21343A5
:100F8C001A46224B1A601F4B1B79DAB2204B1A708F
:100F9C001C4B1B7BDBB21B021AB21A4B5B7BDBB20A
:100FAC001BB213431BB29AB21B4B1A80154B9B7B83
:100FBC00DBB21A46920013441A4691001A460B46AD
:100FCC0013449B009BB20F4AD27BD2B213449AB209
:100FDC00104B1A800F4B1B88002B08D00D4B1B8815
:100FEC001846FFF74BFD4FF4967002F08FFA01F0A4
:100FFC0059FCB5E0000C014000100140D405002064
:10100C00D805002098010020CC050020D005002038
:10101C00DE050020E0050020DC050020AC030020EC
:10102C00C0050020504B1B79DAB2504B1A704E4B56
:10103C005B79DBB21A46920013441A4691001A46A9
:10104C000B4613449B009BB2474A9279D2B213448D
:10105C009AB2474B1A80464B1B88002B08D0444B46
:10106C001B881846FFF70AFD4FF4967002F04EFAF3
:10107C0001F04CFE74E03F4B1B693E4A43F40053B5
:10108C0013613D4B5B693C4A43F4807353613A4BAB
:10109C005B69394A43F400735361374B1B69364A19
:1010AC0043F002031361344B1B69334A43F00403CE
:1010BC0013610020FFF7E2FC52E02B4B1B79DBB2F3
:1010CC001A46294B5B79DBB21B021A43264B9B79E0
:1010DC00DBB21B0413431A46284B1A6001F0E2FEE4
:1010EC003EE0214B1B79DBB21A461F4B5B79DBB21E
:1010FC001B021A431C4B9B79DBB21B0413431A468D
:10110C001E4B1A60184BDB79DBB21A461C4B1A606B
:10111C001C4BAC221A701B4B00225A70194B01222B
:10112C009A70184BE222DA70164B00221A710521C4
:10113C00144800F057F813E00B4B9B79DBB21A46BE
:10114C00094B5B79DBB21B021A43074B1B79DBB2F1
:10115C001B0413431A460C4B1A6001F051FF00BFDD
:10116C0000BF0837BD4680BD98010020DE05002079
:10117C00E005002000100140000C0140CC050020CF
:10118C00D0050020AC030020C005002080B582B043
:10119C0000AFAC233B7000237B700123BB70EE23AC
:1011AC00FB7000233B713B460521184600F01AF8F2
:1011BC0000BF0837BD4680BD80B582B000AFAC2300
:1011CC003B7000237B700123BB70DA23FB70002380
:1011DC003B713B460521184600F004F800BF083768
:1011EC00BD4680BD80B584B000AF78600B467B8077
:1011FC007B881946786808F0C5FC0346FB7397F9A1
:10120C000F30002BF4D100BF00BF1037BD4680BD9E
:10121C0080B584B000AF03463960FB711346BB80C8
:10122C00AC233B72BB881B0A9BB2DBB27B72BB88C4
:10123C00DBB2BB72FB79FB7207F108030421184681
:10124C0008F0A0FC0346FB7397F90F30002BF3D189
:10125C00BB881946386808F095FC0346FB7397F970
:10126C000F30002BF4D100BF00BF1037BD4680BD3E
:10127C0080B582B000AF78607B681B0CDBB218467F
:10128C0001F0BCFF7B681B0ADBB2184601F0B6FF0D
:10129C007B68DBB2184601F0B1FF094B1B69084AA9
:1012AC0043F480631361064B5B69054A43F4806326
:1012BC005361044A7B68136000BF0837BD4680BD8C
:1012CC00000C0140C805002080B483B000AF034679
:1012DC00FB71084BDB68074A03F47F43D360054B73
:1012EC00DA68FB7903491343CB6000BF0C37BD466A
:1012FC0080BC70470008014080B582B000AF7860B8
:10130C000B46FB707868FFF7B3FFFB781846FFF7C6
:10131C00DBFF0520FEF72AFF0A4B5B69094A43F005
:10132C00040353610A20FEF721FF064B1B69054A93
:10133C0043F0040313610A20FEF718FF00BF0837BF
:10134C00BD4680BD000C014080B584B000AF786014
:10135C007868FFF78DFF174B5B69164A43F0020361
:10136C005361154B5B69144A43F400535361114BA1
:10137C005B69104A43F4807353610A20FEF7F6FE52
:10138C000E4B9B68FB730C4B1B690B4A43F40053CD
:10139C001361084B5B69074A43F480735361054B37
:1013AC001B69044A43F002031361FB7B1846103798
:1013BC00BD4680BD000C01400010014000080140FA
:1013CC0080B500AF1B4B1B691A4A43F00203136133
:1013DC00194B1B69184A43F400531361154B5B6995
:1013EC00144A43F4807353614FF47040FFF740FF8D
:1013FC001420FEF7BBFE114B1B6823F400530F4A5D
:10140C0013600E4B1B681846FFF732FF1420FEF7D3
:10141C00ADFE0A4B1B6843F40053084A1360074B9C
:10142C001B681846FFF724FF1420FEF79FFE00BF31
:10143C0080BD00BF000C014000100140C805002019
:10144C0080B582B000AF78600B46FB707B68C3F34D
:10145C000A0343F470431846FFF70AFF0120FEF716
:10146C0085FE254B1B6823F48043234A1360224BD3
:10147C001B681846FFF7FCFE0120FEF777FE7B6821
:10148C00DB0A43F470431846FFF7F2FE0120FEF727
:10149C006DFE194B1B6823F48053174A1360164BCF
:1014AC001B681846FFF7E4FE0120FEF75FFE124BA7
:1014BC001B6843F48043104A13600F4B1B6818469B
:1014CC00FFF7D6FEFB781846FFF7FEFE0220FEF76C
:1014DC004DFE094B1B6843F48053074A1360064BBF
:1014EC001B681846FFF7C4FE0320FEF73FFE00BF43
:1014FC000837BD4680BD00BFC805002080B584B04C
:10150C0000AF78607B68C3F30A0343F4704318465A
:10151C00FFF7AEFE0120FEF729FE234B1B6823F4D8
:10152C008043214A1360204B1B681846FFF7A0FE2E
:10153C000120FEF71BFE7B68DB0A43F47043184660
:10154C00FFF796FE0120FEF711FE174B1B6843F4C4
:10155C008043154A1360144B1B681846FFF788FE2E
:10156C000120FEF703FE104B1B6823F400430E4AC8
:10157C0013600D4B1B681846FFF77AFE0220FEF72E
:10158C00F5FD0A4B9B68FB73074B1B6843F4004348
:10159C00054A1360044B1B681846FFF769FEFB7B7A
:1015AC0018461037BD4680BDC80500200008014014
:1015BC0080B500AFFEF7BCFE4D4BDB79DBB21846B5
:1015CC00FFF782FE4A4B1B79DBB21A04484B5B795E
:1015DC00DBB21B021343464A9279D2B213431A462A
:1015EC00444B1A60434B1B681846FFF741FE404BB7
:1015FC001B7ADBB2002B0CD03E4B1B6803F4007340
:10160C00002B06D03C4B1B693B4A43F4007313611F
:10161C0005E0394B5B69384A43F400735361344B32
:10162C005B7ADBB2FF2B06D1334B1B69324A43F09A
:10163C000203136105E0304B5B692F4A43F0020350
:10164C0053612B4B9B7ADBB2002B1ED0284B1B7AA1
:10165C00DBB2002B0CD0294B5B69284A43F40053B6
:10166C005361254B1B69244A43F48073136118E0C2
:10167C00224B1B69214A43F4005313611E4B5B69D7
:10168C001D4A43F4807353610BE01C4B5B691B4A8E
:10169C0043F400535361184B5B69174A43F480734E
:1016AC005361134BDB7ADBB2002B06D0124B1B6958
:1016BC00114A43F00403136105E00F4B5B690E4ABA
:1016CC0043F0040353610E4BAC221A700C4B0022F6
:1016DC005A700B4B01229A70094BD022DA70084BCE
:1016EC00AC221A7105210648FFF77CFD00BF80BDB6
:1016FC0098010020C4050020000C0140001001409E
:10170C00AC03002080B500AFFEF7FEFD874B1B78C5
:10171C00013B1A2B00F2078101A252F823F000BF03
:10172C00991700083319000833190008ED17000841
:10173C00C3170008171800084118000833190008CF
:10174C006B18000833190008331900083319000806
:10175C0095180008331900083319000833190008CC
:10176C00DF18000833190008331900083319000872
:10177C00331900083319000833190008331900080D
:10178C0033190008331900080919000800F0D4F8BF
:10179C00674B1B69664A43F400531361654B5B69E5
:1017AC00644A43F480735361624B1B69614A43F092
:1017BC0004031361B8E000F0BFF85D4B1B695C4A91
:1017CC0043F4005313615B4B5B695A4A43F48073D7
:1017DC005361584B1B69574A43F004031361A3E050
:1017EC0000F0AAF8524B1B69514A43F400531361A1
:1017FC00504B5B694F4A43F4807353614D4B1B69EB
:10180C004C4A43F0040313618EE000F095F8484B0A
:10181C001B69474A43F400531361464B5B69454AC5
:10182C0043F480735361434B1B69424A43F00403F6
:10183C00136179E000F0FAF83D4B1B693C4A43F424
:10184C00005313613B4B5B693A4A43F48073536119
:10185C00384B1B69374A43F00403136164E000F012
:10186C006BF8334B1B69324A43F400531361314B11
:10187C005B69304A43F4807353612E4B1B692D4ACC
:10188C0043F0040313614FE000F058F9284B1B6937
:10189C00274A43F400531361264B5B69254A43F4F2
:1018AC0080735361234B1B68224A23F440731360EB
:1018BC00204B1B681F4A23F4406313601D4B1B68AD
:1018CC001C4A43F4806313604FF47040FFF7D0FC64
:1018DC002AE000F0ABF8164B1B69154A43F4005391
:1018EC001361144B5B69134A43F480735361114BBE
:1018FC001B69104A43F00403136115E000F096F8DD
:10190C000B4B1B690A4A43F400531361094B5B6987
:10191C00084A43F480735361064B1B69054A43F034
:10192C000403136100E000BF00BF80BDDE05002092
:10193C0000100140000C014080B582B000AF0023C4
:10194C007B605DE0334BAC221A70324B02225A7032
:10195C00304B00229A702F4BF022DA702E4B5B69C1
:10196C002D4A43F00203536100233B602DE03A689B
:10197C007B6813441846FFF77BFC284B5B69274AAE
:10198C0043F400535361244B5B69234A43F4807343
:10199C0053610120FEF7EAFB214B9A683B68043344
:1019AC00D1B21C4AD1541D4B1B691C4A43F4005341
:1019BC001361194B5B69184A43F48073536101201E
:1019CC00FEF7D4FB3B6801333B603B68B3F5007F0B
:1019DC00CDDB114B1B69104A43F0020313614FF42A
:1019EC0001710C48FFF7FEFB00BF0E4B1B78002B60
:1019FC00FBD00C4B00221A707B6803F500737B60E4
:101A0C00094B1B687A689A429CD300BF00BF083709
:101A1C00BD4680BDAC030020000C0140001001400D
:101A2C0000080140B1080020CC05002080B582B030
:101A3C0000AF00237B606BE03A4BAC221A70394B41
:101A4C0002225A70374B00229A70364BF022DA7011
:101A5C00354B5B69344A43F00203536100233B600E
:101A6C003BE0324B1B78112B08D13A687B6813444E
:101A7C0043F480431846FFF7FBFB12E02B4B1B781B
:101A8C001B2B08D13A687B68134443F48023184617
:101A9C00FFF7EEFB05E03A687B6813441846FFF746
:101AAC00E7FB214B5B69204A43F00403536101209F
:101ABC00FEF75CFB1E4B9A683B680433D1B2194AA3
:101ACC00D154194B1B69184A43F0040313610120CC
:101ADC00FEF74CFB3B6801333B603B68B3F5007F82
:101AEC00BFDB114B1B69104A43F0020313614FF427
:101AFC0001710C48FFF776FB00BF0E4B1B78002BD7
:101B0C00FBD00C4B00221A707B6803F500737B60D2
:101B1C00094B1B687A689A428ED300BF00BF083706
:101B2C00BD4680BDAC030020000C0140DE0500204A
:101B3C0000080140B1080020CC05002090B583B00E
:101B4C0000AFFFF73DFC2E4B1B682D4A23F440736E
:101B5C0013602B4B1B682A4A23F440631360284BF9
:101B6C001B68274A43F48063136000237B6032E0D8
:101B7C00244BAC221A70234B02225A70214B0022A8
:101B8C009A70204BF022DA7000233B600EE03A682A
:101B9C007B681A443B681C1D1046FFF7AFFC0346DC
:101BAC001A46184B1A553B6801333B603B68B3F53A
:101BBC00007FECDB4FF401711248FFF713FB00BF01
:101BCC00114B1B78002BFBD00F4B00221A707B683B
:101BDC0003F500737B600D4B1B687A689A42C7D380
:101BEC00074B1B68064A43F440731360044B1B6895
:101BFC00034A23F44063136000BF0C37BD4690BD0D
:101C0C00000C0140AC030020B1080020CC050020E2
:101C1C0080B500AF2F4B1B78013B1A2B56D801A275
:101C2C0052F823F09D1C0008D91C0008D91C000890
:101C3C00A31C0008AF1C0008B51C0008BB1C000846
:101C4C00D91C0008D91C0008D91C0008D91C000894
:101C5C00D91C0008C11C0008C71C0008D91C0008AE
:101C6C00D91C0008CD1C0008D91C0008D91C000880
:101C7C00A91C0008D91C0008D91C0008D91C000894
:101C8C00D91C0008D91C0008D91C0008D31C00085A
:101C9C0000F03CF81BE000F091F818E000F00CF9B3
:101CAC0015E000F06FF912E000F0B0F90FE000F071
:101CBC00FFF90CE000F0C2FA09E000F0BFFA06E010
:101CCC0000F038FA03E000F035FA00E000BF00BF86
:101CDC0080BD00BFDE05002080B500AF0A4BAC22F2
:101CEC001A70094B00225A70074B01229A70064B4E
:101CFC00F322DA70044B00221A7105210248FFF717
:101D0C0071FA00BF80BD00BFAC03002080B582B06B
:101D1C0000AF00237B603DE0244B5B69234A43F01A
:101D2C0002035361AA2145F25550FFF7E5FA5521FC
:101D3C0042F6AA20FFF7E0FAA02145F25550FFF732
:101D4C00DBFA00233B6012E0194B1A683B681A441B
:101D5C007B68D0183A687B6813440733154AD35C08
:101D6C00DBB21946FFF7C8FA3B6801333B603A68AF
:101D7C00114B1B689A42E7D30C4B1B690B4A43F07F
:101D8C00020313610C2001F0C1FB7A680A4B1B683B
:101D9C0013447B607B68B3F5007FBDDBFFF79CFFD2
:101DAC00002318460837BD4680BD00BF000C01401B
:101DBC00C005002098010020D005002080B582B01D
:101DCC0000AF384B1B69374A43F002031361364BA3
:101DDC001B69354A43F400531361324B5B69314A3A
:101DEC0043F4807353612F4B1B692E4A43F0040359
:101DFC00136100237B6049E000233B6039E02B4BEF
:101E0C001A687B681A443B6813441846FFF730FA8B
:101E1C007B68DA1D3B681344254AD35CDBB2184659
:101E2C00FFF752FA0120FEF7A1F91E4B5B691D4A20
:101E3C0043F0020353610520FEF798F9194B5B69D7
:101E4C00184A43F0040353610520FEF78FF9154B34
:101E5C001B69144A43F004031361124B1B69114AAA
:101E6C0043F0020313610520FEF780F93B68013350
:101E7C003B603A680F4B1B689A42C0D3042001F0B8
:101E8C0045FB7A680B4B1B6813447B607B68B3F58E
:101E9C00007FB1DBFFF720FF002318460837BD4653
:101EAC0080BD00BF000C014000100140C0050020A7
:101EBC0098010020D005002080B582B000AF2D4BDA
:101ECC001B692C4A43F0020313612B4B1B692A4AF2
:101EDC0043F400531361274B5B69264A43F4807328
:101EEC005361244B1B69234A43F004031361002301
:101EFC007B6035E0214B1A687B6813441846FFF76A
:101F0C00B7F97B6807331E4AD35CDBB21846FFF780
:101F1C00DBF90120FEF72AF9164B5B69154A43F0F1
:101F2C0002035361134B5B69124A43F00403536180
:101F3C000520FEF71BF90F4B1B690E4A43F00403F7
:101F4C0013610520FEF712F90A4B1B69094A43F08D
:101F5C0002031361B420FEF709F97B6801337B603F
:101F6C007B68B3F5007FC5DBFFF7B6FE00BF083713
:101F7C00BD4680BD000C014000100140C005002092
:101F8C009801002080B582B000AF1D4B5B691C4AE4
:101F9C0043F00203536100237B6020E07A68194B05
:101FAC001B6813441846FFF763F97B680733164A1E
:101FBC00D35CDBB21846FFF787F9114B5B69104A0B
:101FCC0043F0040353610120FEF7D0F80C4B1B695E
:101FDC000B4A43F0040313617B6801337B607B681D
:101FEC00B3F5007FDADB064B1B69054A43F00203AD
:101FFC001361FFF771FE002318460837BD4680BDFC
:10200C00000C0140C00500209801002080B582B072
:10201C0000AF234B5B69224A43F002035361002358
:10202C007B602CE07B6807331E4AD35CDBB2FF2B52
:10203C0021D0AA2145F25550FFF75EF9552142F601
:10204C00AA20FFF759F9A02145F25550FFF754F992
:10205C007A68154B1B681A447B6807331149CB5CB3
:10206C00DBB219461046FFF747F9104B1B88184690
:10207C00FEF77CF800E000BF7B6801337B607B6877
:10208C00B3F5007FCEDB064B1B69054A43F0020318
:10209C001361FFF721FE002318460837BD4680BDAB
:1020AC00000C014098010020C0050020DC05002038
:1020BC0080B582B000AF00237B6028E0194B1A6812
:1020CC007B6813441846FFF7D3F87B680733164A2E
:1020DC00D35CDBB21846FFF7F7F80220FEF746F8A0
:1020EC00124B5B69114A43F002035361104B1B887E
:1020FC001846FEF73BF80D4B1B690C4A43F00203E4
:10210C0013610F20FEF732F87B6801337B607B682C
:10211C00B3F5007FD2DBFFF7DFFD00BF0837BD460C
:10212C0080BD00BFC005002098010020000C0140BC
:10213C00DC05002080B582B000AF3A4B5B69394AB0
:10214C0043F00203536100237B605BE0364B1B784A
:10215C00112B08D1354B1A687B68134443F4804328
:10216C001846FFF785F8304B1B781B2B08D12F4BEB
:10217C001A687B68134443F480231846FFF778F8F9
:10218C007B6807332A4AD35CDBB21846FFF79CF80E
:10219C000220FDF7EBFF244B1B78112B06D1254BAE
:1021AC001B6823F480431846FFF762F81E4B1B781C
:1021BC001B2B06D11F4B1B6823F480231846FFF7FB
:1021CC0057F81D4B1B881846FDF7D0FF164B1B7894
:1021DC00112B06D1174B1B6843F480431846FFF7AD
:1021EC0047F8114B1B781B2B06D1124B1B6843F481
:1021FC0080231846FFF73CF80F20FDF7B7FF7B68EC
:10220C0001337B607B68B3F5007F9FDB054B1B695B
:10221C00044A43F002031361FFF75EFD00BF083769
:10222C00BD4680BD000C0140DE050020C00500202D
:10223C0098010020C8050020DC05002080B582B084
:10224C0000AFFFF7BDF8354B1B68344A23F44073DD
:10225C001360324B1B68314A23F4406313602F4BDD
:10226C001B682E4A43F48063136000237B603EE0BE
:10227C007B6807332A4AD35CDBB2FF2B33D0AA210D
:10228C0045F25550FFF7DCF8552142F6AA20FFF72E
:10229C00D7F8A02145F25550FFF7D2F87A68214BB8
:1022AC001B681A447B6807331D49CB5CDBB21946AB
:1022BC001046FFF7C5F80520FDF758FF1A4B1B78A1
:1022CC000D2B06D100BF154B9B6803F00403002BAC
:1022DC00F9D0154B1B780E2B06D1144B1B881846C6
:1022EC00FDF744FF00E000BF7B6801337B607B6837
:1022FC00B3F5007FBCDB094B1B68084A43F4407301
:10230C001360064B1B68054A23F440631360FFF708
:10231C00E3FC00BF0837BD4680BD00BF000C014088
:10232C0098010020C0050020DE050020DC050020FF
:10233C0080B500AF364B1B78013B242B64D801A22F
:10234C0052F823F0E5230008152400081524000892
:10235C00EB23000815240008F1230008F7230008DC
:10236C00152400081524000815240008152400085D
:10237C0015240008FD230008152400081524000866
:10238C00152400080324000815240008152400084F
:10239C00152400081524000815240008152400082D
:1023AC001524000815240008152400080924000829
:1023BC00152400081524000815240008152400080D
:1023CC0015240008152400081524000815240008FD
:1023DC00152400080F24000800F01CF815E000F08C
:1023EC0019F812E000F092F80FE000F0E3F80CE0BE
:1023FC0000F0E6F909E000F04DF906E000F04AF9CA
:10240C0003E000F047F900E000BF00BF80BD00BF53
:10241C00DE05002080B500AFFDF78AFF384B5B6905
:10242C00374A43F002035361AA2145F25550FEF797
:10243C0063FF552142F6AA20FEF75EFF802145F28C
:10244C005550FEF759FFAA2145F25550FEF754FF9F
:10245C00552142F6AA20FEF74FFF602145F2555058
:10246C00FEF74AFFFDF750FF0A2001F04FF800205D
:10247C00FEF76AFF03461A46224B1A710120FEF73B
:10248C0063FF03461A461F4B5A710220FEF75CFF8E
:10249C0003461A461B4B9A711B48FEF755FF034621
:1024AC001A46184BDA71FDF743FFAA2145F2555035
:1024BC00FEF722FF552142F6AA20FEF71DFFF02160
:1024CC0045F25550FEF718FF0D4B1B690C4A43F0B3
:1024DC00020313610A2001F019F80A4BF122DA7099
:1024EC00084BAC221A70074B00225A70054B042281
:1024FC009A7008210348FEF775FE00BF80BD00BF2F
:10250C00000C0140AC030020F2FF030080B500AFCB
:10251C00FDF70EFF254B5B69244A43F00203536120
:10252C00AA2145F25550FEF7E7FE552142F6AA20A6
:10253C00FEF7E2FE902145F25550FEF7DDFEFDF769
:10254C00E3FE0A2000F0E2FF0020FEF7FDFE03464A
:10255C001A46174B1A710120FEF7F6FE03461A466F
:10256C00134B5A71124B00229A71114B0022DA71E3
:10257C00FDF7DEFEF0210020FEF7BEFE0B4B1B69C3
:10258C000A4A43F002031361094BAC221A70084B40
:10259C0000225A70064B04229A70054BF122DA7015
:1025AC0008210348FEF71EFE00BF80BD000C014051
:1025BC00AC03002080B500AFFDF7A6FE0020FEF7AF
:1025CC0057FE304B1B692F4A43F4007313613220C2
:1025DC0000F09CFF2B4B5B692A4A43F002035361CA
:1025EC00294B5B69284A43F400535361254B5B69C3
:1025FC00244A43F4807353613220FDF7B7FD234B1B
:10260C009B68DAB2224B1A710120FEF731FE3220A0
:10261C00FDF7ACFD1D4B9B68DAB21D4B5A711C4B80
:10262C0000229A711A4B0022DA71FDF781FE154BCC
:10263C001B69144A43F002031361134B1B69124AC2
:10264C0043F4005313610F4B5B690E4A43F48073E0
:10265C0053610C4B5B690B4A43F4007353610C4B95
:10266C00AC221A700A4B00225A70094B04229A7041
:10267C00074BF122DA7008210548FEF7B3FD00BFC5
:10268C0080BD00BF000C014000100140000801405B
:10269C00AC03002080B500AFFDF736FE434B1B7832
:1026AC001B2B04D14FF48040FEF7E2FD0BE03F4BB7
:1026BC001B78252B04D14FF48020FEF7D9FD02E0C6
:1026CC000020FEF7D5FD3A4B1B69394A43F4005301
:1026DC001361384B5B69374A43F480735361354B54
:1026EC001B69344A43F400731361322000F00EFF6F
:1026FC00304B5B692F4A43F0020353612D4B5B69EE
:10270C002C4A43F0040353613220FDF72FFD2A4B72
:10271C009B68DAB2294B1A71244B1B781B2B04D102
:10272C0044F20100FEF7A4FD0BE0204B1B78252B97
:10273C0004D144F20100FEF79BFD02E00120FEF7FC
:10274C0097FD3220FDF712FD1B4B9B68DAB21B4B39
:10275C005A711A4B00229A71184B0022DA71FDF74C
:10276C00E7FD144B1B69134A43F002031361114B31
:10277C001B69104A43F0040313610E4B5B690D4A4D
:10278C0043F4007353610D4BAC221A700B4B0022B7
:10279C005A700A4B04229A70084BF122DA70082105
:1027AC000648FEF71FFD00BF80BD00BFDE05002000
:1027BC0000100140000C014000080140AC03002057
:1027CC0080B500AF344B1B68334A23F4407313605D
:1027DC00314B1B68304A23F4406313602E4B1B684B
:1027EC002D4A43F480631360FEF7EAFDFDF7A0FD6C
:1027FC00AA2145F25550FEF723FE552142F6AA2098
:10280C00FEF71EFE902145F25550FEF719FE1420DE
:10281C00FDF7ACFCFDF778FD0020FEF76FFE0346DC
:10282C001A461E4B1A710120FEF768FE03461A4623
:10283C001A4B5A711A48FEF761FE03461A46174B9B
:10284C009A71164B0022DA71FDF772FDF02100200F
:10285C00FEF7F6FD1420FDF789FC104BAC221A7024
:10286C000E4B00225A700D4B04229A700B4BF12226
:10287C00DA7008210948FEF7B5FC074B1B68064ABD
:10288C0043F440731360044B1B68034A23F4406306
:10289C00136000BF80BD00BF000C0140AC030020E2
:1028AC00F2FF070080B500AF1D4B1B78013B0D2BD1
:1028BC0033D801A252F823F0FD280008272900087C
:1028CC002729000803290008092900080F290008F6
:1028DC00152900082729000827290008272900089E
:1028EC0027290008272900081B290008212900088E
:1028FC0000F032F812E000F065F80FE000F0BEF8DE
:10290C000CE000F029F809E000F0E2F806E000F035
:10291C003DF903E000F0B4F900E000BF00BF80BD5A
:10292C00DE05002080B500AF0A4BAC221A70094BB3
:10293C0000225A70074B01229A70064BF622DA706D
:10294C00044B00221A7105210248FEF74BFC00BF14
:10295C0080BD00BFAC03002080B500AF184B5B6995
:10296C00174A43F002035361AA2145F25550FEF772
:10297C00C3FC552142F6AA20FEF7BEFC802145F28D
:10298C005550FEF7B9FCAA2145F25550FEF7B4FCA0
:10299C00552142F6AA20FEF7AFFC102145F2555006
:1029AC00FEF7AAFC064B1B69054A43F002031361B0
:1029BC004FF4FA6000F0AAFDFFF7B4FF00BF80BD32
:1029CC00000C014080B500AF2A4B1B69294A43F02B
:1029DC0002031361284B1B69274A43F4005313610C
:1029EC00244B5B69234A43F480735361214B1B696D
:1029FC00204A43F0040313611E4B5B691D4A43F0EC
:102A0C00020353611C4B5B691B4A43F40053536133
:102A1C00184B1B69174A43F480731361022000F0B2
:102A2C0075FD144B5B69134A43F004035361C820D2
:102A3C0000F06CFD0F4B1B690E4A43F0040313614D
:102A4C00022000F063FD0C4B1B690B4A43F400534E
:102A5C001361084B5B69074A43F480735361054B60
:102A6C001B69044A43F002031361FFF75BFF00BFCD
:102A7C0080BD00BF000C01400010014080B582B049
:102A8C0000AF114B5B69104A43F002035361002302
:102A9C007B6007E07B68FF211846FEF72DFC7B6806
:102AAC0001337B607A68094B1B689A42F2D3064B60
:102ABC001B69054A43F002031361FFF733FF00BFA4
:102ACC000837BD4680BD00BF000C0140CC0500207E
:102ADC0080B500AFFDF72CFC294B1B69284A43F04D
:102AEC0004031361264B1B69254A43F0020313614F
:102AFC000020FEF7BDFB234BDB68224A43F0FF03AB
:102B0C00D3601F4B1B691E4A43F4007313611E4BA9
:102B1C005B691D4A43F400535361194B1B69184AF6
:102B2C0043F480731361322000F0F0FC144B5B69AA
:102B3C00134A43F002035361782000F0E7FC104B7A
:102B4C001B690F4A43F0020313614FF47A7000F0D3
:102B5C00DDFC0B4B5B690A4A43F4007353610A4B6F
:102B6C001B69094A43F400531361054B5B69044A22
:102B7C0043F480735361FFF7D5FE00BF80BD00BFE7
:102B8C00000C01400008014000100140B0B58AB0B3
:102B9C0000AF384B3C1D1D460FCD0FC495E80F0000
:102BAC0084E80F00FEF70CFC334B1B68324A23F40D
:102BBC0040731360304B1B682F4A23F4406313603F
:102BCC002D4B1B682C4A43F4806313602B4B1B6901
:102BDC002A4A43F400531361274B5B69264A43F49A
:102BEC008073536100237B622FE0AA2145F255507C
:102BFC00FEF726FC552142F6AA20FEF721FC802187
:102C0C0045F25550FEF71CFCAA2145F25550FEF733
:102C1C0017FC552142F6AA20FEF712FC7B6A9B009A
:102C2C0028333B4453F8243C30211846FEF708FC6B
:102C3C00012000F06BFC00BF0F4B9B6803F00403FA
:102C4C00002BF9D07B6A01337B627B6A072BCCDDCE
:102C5C00094B1B68084A43F440731360064B1B680E
:102C6C00054A23F440631360FFF75CFE00BF28376E
:102C7C00BD46B0BDBCA30008000C014000100140D3
:102C8C0080B500AFFEF79CFB1E4B1B691D4A43F43D
:102C9C00005313611C4B5B691B4A43F480735361F3
:102CAC00AA2145F25550FEF7CBFB552142F6AA203E
:102CBC00FEF7C6FB802145F25550FEF7C1FBAA2159
:102CCC0045F25550FEF7BCFB552142F6AA20FEF703
:102CDC00B7FB102145F25550FEF7B2FB42F21070D3
:102CEC0000F014FC084B1B68074A43F44073136054
:102CFC00054B1B68044A23F440631360FFF712FE74
:102D0C0000BF80BD00100140000C014080B500AF39
:102D1C000A4B1B780A2B0BD00A2B0CDC012B04D092
:102D2C00042B08D100F00CF806E000F02FF803E0BB
:102D3C0000F072F800E000BF00BF80BDDE0500208F
:102D4C0080B500AFAA2141F25550FEF7D5FA5521B6
:102D5C0040F6AA20FEF7D0FA802141F25550FEF73A
:102D6C00CBFAAA2141F25550FEF7C6FA552140F68E
:102D7C00AA20FEF7C1FA202141F25550FEF7BCFA09
:102D8C006420FDF7F3F900BF80BD000080B500AFF3
:102D9C00FDF7CEFA1E4B5B691D4A43F40053536199
:102DAC001C4B1B691B4A43F480731361322000F0E7
:102DBC00ADFBAA2145F25550FEF79EFA552142F67D
:102DCC00AA20FEF799FA802145F25550FEF794FAA5
:102DDC00AA2145F25550FEF78FFA552142F6AA204A
:102DEC00FEF78AFA202145F25550FEF785FA0A20A3
:102DFC0000F08CFB064B1B69054A43F4005313612E
:102E0C00044B5B69034A43F48073536100BF80BD7C
:102E1C0000100140000C014080B500AF0A2000F00A
:102E2C0075FB4220FEF724FA6020FEF74DFA0120D4
:102E3C0000F06CFB194B5B69184A43F002035361B9
:102E4C00164B5B69154A43F0040353613220FDF7BE
:102E5C008DF9124B1B69114A43F0040313610F4B9C
:102E6C001B690E4A43F002031361322000F04EFB43
:102E7C000B4BAC221A700A4B00225A70084B0122E1
:102E8C009A70074BF822DA70054B00221A71052153
:102E9C000348FEF7A7F900BF80BD00BF000C01403E
:102EAC00AC03002080B586B002AF514B1B68B3F564
:102EBC00007F37D84E4B1B6800934E4B00220121EC
:102ECC00A020FDF7CFFB4C4BAC221A70484B1B6873
:102EDC001B0ADAB2484B5A70454B1B68DAB2464BA8
:102EEC009A70454BE022DA700023FB600BE0FB6824
:102EFC0004334049FA680A441278D1B23E4AD1549C
:102F0C00FB680133FB60FA68394B1B689A42EED3BD
:102F1C00374B1B689BB204339BB219463648FEF7FD
:102F2C0061F95FE0324B1B68B3F5806F04D0304B16
:102F3C001B68B3F5006F31D10023FB7200237B605B
:102F4C0026E0FB7A5B005BB263F05F035BB2D8B246
:102F5C007B689BB2DBB29AB24FF400730093264BA2
:102F6C000121FDF77FFB4FF400722349E020FEF7AF
:102F7C004FF9FB7A0233FB7200BF204B1B78002BFE
:102F8C00FBD01E4B00221A707B6803F500737B602C
:102F9C007A68174B1B689A42D3D323E000233B601B
:102FAC001BE03B689AB24FF400730093124B022162
:102FBC00A020FDF757FB4FF400720F49E020FEF7FD
:102FCC0027F900BF0D4B1B78002BFBD00B4B0022BD
:102FDC001A703B6803F500733B603A68044B1B683E
:102FEC009A42DED3002318461037BD4680BD00BF81
:102FFC00CC05002098010020AC030020B108002073
:10300C0080B588B002AF6C4B1B68802B23D100239A
:10301C007B611CE07B6999B2684B1B689BB27A6937
:10302C0092B2073292B201920093654B0122A0201A
:10303C00FDF742FA0346002B01D00123B7E00F2025
:10304C0000F064FA7A695D4B1B6813447B617B6901
:10305C007F2BDFDD97E0584B1B68B3F5807F28D1C1
:10306C0000233B6121E03B699AB2564B1B689BB233
:10307C00134499B2514B1B689BB23A6992B2073216
:10308C0092B2019200934E4B0122A020FDF714FA4C
:10309C000346002B01D0012389E00F2000F036FA03
:1030AC003A69464B1B6813443B613B697F2BDADD65
:1030BC0069E0414B1B68B3F5007F09D03E4B1B68A0
:1030CC00B3F5806F04D03C4B1B68B3F5006F32D165
:1030DC003B4B5B79DBB25B00FB710023FB6026E0B2
:1030EC00FB7963F05F03D8B2364B1B689BB2DBB243
:1030FC009AB2FB689BB2134499B2304B1B689BB2DB
:10310C00FA6892B2073292B2019200932C4B0122D0
:10311C00FDF7D2F90346002B01D0012347E0142020
:10312C0000F0F4F9FA68254B1B681344FB60FB684C
:10313C007F2BD5DD27E00023BB6021E0BB689AB272
:10314C00204B1B689BB2134499B21C4B1B689BB25F
:10315C00BA6892B2073292B201920093184B0222D3
:10316C00A020FDF7A9F90346002B01D001231EE096
:10317C00192000F0CBF9BA68104B1B681344BB60E4
:10318C00BB687F2BDADD104BAC221A700E4B002281
:10319C005A700D4B01229A700B4BE222DA700A4BDB
:1031AC0000221A7105210848FEF71CF80023184666
:1031BC001837BD4680BD00BFCC050020D0050020CF
:1031CC0098010020C0050020AC03002080B400AFA3
:1031DC00094B5B68084A43F0405343F44013536077
:1031EC00054B5B68044A23F0404323F440035360CF
:1031FC0000BFBD4680BC7047000C014080B485B058
:10320C0000AF0346FB711C4B5B691B4A43F4005334
:10321C0053610023FB6025E0FA79FB68C3F10703D7
:10322C0042FA03F303F00103002B06D0124B1B6987
:10323C00114A43F40043136105E00F4B5B690E4ADE
:10324C0043F4004353610C4B1B690B4A43F400538A
:10325C001361094B5B69084A43F400535361FB68E3
:10326C000133FB60FB68072BD6DD00BF00BF1437B2
:10327C00BD4680BC704700BF000C014080B485B0D7
:10328C0000AF154B9B69144A43F001039361124B39
:10329C009B6903F00103BB60BB680F4BDB690E4AF3
:1032AC0043F08053D3610C4BDB6903F080537B609C
:1032BC007B680A4B5B68FB60FB6823F0E063FB6098
:1032CC00FB6843F08063FB60044AFB68536000BFFB
:1032DC001437BD4680BC704700100240000001400E
:1032EC0080B400AF00BFFDE780B400AF00BFFDE7C6
:1032FC0080B400AF00BFFDE780B400AF00BFFDE7B6
:10330C0080B400AF00BFFDE780B400AF00BFBD4686
:10331C0080BC704780B400AF00BFBD4680BC704716
:10332C0080B400AF00BFBD4680BC704780B500AF15
:10333C0000F0D0F800BF80BD80B500AF024800F0AF
:10334C003BFB00BF80BD00BFB40B002080B400AFBE
:10335C0000BFBD4680BC704780B400AF184B9B6962
:10336C00174A43F004039361164B5B68154A43F00C
:10337C0030035360134B5B68124A23F0C003536055
:10338C00104B5B680F4A43F0800353600C4B9B69F6
:10339C000B4A43F4804393610B4B0822DA600A4BCF
:1033AC0000221A61084B41F64C529A60064BDB68BE
:1033BC00054A43F40053D36000BFBD4680BC704740
:1033CC0000100240000801400038014080B483B076
:1033DC0000AF0346FB71084AFB79536000BF064BF4
:1033EC001B6803F08003002BF9D000BF00BF0C3723
:1033FC00BD4680BC704700BF00380140FFF7A6FFF8
:10340C000B480C490C4A002302E0D458C450043336
:10341C00C4188C42F9D3094A094C002301E013600B
:10342C000432A242FBD306F093FFFDF751FA70472A
:10343C00000000207C01002050A400087C0100202A
:10344C00C4100020FEE7000080B500AF084B1B68DD
:10345C00074A43F010031360032000F047F90F20D4
:10346C0000F008F8FFF70AFF0023184680BD00BFE4
:10347C000020024080B582B000AF7860124B1A6811
:10348C00124B1B7819464FF47A73B3FBF1F3B2FB72
:10349C00F3F3184600F05FF90346002B01D001232B
:1034AC000EE07B680F2B0AD8002279684FF0FF30B2
:1034BC0000F027F9064A7B681360002300E0012323
:1034CC0018460837BD4680BD0000002008000020CB
:1034DC000400002080B400AF054B1B781A46054B46
:1034EC001B681344034A136000BFBD4680BC704781
:1034FC0008000020E405002080B400AF024B1B68DC
:10350C001846BD4680BC7047E405002080B584B0E9
:10351C0000AF7860FFF7F0FFB8607B68FB60FB687A
:10352C00B3F1FF3F05D00A4B1B781A46FB681344D6
:10353C00FB6000BFFFF7E0FF0246BB68D31AFA68D6
:10354C009A42F7D800BF00BF1037BD4680BD00BF00
:10355C000800002080B485B000AF78607B6803F071
:10356C000703FB600C4BDB68BB60BA684FF6FF03CC
:10357C001340BB60FB681A02BB68134343F0BF6384
:10358C0043F40033BB60044ABB68D36000BF1437FC
:10359C00BD4680BC704700BF00ED00E080B400AFBA
:1035AC00044BDB681B0A03F007031846BD4680BCBE
:1035BC00704700BF00ED00E080B483B000AF03465D
:1035CC00FB7197F90730002B0BDBFB7903F01F0223
:1035DC00064997F907305B09012000FA02F241F81D
:1035EC00232000BF0C37BD4680BC704700E100E0D3
:1035FC0080B483B000AF03463960FB7197F9073094
:10360C00002B0ADB3B68DAB20C4997F90730120140
:10361C00D2B20B4483F800230AE03B68DAB20849C3
:10362C00FB7903F00F03043B1201D2B20B441A7660
:10363C0000BF0C37BD4680BC704700BF00E100E006
:10364C0000ED00E080B489B000AFF860B9607A603A
:10365C00FB6803F00703FB61FB69C3F10703042B51
:10366C0028BF0423BB61FB690433062B02D9FB6919
:10367C00033B00E000237B614FF0FF32BB6902FA91
:10368C0003F3DA43BB681A407B699A404FF0FF3171
:10369C007B6901FA03F3D9437B680B40134318464B
:1036AC002437BD4680BC704780B582B000AF7860CF
:1036BC007B68013BB3F1807F01D301230FE00A4A01
:1036CC007B68013B53600F214FF0FF30FFF790FFF9
:1036DC00054B00229A60044B07221A6000231846FF
:1036EC000837BD4680BD00BF10E000E080B582B059
:1036FC0000AF78607868FFF72DFF00BF0837BD4634
:10370C0080BD80B586B000AF0346B9607A60FB73AC
:10371C0000237B61FFF742FF78617A68B9687869AA
:10372C00FFF790FF024697F90F3011461846FFF746
:10373C005FFF00BF1837BD4680BD80B582B000AFBB
:10374C000346FB7197F907301846FFF735FF00BFAA
:10375C000837BD4680BD80B582B000AF7860786810
:10376C00FFF7A2FF034618460837BD4680BDF0B5EB
:10377C008BB006AF78607B68002B01D10123F1E0A0
:10378C007B6893F8A932DBB2002B06D17B68002250
:10379C0083F8A822786806F029FB7B68032283F85B
:1037AC00A9227B681B68184602F008FA7B681B6824
:1037BC003B607E686D4606F110040FCC0FC5236884
:1037CC002B60331D0ECB386802F0D2F90346002B68
:1037DC0005D07B68022283F8A9220123C2E07B6812
:1037EC001B680021184602F003FA0023FB7340E02B
:1037FC00FB7B79685A1C13469B001344DB000B447B
:10380C00013301221A70FB7B79685A1C13469B000A
:10381C001344DB000B44FA7B1A70FB7B79685A1C4F
:10382C0013469B001344DB000B44033300221A7035
:10383C00FA7B796813469B001344DB000B44383346
:10384C0000221A60FA7B796813469B001344DB0054
:10385C000B443C3300221A60FA7B796813469B00B8
:10386C001344DB000B44403300221A60FB7B013312
:10387C00FB73FA7B7B685B689A42B9D30023FB73BA
:10388C0044E0FA7B796813469B001344DB000B443D
:10389C0003F2691300221A70FA7B796813469B00B5
:1038AC001344DB000B4403F5B473FA7B1A70FA7BF8
:1038BC00796813469B001344DB000B4403F26B1333
:1038CC0000221A70FA7B796813469B001344DB00C4
:1038DC000B4403F5BC7300221A60FA7B796813461B
:1038EC009B001344DB000B4403F5BE7300221A60EB
:1038FC00FA7B796813469B001344DB000B4403F5F9
:10390C00C07300221A60FB7B0133FB73FA7B7B686C
:10391C005B689A42B5D37B681B683B607E686D46DA
:10392C0006F110040FCC0FC523682B60331D0ECB92
:10393C00386802F069F90346002B05D07B68022237
:10394C0083F8A92201230DE07B68002283F8242050
:10395C007B68012283F8A9227B681B68184604F057
:10396C00EAFB002318461437BD46F0BD80B582B083
:10397C0000AF78607B6893F8A832012B01D1022349
:10398C0016E07B68012283F8A8227B681B68184626
:10399C0002F0FEF80121786806F09BFC7B681B683E
:1039AC00184604F0BEFB7B68002283F8A822002393
:1039BC0018460837BD4680BD80B588B000AF78602A
:1039CC007B681B68184604F0C0FBB861BB6903F444
:1039DC000043002B03D0786800F01BFB19E1BB6996
:1039EC0003F48063002B13D07B681B68B3F844305E
:1039FC009AB27B681B6822F4806292B2A3F84420CE
:103A0C00786806F06EFA0021786800F005F900E19C
:103A1C00BB6903F48043002B0CD07B681B68B3F8A4
:103A2C0044309AB27B681B6822F4804292B2A3F8AD
:103A3C004420EEE0BB6903F40053002B0CD07B68F0
:103A4C001B68B3F844309AB27B681B6822F40052AE
:103A5C0092B2A3F84420DCE0BB6903F48053002B42
:103A6C0027D07B681B68B3F840309AB27B681B6820
:103A7C0022F0040292B2A3F840207B681B68B3F8D2
:103A8C0040309AB27B681B6822F0080292B2A3F80D
:103A9C004020786806F05EFA7B681B68B3F8443007
:103AAC009AB27B681B6822F4805292B2A3F844202D
:103ABC00AFE0BB6903F40063002B00F083800023AC
:103ACC00FB7710E07B681B681A46FB7F9B001A444F
:103ADC00FB7F128892B25B0020333B4423F8182CF6
:103AEC00FB7F0133FB77FB7F072BEBD97B681B68D4
:103AFC00B3F840309AB27B681B6842F0010292B274
:103B0C00A3F840207B681B68B3F840309AB27B68FE
:103B1C001B6822F0010292B2A3F8402000BF7B6820
:103B2C001B68B3F844309BB203F48063002BF6D0CF
:103B3C007B681B68B3F844309AB27B681B6822F42C
:103B4C00806292B2A3F844200023FB770FE0FB7F46
:103B5C007A6812681146FA7F92000A445B0020339F
:103B6C003B4433F8183C1380FB7F0133FB77FB7F1E
:103B7C00072BECD97B681B68B3F840309AB27B6892
:103B8C001B6842F0080292B2A3F840207B681B68C5
:103B9C00B3F844309AB27B681B6822F4006292B28C
:103BAC00A3F844207B681B68B3F840309AB27B685A
:103BBC001B6842F0040292B2A3F84020786806F029
:103BCC00AFF926E0BB6903F40073002B0FD07B68C0
:103BDC001B68B3F844309AB27B681B6822F40072FD
:103BEC0092B2A3F84420786806F06DF911E0BB6935
:103BFC0003F48073002B0CD07B681B68B3F8443043
:103C0C009AB27B681B6822F4807292B2A3F84420AB
:103C1C0000BF2037BD4680BD80B582B000AF786054
:103C2C000B46FB707B6893F8A832012B01D1022361
:103C3C0013E07B68012283F8A8227B68FA7883F86A
:103C4C0024207B681B68FA781146184604F056FA53
:103C5C007B68002283F8A822002318460837BD464B
:103C6C0080BD80B584B000AF7860084611461A4616
:103C7C000346FB700B463B801346BB700023FB7264
:103C8C0097F90330002B0EDAFB7803F007035A1C6C
:103C9C0013469B001344DB007A681344FB60FB68FB
:103CAC0001225A700EE0FB7803F0070213469B00CA
:103CBC001344DB0003F5B4737A681344FB60FB68B0
:103CCC0000225A70FB7803F00703DAB2FB681A7013
:103CDC003A88FB681A61FB68BA78DA70BB78022BF9
:103CEC0002D1FB6800221A717B6893F8A832012B71
:103CFC0001D102230EE07B68012283F8A8227B68A5
:103D0C001B68F968184601F09FFF7B68002283F856
:103D1C00A822FB7A18461037BD4680BD80B584B00A
:103D2C0000AF78600B46FB7097F90330002B0EDA6E
:103D3C00FB7803F007035A1C13469B001344DB006B
:103D4C007A681344FB60FB6801225A700EE0FB7822
:103D5C0003F0070213469B001344DB0003F5B47316
:103D6C007A681344FB60FB6800225A70FB7803F0FE
:103D7C000703DAB2FB681A707B6893F8A832012B40
:103D8C0001D102230EE07B68012283F8A8227B6814
:103D9C001B68F968184602F017FB7B68002283F851
:103DAC00A822002318461037BD4680BD80B586B0CA
:103DBC0000AFF8607A603B600B46FB72FB7A03F055
:103DCC00070213469B001344DB0003F5B473FA6837
:103DDC0013447B617B697A685A617B693A689A61A2
:103DEC007B690022DA617B6900225A70FB7A03F04E
:103DFC000703DAB27B691A70FB681B68796918468D
:103E0C0002F0CEFC002318461837BD4680BD80B4A6
:103E1C0083B000AF78600B46FB70FB7803F00702B1
:103E2C00796813469B001344DB000B4403F5C27303
:103E3C001B6818460C37BD4680BC704780B586B0F1
:103E4C0000AFF8607A603B600B46FB72FB7A03F0C4
:103E5C0007035A1C13469B001344DB00FA681344F7
:103E6C007B617B697A685A617B693A689A617B6984
:103E7C00012283F824207B693A681A627B6900224C
:103E8C00DA617B6901225A70FB7A03F00703DAB21C
:103E9C007B691A70FB681B687969184602F080FC14
:103EAC00002318461837BD4680BD80B584B000AFDE
:103EBC0078600B46FB70FB7803F007027B685B684D
:103ECC009A4201D901234CE097F90330002B0EDA0A
:103EDC00FB7803F007035A1C13469B001344DB00CA
:103EEC007A681344FB60FB6801225A700CE0FA7884
:103EFC0013469B001344DB0003F5B4737A68134438
:103F0C00FB60FB6800225A70FB6801229A70FB78F8
:103F1C0003F00703DAB2FB681A707B6893F8A832D7
:103F2C00012B01D102231CE07B68012283F8A8221B
:103F3C007B681B68F968184603F0E3FFFB7803F015
:103F4C000703002B08D17B681A687B6803F52C7378
:103F5C001946104604F008F97B68002283F8A82261
:103F6C00002318461037BD4680BD80B584B000AF25
:103F7C0078600B46FB70FB7803F00F027B685B6884
:103F8C009A4201D9012340E097F90330002B0EDA55
:103F9C00FB7803F007035A1C13469B001344DB0009
:103FAC007A681344FB60FB6801225A700EE0FB78C0
:103FBC0003F0070213469B001344DB0003F5B473B4
:103FCC007A681344FB60FB6800225A70FB6800227D
:103FDC009A70FB7803F00703DAB2FB681A707B68FF
:103FEC0093F8A832012B01D102230EE07B68012249
:103FFC0083F8A8227B681B68F968184603F0D1FF88
:10400C007B68002283F8A822002318461037BD468F
:10401C0080BD80B596B000AF7860BEE37B681B684E
:10402C00B3F84430A7F84E30B7F84E30DBB203F09B
:10403C000F0387F84D3097F84D30002B40F0788106
:10404C00B7F84E3003F01003002B51D17B681B687E
:10405C001B889BB223F4E14323F07003FB817B6844
:10406C001A68FB896FEA43436FEA53439BB2138090
:10407C007B6828337B657B681B68B3F850309BB238
:10408C001A467B6D1B78DB00134402335B007A68A5
:10409C001268134403F580631B88C3F309027B6D1C
:1040AC00DA617B6D5A697B6DDB691A447B6D5A61F1
:1040BC000021786805F0EDFE7B6893F82430DBB2C4
:1040CC00002B00F06A837B6D9B69002B40F06583AD
:1040DC007B6893F82430DBB263F07F03DAB27B6841
:1040EC001B68A3F84C207B68002283F8242054E33F
:1040FC007B6803F5B4737B657B681B681B88A7F82A
:10410C004A30B7F84A3003F40063002B34D07B6894
:10411C001B68B3F850309BB21A467B6D1B78DB00E2
:10412C00134406335B007A681268134403F580630A
:10413C001B88C3F309027B6DDA617B6818687B68A6
:10414C0003F52C717B6DDA887B6DDB699BB204F017
:10415C005BF87B681B681B889AB240F68F73134020
:10416C003B827B681B683A8A42F0800292B21A80CA
:10417C00786805F061FE10E3B7F94A30002B80F245
:10418C000C837B681B681B889AB240F68F731340B4
:10419C00FB837B681B68FA8B42F0800292B21A8018
:1041AC007B681B68B3F850309BB21A467B6D1B784A
:1041BC00DB00134406335B007A681268134403F582
:1041CC0080631B88C3F309027B6DDA617B6DDB694D
:1041DC00002B19D07B6D5B69002B15D07B681868A0
:1041EC007B6D59697B6DDA887B6DDB699BB204F062
:1041FC000BF87B6D5A697B6DDB691A447B6D5A61D8
:10420C000021786805F02AFE7B681B681B88A7F8DC
:10421C004A30B7F84A3003F40063002B40F0BD82FB
:10422C00B7F84A3003F44053B3F5405F00F0B58261
:10423C007B681B68BB617B681B68B3F850309BB212
:10424C001A46BB691344BB61BB6903F20C437B6127
:10425C007B691B889BB2C3F309039AB27B691A80F2
:10426C007B6D1B693E2B1DD97B6D1B695B097B64C8
:10427C007B6D1B6903F01F03002B02D17B6C013B90
:10428C007B647B691B889AB27B6C9BB29B029BB252
:10429C0013439BB26FEA43436FEA53439AB27B6971
:1042AC001A8026E07B6D1B69002B0AD17B691B8869
:1042BC009BB26FEA43436FEA53439AB27B691A800D
:1042CC0017E07B6D1B695B087B647B6D1B6903F0DE
:1042DC000103002B02D07B6C01337B647B691B8850
:1042EC009AB27B6C9BB29B029BB213439AB27B69D2
:1042FC001A807B681B681B889BB223F4804323F0D5
:10430C0070037B827B8A83F480537B827B8A83F469
:10431C0000537B827B681A687B8A43F07F4343F4AB
:10432C007F0343F4004343F080039BB2138034E2D9
:10433C007B681B681A4697F84D309B0013441B880A
:10434C00A7F84A30B7F94A30002B80F2FC807B6822
:10435C001B681A4697F84D309B0013441B889AB281
:10436C0040F68F731340A7F848307B681B681A46D9
:10437C0097F84D309B001344B7F8482042F0800268
:10438C0092B21A8097F84D2013469B001344DB0021
:10439C0003F5B4737A6813447B657B6D1B7B002B30
:1043AC0025D17B681B68B3F850309BB21A467B6DE5
:1043BC001B78DB00134406335B007A6812681344E5
:1043CC0003F580631B88C3F30903A7F85030B7F8D3
:1043DC005030002B00F092807B6818687B6D596917
:1043EC007B6DDA88B7F8503003F00EFF86E07B6DFA
:1043FC00DB78022B0AD1B7F84A301A46796D786807
:10440C0000F0D9F90346A7F8503077E07B681B68B9
:10441C001A467B6D1B789B0013441B889BB223F4BC
:10442C00E04323F07003A7F852307B681B681A46F0
:10443C007B6D1B789B001A44B7F8523043F07F43D6
:10444C0043F47F0343F4004343F0C0039BB2138057
:10445C007B681B681A467B6D1B789B0013441B887A
:10446C009BB203F48043002B24D07B681B68B3F809
:10447C0050309BB21A467B6D1B78DB001344023321
:10448C005B007A681268134403F580631B88C3F3DE
:10449C000903A7F85030B7F85030002B2ED07B68AA
:1044AC0018687B6D59697B6D1A89B7F8503003F029
:1044BC00ABFE23E07B681B68B3F850309BB21A4606
:1044CC007B6D1B78DB00134406335B007A68126843
:1044DC00134403F580631B88C3F30903A7F850301A
:1044EC00B7F85030002B09D07B6818687B6D596980
:1044FC007B6D5A89B7F8503003F086FE7B6DDA6914
:10450C00B7F850301A447B6DDA617B6D5A69B7F895
:10451C0050301A447B6D5A617B6D9B69002B05D022
:10452C00B7F850207B6D1B699A4206D27B6D1B78C5
:10453C001946786805F092FC05E07B681B68796D7C
:10454C00184602F02DF9B7F84A3003F08003002B1F
:10455C0000F0238197F84D305A1C13469B001344EE
:10456C00DB007A6813447B657B681B681A4697F8F6
:10457C004D309B0013441B889BB223F4E14323F082
:10458C007003A7F842307B681B681A4697F84D30C9
:10459C009B001A44B7F842306FEA43436FEA534327
:1045AC009BB213807B6DDB78012B40F0A2807B6D7E
:1045BC0000229A617B6D1B7B002B00F09380B7F877
:1045CC004A3003F04003002B46D07B6D5B78002B08
:1045DC0026D17B681B687B627B681B68B3F8503004
:1045EC009BB21A467B6A13447B627B6D1B781A0163
:1045FC007B6A134403F204433B623B6A1B889BB205
:10460C00C3F309039AB23B6A1A803B6A1B889BB2BC
:10461C006FEA43436FEA53439AB23B6A1A8061E0F4
:10462C007B6D5B78012B5DD17B681B68FB627B68C3
:10463C001B68B3F850309BB21A46FB6A1344FB62FA
:10464C007B6D1B781A01FB6A134403F20443BB62B3
:10465C00BB6A00221A8045E07B681B68FB637B6D9C
:10466C005B78002B26D17B681B687B637B681B689F
:10467C00B3F850309BB21A467B6B13447B637B6D53
:10468C001B781A017B6B134403F20C433B633B6BAB
:10469C001B889BB2C3F309039AB23B6B1A803B6B2A
:1046AC001B889BB26FEA43436FEA53439AB23B6B4E
:1046BC001A8017E07B6D5B78012B13D17B681B682C
:1046CC00B3F850309BB21A46FB6B1344FB637B6D03
:1046DC001B781A01FB6B134403F20C43BB63BB6BDB
:1046EC0000221A807B6D1B781946786805F0D1FB87
:1046FC0053E0B7F84A3003F48073002B46D17B6843
:10470C001B68B3F850309BB21A467B6D1B78DB00EC
:10471C00134402335B007A681268134403F5806318
:10472C001B88C3F30903A7F840307B6D9A69B7F86F
:10473C0040309A4207D97B6D9A69B7F84030D21A4B
:10474C007B6D9A6102E07B6D00229A617B6D9B69A7
:10475C00002B06D17B6D1B781946786805F099FB08
:10476C001BE07B6D5A69B7F840301A447B6D5A6177
:10477C007B6DDA69B7F840301A447B6DDA617B687F
:10478C001B68796D184602F00BF806E0B7F84A3052
:10479C001A46796D786800F01BF97B681B68B3F8D2
:1047AC0044309BB21BB2002BFFF638AC00231846EA
:1047BC005837BD4680BD80B588B000AFF860B96091
:1047CC001346FB80FB8803F48043002B7ED0FB68F0
:1047DC001B68B3F850309BB21A46BB681B78DB00E1
:1047EC00134402335B00FA681268134403F58063C8
:1047FC001B88C3F309037B83BB689A697B8B9A4242
:10480C0006D3BB689A697B8BD21ABB689A6102E0AB
:10481C00BB6800229A61BB689B69002B23D1FB68A3
:10482C001B681A46BB681B789B0013441B889BB201
:10483C0023F4804323F070033B833B8B83F40053BE
:10484C003B83FB681B681A46BB681B789B001A44A9
:10485C003B8B43F07F4343F47F0343F4004343F02B
:10486C0080039BB21380FB8803F04003002B1FD006
:10487C00FB681B681A46BB681B789B0013441B889B
:10488C009BB223F4E04323F07003FB82FB681B68AC
:10489C001A46BB681B789B001A44FB8A43F07F4383
:1048AC0043F47F0343F4004343F0C0039BB21380F3
:1048BC007B8B002B00F08780FB681868BB685969FC
:1048CC00BB681A897B8B03F09FFC7CE0FB681B6840
:1048DC00B3F850309BB21A46BB681B78DB0013440C
:1048EC0006335B00FA681268134403F580631B8877
:1048FC00C3F309037B83BB689A697B8B9A4206D30B
:10490C00BB689A697B8BD21ABB689A6102E0BB6860
:10491C0000229A61BB689B69002B23D1FB681B6842
:10492C001A46BB681B789B0013441B889BB223F46C
:10493C00804323F07003FB83FB8B83F40053FB83D6
:10494C00FB681B681A46BB681B789B001A44FB8BE0
:10495C0043F07F4343F47F0343F4004343F080036D
:10496C009BB21380FB8803F04003002B1FD1FB6824
:10497C001B681A46BB681B789B0013441B889BB2B0
:10498C0023F4E04323F07003BB83FB681B681A46D7
:10499C00BB681B789B001A44BB8B43F07F4343F4EA
:1049AC007F0343F4004343F0C0039BB213807B8B23
:1049BC00002B08D0FB681868BB685969BB685A891A
:1049CC007B8B03F021FC7B8B18462037BD4680BDCA
:1049DC0080B5A4B000AFF860B9601346FB80FB88CB
:1049EC0003F04003002B00F0DD81FB681B68B3F87B
:1049FC0050309BB21A46BB681B78DB001344023361
:104A0C005B00FA681268134403F580631B88C3F3D8
:104A1C000903A7F88630BB689A69B7F886309A42C2
:104A2C0007D9BB689A69B7F88630D21ABB689A6105
:104A3C0002E0BB6800229A61BB689B69002B40F0C6
:104A4C00B980BB685B78002B26D1FB681B68FB62C6
:104A5C00FB681B68B3F850309BB21A46FB6A1344D0
:104A6C00FB62BB681B781A01FB6A134403F2044314
:104A7C00BB62BB6A1B889BB2C3F309039AB2BB6AC5
:104A8C001A80BB6A1B889BB26FEA43436FEA53439D
:104A9C009AB2BB6A1A801AE0BB685B78012B16D1FC
:104AAC00FB681B687B63FB681B68B3F850309BB2D8
:104ABC001A467B6B13447B63BB681B781A017B6BB8
:104ACC00134403F204433B633B6B00221A80FB68E4
:104ADC001B687B62BB685B78002B26D1FB681B686C
:104AEC00FB61FB681B68B3F850309BB21A46FB693C
:104AFC001344FB61BB681B781A01FB69134403F276
:104B0C000C43BB61BB691B889BB2C3F309039AB20C
:104B1C00BB691A80BB691B889BB26FEA43436FEA7F
:104B2C0053439AB2BB691A8017E0BB685B78012BC0
:104B3C0013D1FB681B68B3F850309BB21A467B6AE2
:104B4C0013447B62BB681B781A017B6A134403F223
:104B5C000C433B623B6A00221A80BB681B781946E7
:104B6C00F86805F096F9FB8803F48043002B00F0FD
:104B7C00FC82FB681B681A46BB681B789B001344BD
:104B8C001B889BB223F4E04323F07003FB82FB6889
:104B9C001B681A46BB681B789B001A44FB8A43F0BF
:104BAC007F4343F47F0343F4404343F080039BB2C1
:104BBC001380DAE2FB8803F48043002B21D0FB68DE
:104BCC001B681A46BB681B789B0013441B889BB25E
:104BDC0023F4E04323F07003A7F88A30FB681B68CA
:104BEC001A46BB681B789B001A44B7F88A3043F00E
:104BFC007F4343F47F0343F4404343F080039BB271
:104C0C001380BB6893F82430012B40F0AE82BB6854
:104C1C005A69B7F886301A44BB685A61BB68DA69BE
:104C2C00B7F886301A44BB68DA61BB681A6ABB688D
:104C3C001B699A420BD3BB681B69C7F88C30BB68E5
:104C4C001A6AD7F88C30D21ABB681A6217E0BB68A4
:104C5C001B6A002B08D1B7F88630C7F88C30BB68BC
:104C6C00002283F824200AE0BB68002283F8242069
:104C7C00BB681B6AC7F88C30BB6800221A62BB6821
:104C8C005B78002B65D1FB681B68FB63FB681B68BA
:104C9C00B3F850309BB21A46FB6B1344FB63BB68F2
:104CAC001B781A01FB6B134403F20443BB63BB6B0D
:104CBC001B889BB2C3F309039AB2BB6B1A80D7F85B
:104CCC008C303E2B1DD9D7F88C305B09BB64D7F8E0
:104CDC008C3003F01F03002B02D1BB6C013BBB6477
:104CEC00BB6B1B889AB2BB6C9BB29B029BB21343EF
:104CFC009BB26FEA43436FEA53439AB2BB6B1A8081
:104D0C0044E0D7F88C30002B0AD1BB6B1B889BB2CC
:104D1C006FEA43436FEA53439AB2BB6B1A8035E098
:104D2C00D7F88C305B08BB64D7F88C3003F00103E8
:104D3C00002B02D0BB6C0133BB64BB6B1B889AB2DB
:104D4C00BB6C9BB29B029BB213439AB2BB6B1A8097
:104D5C001CE0BB685B78012B18D1FB681B687B647B
:104D6C00FB681B68B3F850309BB21A467B6C13443B
:104D7C007B64BB681B781A017B6C134403F20443FD
:104D8C003B64D7F88C309AB23B6C1A80FB6818687D
:104D9C00BB685969BB681A89D7F88C309BB203F091
:104DAC00EEF9E2E1FB681B68B3F850309BB21A468F
:104DBC00BB681B78DB00134406335B00FA6812688F
:104DCC00134403F580631B88C3F30903A7F88630EB
:104DDC00BB689A69B7F886309A4207D3BB689A6960
:104DEC00B7F88630D21ABB689A6102E0BB68002221
:104DFC009A61BB689B69002B40F0C080BB685B78F4
:104E0C00002B26D1FB681B68FB67FB681B68B3F89B
:104E1C0050309BB21A46FB6F1344FB67BB681B7880
:104E2C001A01FB6F134403F20443BB67BB6F1B886F
:104E3C009BB2C3F309039AB2BB6F1A80BB6F1B887A
:104E4C009BB26FEA43436FEA53439AB2BB6F1A802B
:104E5C001AE0BB685B78012B16D1FB681B687B667C
:104E6C00FB681B68B3F850309BB21A467B6E134438
:104E7C007B66BB681B781A017B6E134403F20443F8
:104E8C003B663B6E00221A80FB681B687B67BB6825
:104E9C005B78002B2BD1FB681B68FB66FB681B68DF
:104EAC00B3F850309BB21A46FB6E1344FB66BB68DA
:104EBC001B781A01FB6E134403F20C43C7F88030C5
:104ECC00D7F880301B889BB2C3F309039AB2D7F88A
:104EDC0080301A80D7F880301B889BB26FEA43432E
:104EEC006FEA53439AB2D7F880301A8017E0BB6848
:104EFC005B78012B13D1FB681B68B3F850309BB265
:104F0C001A467B6F13447B67BB681B781A017B6F57
:104F1C00134403F20C433B673B6F00221A80BB68BF
:104F2C001B781946F86804F0B4FFFB8803F480433F
:104F3C00002B40F01A81FB681B681A46BB681B7873
:104F4C009B0013441B889BB223F4E04323F07003B3
:104F5C00A7F88830FB681B681A46BB681B789B0057
:104F6C001A44B7F8883043F07F4343F47F0343F48B
:104F7C00404343F080039BB21380F6E0FB8803F4BC
:104F8C008043002B21D1FB681B681A46BB681B7839
:104F9C009B0013441B889BB223F4E04323F0700363
:104FAC00A7F84E30FB681B681A46BB681B789B0041
:104FBC001A44B7F84E3043F07F4343F47F0343F475
:104FCC00404343F080039BB21380BB6893F82430BA
:104FDC00012B40F0CA80BB685A69B7F886301A4476
:104FEC00BB685A61BB68DA69B7F886301A44BB688B
:104FFC00DA61BB681A6ABB681B699A420BD3BB683F
:10500C001B69C7F88C30BB681A6AD7F88C30D21A77
:10501C00BB681A6217E0BB681B6A002B08D1B7F893
:10502C008630C7F88C30BB68002283F824200AE055
:10503C00BB681B6AC7F88C30BB6800221A62BB685D
:10504C00002283F82420FB681B687B65BB685B78B7
:10505C00002B65D1FB681B68FB65FB681B68B3F80C
:10506C0050309BB21A46FB6D1344FB65BB681B7832
:10507C001A01FB6D134403F20C43BB65BB6D1B881B
:10508C009BB2C3F309039AB2BB6D1A80D7F88C306C
:10509C003E2B1DD9D7F88C305B09BB66D7F88C300A
:1050AC0003F01F03002B02D1BB6E013BBB66BB6D33
:1050BC001B889AB2BB6E9BB29B029BB213439BB2F2
:1050CC006FEA43436FEA53439AB2BB6D1A8041E0D7
:1050DC00D7F88C30002B0AD1BB6D1B889BB26FEAC2
:1050EC0043436FEA53439AB2BB6D1A8032E0D7F850
:1050FC008C305B08BB66D7F88C3003F00103002BB7
:10510C0002D0BB6E0133BB66BB6D1B889AB2BB6E03
:10511C009BB29B029BB213439AB2BB6D1A8019E0EF
:10512C00BB685B78012B15D1FB681B68B3F850305A
:10513C009BB21A467B6D13447B65BB681B781A01C6
:10514C007B6D134403F20C433B65D7F88C309AB259
:10515C003B6D1A80FB681868BB685969BB685A8933
:10516C00D7F88C309BB203F00AF8FB681B681A4620
:10517C00BB681B789B0013441B889BB223F4E04351
:10518C0023F04003BB82BB8A83F01003BB82BB8A33
:10519C0083F02003BB82FB681B681A46BB681B7834
:1051AC009B001A44BB8A43F07F4343F47F0343F4D0
:1051BC00004343F080039BB21380002318469037C2
:1051CC00BD4680BD80B487B000AFF8607B600B46F5
:1051DC007B8113463B817B8903F080039BB2002BC0
:1051EC000BD07B8903F007035A1C13469B00134416
:1051FC00DB00FA6813447B6109E07A8913469B0053
:10520C001344DB0003F5B473FA6813447B613B89E8
:10521C00002B07D17B6900221A737B689AB27B69D9
:10522C00DA800BE07B6901221A737B689AB27B6986
:10523C001A817B681B0C9AB27B695A810023184631
:10524C001C37BD4680BC704780B586B000AF786017
:10525C007B68002B01D1012372E27B681B6803F091
:10526C000103002B00F08780924B5B6803F00C036A
:10527C00042B0CD08F4B5B6803F00C03082B12D162
:10528C008C4B5B6803F48033B3F5803F0BD1894BB7
:10529C001B6803F40033002B6CD07B685B68002B1D
:1052AC0068D101234CE27B685B68B3F5803F06D183
:1052BC00804B1B687F4A43F4803313602EE07B687D
:1052CC005B68002B0CD17B4B1B687A4A23F4803330
:1052DC001360784B1B68774A23F4802313601DE01E
:1052EC007B685B68B3F5A02F0CD1724B1B68714ABD
:1052FC0043F4802313606F4B1B686E4A43F4803376
:10530C0013600BE06B4B1B686A4A23F48033136009
:10531C00684B1B68674A23F4802313607B685B68C7
:10532C00002B13D0FEF7E8F8386108E0FEF7E4F83C
:10533C0002463B69D31A642B01D9032300E25D4B6F
:10534C001B6803F40033002BF0D014E0FEF7D4F804
:10535C00386108E0FEF7D0F802463B69D31A642B9B
:10536C0001D90323ECE1534B1B6803F40033002BEE
:10537C00F0D100E000BF7B681B6803F00203002B38
:10538C0063D04C4B5B6803F00C03002B0BD0494BE8
:10539C005B6803F00C03082B1CD1464B5B6803F4D1
:1053AC008033002B16D1434B1B6803F00203002BF8
:1053BC0005D07B681B69012B01D00123C0E13D4B5B
:1053CC001B6823F0F8027B685B69DB0039491343E7
:1053DC000B603AE07B681B69002B20D0364B012216
:1053EC001A60FEF789F8386108E0FEF785F8024686
:1053FC003B69D31A022B01D90323A1E12D4B1B6866
:10540C0003F00203002BF0D02A4B1B6823F0F802A8
:10541C007B685B69DB00274913430B6015E0264B67
:10542C0000221A60FEF768F8386108E0FEF764F8AD
:10543C0002463B69D31A022B01D9032380E11D4B91
:10544C001B6803F00203002BF0D17B681B6803F090
:10545C000803002B3AD07B689B69002B19D0174BA3
:10546C0001221A60FEF748F8386108E0FEF744F8AC
:10547C0002463B69D31A022B01D9032360E10D4B81
:10548C005B6A03F00203002BF0D0012000F09CFAC1
:10549C001CE00A4B00221A60FEF72EF838610FE070
:1054AC00FEF72AF802463B69D31A022B08D90323CC
:1054BC0046E100BF0010024000004242800442421C
:1054CC00924B5B6A03F00203002BE9D17B681B68EB
:1054DC0003F00403002B00F0A6800023FB758B4B1C
:1054EC00DB6903F08053002B0DD1884BDB69874AB5
:1054FC0043F08053D361854BDB6903F08053BB6071
:10550C00BB680123FB75824B1B6803F48073002B73
:10551C0018D17F4B1B687E4A43F480731360FDF7F0
:10552C00EBFF386108E0FDF7E7FF02463B69D31A51
:10553C00642B01D9032303E1754B1B6803F48073BF
:10554C00002BF0D07B68DB68012B06D16F4B1B6AFC
:10555C006E4A43F0010313622DE07B68DB68002B7D
:10556C000CD16A4B1B6A694A23F001031362674B27
:10557C001B6A664A23F0040313621CE07B68DB6839
:10558C00052B0CD1614B1B6A604A43F00403136278
:10559C005E4B1B6A5D4A43F0010313620BE05B4BED
:1055AC001B6A5A4A23F001031362584B1B6A574A71
:1055BC0023F0040313627B68DB68002B15D0FDF726
:1055CC009BFF38610AE0FDF797FF02463B69D31A4F
:1055DC0041F28832934201D90323B1E04B4B1B6A51
:1055EC0003F00203002BEED014E0FDF785FF3861C9
:1055FC000AE0FDF781FF02463B69D31A41F288327B
:10560C00934201D903239BE0404B1B6A03F0020336
:10561C00002BEED1FB7D012B05D13C4BDB693B4ACA
:10562C0023F08053D3617B68DB69002B00F087800B
:10563C00364B5B6803F00C03082B61D07B68DB698D
:10564C00022B46D1334B00221A60FDF755FF38610F
:10565C0008E0FDF751FF02463B69D31A022B01D932
:10566C0003236DE0294B1B6803F00073002BF0D172
:10567C007B681B6AB3F5803F08D1244B5B6823F42D
:10568C0000327B689B68214913434B601F4B5B685E
:10569C0023F474127B68196A7B685B6A0B431B49A1
:1056AC0013434B601B4B01221A60FDF725FF386139
:1056BC0008E0FDF721FF02463B69D31A022B01D902
:1056CC0003233DE0114B1B6803F00073002BF0D05B
:1056DC0035E0104B00221A60FDF70EFF386108E030
:1056EC00FDF70AFF02463B69D31A022B01D90323AB
:1056FC0026E0064B1B6803F00073002BF0D11EE074
:10570C007B68DB69012B07D1012319E000100240F3
:10571C0000700040600042420B4B5B68FB60FB6812
:10572C0003F480327B681B6A9A4206D1FB6803F44F
:10573C0070127B685B6A9A4201D0012300E000235F
:10574C0018461837BD4680BD0010024080B584B0A5
:10575C0000AF786039607B68002B01D10123D0E069
:10576C006A4B1B6803F007033A689A4210D9674BDF
:10577C001B6823F0070265493B6813430B60634BBE
:10578C001B6803F007033A689A4201D00123B8E082
:10579C007B681B6803F00203002B20D07B681B681E
:1057AC0003F00403002B05D0594B5B68584A43F4B3
:1057BC00E06353607B681B6803F00803002B05D083
:1057CC00534B5B68524A43F460535360504B5B68D5
:1057DC0023F0F0027B689B684D4913434B607B6858
:1057EC001B6803F00103002B40D07B685B68012B26
:1057FC0007D1474B1B6803F40033002B15D1012351
:10580C007FE07B685B68022B07D1414B1B6803F080
:10581C000073002B09D1012373E03D4B1B6803F08F
:10582C000203002B01D101236BE0394B5B6823F0A1
:10583C0003027B685B68364913434B60FDF75CFEE3
:10584C00F8600AE0FDF758FE0246FB68D31A41F2F5
:10585C008832934201D9032353E02D4B5B6803F04C
:10586C000C027B685B689B009A42EBD1274B1B6850
:10587C0003F007033A689A4210D2244B1B6823F0BA
:10588C00070222493B6813430B60204B1B6803F053
:10589C0007033A689A4201D0012332E07B681B6807
:1058AC0003F00403002B08D0194B5B6823F4E0626F
:1058BC007B68DB68164913434B607B681B6803F0FD
:1058CC000803002B09D0124B5B6823F460527B68F1
:1058DC001B69DB000E4913434B6000F021F80246B4
:1058EC000B4B5B681B0903F00F030A49CB5C22FAD4
:1058FC0003F3094A1360094B1B681846FDF7BAFD00
:10590C00002318461037BD4680BD00BF0020024062
:10591C000010024024A40008000000200400002015
:10592C0080B487B000AF0023FB600023BB60002372
:10593C007B6100237B6000233B611E4B5B68FB603B
:10594C00FB6803F00C03042B02D0082B03D027E0D8
:10595C00194B3B6127E0FB689B0C03F00F03174AC4
:10596C00D35C7B60FB6803F48033002B10D0114BAD
:10597C005B685B0C03F00103114AD35CBB607B6872
:10598C000D4A03FB02F2BB68B2FBF3F37B6104E04C
:10599C007B680C4A02FB03F37B617B693B6102E091
:1059AC00054B3B6100BF3B6918461C37BD4680BCAC
:1059BC00704700BF0010024000127A0034A40008A7
:1059CC0044A4000800093D0080B485B000AF7860A5
:1059DC000A4B1B680A4AA2FB03235B0A7A6802FB88
:1059EC0003F3FB6000BFFB685A1EFA60002BF9D171
:1059FC0000BF00BF1437BD4680BC704700000020BC
:105A0C00D34D621080B586B000AF786000233B6147
:105A1C000023FB607B681B6803F00103002B7DD027
:105A2C000023FB754F4BDB6903F08053002B0DD12A
:105A3C004C4BDB694B4A43F08053D361494BDB69D8
:105A4C0003F08053BB60BB680123FB75464B1B689E
:105A5C0003F48073002B18D1434B1B68424A43F468
:105A6C0080731360FDF748FD386108E0FDF744FDD5
:105A7C0002463B69D31A642B01D903236DE03A4BE0
:105A8C001B6803F48073002BF0D0364B1B6A03F4B5
:105A9C004073FB60FB68002B2ED07B685B6803F4C3
:105AAC004073FA689A4227D02E4B1B6A23F440733A
:105ABC00FB602E4B01221A602C4B00221A60294AE3
:105ACC00FB681362FB6803F00103002B14D0FDF795
