:020000040800F2
:10000000000001207D6100080D61000813610008F7
:10001000196100081F610008256100080000000048
:100020000000000000000000000000002B6100083C
:100030003761000800000000436100084F610008BC
:10004000C5610008C5610008C5610008C5610008F8
:10005000C5610008C5610008C5610008C5610008E8
:10006000C5610008C5610008C5610008C5610008D8
:10007000C5610008C5610008C5610008C5610008C8
:10008000C5610008C5610008C5610008C5610008B8
:10009000C5610008C5610008C5610008C5610008A8
:1000A000C5610008C5610008C5610008C561000898
:1000B000C5610008C5610008C5610008C561000888
:1000C000C5610008C5610008C5610008C561000878
:1000D000C5610008C5610008C5610008C561000868
:1000E000C5610008C5610008C56100080000000086
:1000F0000000000000000000000000000000000000
:100100000000000000000000C5610008C561000893
:10011000C5610008C5610008C5610008C561000827
:10012000C5610008C5610008C5610008C561000817
:10013000C5610008C5610008C5610008C561000807
:10014000C5610008C5610008C56100085D6100085F
:10015000000000000000000000000000000000009F
:10016000000000000000000000000000000000008F
:10017000000000000000000000000000000000007F
:10018000000000000000000000000000000000006F
:10019000000000000000000000000000000000005F
:1001A000000000000000000000000000000000004F
:1001B000000000000000000000000000000000003F
:1001C000000000000000000000000000000000002F
:1001D000000000000000000000000000000000001F
:0401E0005FF8E0F1F3
:1001E40010B5054C237833B9044B13B10448AFF36D
:1001F40000800123237010BD7C010020000000005A
:1002040020B8000808B5034B1BB103490348AFF3FA
:10021400008008BD000000008001002020B8000814
:1002240053B94AB9002908BF00281CBF4FF0FF3159
:100234004FF0FF3000F076B9ADF1080C6DE904CE53
:1002440000F006F8DDF804E0DDE9022304B07047AD
:100254002DE9F047089E0D4604468846002B4DD1F3
:100264008A42944668D9B2FA82F252B101FA02F390
:10027400C2F1200120FA01F10CFA02FC41EA030860
:1002840094404FEA1C41B8FBF1F71FFA8CFE01FBC6
:10029400178807FB0EF0230C43EA084398420AD957
:1002A4001CEB030307F1FF3580F01E81984240F2F6
:1002B4001B81023F63441B1AB3FBF1F001FB1033B3
:1002C40000FB0EFEA4B244EA0344A6450AD91CEB83
:1002D400040400F1FF3380F00981A64540F2068151
:1002E400644402380021A4EB0E0440EA07401EB126
:1002F4000023D440C6E90043BDE8F0878B4208D907
:10030400002E00F0EE800021C6E900050846BDE895
:10031400F087B3FA83F100294AD1AB4202D3824277
:1003240000F2FC80841A65EB030301209846002E3A
:10033400E2D0C6E90048DFE702B9FFDEB2FA82F292
:10034400002A40F09180A1EB0C0001214FEA1C47E8
:100354001FFA8CFEB0FBF7F307FB1300250C45EAEC
:1003640000450EFB03F0A84208D91CEB050503F178
:10037400FF3802D2A84200F2CE8043462D1AB5FBC4
:10038400F7F007FB10550EFB00FEA4B244EA054447
:10039400A64508D91CEB040400F1FF3502D2A6459A
:1003A40000F2B6802846A4EB0E0440EA03409EE720
:1003B400C1F120078B4022FA07FC4CEA030C25FA12
:1003C40007FA4FEA1C49BAFBF9F820FA07F309FBCC
:1003D40018AA8D401FFA8CFE1D4300FA01F308FB96
:1003E4000EF02C0C44EA0A44A04202FA01F20BD9A2
:1003F4001CEB040408F1FF3A80F08880A04240F22C
:100404008580A8F102086444241AB4FBF9F009FBBE
:10041400104400FB0EFEADB245EA0444A64508D9DB
:100424001CEB040400F1FF356CD2A6456AD90238EE
:10043400644440EA0840A0FB0295A4EB0E04AC42DD
:10044400C846AE4656D353D0002E69D0B3EB08024B
:1004540064EB0E0422FA01F304FA07F71F43CC40BD
:10046400C6E90074002147E70CFA02FCC2F120013E
:1004740025FA01F34FEA1C4720FA01F195400D4398
:10048400B3FBF7F107FB11331FFA8CFE280C40EA8B
:10049400034001FB0EF3834204FA02F408D91CEB77
:1004A400000001F1FF382FD283422DD90239604474
:1004B400C01AB0FBF7F307FB1300ADB245EA0045E1
:1004C40003FB0EF0A84208D91CEB050503F1FF3825
:1004D40016D2A84214D9023B6544281A43EA0141C2
:1004E40038E73146304607E72F46E4E61846F9E692
:1004F4004B45A9D2B9EB020865EB0C0E0138A3E712
:100504004346EAE7284694E74146D1E7D0467BE7ED
:100514006444023847E7023B65442FE7084606E790
:100524003146E9E6704700BF80B500AF0E4B5B690A
:100534000D4A43F0010353610C4B5B690B4A43F4CE
:10054400807353610A2005F09FFE074B1B69064A1E
:1005540043F001031361054B5B69044A43F4807360
:10056400536100BF80BD00BF000C0140001001407A
:1005740080B500AF114B5B69104A43F0010353612E
:100584000F4B5B690E4A43F4807353610A2005F0F4
:100594007BFE0A4B1B69094A43F001031361084BB4
:1005A4005B69074A43F480735361064B1B69054A30
:1005B40043F01003136100BF80BD00BF000C014075
:1005C400001001400018014080B500AF094B1B69C1
:1005D400084A43F008031361012001F03DFE054B76
:1005E4005B69044A43F008035361012001F034FEBF
:1005F40000BF80BD0018014080B582B000AF3B4B06
:100604001B693A4A43F001031361394B5B69384A69
:1006140043F480735361374B1B69364A43F04003FC
:100624001361344B1B69334A43F080031361314B2C
:100634005B69304A43F0080353612E4B1B692D4A12
:1006440043F0020313612B4B1B692A4A43F0040352
:1006540013610A2005F018FE244B5B69234A43F01A
:1006640001035361224B5B69214A43F48073536154
:100674000A2005F009FE00237B6004E0FFF7A4FFD5
:100684007B6801337B607B68092BF7DD194B5B6961
:10069400184A43F001035361164B5B69154A43F052
:1006A40002035361134B5B69124A43F00403536121
:1006B400104B5B690F4A43F020035361142005F08B
:1006C400E3FD0A4B5B69094A43F001035361084B9C
:1006D4001B69074A43F4807313614FF4FA7005F001
:1006E400D3FD00BF0837BD4680BD00BF000C0140EC
:1006F400001001400018014080B500AF2E4B1B696B
:100704002D4A43F010031361C82005F0BDFD2A4BA8
:100714005B69294A43F002035361274B5B69264A0C
:1007240043F004035361244B5B69234A43F02003E1
:100734005361214B5B69204A43F0400353611E4BD4
:100744005B691D4A43F0800353611C4B5B691B4A80
:1007540043F0010353611A4B5B69194A43F48073F4
:100764005361142005F090FD134B5B69124A43F06A
:10077400100353610A2005F087FD104B5B690F4A93
:1007840043F0010353610E4B1B690D4A43F480731C
:1007940013614FF4FA7005F077FD074B1B69064AA5
:1007A40043F040031361044B1B69034A43F0800385
:1007B400136100BF80BD00BF00180140000C014060
:1007C4000010014080B582B000AF0346FB71124AAD
:1007D400FB79D360114B1B69104A43F00403136186
:1007E4000E4B5B690D4A43F0020353610B4B5B698B
:1007F4000A4A43F020035361084B5B69074A43F0FC
:1008040010035361012001F027FDFFF7DDFE00BF57
:100814000837BD4680BD00BF0008014000180140F4
:1008240080B582B000AF0346FB710F4AFB79D360F9
:100834000E4B1B690D4A43F0040313610B4B5B69B8
:100844000A4A43F002035361084B5B69074A43F0C9
:1008540020035361012001F0FFFCFFF7B5FE00BF48
:100864000837BD4680BD00BF0008014000180140A4
:1008740080B582B000AF03460A46FB711346BB71D4
:10088400164B5B69154A43F004035361134B5B69D0
:10089400124A43F002035361BB79002B06D00F4B7D
:1008A4001B690E4A43F02003136105E00B4B5B699F
:1008B4000A4A43F020035361084B5B69074A43F03B
:1008C40010035361064AFB79D360012001F0C4FC94
:1008D400FFF77AFE00BF0837BD4680BD001801400F
:1008E4000008014080B582B000AF03460A46FB71A0
:1008F4001346BB71134B5B69124A43F00403536103
:10090400104B5B690F4A43F002035361BB79002B20
:1009140006D00C4B1B690B4A43F02003136105E01E
:10092400084B5B69074A43F020035361064AFB798D
:10093400D360012001F090FCFFF746FE00BF0837AA
:10094400BD4680BD001801400008014080B500AFDD
:10095400464B1B78012B02D1FFF7CEFE01E0FFF7D7
:100964004BFE01F091FE414B1B78012B03D1082073
:10097400FFF756FF02E00820FFF724FF3B4B1B78EC
:10098400012B04D100210020FFF7ACFF03E000217C
:100994000020FFF76DFF01F05DFE354B5B69344AC3
:1009A40043F080035361012005F06EFC314B9B68DA
:1009B400DAB2314B9A712E4B1B692D4A43F08003F6
:1009C400136101F061FE294B1B78012B04D1002136
:1009D4000120FFF787FF03E000210120FFF748FF14
:1009E40001F038FE224B5B69214A43F080035361D6
:1009F400012005F049FC1F4B9B68DAB21E4B5A716B
:100A04001B4B1B691A4A43F08003136101F03CFE3F
:100A1400164B1B78012B04D100210220FFF762FF43
:100A240003E000210220FFF723FF01F013FE104B27
:100A34005B690F4A43F080035361012005F024FCF5
:100A44000C4B9B68DAB20C4B1A71094B1B69084AB0
:100A540043F080031361054B1B78012B02D1FFF790
:100A640087FD01E0FFF760FD00BF80BDDA050020CF
:100A74000018014000080140AC03002080B500AF1D
:100A8400FFF7BAFD01F000FE0420FFF79BFE01F022
:100A9400E1FD012005F0F8FB474B5B69464A43F052
:100AA40020035361444B5B69434A43F01003536191
:100AB400414B5B69404A43F080035361012005F0D8
:100AC400E3FB3E4B9B68DAB23D4B1A713A4B1B6910
:100AD400394A43F080031361322001F0BDFB364BE9
:100AE4001B69354A43F020031361334B1B69324AB7
:100AF40043F010031361304B5B692F4A43F08003CA
:100B04005361012005F0C0FB2C4B9B68DAB22C4BDF
:100B14005A71294B1B69284A43F080031361322020
:100B240001F09AFB244B5B69234A43F02003536191
:100B3400214B1B69204A43F0100313611E4B5B6970
:100B44001D4A43F080035361012005F09DFB1B4BBC
:100B54009B68DAB21A4B9A71174B1B69164A43F019
:100B640080031361322001F077FB134B1B69124A97
:100B740043F020031361104B5B690F4A43F01003E9
:100B840053610D4B5B690C4A43F0800353610120B0
:100B940005F07AFB094B9B68DAB2094BDA71064B14
:100BA4001B69054A43F080031361322001F054FBB2
:100BB400FFF7BAFC00BF80BD0018014000080140E7
:100BC400AC03002080B500AFFFF796FD01F05CFD9B
:100BD4000420FFF725FE01F03DFD012005F054FB44
:100BE400474B5B69464A43F020035361444B5B69BE
:100BF400434A43F004035361414B5B69404A43F069
:100C040080035361012005F03FFB3E4B9B68DAB241
:100C14003D4B1A713A4B1B69394A43F08003136107
:100C2400322001F019FB364B1B69354A43F020038F
:100C34001361334B1B69324A43F004031361304B95
:100C44005B692F4A43F080035361012005F01CFBCC
:100C54002C4B9B68DAB22C4B5A71294B1B69284ADE
:100C640043F080031361322001F0F6FA244B5B69F0
:100C7400234A43F020035361214B1B69204A43F06C
:100C8400040313611E4B5B691D4A43F080035361E7
:100C9400012005F0F9FA1B4B9B68DAB21A4B9A71E2
:100CA400174B1B69164A43F080031361322001F08D
:100CB400D3FA134B1B69124A43F020031361104B00
:100CC4005B690F4A43F0040353610D4B5B690C4AA3
:100CD40043F080035361012005F0D6FA094B9B6869
:100CE400DAB2094BDA71064B1B69054A43F08003FB
:100CF4001361322001F0B0FAFFF73AFC00BF80BD67
:100D04000018014000080140AC03002080B500AF8A
:100D1400FFF772FC01F0B8FC6D4B5B696C4A43F061
:100D2400010353614020FFF74DFD0A2001F094FABE
:100D3400674B5B69664A43F004035361644B1B6968
:100D4400634A43F002031361624B1A79624BDA601F
:100D54000A2001F081FAFFF737FC5D4B5B695C4ABE
:100D640043F040035361012005F08EFA584B1B6990
:100D7400574A43F040031361642005F085FA544B4D
:100D84005B69534A43F020035361514B5B69504AFA
:100D940043F0100353614020FFF714FD4C4B5B6993
:100DA4004B4A43F004035361494B1B69484A43F0DF
:100DB40002031361474B5A79474BDA600A2001F06A
:100DC4004BFAFFF701FC424B1B69414A43F02003F5
:100DD40013613F4B5B693E4A43F0100353613C4B44
:100DE4005B693B4A43F040035361012005F04CFA30
:100DF400374B1B69364A43F040031361322005F038
:100E040043FA4020FFF7DEFC314B5B69304A43F084
:100E1400040353612E4B1B692D4A43F002031361F3
:100E24002C4B9A792C4BDA600A2001F015FAFFF763
:100E3400CBFB274B5B69264A43F020035361244BC9
:100E44001B69234A43F010031361214B5B69204A59
:100E540043F040035361012005F016FA1C4B1B6953
:100E64001B4A43F040031361322005F00DFA2020A1
:100E7400FFF7A8FC164B5B69154A43F00403536162
:100E8400134B1B69124A43F002031361114BDA79C5
:100E9400114BDA600A2001F0DFF9FFF795FBC82057
:100EA40001F0DAF90A4B5B69094A43F040035361E4
:100EB400012005F0E9F9064B1B69054A43F040039C
:100EC4001361322005F0E0F9FFF72EFB00BF80BD6F
:100ED40000180140980100200008014080B500AFCF
:100EE400FFF70AFC01F0D0FB4020FFF799FC0A2031
:100EF40001F0B2F9644B5B69634A43F00403536144
:100F0400614B1B69604A43F0020313615F4B1A791A
:100F14005F4BDA600A2001F09FF9FFF755FB5A4B4B
:100F24005B69594A43F020035361574B5B69564A46
:100F340043F004035361544B5B69534A43F0400349
:100F44005361962001F088F94F4B1B694E4A43F0D8
:100F540040031361322005F097F94020FFF760FC4D
:100F6400494B5B69484A43F004035361464B1B6990
:100F7400454A43F002031361444B5A79444BDA6007
:100F84000A2001F069F9FFF71FFB3F4B1B693E4A3A
:100F940043F0200313613C4B5B693B4A43F040033D
:100FA4005361012005F070F9374B1B69364A43F051
:100FB40040031361322005F067F94020FFF730FC4D
:100FC400314B5B69304A43F0040353612E4B1B6978
:100FD4002D4A43F0020313612C4B9A792C4BDA60AF
:100FE4000A2001F039F9FFF7EFFA274B5B69264A2B
:100FF40043F020035361244B1B69234A43F0040349
:101004001361214B5B69204A43F040035361012083
:1010140005F03AF91C4B1B691B4A43F0400313616A
:10102400322005F031F92020FFF7FAFB164B5B69FB
:10103400154A43F004035361134B1B69124A43F0EE
:1010440002031361114BDA79114BDA600A2001F0C3
:1010540003F9FFF7B9FA0A2001F0FEF80A4B5B69BD
:10106400094A43F040035361012005F00DF9064B92
:101074001B69054A43F040031361322005F004F96B
:10108400FFF776FA00BF80BD0018014098010020E8
:101094000008014080B500AFFFF7AEFA01F0F4FAA2
:1010A4008020FFF78FFB0B4B5B690A4A43F0400338
:1010B4005361C82001F0D0F8064B1B69054A43F080
:1010C40040031361322005F0DFF8FFF72DFA00BF6B
:1010D40080BD00BF0018014080B500AFFFF70CFBD6
:1010E40001F0D2FA8020FFF79BFB094B5B69084AA9
:1010F40043F040035361642005F0C6F8044B1B69B8
:10110400034A43F040031361FFF732FA00BF80BD86
:101114000018014080B582B000AFFFF76DFA01F00E
:10112400B3FA0320FFF74EFB00237B6056E0002355
:101134003B6035E001F0A8FA3A687B6813441B125F
:10114400DBB201211846FFF793FB3B68DAB27B68F8
:10115400DBB21344DBB200211846FFF789FB01F030
:1011640079FA254B5B69244A43F020035361224BEF
:101174005B69214A43F080035361012001F06CF85C
:101184001E4B9A683B680433D1B21D4AD1541A4BA2
:101194001B69194A43F0800313613B6801333B60C8
:1011A4003B681F2BC6DD164BAC221A70144B002271
:1011B4005A70134B20229A70114BA422DA70242106
:1011C4000F4802F02DFC00BF0E4B1B78002BFBD008
:1011D4000C4B00221A707B6820337B607A680A4BC0
:1011E4001B689A42A3D301F04FFAFFF79DF900BFA1
:1011F4000837BD4680BD00BF00180140000801400B
:10120400AC030020A9080020C805002080B582B0E6
:1012140000AFFFF771FA01F037FA0320FFF700FB84
:1012240000237B6056E000233B6035E001F02CFA9C
:101234003A687B6813441B12DBB201211846FFF79E
:1012440051FB3B68DAB27B68DBB21344DBB20021AA
:101254001846FFF747FB01F0FDF9254B5B69244A6B
:1012640043F020035361224B5B69214A43F080031E
:101274005361012000F0F0FF1E4B9A683B68043371
:10128400D1B21D4AD1541A4B1B69194A43F0800349
:1012940013613B6801333B603B681F2BC6DD164B73
:1012A400AC221A70144B00225A70134B20229A70ED
:1012B400114BA422DA7024210F4802F0B1FB00BFC5
:1012C4000E4B1B78002BFBD00C4B00221A707B6852
:1012D40020337B607A680A4B1B689A42A3D301F0DF
:1012E400D3F9FFF745F900BF0837BD4680BD00BFFD
:1012F4000018014000080140AC030020A9080020A8
:10130400C805002080B582B000AF00237B6062E096
:10131400404B1A687B6813441B0ADBB20121184650
:10132400FFF7A6FA00233B6039E03A4B1B68DAB2B8
:101334007B68DBB21344DAB23B68DBB21344DBB242
:1013440000211846FFF794FA334B1B69324A43F0E5
:1013540002031361304B5B692F4A43F0040353616A
:101364007A683B68134404332C4AD25C2C4BDA6011
:10137400FFF72AF9284B1B69274A43F0010313613D
:10138400012000F069FF244B5B69234A43F0010309
:1013940053610A2000F060FF3B6801333B603A6808
:1013A400204B1B689A42C0D31B4B5B691A4A43F01B
:1013B40040035361C82000F04FFF174B1B69164AC6
:1013C40043F040031361052004F05EFF7A68154B77
:1013D4001B6813447B607B681F2B99DD0D4B1B68D6
:1013E40020330C4A1360104BAC221A700E4B0022AF
:1013F4005A700D4B01229A700B4BA622DA700A4BDD
:1014040000221A710521084802F00AFB00BF0837C0
:10141400BD4680BDC405002000180140980100208D
:1014240000080140CC050020AC03002080B582B048
:1014340000AF00237B6062E0404B1A687B68134472
:101444001B0ADBB201211846FFF74CFA00233B606C
:1014540039E03A4B1B68DAB27B68DBB21344DAB288
:101464003B68DBB21344DBB200211846FFF73AFABB
:10147400334B1B69324A43F002031361304B5B69FF
:101484002F4A43F0040353617A683B6813440433DE
:101494002C4AD25C2C4BDA60FFF796F8284B1B6978
:1014A400274A43F020031361012000F0D5FE244BAA
:1014B4005B69234A43F0200353610A2000F0CCFE09
:1014C4003B6801333B603A68204B1B689A42C0D3A7
:1014D4001B4B5B691A4A43F040035361C82000F078
:1014E400BBFE174B1B69164A43F0400313610420EB
:1014F40004F0CAFE7A68154B1B6813447B607B6852
:101504001F2B99DD0D4B1B6820330C4A1360104BC5
:10151400AC221A700E4B00225A700D4B01229A70A5
:101524000B4BA622DA700A4B00221A7105210848D7
:1015340002F076FA00BF0837BD4680BDC40500201E
:10154400001801409801002000080140CC0500204B
:10155400AC03002080B582B000AFFFF74DF801F076
:1015640093F80220FFF72EF900237B6084E0002328
:101574003B6060E001F088F87B68DA0F13445B108D
:1015840019463B68DA0F13445B100B441A46404B70
:101594001A60404B1B78022B0DD13F4B1B693E4A0E
:1015A40043F0100313613A4B1B681B0CDBB20021A0
:1015B4001846FFF75DF9364B1B681B0ADBB20121A5
:1015C4001846FFF755F9324B1B68DBB20021184669
:1015D400FFF74EF901F03EF82F4B5B692E4A43F0BA
:1015E400200353612C4B5B692B4A43F08003536106
:1015F400012000F031FE294B9A683B680433D1B2D4
:10160400274AD154244B1B69234A43F02003136116
:10161400012000F021FE214B9A683B680533D1B2CA
:101624001F4AD1541C4B1B691B4A43F080031361AE
:101634003B6802333B603B68B3F5007F9ADB184B91
:10164400AC221A70164B02225A70154B00229A7063
:10165400134BA822DA704FF40171114802F0E0F93B
:1016640000BF104B1B78002BFBD00E4B00221A70CE
:101674007B6803F500737B607A680B4B1B689A42A6
:10168400FFF475AFFEF750FF00BF0837BD4680BDBD
:10169400C0050020DA0500200018014000080140C0
:1016A400AC030020A9080020C805002080B582B042
:1016B40000AFFFF721F800F0E7FF0220FFF7B0F8D2
:1016C40000237B6072E000233B604EE000F0DCFF0F
:1016D4007B68DA0F13445B1019463B68DA0F134436
:1016E4005B100B441A46374B1A60364B1B681B0AB7
:1016F400DBB201211846FFF7F5F8324B1B68DBB269
:1017040000211846FFF7EEF800F0A4FF2E4B5B69AA
:101714002D4A43F0200353612B4B5B692A4A43F063
:1017240080035361012000F097FD284B9A683B68C1
:101734000433D1B2264AD154234B1B69224A43F0C5
:1017440020031361012000F087FD204B9A683B6859
:101754000533D1B21E4AD1541B4B1B691A4A43F0BC
:10176400800313613B6802333B603B68B3F5007F41
:10177400ACDB174BAC221A70154B02225A70144B77
:1017840000229A70124BA822DA704FF401711048AB
:1017940002F046F900BF0F4B1B78002BFBD00D4B1A
:1017A40000221A707B6803F500737B607A680A4B29
:1017B4001B689A4287D3FEF7DBFE00BF0837BD469D
:1017C40080BD00BFC0050020001801400008014092
:1017D400AC030020A9080020C805002080B500AF94
:1017E400124B1B78012B02D100F0D0F808E00F4B0C
:1017F4001B78032B02D100F06BF901E000F01AF81A
:101804000B4BAC221A700A4B00225A70084B01226F
:101814009A70074BAA22DA70054B00221A7105212F
:10182400034802F0FDF800BF80BD00BFDA050020C8
:10183400AC03002080B584B000AF4F4B1B791A0471
:101844004D4B5B791B0213434B4A92791343DA0FD6
:1018540013445B107B600023FB601020FEF7B2FF93
:101864000023BB6043E0FB68DAB27B68DBB213445D
:10187400DBB200211846FEF7FBFF404B1B693F4AD1
:1018840043F0020313613D4B5B693C4A43F004039C
:101894005361BB680733384AD25C394BDA60FEF7D0
:1018A40093FE364B1B69354A43F020031361BB6832
:1018B4000833314AD25C324BDA60FEF785FE2F4B97
:1018C4001B692E4A43F001031361012000F0C4FC9C
:1018D4002A4B5B69294A43F001035361012000F05C
:1018E400BBFCFB680133FB60BB680233BB60BA68B6
:1018F400244B1B689A42B6D37B681B0ADBB20121D6
:101904001846FEF7B5FF204B1B78022B0CD11B4B5E
:101914001B691A4A43F0100313617B681B0CDBB28A
:1019240000211846FEF7A4FF144B5B69134A43F0E9
:1019340040035361012000F08FFC104B1B690F4AD8
:1019440043F040031361082004F09EFC0B4B1B6919
:101954000A4A43F004031361084B5B69074A43F0E6
:1019640002035361064B0022DA60FEF72DFE00BF2E
:101974001037BD4680BD00BF98010020001801400B
:1019840000080140CC050020DA05002080B584B0B1
:1019940000AF4B4B1B791A04494B5B791B02134371
:1019A400474A92791343DA0F13445B107B60002398
:1019B400FB601020FEF734FF0023BB604CE0FB68A3
:1019C400DAB27B68DBB21344DBB200211846FEF7BF
:1019D40089FF3C4B1B693B4A43F002031361394BBB
:1019E4005B69384A43F004035361BB680733344AE4
:1019F400D25C354BDA60FEF7E7FD324B1B69314AA6
:101A040043F020031361BB6808332D4AD25C2E4B8C
:101A1400DA60FEF7D9FD2B4B5B692A4A43F02003B9
:101A240053610A2000F018FC264B1B69254A43F039
:101A340020031361012000F00FFC224B5B69214A53
:101A440043F020035361012000F006FCFB680133DE
:101A5400FB60BB680233BB60BA681C4B1B689A42CC
:101A6400ADD37B681B0ADBB201211846FEF73AFFAF
:101A7400144B5B69134A43F040035361012000F0A7
:101A8400EBFB104B1B690F4A43F040031361082022
:101A940004F0FAFB0B4B1B690A4A43F0040313617D
:101AA400084B5B69074A43F002035361064B00226B
:101AB400DA60FEF789FD00BF1037BD4680BD00BF68
:101AC400980100200018014000080140CC050020C6
:101AD40080B584B000AF2F4B1B791A042D4B5B7972
:101AE4001B0213432B4A92791343DA0F13445B10FE
:101AF4007B600023FB6010214C2000F04FF8002392
:101B0400BB6027E0FB68DAB27B68DBB21344DBB26C
:101B140019460C2000F042F8BB6807331D4AD35C19
:101B240019462C2000F03AF8BB680833194AD35CF4
:101B340019463C2000F032F800217D2000F02EF8F8
:101B440000217C2000F02AF8FB680133FB60BB68AD
:101B54000233BB60BA68104B1B689A42D2D37B68CD
:101B64001B0ADBB219461C2000F018F8002164207F
:101B740000F014F800216C2000F010F8082004F0A4
:101B840083FB00214C2000F009F800BF1037BD464C
:101B940080BD00BF98010020CC05002080B586B030
:101BA40000AF03460A46FB711346BB710023FB8258
:101BB400FB799BB29B00FB81BB799BB29B00BB81F1
:101BC40000233B6154E0012000F046FBFA893B69A5
:101BD400C3F10A0342FA03F303F00103002B06D016
:101BE400294B1B69284A43F00203136105E0264B85
:101BF4005B69254A43F002035361BA893B69C3F127
:101C04000A0342FA03F303F00103002B06D01E4B30
:101C14001B691D4A43F00103136105E01A4B5B691C
:101C2400194A43F001035361174B1B69164A43F0E9
:101C340004031361012000F00FFB134B5B69124A8C
:101C440043F004035361114B9B6803F00103002B21
:101C54000BD03B69C3F10A03012202FA03F31AB25F
:101C6400B7F9163013431BB2FB823B6901333B6166
:101C74003B690A2BA7DDFB8ADB089BB2DBB2184663
:101C84001837BD4680BD00BF001801400008014060
:101C940080B500AF264B1B69254A43F0100313613E
:101CA400234B5B69224A43F00403536100F0ECFCCC
:101CB4001F4B5B691E4A43F0010353611C4B5B6974
:101CC4001B4A43F0020353611A4B5B69194A43F000
:101CD40001035361184B5B69174A43F001035361D5
:101CE400164B5B69154A43F4807353610A2004F070
:101CF400CBFA0F4B5B690E4A43F0100353610E4B52
:101D04005B690D4A43F0010353610C4B1B690B4A99
:101D140043F4807313614FF4FA7004F0B5FA00F0E1
:101D240099FC4FF4FA7000F097FA00BF80BD00BF31
:101D34000018014000080140000C0140001001405F
:101D440080B582B000AF0023FB80322000F084FA1B
:101D54000FE00A2000F080FAFB880133FB80FB8847
:101D640040F6FF72934204D101F02EFEFEF700FC10
:101D740005E0044B9B6803F00103002BE9D008370E
:101D8400BD4680BD0008014080B500AFFFF780FF6D
:101D940008214C20FFF702FF00210C20FFF7FEFE74
:101DA40000216820FFF7FAFE00216C20FFF7F6FE01
:101DB40003461A46164B9A7108214C20FFF7EEFE93
:101DC40001210C20FFF7EAFE00216820FFF7E6FE60
:101DD40000216C20FFF7E2FE03461A460C4B5A71B1
:101DE40008214C20FFF7DAFE02210C20FFF7D6FE73
:101DF40000216820FFF7D2FE00216C20FFF7CEFE01
:101E040003461A46024B1A71FEF7B2FB00BF80BDAF
:101E1400AC03002080B500AFFFF73AFF04214C204B
:101E2400FFF7BCFE00216820FFF7B8FE00216C20FC
:101E3400FFF7B4FE03461A461A4B1A7104214C20CC
:101E4400FFF7ACFE00217A20FFF7A8FE00217E20D8
:101E5400FFF7A4FE03461A46124B5A7104214C2084
:101E6400FFF79CFE00216A20FFF798FE00216E20F8
:101E7400FFF794FE03461A460A4B9A7104214C203C
:101E8400FFF78CFE00217820FFF788FE00217C20DC
:101E9400FFF784FE03461A46024BDA71FEF768FB2D
:101EA40000BF80BDAC03002080B500AFFFF7F0FE9B
:101EB40040214C20FFF772FE274B1B7919462C203A
:101EC400FFF76CFE00216420FFF768FE00216C2000
:101ED400FFF764FEFFF734FF40214C20FFF75EFE5E
:101EE4001D4B5B7919462C20FFF758FE0021742006
:101EF400FFF754FE00217C20FFF750FEFFF720FF80
:101F040040214C20FFF74AFE134B9B7919462C20A5
:101F1400FFF744FE00216620FFF740FE00216E20FB
:101F2400FFF73CFEFFF70CFF20214C20FFF736FEA5
:101F3400094BDB7919462C20FFF730FE0021642081
:101F4400FFF72CFE00216C20FFF728FEFFF7F8FEB8
:101F5400FEF70EFB00BF80BD9801002080B500AFE6
:101F6400FFF796FE80214C20FFF718FE0021642025
:101F7400FFF714FE00216C20FFF710FEFFF7E0FED0
:101F8400FEF7F6FA00BF80BD90B583B000AFFFF74F
:101F94007FFE03214C20FFF701FE00237B6044E019
:101FA40000233B6023E03B68DAB27B68DBB2134476
:101FB400DBB219460C20FFF7F1FD3A687B68134445
:101FC4001B12DBB219461C20FFF7E8FD0021682034
:101FD400FFF7E4FD3B681C1D00216C20FFF7DEFDCC
:101FE40003461A46164B1A553B6801333B603B685F
:101FF4001F2BD8DD124BAC221A70114B00225A70E1
:102004000F4B20229A700E4BA422DA7024210C4824
:1020140001F006FD00BF0B4B1B78002BFBD0094BD6
:1020240000221A707B6820337B607A68064B1B6839
:102034009A42B5D3FEF79CFA00BF0C37BD4690BD5B
:10204400AC030020A9080020C805002080B582B098
:1020540000AF00237B604EE0364B1A687B68134464
:102064001B0ADBB201211846FEF73CFC00233B604F
:102074002DE0304B1B68DAB27B68DBB21344DAB272
:102084003B68DBB21344DBB219460C20FFF786FD34
:10209400284B1A687B6813441B0ADBB219461C20C0
:1020A400FFF77CFD7A683B6813440433224AD35C0F
:1020B40019462C20FFF772FD00216D20FFF76EFDFD
:1020C40000216C20FFF76AFD3B6801333B603A68EE
:1020D4001A4B1B689A42CCD300216420FFF75EFDA3
:1020E40000216C20FFF75AFDFFF72AFE7A68134B94
:1020F4001B6813447B607B681F2BADDD0D4B1B6895
:1021040020330C4A13600E4BAC221A700C4B002285
:102114005A700B4B01229A70094BA622DA70084BB5
:1021240000221A710521064801F07AFC00BF083725
:10213400BD4680BDC405002098010020CC050020C8
:10214400AC03002090B583B000AFFFF7A1FD0221DE
:102154004C20FFF723FD00237B6056E000233B6007
:102164003AE07B68DA0F13445B1019463B68DA0FD8
:1021740013445B100B441A46294B1A60284B1B6806
:10218400DBB219460C20FFF709FD254B1B681B0A1F
:10219400DBB219461C20FFF701FD00216820FFF780
:1021A400FDFC3B681C1D00216C20FFF7F7FC034677
:1021B4001A461C4B1A5500217820FFF7EFFC3B68A8
:1021C4005C1D00217C20FFF7E9FC03461A46154BF1
:1021D4001A553B6802333B603B68B3F5007FC0DBB4
:1021E400104BAC221A700F4B02225A700D4B002276
:1021F4009A700C4BA822DA704FF40171094801F06F
:102204000FFC7B6803F500737B607A68064B1B68E0
:102214009A42A3D3FEF7ACF900BF0C37BD4690BD7C
:10222400C0050020AC030020C805002080B400AF26
:10223400074BDB69064A43F00403D361054B47228D
:102244009A62044B08221A6000BFBD4680BC7047E6
:10225400001002400008004080B483B000AF7860F2
:102264000D4A7B68D3620C4B00225A620A4B01224E
:102274001A6000BF084B1B6903F00103002BF9D05F
:10228400054B1B69044A23F00103136100BF0C379B
:10229400BD4680BC704700BF0008004080B483B0D6
:1022A40000AF994B9B69984A43F004039361964BA2
:1022B4009B6903F004037B607B68934B9B69924AA0
:1022C40043F008039361904B9B698F4A43F01003DA
:1022D40093618D4B9B698C4A43F0200393618A4B35
:1022E4009B69894A43F040039361884B1B68874A82
:1022F40043F400331360854B1B68844A23F4803312
:102304001360824B1B68814A23F4402313607F4B84
:102314001B687E4A43F4401313607C4B1B687B4A62
:1023240023F4400313607A4B1B68794A43F0030398
:102334001360774B1B68764A23F00C031360744BCD
:102344001B68734A43F440731360714B1B68704AF3
:1023540023F4406313606F4B1B686E4A43F003031E
:1023640013606C4B1B686B4A23F00C031360694BBE
:102374001B68684A43F030031360664B1B68654A68
:1023840023F0C0031360634B1B68624A43F4407339
:102394001360604B1B685F4A23F4406313605D4B1A
:1023A4001B685C4A43F4405313605A4B1B68594AF8
:1023B40023F440431360574B1B68564A43F440339D
:1023C4001360544B1B68534A23F440231360514B4E
:1023D4001B68504A43F4401313604E4B1B684D4A2C
:1023E40023F4400313604B4B1B684A4A43F0407389
:1023F4001360484B1B68474A23F040631360454B06
:102404001B68444A43F040531360424B1B68414AE3
:1024140023F0404313603F4B5B683E4A43F00303A1
:1024240053603C4B5B683B4A23F00C035360394BCD
:102434005B68384A43F030035360364B5B68354A77
:1024440023F0C0035360334B5B68324A43F4407358
:102454005360304B5B682F4A23F4406353602D4B29
:102464005B682C4A43F4405353602A4B5B68294A07
:1024740023F440435360274B5B68264A43F44033BC
:102484005360244B5B68234A23F440235360214B5D
:102494005B68204A43F4401353601E4B5B681D4A3B
:1024A40023F4400353601B4B5B681A4A43F04073A8
:1024B4005360184B5B68174A23F040635360154B15
:1024C4005B68144A43F040535360124B5B68114AF3
:1024D40023F040435360104B5B680F4A43F00303FF
:1024E40053600D4B5B680C4A23F00C0353600A4B9A
:1024F4005B68094A43F030035360074B5B68064A44
:1025040023F0C0030AE000BF0010024000100140A5
:10251400000C0140001801400014014053604A4B74
:102524005B68494A43F440735360474B5B68464ACF
:1025340023F440635360444B5B68434A43F4405381
:102544005360414B5B68404A23F4404353603E4B25
:102554005B683D4A43F4403353603B4B5B683A4A03
:1025640023F440235360384B5B68374A43F44013E9
:102574005360354B5B68344A23F440035360324B59
:102584005B68314A43F0407353602F4B5B682E4ABB
:1025940023F0406353602C4B5B682B4A43F0405359
:1025A4005360294B5B68284A23F040435360274B10
:1025B4001B68264A43F440531360244B1B68234A88
:1025C40023F440431360204B1B681F4A43F44033F9
:1025D40013601D4B1B681C4A23F4402313601C4BDF
:1025E4005B681B4A43F003035360194B5B68184A4A
:1025F40023F00C035360164B1B68154A43F04053F9
:102604001360134B1B68124A23F0404313600F4BB3
:102614005B680E4A43F4403353600C4B5B680B4ACF
:1026240023F440235360094B1B68084A43F44013C6
:102634001360064B1B68054A23F44003136000BF74
:102644000C37BD4680BC704700140140000C0140AB
:102654000010014080B400AF084B4FF088321A607C
:10266400074B4FF088321A60064B5B69054A43F00A
:102674001003536100BFBD4680BC70470008014091
:10268400001401400010014080B400AF084B4FF02B
:1026940033321A60074B4FF033321A60064B1B6912
:1026A400054A43F01003136100BFBD4680BC704768
:1026B40000080140001401400010014080B483B0C0
:1026C40000AF0346FB71554B9B69544A43F0080322
:1026D4009361534B5B68524A43F44C535360504BE1
:1026E4005B684F4A43F44C4353604C4BDB694B4AA1
:1026F40043F48003D3614B4B1B684A4A43F40043C1
:102704001360484B1B68474A23F400431360454B4E
:10271400DB68444A23F00103D360424B1B68414AFF
:1027240023F0400313603F4B1B683E4A23F08003B1
:1027340013603C4B1B683B4A23F001031360394B85
:102744005B6823F03F03374A43F024035360FB796B
:10275400002B12D1334B1B6A23F03F03314A43F061
:10276400250313622F4BDB6923F44F4323F0FF034C
:102774002C4A43F0B403D36129E0FB79012B14D133
:10278400284B1B6A23F03F03264A43F00B031362D2
:10279400244BDB6923F44F4323F0FF03214A43F422
:1027A400004343F01E03D36111E01E4B1B6A23F068
:1027B4003F031C4A43F0250313621A4BDB6923F4DD
:1027C4004F4323F0FF03174A43F0B403D361154B7F
:1027D4009B6823F4434323F0FF03124A43F48043EA
:1027E4009360104B1B680F4A23F01A0313600D4BC0
:1027F4001B680C4A43F0010313600A4B1B68094A27
:1028040043F480631360074BDB68064A23F0FE033E
:10281400D36000BF0C37BD4680BC70470010024037
:10282400000C01400058004080B485B000AF3B600C
:102834000346FB710B46BB801346BB714FF6FF7317
:10284400FB81634B1B68624A23F400631360604B93
:102854001B685F4A43F4806313605D4B1B685C4AEA
:1028640043F4807313604FF6FF73FB8102E0FB892E
:10287400013BFB81564B5B6903F00103002B02D142
:10288400FB89002BF3D1FB89002B01D101239AE0B2
:102894004F4B5B694E4B1B6923F0FF02FB794C499C
:1028A40013430B614FF6FF73FB8102E0FB89013B8D
:1028B400FB81474B5B6903F00203002B02D1FB89C8
:1028C400002BF3D1FB89002B01D101237BE0404B8A
:1028D4005B693F4B9B69BB79022B20D13C4B1B6945
:1028E40023F0FF03BA88120A92B2D2B21146384AD0
:1028F4000B4313614FF6FF73FB8102E0FB89013B3D
:10290400FB81334B5B6903F08003002B02D1FB890D
:10291400002BF3D1FB89002B01D1012353E02C4B75
:102924001B6923F0FF03BA88D2B21146284A0B432D
:1029340013614FF6FF73FB8102E0FB89013BFB81CE
:10294400234B5B6903F08003002B02D1FB89002B2E
:10295400F3D1FB89002B01D1012334E00023BB60B8
:1029640026E01B4B1B6923F0FF03B98BBA680A44AA
:1029740011463A680A4412781146154A0B4313610A
:102984004FF6FF73FB8102E0FB89013BFB81104B97
:102994005B6903F08003002B02D1FB89002BF3D188
:1029A400FB89002B01D101230DE0BB680133BB601F
:1029B4003B8BBA689A42D4DB054B1B68044A43F448
:1029C40000731360002318461437BD4680BC70475B
:1029D4000058004080B485B000AF3B600346FB71F3
:1029E4000B46BB711346BB804FF6FF73FB81934BC1
:1029F4001B68924A23F400631360904B1B688F4A50
:102A040043F4806313608D4B1B688C4A43F48073DA
:102A1400136002E0FB89013BFB81884B5B6903F097
:102A24000103002B02D1FB89002BF3D1FB89002B7E
:102A340001D10123FCE0814B5B69804B1B6923F0CE
:102A4400FF02FB797D4913430B614FF6FF73FB8152
:102A540002E0FB89013BFB81784B5B6903F00203D5
:102A6400002B02D1FB89002BF3D1FB89002B01D170
:102A74000123DDE0714B5B69704B9B69BB79022BD1
:102A840020D16E4B1B6923F0FF03BA88120A92B25D
:102A9400D2B21146694A0B4313614FF6FF73BB81EF
:102AA40002E0BB89013BBB81644B5B6903F080039B
:102AB400002B02D1BB89002BF3D1BB89002B01D1A0
:102AC4000123B5E05D4B1B6923F0FF03BA88D2B242
:102AD40011465A4A0B4313614FF6FF73FB8102E020
:102AE400FB89013BFB81554B5B6903F08003002BA1
:102AF40002D1FB89002BF3D1FB89002B01D10123E7
:102B040096E04E4B1B684D4A43F4807313604FF6B6
:102B1400FF73FB8102E0FB89013BFB81474B5B694F
:102B240003F00103002B02D1FB89002BF3D1FB89B5
:102B3400002B01D101237BE0404B5B693F4B1B69B8
:102B440023F0FF03FA7942F00102D2B211463B4A64
:102B54000B4313614FF6FF73FB8102E0FB89013BDA
:102B6400FB81364B5B6903F00203002B02D1FB8926
:102B7400002BF3D1FB89002B01D1012358E02F4B0B
:102B84005B692E4B9B690023BB604CE0BB695A1EFA
:102B9400BB689A421CD94FF6FF73FB8102E0FB89A4
:102BA400013BFB81254B5B6903F04003002B02D101
:102BB400FB89002BF3D1FB89002B01D1012337E0E2
:102BC4001E4B1969BB683A681344CAB21A7027E0ED
:102BD4001A4B1B68194A23F480631360174B1B6854
:102BE400164A43F4007313604FF6FF73FB8102E04F
:102BF400FB89013BFB81114B5B6903F04003002B14
:102C040002D1FB89002BF3D1FB89002B01D10123D5
:102C14000EE00A4B1969BB683A681344CAB21A70C9
:102C2400BB680133BB60BB68BA699A42AED8002363
:102C340018461437BD4680BC704700BF005800409A
:102C440080B500AF03F0BEFA642003F01DFB00F072
:102C540067F8FFF723FB2D4B5B692C4A43F02003F5
:102C640053610A2003F010FB284B1B69274A43F0E9
:102C740020031361642003F007FB08F09DF8FFF7BD
:102C8400D5FA0020FFF71AFD062003F0F3F8FFF74A
:102C9400FBFC002000F00AFF1D4B5B691C4A43F05B
:102CA40080035361194B1B69184A43F001031361F4
:102CB400174B5B69164A43F480735361144B1B69C9
:102CC400134A43F020031361104B1B690F4A43F06E
:102CD400040313610F4B5B690E4A43F01003536105
:102CE4000D4B5B690C4A43F010035361074B1B699E
:102CF400064A43F008031361084B1B78002BFBD0F2
:102D040000F078F8054B00221A70F5E7000C01403A
:102D1400001001400018014000140140A8080020E0
:102D240080B59CB000AF07F1380338220021184663
:102D340008F06CFD07F1240300221A605A609A60BF
:102D4400DA601A613B1D20220021184608F05EFD5E
:102D54000123BB634FF480333B6400237B64012372
:102D6400FB640023FB630223BB654FF48033FB65E4
:102D74004FF4E0133B6600237B6607F138031846E3
:102D840004F0DCFB0346002B01D000F02DF80F23E8
:102D94007B620223BB620023FB624FF480633B63CC
:102DA40000237B6307F124030221184604F0DCFEB0
:102DB4000346002B01D000F017F810237B6000239A
:102DC4003B623B1D184605F0F3F80346002B01D087
:102DD40000F00AF8034B01221A6000BF7037BD46A9
:102DE40080BD00BF7000424280B400AF72B600BF25
:102DF400FEE7000080B582B000AF9A4B1B78DBB2CF
:102E0400AC2B03D000F0E0FD00F0CBBD954BDB789C
:102E1400DBB2A03B582B00F2C38501A252F823F089
:102E24004F3200088D320008D932000859330008A7
:102E3400AB330008F933000893340008B5340008B4
:102E4400D734000825350008A1350008A539000845
:102E5400A5390008A5390008A5390008A5390008D6
:102E6400C9350008FB3500088536000827370008F7
:102E74009337000899370008A53900085938000825
:102E8400A5390008A5390008A5390008A5390008A6
:102E9400A5390008A5390008A5390008A539000896
:102EA400A5390008A5390008A5390008A539000886
:102EB400A5390008A5390008A5390008A539000876
:102EC400A5390008A5390008A5390008A539000866
:102ED400A5390008A5390008A5390008A539000856
:102EE400912F0008A5390008A5390008A539000864
:102EF400A5390008A5390008A5390008A539000836
:102F0400A5390008A5390008892F0008A53900084B
:102F1400A5390008A5390008A5390008A539000815
:102F240001390008293900087F390008A53900084B
:102F3400A5390008A5390008A5390008A5390008F5
:102F4400A5390008A5390008A5390008A5390008E5
:102F5400A5390008A5390008A5390008A5390008D5
:102F6400992F000827300008813000086F310008CD
:102F7400A5390008A539000899310008A5390008C9
:102F84003F32000800F036FD00F00BBD00F0A6FD56
:102F940000F007BDFFF75EFB334B5B69324A43F039
:102FA40020035361314B1B69304A43F0040313611E
:102FB4002E4B1B692D4A43F0010313612A4B5B69B5
:102FC400294A43F480735361264B5B79DBB21A04BC
:102FD400244B9B79DBB21B021343224AD279D2B22F
:102FE40013431A46224B1A601E4B1B79DAB2214B4B
:102FF4001A701C4B1B7ADBB21B021AB2194B5B7A98
:10300400DBB21BB213431BB29AB21B4B1A8000F003
:1030140021FE154B1B69144A43F02003136100F091
:10302400C0BC124B1B69114A43F0040313610F4BDC
:103034001B690E4A43F0010313610B4B5B690A4A97
:1030440043F480735361084B1B69074A43F0200320
:103054001361044B1B79DAB2064B1A7001F0F2FDCE
:1030640000F09FBC9801002000100140000C0140BA
:10307400C8050020DA050020D80500209F4B1B69F5
:103084009E4A43F0200313619D4B1B699C4A43F005
:1030940001031361994B5B69984A43F4807353614C
:1030A400974B1B69964A43F004031361954B002226
:1030B4001A60954B00221A60FFF7E6FA934B5B798E
:1030C400DBB21A04914B9B79DBB21B0213438F4A88
:1030D400D279D2B213431A468D4B1A608B4B1B7BA9
:1030E400DBB21B02894A527BD2B213431A46894B84
:1030F4001A60864B1B79DAB2874B1A70864B1B78A1
:10310400072B0FD17E4B5B697D4A43F0010353616A
:103114007A4B1B69794A43F4807313614FF4487006
:1031240003F0B2F8794B1B7ADBB21B021AB2774B6D
:103134005B7ADBB21BB213431BB29AB2774B1A8091
:10314400774BAC221A70764B00225A70744B0122D2
:103154009A70734BF322DA70714B00221A710521B5
:103164006F4800F05DFC00F01CBC684B9B79DBB23F
:103174001A46664B5B79DBB21B021A43634B1B791D
:10318400DBB21B0413431A46664B1A6000F098FF27
:1031940000F007BCFFF778FA584B1B69574A43F015
:1031A40020031361564B1B69554A43F00103136115
:1031B400524B5B69514A43F480735361504B1B6912
:1031C4004F4A43F0040313614E4B00221A604E4BE6
:1031D40000221A60FFF758FA4C4B5B79DBB21A04F1
:1031E4004A4B9B79DBB21B021343484AD279D2B2D1
:1031F40013431A46464B1A60444B9B7ADBB21B02BC
:10320400424AD27AD2B213431A46424B1A603F4B17
:103214001B79DAB2404B1A703C4B1B7BDBB21B02AE
:103224001AB23A4B5B7BDBB21BB213431BB29AB2AA
:103234003A4B1A8001F07EFFB3E3344B1B79DAB2C8
:10324400354B1A7002F052FAABE3304B1B79DAB209
:10325400314B1A70304B1B78032B02D1FEF794FDCF
:1032640001E0FDF773FB2E4BAC221A702C4B0022AD
:103274005A702B4B03229A70294BA022DA70072133
:10328400274800F0CDFB8CE3204B1B79DAB2224BAC
:103294001A70214B1B78012B02D1FDF793FC08E037
:1032A4001D4B1B78032B02D1FEF7B4FD01E0FDF7A3
:1032B400E5FB1B4BAC221A70194B00225A70184BB9
:1032C40004229A70164BA122DA700821144800F0E7
:1032D400A7FB66E30D4B1B7ADAB20F4B1A700E4B49
:1032E4001B78012B02D1FDF7F9FD1FE00A4B1B7877
:1032F400032B19D1FEF7D8FD18E000BF00100140E0
:10330400000C0140D0050020D405002098010020C5
:10331400C8050020CC050020DA050020D8050020CF
:10332400AC030020C0050020FDF7F0FC9D4BAC224F
:103334001A709C4B00225A709A4B01229A70994B36
:10334400A222DA70974B00221A710521954800F0E9
:1033540067FB26E3944B1B79DAB2944B1A70934BB8
:103364001B78012B02D1FDF7B7FE08E08F4B1B78C9
:10337400032B02D1FEF7F2FD01E0FDF78BFE894B32
:10338400AC221A70874B00225A70864B01229A7025
:10339400844BA322DA70834BA1221A710521814840
:1033A40000F03EFBFDE2804B1B79DBB21A467E4BFC
:1033B4005B79DBB21B021A437B4B9B79DBB21B04A8
:1033C40013431A467A4B1A60774BDB79DAB2774BA0
:1033D4001A70764B1B78012B02D1FDF717FFE0E240
:1033E400724B1B78032B02D1FEF7CEFDD9E2FDF719
:1033F40091FED6E26F4B00221A606B4B1B79DBB255
:103404001A46694B5B79DBB21B021A43664B9B7904
:10341400DBB21B0413431A46654B1A60624BDB791B
:10342400DBB21A46644B1A605F4B1B7ADAB25F4B0D
:103434001A705E4B1B78012B05D1FDF75DF9112045
:10344400FDF7EEF90FE0594B1B78032B06D1FEF77D
:103454001FFC11214C20FEF7A1FB04E0FDF7CCF882
:103464001120FDF7AFF94F4BAC221A704D4B0022DF
:103474005A704C4B01229A704A4BA622DA70494B7F
:1034840000221A710521474800F0CAFA89E2474B25
:103494001B78012B02D1FDF7C9FF82E2434B1B7855
:1034A400032B02D1FEF7D2FD7BE2FDF72BFF78E27E
:1034B4003E4B1B78012B02D1FDF75AF871E23B4BCE
:1034C4001B78032B02D1FDF753F86AE2FDF72CF8C1
:1034D40067E2354B1B79DBB21A46334B5B79DBB2BF
:1034E4001B021A43304B9B79DBB21B0413431A466D
:1034F4002F4B1A602C4BDB79DAB22C4B1A702B4B06
:103504001B78012B02D1FEF7D1F84AE2274B1B7836
:10351400032B02D1FEF716FE43E2FEF71BF840E24E
:10352400214B1B79DBB21A461F4B5B79DBB21B02C2
:1035340013435B001A46204B1A601B4B9B79DAB28B
:103544001A4B1A701D4B00221A601D4B00221A6080
:10355400164B1B78012B02D1FDF7CEF808E0134B74
:103564001B78032B02D1FEF793FB01E0FDF744F82F
:10357400FFF78AF80B4BAC221A700A4B00225A70E0
:10358400084B01229A70074BAA22DA70054B0022DD
:103594001A710521034800F043FA02E2FEF71EF90E
:1035A400FFE100BFAC03002098010020DA050020F1
:1035B400C8050020C4050020CC050020D00500204B
:1035C400D40500209D4B1B79DBB21A469B4B5B79DB
:1035D400DBB21B021A43994B9B79DBB21B041A43DF
:1035E400964BDB79DBB21B0613431A46944B1A60E5
:1035F40002F04AF9D5E10023FB700023BB700023DD
:103604007B70904B5B698F4A43F4805353619F20D6
:1036140002F038FD002002F035FD03467B700020E7
:1036240002F030FD0346FB70002002F02BFD034640
:10363400BB7000BF844B9B6803F08003002BF9D15F
:10364400804B1B697F4A43F4805313617F4BAC2248
:103654001A707E4B00225A707C4B03229A707B4B6B
:10366400B122DA70794AFB781371784ABB785371C6
:10367400764A7B7893710721744800F0D1F990E180
:1036840000237B7100233B716E4B5B696D4A43F4ED
:1036940080535361052002F0F5FC002002F0F2FC97
:1036A40003467B7100BF684B9B6803F08003002BCB
:1036B400F9D1644B1B69634A43F480531361614B32
:1036C4005B69604A43F480535361352002F0DAFCAD
:1036D400002002F0D7FC03463B7100BF5A4B9B68A5
:1036E40003F08003002BF9D1564B1B69554A43F470
:1036F40080531361554BAC221A70544B00225A70FC
:10370400524B02229A70514BB222DA704F4A7B79A3
:1037140013714E4A3B79537106214C4800F080F9ED
:103724003FE1464B1B79DBB21A46444B5B79DBB273
:103734001B021A43414B9B79DBB21B041A433F4BD8
:10374400DB79DBB21B0613431A463D4B1A603B4B35
:103754001B7ADBB21A46394B5B7ADBB21B0213438A
:103764001A463B4B1A60394BAC221A70374B002275
:103774005A70364B01229A70344BB422DA70334BB0
:1037840000221A710521314800F04AF909E102F0DA
:1037940021F906E12B4B5B692A4A43F480535361B8
:1037A400062002F06FFC00BF274B9B6803F08003E8
:1037B400002BF9D1234B1B69224A43F48053136134
:1037C40000BF02F0DFF8034603F00203002BF8D039
:1037D4001C4B5B691B4A43F480535361C72002F0BE
:1037E40051FC00BF184B9B6803F08003002BF9D1F8
:1037F400144B1B69134A43F48053136100BF02F056
:10380400C1F8034603F00103002BF8D041F27070B5
:1038140002F03AFD0D4BAC221A700C4B00225A7088
:103824000A4B01229A70094BB522DA70074B002229
:103834001A710521054800F0F3F8B2E09801002060
:10384400C8050020000C014000380040AC030020F3
:10385400CC050020554B1B79FB71544B5B79BB7134
:10386400534B5B69524A43F480535361502002F036
:1038740009FC00BF4F4B9B6803F08003002BF9D178
:103884004B4B1B694A4A43F480531361322002F0C4
:10389400FBFC474B5B69464A43F480535361012068
:1038A40002F0F0FBBB79184602F0ECFBFB791846FA
:1038B40002F0E8FB00BF3F4B9B6803F08003002B42
:1038C400F9D13B4B1B693A4A43F4805313613220CC
:1038D40002F0DAFC384BAC221A70374B00225A70D3
:1038E400354B01229A70344BB722DA70324B0022E6
:1038F4001A710521304800F093F852E02B4B1B79E4
:10390400DBB21A46294B5B79DBB21B021A43274B05
:103914009B79DBB21B0413431A46284B1A6002F04E
:1039240015F93EE0214B1B79DBB21A461F4B5B793C
:10393400DBB21B021A431D4B9B79DBB21B041343FE
:103944001A461E4B1A60194BDB79DBB21A461C4B24
:103954001A60194BAC221A70174B00225A70164B7E
:1039640001229A70144BE222DA70134B00221A716E
:103974000521114800F054F813E00C4B9B79DBB29D
:103984001A460A4B5B79DBB21B021A43074B1B79BD
:10399400DBB21B0413431A460A4B1A6002F084F983
:1039A40000BF00BF0837BD4680BD00BF980100209E
:1039B400000C014000380040AC030020C805002082
:1039C400CC050020C005002080B582B000AFAC2338
:1039D4003B7000237B700123BB70EE23FB7000233C
:1039E4003B713B460521184600F01AF800BF083722
:1039F400BD4680BD80B582B000AFAC233B700023D0
:103A04007B700123BB70DA23FB7000233B713B46C0
:103A14000521184600F004F800BF0837BD4680BDF4
:103A240080B584B000AF78600B467B807B881946F4
:103A3400786807F0BFFA0346FB7397F90F30002B41
:103A4400F4D100BF00BF1037BD4680BD80B584B03F
:103A540000AF03463960FB711346BB80AC233B7255
:103A6400BB881B0A9BB2DBB27B72BB88DBB2BB7226
:103A7400FB79FB7207F108030421184607F09AFA50
:103A84000346FB7397F90F30002BF3D1BB8819461B
:103A9400386807F08FFA0346FB7397F90F30002B51
:103AA400F4D100BF00BF1037BD4680BD80B483B0E1
:103AB40000AF7860074A7B689BB2D3607B681B0ABF
:103AC400054A03F47F43D36000BF0C37BD4680BC76
:103AD400704700BF001801400014014080B500AFDA
:103AE400FEF7D2FD544BDB79DAB2544BDA60524B19
:103AF4001B79DBB21A04504B5B79DBB21B02134314
:103B04004D4A9279D2B213431A464D4B1A604C4B2C
:103B14001B681846FFF7CAFF4A4BDB68494A03F49F
:103B24007F43D360444B1B7BDAB2464BDB681146C0
:103B3400444A0B43D360404B1B7ADBB2002B0CD0BE
:103B44003F4B1B6803F40073002B06D03E4B1B69EC
:103B54003D4A43F08003136105E03B4B5B693A4AFD
:103B640043F080035361344B5B7ADBB2FF2B06D105
:103B7400354B1B69344A43F02003136105E0324B93
:103B84005B69314A43F0200353612B4B9B7ADBB2D0
:103B9400002B1ED0284B1B7ADBB2002B0CD02B4BF6
:103BA4005B692A4A43F001035361274B1B69264A88
:103BB40043F48073136118E0244B1B69234A43F0D8
:103BC40001031361204B5B691F4A43F48073536103
:103BD4000BE01E4B5B691D4A43F0010353611A4B12
:103BE4005B69194A43F480735361134BDB7ADBB28C
:103BF400002B06D0154B1B69144A43F004031361D0
:103C040005E0124B5B69114A43F004035361104B06
:103C1400AC221A700E4B00225A700D4B01229A707E
:103C24000B4BD022DA700A4BAC221A7105210848DA
:103C3400FFF7F6FE00BF80BD980100200008014098
:103C4400C40500200014014000100140000C014094
:103C5400AC03002080B500AFFEF7FCFC624B1B7880
:103C6400013B0C2B00F2BD8001A252F823F000BFEF
:103C7400A93C0008E73D0008E73D0008FD3C0008BA
:103C8400D33C0008273D0008E73D0008513D0008EB
:103C94007B3D0008E73D0008E73D0008E73D0008DC
:103CA400A53D000800F0A6F8504B1B694F4A43F0AD
:103CB400010313614E4B5B694D4A43F480735361B6
:103CC4004A4B1B69494A43F0040313618AE000F03C
:103CD40091F8464B1B69454A43F001031361444B79
:103CE4005B69434A43F480735361404B1B693F4A09
:103CF40043F00403136175E000F07CF83B4B1B694F
:103D04003A4A43F001031361394B5B69384A43F47F
:103D140080735361354B1B69344A43F004031361C8
:103D240060E000F067F8314B1B69304A43F001034F
:103D340013612F4B5B692E4A43F4807353612B4B01
:103D44001B692A4A43F0040313614BE000F036F97F
:103D5400264B1B69254A43F001031361244B5B691D
:103D6400234A43F480735361204B1B691F4A43F079
:103D74000403136136E000F03DF81C4B1B691B4A39
:103D840043F0010313611A4B5B69194A43F48073CE
:103D94005361164B1B69154A43F00403136121E078
:103DA40000F0A2F8114B1B69104A43F001031361A0
:103DB4000F4B5B690E4A43F4807353610B4B1B68D2
:103DC4000A4A23F440731360084B1B68074A23F420
:103DD40040631360054B1B68044A43F4806313601B
:103DE40000E000BF00BF80BDDA050020000C0140E8
:103DF4000010014080B582B000AF00237B605DE01D
:103E0400334BAC221A70324B02225A70304B0022D0
:103E14009A702F4BF022DA702E4B5B692D4A43F0D7
:103E24002003536100233B602DE03A687B68134410
:103E34001846FFF73BFE284B5B69274A43F0010312
:103E44005361244B5B69234A43F48073536101201B
:103E5400FEF702FA214B9A683B680433D1B21C4A3C
:103E6400D1541D4B1B691C4A43F001031361194BC8
:103E74005B69184A43F4807353610120FEF7ECF93F
:103E84003B6801333B603B68B3F5007FCDDB114BEE
:103E94001B69104A43F0200313614FF401710C486D
:103EA400FFF7BEFD00BF0E4B1B78002BFBD00C4B65
:103EB40000221A707B6803F500737B60094B1B6852
:103EC4007A689A429CD300BF00BF0837BD4680BDC4
:103ED400AC03002000100140000C01400008014028
:103EE400A9080020C805002090B583B000AF00F0F9
:103EF400D5FD2E4B1B682D4A23F4407313602B4BC6
:103F04001B682A4A23F440631360284B1B68274A22
:103F140043F48063136000237B6032E0244BAC22C3
:103F24001A70234B02225A70214B00229A70204BA4
:103F3400F022DA7000233B600EE03A687B681A4492
:103F44003B681C1D104600F031FE03461A46184B10
:103F54001A553B6801333B603B68B3F5007FECDBEB
:103F64004FF401711248FFF75BFD00BF114B1B7842
:103F7400002BFBD00F4B00221A707B6803F50073F3
:103F84007B600D4B1B687A689A42C7D3074B1B684A
:103F9400064A43F440731360044B1B68034A23F43A
:103FA4004063136000BF0C37BD4690BD000C014058
:103FB400AC030020A9080020C805002080B582B009
:103FC40000AF00237B6063E0364B5B69354A43F006
:103FD40020035361344B5B69334A43F0010353615B
:103FE400304B5B692F4A43F4807353612F4BAC22EF
:103FF4001A702E4B02225A702C4B00229A702B4BB3
:10400400F022DA7000233B601CE07B685A083B68AE
:1040140013441846FFF74AFD0520FEF71DF9244B0B
:104024009A683B685B000533D1B2204AD154214BD6
:104034009A683B6802335B00D1B21C4AD1543B6896
:1040440001333B603B68FF2BDFDD174B1B69164ACE
:1040540043F001031361134B5B69124A43F4807309
:104064005361104B1B690F4A43F0200313614FF453
:1040740001710E48FFF7D4FC00BF0F4B1B78002BD7
:10408400FBD00D4B00221A707B6803F500737B6034
:104094000A4B1B687A689A4296D300BF00BF083760
:1040A400BD4680BD00100140000C0140AC0300205F
:1040B4000008014000140140A9080020C8050020A0
:1040C40080B500AF1F4B1B78013B0C2B37D801A2E6
:1040D40052F823F00D410008434100084341000811
:1040E40013410008194100081F4100082541000838
:1040F4002B410008314100083741000843410008C2
:10410400434100083D41000800F01EF818E000F0AB
:1041140085F815E000F006F912E000F049F90FE027
:1041240000F018FB0CE000F029FA09E000F0A6F911
:1041340006E000F0A5FA03E000F054FB00E000BF45
:1041440000BF80BDDA05002080B582B000AF002337
:104154007B603DE02C4B5B692B4A43F020035361A9
:10416400AA2145F2555000F0B9FB552142F6AA2088
:1041740000F0B4FBA02145F2555000F0AFFB002342
:104184003B6012E0214B1A683B681A447B68D018E4
:104194003A687B68134407331D4AD35CDBB2194683
:1041A40000F09CFB3B6801333B603A68194B1B6889
:1041B4009A42E7D3144B1B69134A43F0200313615B
:1041C4000C2002F061F87A68124B1B6813447B6080
:1041D4007B68B3F5007FBDDB0F4BAC221A700E4B2E
:1041E40000225A700C4B01229A700B4BF322DA70A6
:1041F400094B00221A7105210748FFF711FC00231F
:1042040018460837BD4680BD00100140C005002097
:1042140098010020CC050020AC03002080B582B0BA
:1042240000AF3A4B1B69394A43F020031361384B02
:104234001B69374A43F001031361344B5B69334A0A
:1042440043F480735361324B1B69314A43F00403D6
:10425400136100237B603DE07B6807332D4AD35C08
:10426400DBB2FF2B32D02C4B1A687B681344184600
:10427400FFF71CFC7B680733264AD35CDAB2274B72
:10428400DA600A20FDF7E8FF204B5B691F4A43F020
:10429400200353610A20FDF7DFFF1D4B5B691C4AB5
:1042A40043F0040353611E20FDF7D6FF184B1B692E
:1042B400174A43F004031361144B1B69134A43F078
:1042C400200313616420FDF7C7FF00E000BF7B6893
:1042D40001337B607B68B3F5007FBDDB104BAC2200
:1042E4001A700F4B00225A700D4B01229A700C4B1E
:1042F400F322DA700A4B00221A7105210848FFF7ED
:104304008FFB002318460837BD4680BD00100140CE
:10431400000C014098010020C00500200008014065
:10432400AC03002080B582B000AF1C4B5B691B4A14
:1043340043F02003536100237B601FE07A68184B2D
:104344001B6813441846FFF7B1FB7B680733154A13
:10435400D35CDAB2144BDA60144B5B69134A43F052
:10436400040353610120FDF777FF104B1B690F4ACB
:1043740043F0040313617B6801337B607B68B3F50E
:10438400007FDBDB054B1B69044A43F02003136108
:10439400002318460837BD4680BD00BF0010014009
:1043A400C00500209801002000080140000C0140D5
:1043B40080B582B000AF2C4B5B692B4A43F02003DD
:1043C400536100237B602CE07B680733274AD35C6E
:1043D400DBB2FF2B21D0AA2145F2555000F07EFA22
:1043E400552142F6AA2000F079FAA02145F2555051
:1043F40000F074FA7A681E4B1B681A447B68073312
:104404001A49CB5CDBB21946104600F067FA194B27
:104414001B881846FDF720FF00E000BF7B680133CE
:104424007B607B68B3F5007FCEDB0F4B1B690E4AC4
:1044340043F020031361104BAC221A700E4B002280
:104444005A700D4B01229A700B4BF322DA700A4B0F
:1044540000221A7105210848FFF7E2FA00231846E2
:104464000837BD4680BD00BF001001409801002000
:10447400C0050020D8050020AC03002080B582B020
:1044840000AF394B5B69384A43F020035361002382
:104494007B6044E07B680833344AD35CDBB2FF2B97
:1044A40006D17B680733314AD35CDBB2FF2B32D0B1
:1044B4004AF6AA2145F2555000F076FA45F25551D4
:1044C40042F6AA2000F070FA4AF2A00145F25550D3
:1044D40000F06AFA0520FDF7BFFE254B1A687B68D9
:1044E400134458087B680833204AD35CDBB21B02B0
:1044F4001AB27B6807331D49CB5CDBB21BB2134392
:104504001BB29BB2194600F04FFA1A4B1B8818468F
:10451400FDF7A2FE00E000BF7B6802337B607B688E
:10452400B3F5007FB6DB104B1B690F4A43F0200341
:1045340013610A20FDF790FE0F4BAC221A700E4B4C
:1045440000225A700C4B01229A700B4BF322DA7042
:10455400094B00221A7105210748FFF761FA00236D
:1045640018460837BD4680BD001001409801002060
:10457400C0050020D8050020AC03002080B582B01F
:1045840000AF00237B6053E0374B5B69364A43F04E
:10459400200353614FF42A4145F2555000F004FAC8
:1045A4004FF4AA4142F6AA2000F0FEF94FF420414C
:1045B40045F2555000F0F8F900233B6023E02B4B03
:1045C4001A683B681A447B68134458083A687B6845
:1045D40013440833264AD35CDBB21B021AB239688F
:1045E4007B680B4407332249CB5CDBB21BB2134319
:1045F4001BB29BB2194600F0D7F90520FDF72CFE3B
:104604003B6802333B603A681A4B1B689A42D6D324
:10461400154B1B69144A43F020031361164B1B8886
:10462400184601F031FE7A68124B1B6813447B6014
:104634007B68B3F5007FA7DB104BAC221A700F4BDD
:1046440000225A700D4B01229A700C4BF322DA703F
:104654000A4B00221A7105210848FFF7E1F90023EB
:1046640018460837BD4680BD00100140C005002033
:1046740098010020CC050020D8050020AC030020C0
:1046840080B582B000AF2E4B5B692D4A43F0200306
:10469400536100237B6031E04FF42A4140F25550CE
:1046A40000F082F94FF4AA4140F2AA2000F07CF90C
:1046B4004FF4204140F2555000F076F9214B1A682E
:1046C4007B68134458087B6808331F4AD35CDBB209
:1046D4001B021AB27B6807331B49CB5CDBB21BB2EB
:1046E40013431BB29BB2194600F05EF9174B1B88AB
:1046F4001846FDF7B1FD7B6802337B607B68B3F538
:10470400007FC9DB0E4B1B690D4A43F02003136184
:104714000F4BAC221A700E4B00225A700C4B012224
:104724009A700B4BF322DA70094B00221A7105219F
:104734000748FFF775F9002318460837BD4680BDC2
:1047440000100140C005002098010020D805002079
:10475400AC03002080B582B000AF1F4B1B79DBB2E5
:104764001A041D4B5B79DBB21B0213441A4A92797B
:10477400D2B213443B606420FDF76EFD00237B60DE
:1047840021E07A683B6813441846FFF78FF97B6889
:104794000633114AD35CDAB2104BDA60104B5B6912
:1047A4000F4A43F0200353616420FDF755FD0C4B81
:1047B4001B690B4A43F0200313610420FDF74CFDF1
:1047C4007B6801337B607B68B3F5007FD9DB002312
:1047D40018460837BD4680BD9801002000080140F6
:1047E4000010014080B582B000AF00F057F9374B9C
:1047F4001B68364A23F440731360344B1B68334AF6
:1048040023F440631360314B1B68304A43F48063E4
:10481400136000237B6031E07B6807332C4AD35C50
:10482400DBB2FF2B26D0AA2145F2555000F06CF9DB
:10483400552142F6AA2000F067F9A02145F255500F
:1048440000F062F97A68234B1B681A447B680733CB
:104854001F49CB5CDBB21946104600F055F9052020
:10486400FDF7FAFC00BF194B9B6803F00403002B0F
:10487400F9D000E000BF7B6801337B607B68B3F54F
:10488400007FC9DB114B1B68104A43F4407313606B
:104894000E4B1B680D4A23F4406313600E4BAC228D
:1048A4001A700D4B00225A700B4B01229A700A4B5E
:1048B400F322DA70084B00221A7105210648FFF72B
:1048C400AFF800BF0837BD4680BD00BF000C0140F3
:1048D40098010020C0050020AC03002080B582B000
:1048E40000AF78600B46FB707868FFF7DFF80E4A7C
:1048F400FB78D3600520FDF7AFFC0C4B5B690B4ADA
:1049040043F0040353610F20FDF7A6FC074B1B691A
:10491400064A43F0040313610F20FDF79DFC00BF1A
:104924000837BD4680BD00BF00080140000C0140AF
:1049340080B584B000AF78607868FFF7B7F8174B9C
:104944005B69164A43F020035361154B5B69144AB3
:1049540043F001035361114B5B69104A43F48073C4
:1049640053610A20FDF778FC0E4B9B68FB730C4BDC
:104974001B690B4A43F001031361084B5B69074A47
:1049840043F480735361054B1B69044A43F02003CD
:104994001361FB7B18461037BD4680BD00100140F3
:1049A400000C01400008014080B584B000AF78607D
:1049B4000B467B807B88FB737868FFF777F87B88EE
:1049C4001B0A9AB2134BDA60134BDB68124A03F4E6
:1049D4007F43D360104BDA68FB7B0F491343CB60F2
:1049E4000220FDF739FC0D4B5B690C4A43F00403CC
:1049F40053610520FDF730FC084B1B69074A43F05F
:104A0400040313610F20FDF727FC00BF1037BD46D8
:104A140080BD00BF0008014000140140000C0140AB
:104A240080B584B000AF78607868FFF73FF8174B23
:104A34005B69164A43F001035361154B5B69144AE1
:104A440043F4807353610520FDF706FC114B9B680A
:104A54009BB21B02FB81104B9B68DBB29AB2FB89B1
:104A64001343FB81094B1B69084A43F0010313619B
:104A7400074B5B69064A43F4807353610120FDF7D9
:104A8400EBFBFB8918461037BD4680BD000C014086
:104A940000100140000801400014014080B500AF3F
:104AA400164B1B69154A43F020031361144B1B6911
:104AB400134A43F001031361104B5B690F4A43F43B
:104AC400807353610F4B4FF47042DA601420FDF78A
:104AD400C3FB0C4B5B690B4A43F400535361142032
:104AE400FDF7BAFB074B1B69064A43F400531361F5
:104AF4001420FDF7B1FB00BF80BD00BF00100140D2
:104B0400000C01400018014080B582B000AF78600D
:104B14000B46FB707B68C3F30A03224A43F47043D9
:104B2400D3600120FDF798FB1E4B5B691D4A43F4DB
:104B3400804353610120FDF78FFB1A4BDB68194A50
:104B440003F47043D360174BDA687B68DB0A1549BA
:104B54001343CB600120FDF77FFB124B5B69114AC5
:104B640043F4805353610120FDF776FB0D4B1B6921
:104B74000C4A43F4804313610120FDF76DFB0A4A9C
:104B8400FB78D3600120FDF767FB064B1B69054AE0
:104B940043F4805313610320FDF75EFB00BF083725
:104BA400BD4680BD001801400008014080B584B0B6
:104BB40000AF78607B68C3F30A03204A43F4704370
:104BC400D3600120FDF748FB1C4B5B691B4A43F48F
:104BD400804353610120FDF73FFB184BDB68174A04
:104BE40003F47043D360154BDA687B68DB0A13491E
:104BF4001343CB600120FDF72FFB104B1B690F4AB9
:104C040043F4804313610120FDF726FB0B4B5B69E2
:104C14000A4A43F4004353610220FDF71DFB084B8D
:104C24009B68FB73054B1B69044A43F400431361FF
:104C3400FB7B18461037BD4680BD00BF00180140FD
:104C44000008014080B500AF1C4B1B78013B0C2BC6
:104C540031D801A252F823F0914C0008BB4C000853
:104C6400BB4C0008974C0008BB4C00089D4C000846
:104C7400BB4C0008A34C0008BB4C0008A94C00081E
:104C8400AF4C0008BB4C0008B54C000800F018F805
:104C940012E000F015F80FE000F08EF80CE000F0E0
:104CA400DFF809E000F058F906E000F055F903E0F8
:104CB40000F0CEF900E000BF00BF80BDDA0500209F
:104CC40080B500AFFDF7E0FC384B5B69374A43F031
:104CD40020035361AA2145F25550FFF7FFFD5521EA
:104CE40042F6AA20FFF7FAFD802145F25550FFF75E
:104CF400F5FDAA2145F25550FFF7F0FD552142F686
:104D0400AA20FFF7EBFD602145F25550FFF7E6FDC1
:104D1400FDF7A0FC0A2001F0B7FA0020FFF708FE17
:104D240003461A46224B1A710120FFF701FE03467F
:104D34001A461F4B5A710220FFF7FAFD03461A4622
:104D44001B4B9A711B48FFF7F3FD03461A46184B99
:104D5400DA71FDF799FCAA2145F25550FFF7BEFD23
:104D6400552142F6AA20FFF7B9FDF02145F255502E
:104D7400FFF7B4FD0D4B1B690C4A43F0200313618C
:104D84000A2001F081FA0A4BF122DA70084BAC22B6
:104D94001A70074B00225A70054B04229A7008219E
:104DA4000348FEF73DFE00BF80BD00BF0010014078
:104DB400AC030020F2FF030080B500AFFDF764FCF4
:104DC400254B5B69244A43F020035361AA2145F231
:104DD4005550FFF783FD552142F6AA20FFF77EFDCB
:104DE400902145F25550FFF779FDFDF733FC0A2079
:104DF40001F04AFA0020FFF79BFD03461A46174BC1
:104E04001A710120FFF794FD03461A46134B5A7199
:104E1400124B00229A71114B0022DA71FDF734FC17
:104E2400F0210020FFF75AFD0B4B1B690A4A43F09F
:104E340020031361094BAC221A70084B00225A70EC
:104E4400064B04229A70054BF122DA7008210348BC
:104E5400FEF7E6FD00BF80BD00100140AC0300205A
:104E640080B582B000AF0023FB80FDF70DFC384B0A
:104E74005B69374A43F0200353614FF42A4145F2FA
:104E84005550FFF791FD4FF4AA4142F6AA20FFF7CF
:104E94008BFD4FF4104145F25550FFF785FD052079
:104EA400FDF7DAF9FDF7D6FB0A2001F0EDF9002051
:104EB400FFF7B6FD03461B0A9BB2DAB2254B1A7103
:104EC4004FF42A4145F25550FFF76EFD4FF4AA41C5
:104ED40042F6AA20FFF768FD4FF4104145F2555001
:104EE400FFF762FD0520FDF7B7F9FDF7B3FB0A20D4
:104EF40001F0CAF90120FFF793FD0346FB80FB880C
:104F0400DAB2144B5A71FB881B0A9BB2DAB2114B0A
:104F14009A71104B0022DA710D4B1B690C4A43F055
:104F240020031361FDF7B0FB0A4BAC221A70094B46
:104F340000225A70074B04229A70064BF122DA7051
:104F440008210448FEF76CFD00BF0837BD4680BD4C
:104F540000100140AC03002080B582B000AF0023F4
:104F6400FB80FDF791FB384B5B69374A43F0200324
:104F740053614FF42A4140F25550FFF715FD4FF4A9
:104F8400AA4140F2AA20FFF70FFD4FF4104140F26E
:104F94005550FFF709FD0520FDF75EF9FDF75AFBB3
:104FA4000A2001F071F90020FFF73AFD03461B0ABD
:104FB4009BB2DAB2254B1A714FF42A4140F2555094
:104FC400FFF7F2FC4FF4AA4140F2AA20FFF7ECFCF1
:104FD4004FF4104140F25550FFF7E6FC0520FDF771
:104FE4003BF9FDF737FB0A2001F04EF90120FFF7EA
:104FF40017FD0346FB80FB881B0A9BB2DAB2134BF6
:105004009A71FB88DAB2114B5A71104B0022DA7193
:105014000D4B1B690C4A43F020031361FDF734FB6D
:105024000A4BAC221A70094B00225A70074B042217
:105034009A70064BF122DA7008210448FEF7F0FC5E
:1050440000BF0837BD4680BD00100140AC030020FE
:1050540080B500AF344B1B68334A23F440731360AC
:10506400314B1B68304A23F4406313602E4B1B689A
:105074002D4A43F480631360FFF710FDFDF704FB32
:10508400AA2145F25550FFF73FFD552142F6AA20CB
:10509400FFF73AFD902145F25550FFF735FD1420F6
:1050A400FDF7DAF8FDF7D6FA0020FFF77FFD034697
:1050B4001A461E4B1A710120FFF778FD03461A4663
:1050C4001A4B5A711A48FFF771FD03461A46174BDB
:1050D4009A71164B0022DA71FDF7D6FAF0210020FE
:1050E400FFF712FD1420FDF7B7F8104BAC221A702D
:1050F4000E4B00225A700D4B04229A700B4BF12276
:10510400DA7008210948FEF78BFC074B1B68064A36
:1051140043F440731360044B1B68034A23F4406355
:10512400136000BF80BD00BF000C0140AC03002031
:10513400F2FF070080B500AF1F4B1B78013B0C2B1F
:1051440037D801A252F823F081510008B751000862
:10515400B7510008875100088D5100089351000889
:10516400AB510008995100089F510008A55100084F
:10517400B7510008B7510008B151000800F01EF8FB
:1051840018E000F005F915E000F070F912E000F005
:1051940015F80FE000F05CF80CE000F059F809E0B5
:1051A40000F0A6F806E000F09DF903E000F010FA24
:1051B40000E000BF00BF80BDDA05002080B500AF6D
:1051C400214B5B69204A43F020035361AA2145F235
:1051D4005550FFF783FB552142F6AA20FFF77EFBCB
:1051E400802145F25550FFF779FBAA2145F255502D
:1051F400FFF774FB552142F6AA20FFF76FFB10213D
:1052040045F25550FFF76AFB0F4B1B690E4A43F0FA
:10521400200313614FF4FA6001F036F80B4BAC2213
:105224001A700A4B00225A70084B01229A70074BDD
:10523400F622DA70054B00221A7105210348FEF7A5
:10524400EFFB00BF80BD00BF00100140AC03002095
:1052540080B500AF244B5B69234A43F020035361BC
:105264004FF42A4145F25550FFF79EFB4FF4AA41F3
:1052740042F6AA20FFF798FB4FF4004145F255503F
:10528400FFF792FB4FF42A4145F25550FFF78CFB90
:105294004FF4AA4142F6AA20FFF786FB4FF480514F
:1052A40045F25550FFF780FB41F2707000F0ECFFBF
:1052B4000D4B1B690C4A43F0200313610B4BAC22CA
:1052C4001A700A4B00225A70084B01229A70074B3D
:1052D400F622DA70054B00221A7105210348FEF705
:1052E4009FFB00BF80BD00BF00100140AC03002045
:1052F40080B500AF244B5B69234A43F0200353611C
:105304004FF42A4140F25550FFF74EFB4FF4AA41A7
:1053140040F2AA20FFF748FB4FF4004140F25550F9
:10532400FFF742FB4FF42A4140F25550FFF73CFB94
:105334004FF4AA4140F2AA20FFF736FB4FF4805104
:1053440040F25550FFF730FB0F4B1B690E4A43F0F8
:105354002003136144F6206000F096FF0B4BAC224F
:105364001A700A4B00225A70084B01229A70074B9C
:10537400F622DA70054B00221A7105210348FEF764
:105384004FFB00BF80BD00BF00100140AC030020F4
:1053940080B500AF324B1B69314A43F020031361DF
:1053A400304B1B692F4A43F0010313612C4B5B699B
:1053B4002B4A43F4807353612A4B1B69294A43F0F7
:1053C40004031361264B5B69254A43F020035361B0
:1053D400244B5B69234A43F001035361204B1B694F
:1053E4001F4A43F480731361022000F04DFF1D4BEC
:1053F4005B691C4A43F004035361C82000F044FF76
:10540400184B1B69174A43F004031361022000F090
:105414003BFF144B1B69134A43F001031361104B08
:105424005B690F4A43F4807353610D4B1B690C4A4B
:1054340043F0200313610C4BAC221A700A4B002278
:105444005A70094B01229A70074BF622DA70064B08
:1054540000221A7105210448FEF7E2FA00BF80BD5C
:1054640000100140000C0140AC03002080B582B064
:1054740000AF194B5B69184A43F0200353610023C2
:105484007B6007E07B68FF211846FFF727FA7B68FB
:1054940001337B607A68114B1B689A42F2D30E4B3E
:1054A4001B690D4A43F0200313610D4BAC221A70A3
:1054B4000B4B00225A700A4B01229A70084BF622B9
:1054C400DA70074B00221A7105210548FEF7A8FA85
:1054D40000BF0837BD4680BD00100140C80500204C
:1054E400AC03002080B500AFFDF7CEF8344B1B6948
:1054F400334A43F001031361324B5B69314A43F48D
:10550400807353612F4B1B692E4A43F020031361B0
:105514000020FEF7CBFA2C4BFF22DA60294B1B69E3
:10552400284A43F080031361254B5B69244A43F006
:1055340001035361234B1B69224A43F480731361B3
:105544006420FCF789FE1F4B5B691E4A43F020036D
:1055540053614FF47A7000F097FE1A4B1B69194A95
:1055640043F0200313616420FCF776FE154B5B695E
:10557400144A43F080035361114B1B69104A43F0F2
:10558400010313610F4B5B690E4A43F4807353614B
:105594000A2000F079FE0D4BAC221A700B4B00224E
:1055A4005A700A4B01229A70084BF622DA70074BA4
:1055B40000221A7105210548FEF732FA00BF80BDAA
:1055C400000C01400010014000080140AC03002021
:1055D400B0B58AB000AF414B3C1D1D460FCD0FC482
:1055E40095E80F0084E80F00FFF758FA3C4B1B685E
:1055F4003B4A23F440731360394B1B68384A23F445
:1056040040631360364B1B68354A43F48063136070
:10561400334B1B69324A43F001031361314B5B691D
:10562400304A43F48073536100237B622FE0AA2144
:1056340045F25550FFF768FA552142F6AA20FFF7C4
:1056440063FA802145F25550FFF75EFAAA2145F22C
:105654005550FFF759FA552142F6AA20FFF754FA9C
:105664007B6A9B0028333B4453F8243C3021184682
:10567400FFF74AFA012000F007FE00BF184B9B68B1
:1056840003F00403002BF9D07B6A01337B627B6A4D
:10569400072BCCDD144BAC221A70134B00225A702A
:1056A400114B01229A70104BF622DA700E4B002235
:1056B4001A7105210C48FEF7B3F9094B1B68084A17
:1056C40043F440731360064B1B68054A23F440639C
:1056D400136000BF2837BD46B0BD00BF38B800080E
:1056E400000C014000100140AC03002080B500AF65
:1056F4000A4B1B780A2B0BD00A2B0CDC012B04D091
:10570400042B08D100F00CF806E000F02FF803E0B9
:1057140000F070F800E000BF00BF80BDDA05002093
:1057240080B500AFAA2141F25550FFF7D7F85521B3
:1057340040F6AA20FFF7D2F8802141F25550FFF736
:10574400CDF8AA2141F25550FFF7C8F8552140F68B
:10575400AA20FFF7C3F8202141F25550FFF7BEF805
:105764006420FCF779FD00BF80BD000080B500AF68
:10577400FCF78AFF1D4B5B691C4A43F0010353612C
:105784001B4B1B691A4A43F480731361AA2145F227
:105794005550FFF7A3F8552142F6AA20FFF79EF8CB
:1057A400802145F25550FFF799F8AA2145F255504A
:1057B400FFF794F8552142F6AA20FFF78FF820212D
:1057C40045F25550FFF78AF80A2000F05DFD074BBB
:1057D4001B69064A43F001031361054B5B69044AE4
:1057E40043F48073536100BF80BD00BF000C0140CF
:1057F4000010014080B500AF0A2000F045FD4220B2
:10580400FEF754F91C4B6022DA60012000F03CFDE5
:105814001A4B5B69194A43F020035361184B5B69C7
:10582400174A43F0040353613220FCF715FD144B6F
:105834001B69134A43F004031361104B1B690F4A9D
:1058440043F020031361322000F01EFD0D4BAC2207
:105854001A700C4B00225A700A4B01229A70094BA1
:10586400F822DA70074B00221A7105210548FEF769
:10587400D7F800BF80BD00BF000801400010014000
:10588400000C0140AC03002090B583B000AF384B4E
:105894005B69374A43F480535361364B1B68B3F159
:1058A400807F0FD9132000F0EDFB002000F0EAFB0D
:1058B400002000F0E7FB002000F0E4FB002000F0F3
:1058C400E1FB0BE0032000F0DDFB002000F0DAFB3D
:1058D400002000F0D7FB002000F0D4FB00237B6005
:1058E4002FE0254BAC221A70234B02225A70224B14
:1058F40000229A70204BB022DA7000233B600BE048
:105904003B681C1DFF2000F0BDFB03461A461A4BE2
:105914001A553B6801333B603B68B3F5007FEFDB0E
:105924004FF401711448FEF77BF800BF134B1B784A
:10593400002BFBD0114B00221A707B6803F5007317
:105944007B607A680B4B1B689A42CAD300BF0C4B2E
:105954009B6803F08003002BF9D1054B1B69044AB3
:1059640043F48053136100BF0C37BD4690BD00BFA4
:10597400000C0140C8050020AC030020A908002049
:105984000038004080B582B000AF104B5B690F4A0D
:1059940043F480535361052000F074FB002000F0B1
:1059A40071FB0346FB7100BF094B9B6803F0800346
:1059B400002BF9D1054B1B69044A43F4805313614E
:1059C400FB7918460837BD4680BD00BF000C014076
:1059D4000038004080B582B000AF564B5B69554A31
:1059E40043F480535361062000F04CFB00BF524B3C
:1059F4009B6803F08003002BF9D14E4B1B694D4A81
:105A040043F48053136100BFFFF7BCFF034603F068
:105A14000203002BF8D0474B5B69464A43F480539A
:105A24005361022000F02EFB444B1B68B3F1807FCE
:105A340018D9434B1B79DBB2184600F023FB404BCB
:105A44005B79DBB2184600F01DFB3D4B9B79DBB262
:105A5400184600F017FB3A4BDB79DBB2184600F02E
:105A640011FB11E0364B5B79DBB2184600F00AFB00
:105A7400334B9B79DBB2184600F004FB304BDB79E7
:105A8400DBB2184600F0FEFA00237B600AE07B6874
:105A940008332B4AD35CDBB2184600F0F3FA7B6878
:105AA40001337B607A68274B1B689A42EFD300BFAF
:105AB400214B9B6803F08003002BF9D11D4B1B691C
:105AC4001C4A43F48053136100BFFFF75BFF034696
