:020000040800F2
:1000000000000120E56F0008756F00087B6F000895
:10001000816F0008876F00088D6F000800000000E6
:10002000000000000000000000000000936F0008C6
:100030009F6F000800000000AB6F0008B76F00085A
:100040002D7000082D7000082D7000082D7000081C
:100050002D7000082D7000082D7000082D7000080C
:100060002D7000082D7000082D7000082D700008FC
:100070002D7000082D7000082D7000082D700008EC
:100080002D7000082D7000082D7000082D700008DC
:10009000C56F00082D7000082D7000082D70000835
:1000A0002D7000082D7000082D7000082D700008BC
:1000B0002D7000082D7000082D7000082D700008AC
:1000C0002D7000082D7000082D7000082D7000089C
:1000D0002D7000082D7000082D7000082D7000088C
:1000E0002D7000082D7000082D7000082D7000087C
:1000F0002D7000082D7000082D7000082D7000086C
:100100002D7000082D7000082D7000082D7000085B
:100110002D7000082D7000082D7000082D7000084B
:100120002D7000082D7000082D7000082D7000083B
:1001300000000000000000000000000000000000BF
:1001400000000000000000000000000000000000AF
:10015000000000000000000000000000000000009F
:10016000000000000000000000000000000000008F
:10017000000000000000000000000000000000007F
:10018000000000000000000000000000000000006F
:10019000000000000000000000000000000000005F
:1001A000000000000000000000000000000000004F
:1001B000000000000000000000000000000000003F
:1001C000000000000000000000000000000000002F
:1001D000000000000000000000000000000000001F
:0401E0005FF8E0F1F3
:1001E40010B5054C237833B9044B13B10448AFF36D
:1001F40000800123237010BD7C010020000000005A
:100204009CE2000808B5034B1BB103490348AFF354
:10021400008008BD00000000800100209CE200086E
:1002240080B500AF0E4B5B690D4A43F00103536187
:100234000C4B5B690B4A43F4807353610A2006F04C
:1002440057FF074B1B69064A43F001031361054B33
:100254005B69044A43F48073536100BF80BD00BFEF
:10026400000C01400010014080B500AF114B5B69E8
:10027400104A43F0010353610F4B5B690E4A43F488
:10028400807353610A2006F033FF0A4B1B69094A45
:1002940043F001031361084B5B69074A43F480731D
:1002A4005361064B1B69054A43F01003136100BFF9
:1002B40080BD00BF000C0140001001400018014047
:1002C40080B500AF094B1B69084A43F0080313616A
:1002D400012002F077F8054B5B69044A43F00803F8
:1002E4005361012002F06EF800BF80BD0018014088
:1002F40080B582B000AF3B4B1B693A4A43F001031F
:100304001361394B5B69384A43F480735361374B4B
:100314001B69364A43F040031361344B1B69334A6B
:1003240043F080031361314B5B69304A43F00803A7
:1003340053612E4B1B692D4A43F0020313612B4B6F
:100344001B692A4A43F0040313610A2006F0D0FE15
:10035400244B5B69234A43F001035361224B5B69DD
:10036400214A43F4807353610A2006F0C1FE00233E
:100374007B6004E0FFF7A4FF7B6801337B607B684C
:10038400092BF7DD194B5B69184A43F001035361EC
:10039400164B5B69154A43F002035361134B5B69C7
:1003A400124A43F004035361104B5B690F4A43F054
:1003B40020035361142006F09BFE0A4B5B69094A33
:1003C40043F001035361084B1B69074A43F48073EC
:1003D40013614FF4FA7006F08BFE00BF0837BD4678
:1003E40080BD00BF000C0140001001400018014016
:1003F40080B500AF2E4B1B692D4A43F010031361E7
:10040400C82006F075FE2A4B5B69294A43F00203B3
:100414005361274B5B69264A43F004035361244B21
:100424005B69234A43F020035361214B5B69204AF3
:1004340043F0400353611E4B5B691D4A43F0800344
:1004440053611C4B5B691B4A43F0010353611A4B14
:100454005B69194A43F480735361142006F048FE23
:10046400134B5B69124A43F0100353610A2006F0F0
:100474003FFE104B5B690F4A43F0010353610E4B7F
:100484001B690D4A43F4807313614FF4FA7006F04C
:100494002FFE074B1B69064A43F040031361044BCC
:1004A4001B69034A43F08003136100BF80BD00BF92
:1004B40000180140000C01400010014080B582B0DA
:1004C40000AF0346FB71124AFB79D360114B1B69E1
:1004D400104A43F0040313610E4B5B690D4A43F069
:1004E400020353610B4B5B690A4A43F020035361D7
:1004F400084B5B69074A43F010035361012001F084
:1005040061FFFFF7DDFE00BF0837BD4680BD00BFB9
:10051400000801400018014080B582B000AF0346D6
:10052400FB710F4AFB79D3600E4B1B690D4A43F0F4
:10053400040313610B4B5B690A4A43F002035361E2
:10054400084B5B69074A43F020035361012001F023
:1005540039FFFFF7B5FE00BF0837BD4680BD00BFB9
:10056400000801400018014080B582B000AF034686
:100574000A46FB711346BB71164B5B69154A43F07F
:1005840004035361134B5B69124A43F00203536142
:10059400BB79002B06D00F4B1B690E4A43F0200396
:1005A400136105E00B4B5B690A4A43F02003536176
:1005B400084B5B69074A43F010035361064AFB7911
:1005C400D360012001F0FEFEFFF77AFE00BF08377A
:1005D400BD4680BD001801400008014080B582B0CE
:1005E40000AF03460A46FB711346BB71134B5B69AC
:1005F400124A43F004035361104B5B690F4A43F002
:1006040002035361BB79002B06D00C4B1B690B4AC8
:1006140043F02003136105E0084B5B69074A43F08C
:1006240020035361064AFB79D360012001F0CAFE1E
:10063400FFF746FE00BF0837BD4680BD00180140E5
:100644000008014080B500AF464B1B78012B02D156
:10065400FFF7CEFE01E0FFF74BFE02F0CBF8414B73
:100664001B78012B03D10820FFF756FF02E0082076
:10067400FFF724FF3B4B1B78012B04D10021002002
:10068400FFF7ACFF03E000210020FFF76DFF02F04D
:1006940097F8354B5B69344A43F08003536101207A
:1006A40006F026FD314B9B68DAB2314B9A712E4B22
:1006B4001B692D4A43F08003136102F09BF8294B18
:1006C4001B78012B04D100210120FFF787FF03E0F1
:1006D40000210120FFF748FF02F072F8224B5B690A
:1006E400214A43F080035361012006F001FD1F4BB2
:1006F4009B68DAB21E4B5A711B4B1B691A4A43F0B2
:100704008003136102F076F8164B1B78012B04D199
:1007140000210220FFF762FF03E000210220FFF71F
:1007240023FF02F04DF8104B5B690F4A43F080033E
:100734005361012006F0DCFC0C4B9B68DAB20C4BD5
:100744001A71094B1B69084A43F080031361054B76
:100754001B78012B02D1FFF787FD01E0FFF760FD55
:1007640000BF80BDDA0500200018014000080140E8
:10077400AC03002080B500AFFFF7BAFD02F03AF8F1
:100784000420FFF79BFE02F01BF8012006F0B0FCEA
:10079400474B5B69464A43F020035361444B5B6912
:1007A400434A43F010035361414B5B69404A43F0B1
:1007B40080035361012006F09BFC3E4B9B68DAB238
:1007C4003D4B1A713A4B1B69394A43F0800313615C
:1007D400322001F0F7FD364B1B69354A43F0200304
:1007E4001361334B1B69324A43F010031361304BDE
:1007F4005B692F4A43F080035361012006F078FCC3
:100804002C4B9B68DAB22C4B5A71294B1B69284A32
:1008140043F080031361322001F0D4FD244B5B6963
:10082400234A43F020035361214B1B69204A43F0C0
:10083400100313611E4B5B691D4A43F0800353612F
:10084400012006F055FC1B4B9B68DAB21A4B9A71D7
:10085400174B1B69164A43F080031361322001F0E1
:10086400B1FD134B1B69124A43F020031361104B73
:100874005B690F4A43F0100353610D4B5B690C4AEB
:1008840043F080035361012006F032FC094B9B685E
:10089400DAB2094BDA71064B1B69054A43F080034F
:1008A4001361322001F08EFDFFF7BAFC00BF80BD5A
:1008B4000018014000080140AC03002080B500AFDF
:1008C400FFF796FD01F096FF0420FFF725FE01F0E7
:1008D40077FF012006F00CFC474B5B69464A43F066
:1008E40020035361444B5B69434A43F0040353615F
:1008F400414B5B69404A43F080035361012006F099
:10090400F7FB3E4B9B68DAB23D4B1A713A4B1B69BD
:10091400394A43F080031361322001F053FD364B12
:100924001B69354A43F020031361334B1B69324A78
:1009340043F004031361304B5B692F4A43F0800397
:100944005361012006F0D4FB2C4B9B68DAB22C4B8C
:100954005A71294B1B69284A43F0800313613220E2
:1009640001F030FD244B5B69234A43F020035361BB
:10097400214B1B69204A43F0040313611E4B5B693E
:100984001D4A43F080035361012006F0B1FB1B4B69
:100994009B68DAB21A4B9A71174B1B69164A43F0DB
:1009A40080031361322001F00DFD134B1B69124AC1
:1009B40043F020031361104B5B690F4A43F00403B7
:1009C40053610D4B5B690C4A43F080035361012072
:1009D40006F08EFB094B9B68DAB2094BDA71064BC1
:1009E4001B69054A43F080031361322001F0EAFCDD
:1009F400FFF73AFC00BF80BD001801400008014029
:100A0400AC03002080B500AFFFF772FC01F0F2FEEA
:100A14006D4B5B696C4A43F0010353614020FFF75F
:100A24004DFD0A2001F0CEFC674B5B69664A43F03A
:100A340004035361644B1B69634A43F0020313616B
:100A4400624B1A79624BDA600A2001F0BBFCFFF7B3
:100A540037FC5D4B5B695C4A43F040035361012002
:100A640006F046FB584B1B69574A43F04003136199
:100A7400642006F03DFB544B5B69534A43F020036A
:100A84005361514B5B69504A43F01003536140205A
:100A9400FFF714FD4C4B5B694B4A43F0040353616D
:100AA400494B1B69484A43F002031361474B5A7987
:100AB400474BDA600A2001F085FCFFF701FC424B4A
:100AC4001B69414A43F0200313613F4B5B693E4A73
:100AD40043F0100353613C4B5B693B4A43F04003D2
:100AE4005361012006F004FB374B1B69364A43F07F
:100AF40040031361322006F0FBFA4020FFF7DEFCCE
:100B0400314B5B69304A43F0040353612E4B1B693C
:100B14002D4A43F0020313612C4B9A792C4BDA6073
:100B24000A2001F04FFCFFF7CBFB274B5B69264AF9
:100B340043F020035361244B1B69234A43F0100301
:100B44001361214B5B69204A43F040035361012048
:100B540006F0CEFA1C4B1B691B4A43F04003136199
:100B6400322006F0C5FA2020FFF7A8FC164B5B697B
:100B7400154A43F004035361134B1B69124A43F0B3
:100B840002031361114BDA79114BDA600A2001F088
:100B940019FCFFF795FBC82001F014FC0A4B5B69B4
:100BA400094A43F040035361012006F0A1FA064BC1
:100BB4001B69054A43F040031361322006F098FA9A
:100BC400FFF72EFB00BF80BD0018014098010020F4
:100BD4000008014080B500AFFFF70AFC01F00AFEEF
:100BE4004020FFF799FC0A2001F0ECFB644B5B69A1
:100BF400634A43F004035361614B1B69604A43F049
:100C0400020313615F4B1A795F4BDA600A2001F02B
:100C1400D9FBFFF755FB5A4B5B69594A43F0200354
:100C24005361574B5B69564A43F004035361544B79
:100C34005B69534A43F040035361962001F0C2FBC1
:100C44004F4B1B694E4A43F040031361322006F0B8
:100C54004FFA4020FFF760FC494B5B69484A43F078
:100C640004035361464B1B69454A43F00203136175
:100C7400444B5A79444BDA600A2001F0A3FBFFF796
:100C84001FFB3F4B1B693E4A43F0200313613C4B5F
:100C94005B693B4A43F040035361012006F028FAA4
:100CA400374B1B69364A43F040031361322006F088
:100CB4001FFA4020FFF730FC314B5B69304A43F0A8
:100CC400040353612E4B1B692D4A43F00203136145
:100CD4002C4B9A792C4BDA600A2001F073FBFFF756
:100CE400EFFA274B5B69264A43F020035361244BF8
:100CF4001B69234A43F004031361214B5B69204AB7
:100D040043F040035361012006F0F2F91C4B1B69C8
:100D14001B4A43F040031361322006F0E9F9202016
:100D2400FFF7FAFB164B5B69154A43F00403536162
:100D3400134B1B69124A43F002031361114BDA7916
:100D4400114BDA600A2001F03DFBFFF7B9FA0A20E3
:100D540001F038FB0A4B5B69094A43F040035361D5
:100D6400012006F0C5F9064B1B69054A43F0400310
:100D74001361322006F0BCF9FFF776FA00BF80BD9C
:100D840000180140980100200008014080B500AF20
:100D9400FFF7AEFA01F02EFD8020FFF78FFB0B4B1F
:100DA4005B690A4A43F040035361C82001F00AFB1F
:100DB400064B1B69054A43F040031361322006F0D9
:100DC40097F9FFF72DFA00BF80BD00BF001801405E
:100DD40080B500AFFFF70CFB01F00CFD8020FFF79E
:100DE4009BFB094B5B69084A43F040035361642051
:100DF40006F07EF9044B1B69034A43F04003136178
:100E0400FFF732FA00BF80BD0018014080B582B000
:100E140000AFFFF76DFA01F0EDFC0320FFF74EFB86
:100E240000237B6056E000233B6035E001F0E2FCE8
:100E34003A687B6813441B12DBB201211846FFF7A2
:100E440093FB3B68DAB27B68DBB21344DBB200216C
:100E54001846FFF789FB01F0B3FC254B5B69244A74
:100E640043F020035361224B5B69214A43F0800322
:100E74005361012001F0A6FA1E4B9A683B680433C3
:100E8400D1B21D4AD1541A4B1B69194A43F080034D
:100E940013613B6801333B603B681F2BC6DD164B77
:100EA400AC221A70144B00225A70134B20229A70F1
:100EB400114BA422DA7024210F4802F01DFF00BF59
:100EC4000E4B1B78002BFBD00C4B00221A707B6856
:100ED40020337B607A680A4B1B689A42A3D301F0E3
:100EE40089FCFFF79DF900BF0837BD4680BD00BFF0
:100EF4000018014000080140AC030020A9080020AC
:100F0400C805002080B582B000AFFFF771FA01F088
:100F140071FC0320FFF700FB00237B6056E00023F5
:100F24003B6035E001F066FC3A687B6813441B12B1
:100F3400DBB201211846FFF751FB3B68DAB27B684C
:100F4400DBB21344DBB200211846FFF747FB01F084
:100F540037FC254B5B69244A43F020035361224B41
:100F64005B69214A43F080035361012001F02AFAAE
:100F74001E4B9A683B680433D1B21D4AD1541A4BB4
:100F84001B69194A43F0800313613B6801333B60DA
:100F94003B681F2BC6DD164BAC221A70144B002283
:100FA4005A70134B20229A70114BA422DA70242118
:100FB4000F4802F0A1FE00BF0E4B1B78002BFBD0A4
:100FC4000C4B00221A707B6820337B607A680A4BD2
:100FD4001B689A42A3D301F00DFCFFF745F900BF4B
:100FE4000837BD4680BD00BF00180140000801401D
:100FF400AC030020A9080020C805002080B582B0F9
:1010040000AF00237B6062E0404B1A687B681344A6
:101014001B0ADBB201211846FFF7A6FA00233B6046
:1010240039E03A4B1B68DAB27B68DBB21344DAB2BC
:101034003B68DBB21344DBB200211846FFF794FA95
:10104400334B1B69324A43F002031361304B5B6933
:101054002F4A43F0040353617A683B681344043312
:101064002C4AD25C2C4BDA60FFF72AF9284B1B6917
:10107400274A43F001031361012001F0A3F9244B33
:101084005B69234A43F0010353610A2001F09AF992
:101094003B6801333B603A68204B1B689A42C0D3DB
:1010A4001B4B5B691A4A43F040035361C82001F0AB
:1010B40089F9174B1B69164A43F040031361052055
:1010C40006F016F87A68154B1B6813447B607B683E
:1010D4001F2B99DD0D4B1B6820330C4A1360104BFA
:1010E400AC221A700E4B00225A700D4B01229A70DA
:1010F4000B4BA622DA700A4B00221A71052108480C
:1011040002F0FAFD00BF0837BD4680BDC4050020CB
:10111400001801409801002000080140CC0500207F
:10112400AC03002080B582B000AF00237B6062E096
:10113400404B1A687B6813441B0ADBB20121184632
:10114400FFF74CFA00233B6039E03A4B1B68DAB2F4
:101154007B68DBB21344DAB23B68DBB21344DBB224
:1011640000211846FFF73AFA334B1B69324A43F021
:1011740002031361304B5B692F4A43F0040353614C
:101184007A683B68134404332C4AD25C2C4BDA60F3
:10119400FFF796F8284B1B69274A43F02003136195
:1011A400012001F00FF9244B5B69234A43F020032B
:1011B40053610A2001F006F93B6801333B603A6849
:1011C400204B1B689A42C0D31B4B5B691A4A43F0FD
:1011D40040035361C82001F0F5F8174B1B69164A08
:1011E40043F040031361042005F082FF7A68154B35
:1011F4001B6813447B607B681F2B99DD0D4B1B68B8
:1012040020330C4A1360104BAC221A700E4B002290
:101214005A700D4B01229A700B4BA622DA700A4BBE
:1012240000221A710521084802F066FD00BF083744
:10123400BD4680BDC405002000180140980100206F
:1012440000080140CC050020AC03002080B582B02A
:1012540000AFFFF74DF801F0CDFA0220FFF72EF9A9
:1012640000237B6084E000233B6060E001F0C2FA6D
:101274007B68DA0F13445B1019463B68DA0F13449A
:101284005B100B441A46404B1A60404B1B78022BF0
:101294000DD13F4B1B693E4A43F0100313613A4B97
:1012A4001B681B0CDBB200211846FFF75DF9364BB7
:1012B4001B681B0ADBB201211846FFF755F9324BB4
:1012C4001B68DBB200211846FFF74EF901F078FAEB
:1012D4002F4B5B692E4A43F0200353612C4B5B690F
:1012E4002B4A43F080035361012001F06BF8294B32
:1012F4009A683B680433D1B2274AD154244B1B6902
:10130400234A43F020031361012001F05BF8214BD1
:101314009A683B680533D1B21F4AD1541C4B1B69F0
:101324001B4A43F0800313613B6802333B603B6814
:10133400B3F5007F9ADB184BAC221A70164B0222CD
:101344005A70154B00229A70134BA822DA704FF48E
:101354000171114802F0D0FC00BF104B1B78002B28
:10136400FBD00E4B00221A707B6803F500737B6080
:101374007A680B4B1B689A42FFF475AFFEF750FF77
:1013840000BF0837BD4680BDC0050020DA05002037
:101394000018014000080140AC030020A908002007
:1013A400C805002080B582B000AFFFF721F801F036
:1013B40021FA0220FFF7B0F800237B6072E00023DB
:1013C4003B604EE001F016FA7B68DA0F13445B10C1
:1013D40019463B68DA0F13445B100B441A46374B2B
:1013E4001A60364B1B681B0ADBB201211846FFF753
:1013F400F5F8324B1B68DBB200211846FFF7EEF814
:1014040001F0DEF92E4B5B692D4A43F02003536152
:101414002B4B5B692A4A43F080035361012000F09F
:10142400D1FF284B9A683B680433D1B2264AD15481
:10143400234B1B69224A43F020031361012000F06F
:10144400C1FF204B9A683B680533D1B21E4AD15480
:101454001B4B1B691A4A43F0800313613B68023338
:101464003B603B68B3F5007FACDB174BAC221A70D2
:10147400154B02225A70144B00229A70124BA82268
:10148400DA704FF40171104802F036FC00BF0F4BC4
:101494001B78002BFBD00D4B00221A707B6803F5E0
:1014A40000737B607A680A4B1B689A4287D3FEF705
:1014B400DBFE00BF0837BD4680BD00BFC00500206D
:1014C4000018014000080140AC030020A9080020D6
:1014D400C805002080B500AF124B1B78012B02D148
:1014E40000F0D0F808E00F4B1B78032B02D100F07A
:1014F4006BF901E000F01AF80B4BAC221A700A4B9E
:1015040000225A70084B01229A70074BAA22DA7003
:10151400054B00221A710521034802F0EDFB00BFC0
:1015240080BD00BFDA050020AC03002080B584B084
:1015340000AF4F4B1B791A044D4B5B791B021343CD
:101544004B4A92791343DA0F13445B107B600023F8
:10155400FB601020FEF7B2FF0023BB6043E0FB6892
:10156400DAB27B68DBB21344DBB200211846FEF723
:10157400FBFF404B1B693F4A43F0020313613D4BA1
:101584005B693C4A43F004035361BB680733384A40
:10159400D25C394BDA60FEF793FE364B1B69354A51
:1015A40043F020031361BB680833314AD25C324BE9
:1015B400DA60FEF785FE2F4B1B692E4A43F00103C8
:1015C4001361012000F0FEFE2A4B5B69294A43F0B7
:1015D40001035361012000F0F5FEFB680133FB6059
:1015E400BB680233BB60BA68244B1B689A42B6D30B
:1015F4007B681B0ADBB201211846FEF7B5FF204BBE
:101604001B78022B0CD11B4B1B691A4A43F01003A5
:1016140013617B681B0CDBB200211846FEF7A4FFA4
:10162400144B5B69134A43F040035361012000F0FB
:10163400C9FE104B1B690F4A43F040031361082095
:1016440005F056FD0B4B1B690A4A43F00403136172
:10165400084B5B69074A43F002035361064B0022BF
:10166400DA60FEF72DFE00BF1037BD4680BD00BF17
:10167400980100200018014000080140CC0500201A
:10168400DA05002080B584B000AF4B4B1B791A04F7
:10169400494B5B791B021343474A92791343DA0F90
:1016A40013445B107B600023FB601020FEF734FFC3
:1016B4000023BB604CE0FB68DAB27B68DBB2134406
:1016C400DBB200211846FEF789FF3C4B1B693B4AFD
:1016D40043F002031361394B5B69384A43F0040356
:1016E4005361BB680733344AD25C354BDA60FEF78A
:1016F400E7FD324B1B69314A43F020031361BB6899
:1017040008332D4AD25C2E4BDA60FEF7D9FD2B4B01
:101714005B692A4A43F0200353610A2000F052FE19
:10172400264B1B69254A43F020031361012000F076
:1017340049FE224B5B69214A43F020035361012097
:1017440000F040FEFB680133FB60BB680233BB6002
:10175400BA681C4B1B689A42ADD37B681B0ADBB288
:1017640001211846FEF73AFF144B5B69134A43F014
:1017740040035361012000F025FE104B1B690F4A02
:1017840043F040031361082005F0B2FC0B4B1B69C6
:101794000A4A43F004031361084B5B69074A43F0A8
:1017A40002035361064B0022DA60FEF789FD00BF95
:1017B4001037BD4680BD00BF9801002000180140CD
:1017C40000080140CC05002080B584B000AF2F4B49
:1017D4001B791A042D4B5B791B0213432B4A927914
:1017E4001343DA0F13445B107B600023FB6010216A
:1017F4004C2000F04FF80023BB6027E0FB68DAB20E
:101804007B68DBB21344DBB219460C2000F042F8CB
:10181400BB6807331D4AD35C19462C2000F03AF804
:10182400BB680833194AD35C19463C2000F032F8EF
:1018340000217D2000F02EF800217C2000F02AF801
:10184400FB680133FB60BB680233BB60BA68104BB2
:101854001B689A42D2D37B681B0ADBB219461C2050
:1018640000F018F80021642000F014F800216C2026
:1018740000F010F8082005F03BFC00214C2000F09B
:1018840009F800BF1037BD4680BD00BF9801002095
:10189400CC05002080B586B000AF03460A46FB7134
:1018A4001346BB710023FB82FB799BB29B00FB8137
:1018B400BB799BB29B00BB8100233B6154E00120B8
:1018C40000F080FDFA893B69C3F10A0342FA03F38D
:1018D40003F00103002B06D0294B1B69284A43F06F
:1018E4000203136105E0264B5B69254A43F00203BA
:1018F4005361BA893B69C3F10A0342FA03F303F063
:101904000103002B06D01E4B1B691D4A43F0010343
:10191400136105E01A4B5B69194A43F001035361F3
:10192400174B1B69164A43F004031361012000F0AE
:1019340049FD134B5B69124A43F004035361114B95
:101944009B6803F00103002B0BD03B69C3F10A032E
:10195400012202FA03F31AB2B7F9163013431BB289
:10196400FB823B6901333B613B690A2BA7DDFB8AA0
:10197400DB089BB2DBB218461837BD4680BD00BFFA
:10198400001801400008014080B500AF264B1B69D8
:10199400254A43F010031361234B5B69224A43F049
:1019A4000403536100F026FF1F4B5B691E4A43F09A
:1019B400010353611C4B5B691B4A43F002035361EF
:1019C4001A4B5B69194A43F001035361184B5B6975
:1019D400174A43F001035361164B5B69154A43F4FC
:1019E400807353610A2005F083FB0F4B5B690E4A39
:1019F40043F0100353610E4B5B690D4A43F001033E
:101A040053610C4B1B690B4A43F4807313614FF40D
:101A1400FA7005F06DFB00F0D3FE4FF4FA7000F09D
:101A2400D1FC00BF80BD00BF001801400008014088
:101A3400000C01400010014080B582B000AF0023CB
:101A4400FB80322000F0BEFC0FE00A2000F0BAFC5C
:101A5400FB880133FB80FB8840F6FF72934204D17C
:101A640002F01EF9FEF700FC05E0044B9B6803F04E
:101A74000103002BE9D00837BD4680BD00080140B2
:101A840080B500AFFFF780FF08214C20FFF702FF6D
:101A940000210C20FFF7FEFE00216820FFF7FAFE6C
:101AA40000216C20FFF7F6FE03461A46164B9A7186
:101AB40008214C20FFF7EEFE01210C20FFF7EAFE7F
:101AC40000216820FFF7E6FE00216C20FFF7E2FE0C
:101AD40003461A460C4B5A7108214C20FFF7DAFED4
:101AE40002210C20FFF7D6FE00216820FFF7D2FE6A
:101AF40000216C20FFF7CEFE03461A46024B1A71F2
:101B0400FEF7B2FB00BF80BDAC03002080B500AF80
:101B1400FFF73AFF04214C20FFF7BCFE00216820A8
:101B2400FFF7B8FE00216C20FFF7B4FE03461A4607
:101B34001A4B1A7104214C20FFF7ACFE00217A20C5
:101B4400FFF7A8FE00217E20FFF7A4FE03461A46F5
:101B5400124B5A7104214C20FFF79CFE00216A208D
:101B6400FFF798FE00216E20FFF794FE03461A4605
:101B74000A4B9A7104214C20FFF78CFE0021782037
:101B8400FFF788FE00217C20FFF784FE03461A46F7
:101B9400024BDA71FEF768FB00BF80BDAC03002086
:101BA40080B500AFFFF7F0FE40214C20FFF772FE36
:101BB400274B1B7919462C20FFF76CFE002164206B
:101BC400FFF768FE00216C20FFF764FEFFF734FF87
:101BD40040214C20FFF75EFE1D4B5B7919462C20FB
:101BE400FFF758FE00217420FFF754FE00217C20EB
:101BF400FFF750FEFFF720FF40214C20FFF74AFE7D
:101C0400134B9B7919462C20FFF744FE00216620D4
:101C1400FFF740FE00216E20FFF73CFEFFF70CFFAC
:101C240020214C20FFF736FE094BDB7919462C2086
:101C3400FFF730FE00216420FFF72CFE00216C200A
:101C4400FFF728FEFFF7F8FEFEF70EFB00BF80BD8E
:101C54009801002080B500AFFFF796FE80214C204C
:101C6400FFF718FE00216420FFF714FE00216C200A
:101C7400FFF710FEFFF7E0FEFEF7F6FA00BF80BDA7
:101C840090B583B000AFFFF77FFE03214C20FFF730
:101C940001FE00237B6044E000233B6023E03B68BB
:101CA400DAB27B68DBB21344DBB219460C20FFF7CF
:101CB400F1FD3A687B6813441B12DBB219461C2001
:101CC400FFF7E8FD00216820FFF7E4FD3B681C1DD9
:101CD40000216C20FFF7DEFD03461A46164B1A5509
:101CE4003B6801333B603B681F2BD8DD124BAC22B1
:101CF4001A70114B00225A700F4B20229A700E4B0F
:101D0400A422DA7024210C4801F0F6FF00BF0B4B2B
:101D14001B78002BFBD0094B00221A707B68203300
:101D24007B607A68064B1B689A42B5D3FEF79CFA2F
:101D340000BF0C37BD4690BDAC030020A9080020AD
:101D4400C805002080B582B000AF00237B604EE060
:101D5400364B1A687B6813441B0ADBB20121184610
:101D6400FEF73CFC00233B602DE0304B1B68DAB2ED
:101D74007B68DBB21344DAB23B68DBB21344DBB2F8
:101D840019460C20FFF786FD284B1A687B6813441C
:101D94001B0ADBB219461C20FFF77CFD7A683B68FE
:101DA40013440433224AD35C19462C20FFF772FDF6
:101DB40000216D20FFF76EFD00216C20FFF76AFD06
:101DC4003B6801333B603A681A4B1B689A42CCD398
:101DD40000216420FFF75EFD00216C20FFF75AFD0F
:101DE400FFF72AFE7A68134B1B6813447B607B68F9
:101DF4001F2BADDD0D4B1B6820330C4A13600E4BBB
:101E0400AC221A700C4B00225A700B4B01229A70B0
:101E1400094BA622DA70084B00221A7105210648E4
:101E240001F06AFF00BF0837BD4680BDC40500202D
:101E340098010020CC050020AC03002090B583B0AD
:101E440000AFFFF7A1FD02214C20FFF723FD002383
:101E54007B6056E000233B603AE07B68DA0F134472
:101E64005B1019463B68DA0F13445B100B441A46A7
:101E7400294B1A60284B1B68DBB219460C20FFF76C
:101E840009FD254B1B681B0ADBB219461C20FFF712
:101E940001FD00216820FFF7FDFC3B681C1D0021AB
:101EA4006C20FFF7F7FC03461A461C4B1A55002119
:101EB4007820FFF7EFFC3B685C1D00217C20FFF7D6
:101EC400E9FC03461A46154B1A553B6802333B603E
:101ED4003B68B3F5007FC0DB104BAC221A700F4B8C
:101EE40002225A700D4B00229A700C4BA822DA7011
:101EF4004FF40171094801F0FFFE7B6803F500739C
:101F04007B607A68064B1B689A42A3D3FEF7ACF950
:101F140000BF0C37BD4690BDC0050020AC030020B7
:101F2400C805002080B500AF00F04AFC354B5B6962
:101F3400344A43F004035361642000F043FA314B04
:101F44001B69304A43F004031361642000F03AFA39
:101F54002C4B1B692B4A43F0010313612A4B5B6929
:101F6400294A43F480735361274B1B69264A43F083
:101F740020031361302001F005FF0A2000F022FA4B
:101F8400224B9B68DAB2224B9A711E4B1B691D4A85
:101F940043F0010313611C4B5B691B4A43F48073D8
:101FA4005361194B1B69184A43F020031361312014
:101FB40001F0E8FE0A2000F005FA144B9B68DAB23F
:101FC400134B5A710F4B1B690E4A43F00103136103
:101FD4000D4B5B690C4A43F4807353610A4B1B69D4
:101FE400094A43F020031361322001F0CBFE0A209A
:101FF40000F0E8F9054B9B68DAB2054B1A7100BF93
:1020040080BD00BF000C01400010014000080140E9
:10201400AC03002080B500AF00F0ECFB434B1B6920
:10202400424A43F004031361414B1B69404A43F0A5
:10203400200313613D4B5B693C4A43F00103536148
:102044003B4B1B693A4A43F4807313614FF4487065
:1020540005F04EF8374BDB7903F00103002B18D160
:102064004FF4703001F08EFE0A2000F0ABF9304BD3
:102074005B692F4A43F020035361782000F0A2F9F2
:102084002B4B1B692A4A43F020031361022005F0FD
:102094002FF8284BDB7903F00203002B18D14FF4FF
:1020A400404001F06FFE0A2000F08CF9204B5B6980
:1020B4001F4A43F020035361782000F083F91C4B3E
:1020C4001B691B4A43F020031361022005F010F83A
:1020D400184BDB7903F00403002B18D14FF4A03024
:1020E40001F050FE0A2000F06DF9114B5B69104AB3
:1020F40043F020035361782000F064F90C4B1B6912
:102104000B4A43F020031361022004F0F1FF074B54
:102114001B69064A43F001031361054B5B69044ADA
:1021240043F48073536100BF80BD00BF000C0140C5
:10213400001001409801002080B500AF1F4B1B69BF
:102144001E4A43F0040313611D4B1B691C4A43F0F0
:1021540020031361194B5B69184A43F0010353616F
:10216400174B1B69164A43F4807313614FF4804084
:1021740001F008FE4FF4487004F0BAFF104B5B699D
:102184000F4A43F0200353610F2004F0B1FF0C4BBE
:102194001B690B4A43F020031361642004F0A8FF79
:1021A400064B1B69054A43F001031361044B5B6949
:1021B400034A43F48073536100BF80BD000C0140A7
:1021C4000010014080B582B000AF00F0F9FA354B41
:1021D4005B69344A43F004035361642000F0F2F86D
:1021E400304B1B692F4A43F004031361642000F051
:1021F400E9F82C4B1B692B4A43F0010313612A4B6A
:102204005B69294A43F480735361274B1B69264A4F
:1022140043F02003136100237B6038E000233B601C
:1022240014E07A683B68134443F44033184601F0E1
:10223400A9FD0A2000F0C6F81C4B9A683B680433D9
:10224400D1B21B4AD1543B6801333B603B68B3F5C0
:10225400007FE6DB164BAC221A70154B02225A7033
:10226400134B00229A70124BA822DA704FF40171BA
:102274000F4801F041FD00BF0E4B1B78002BFBD033
:102284000C4B00221A707B6803F500737B607A683C
:10229400094B1B689A42C1D300BF00BF0837BD4633
:1022A40080BD00BF000C0140001001400008014047
:1022B400AC030020A9080020C805002080B582B026
:1022C40000AF2F4B1B692E4A43F0040313612D4BBF
:1022D4001B692C4A43F02003136100237B602EE02A
:1022E4007B680733284AD35CFF2B24D07A68274BBA
:1022F4001B68134443F46033184601F043FD7B68C4
:102304000733214AD25C224BDA600A2000F05AF8E3
:102314001C4B5B691B4A43F020035361782000F097
:1023240051F8184B1B69174A43F02003136102202C
:1023340004F0DEFE00E000BF7B6801337B607B6855
:10234400B3F5007FCCDB114B1B6803F500730F4A18
:102354001360104BAC221A700E4B00225A700D4BB6
:1023640001229A700B4BAA22DA700A4B00221A71CE
:102374000521084801F0C0FC00BF0837BD4680BDF8
:10238400000C01400010014098010020D0050020FD
:1023940000080140AC03002080B400AF074BDB69A8
:1023A400064A43F00403D361054B47229A62044B67
:1023B40008221A6000BFBD4680BC7047001002406E
:1023C4000008004080B483B000AF78600D4A7B6899
:1023D400D3620C4B00225A620A4B01221A6000BFDE
:1023E400084B1B6903F00103002BF9D0054B1B6953
:1023F400044A23F00103136100BF0C37BD4680BCBF
:10240400704700BF0008004080B483B000AF994B10
:102414009B69984A43F004039361964B9B6903F0CC
:1024240004037B607B68934B9B69924A43F00803E7
:102434009361904B9B698F4A43F0100393618D4BDA
:102444009B698C4A43F0200393618A4B9B69894AB8
:1024540043F040039361884B1B68874A43F400337D
:102464001360854B1B68844A23F480331360824BCA
:102474001B68814A23F4402313607F4B1B687E4A08
:1024840043F4401313607C4B1B687B4A23F44003E2
:1024940013607A4B1B68794A43F003031360774B4C
:1024A4001B68764A23F00C031360744B1B68734A51
:1024B40043F440731360714B1B68704A23F4406308
:1024C40013606F4B1B686E4A43F0030313606C4B3D
:1024D4001B686B4A23F00C031360694B1B68684A42
:1024E40043F030031360664B1B68654A23F0C00356
:1024F4001360634B1B68624A43F440731360604B80
:102504001B685F4A23F4406313605D4B1B685C4A9D
:1025140043F4405313605A4B1B68594A23F4404315
:102524001360574B1B68564A43F440331360544BB3
:102534001B68534A23F440231360514B1B68504AD1
:1025440043F4401313604E4B1B684D4A23F440037D
:1025540013604B4B1B684A4A43F040731360484B6B
:102564001B68474A23F040631360454B1B68444A89
:1025740043F040531360424B1B68414A23F04043ED
:1025840013603F4B5B683E4A43F0030353603C4B8C
:102594005B683B4A23F00C035360394B5B68384A51
:1025A40043F030035360364B5B68354A23F0C00375
:1025B4005360334B5B68324A43F440735360304B8F
:1025C4005B682F4A23F4406353602D4B5B682C4AAD
:1025D40043F4405353602A4B5B68294A23F4404335
:1025E4005360274B5B68264A43F440335360244BC3
:1025F4005B68234A23F440235360214B5B68204AE1
:1026040043F4401353601E4B5B681D4A23F440039C
:1026140053601B4B5B681A4A43F040735360184B7A
:102624005B68174A23F040635360154B5B68144A98
:1026340043F040535360124B5B68114A23F040430C
:102644005360104B5B680F4A43F0030353600D4B18
:102654005B680C4A23F00C0353600A4B5B68094A1D
:1026640043F030035360074B5B68064A23F0C00312
:102674000AE000BF0010024000100140000C0140BD
:10268400001801400014014053604A4B5B68494AFA
:1026940043F440735360474B5B68464A23F44063FA
:1026A4005360444B5B68434A43F440535360414B8B
:1026B4005B68404A23F4404353603E4B5B683D4AA9
:1026C40043F4403353603B4B5B683A4A23F4402362
:1026D4005360384B5B68374A43F440135360354BBF
:1026E4005B68344A23F440035360324B5B68314ADD
:1026F40043F0407353602F4B5B682E4A23F04063D2
:1027040053602C4B5B682B4A43F040535360294B76
:102714005B68284A23F040435360274B1B68264AD2
:1027240043F440531360244B1B68234A23F440436F
:102734001360204B1B681F4A43F4403313601D4B46
:102744001B681C4A23F4402313601C4B5B681B4A20
:1027540043F003035360194B5B68184A23F00C03DE
:102764005360164B1B68154A43F040531360134BD8
:102774001B68124A23F0404313600F4B5B680E4AF8
:1027840043F4403353600C4B5B680B4A23F44023FF
:102794005360094B1B68084A43F440131360064B0B
:1027A4001B68054A23F44003136000BF0C37BD4681
:1027B40080BC704700140140000C0140001001402F
:1027C40080B400AF084B4FF088321A60074B4FF0CB
:1027D40088321A60064B5B69054A43F01003536163
:1027E40000BFBD4680BC7047000801400014014092
:1027F4000010014080B400AF084B4FF033321A6030
:10280400074B4FF033321A60064B1B69054A43F0FD
:102814001003136100BFBD4680BC7047000801402F
:10282400001401400010014080B483B000AF03469F
:10283400FB71554B9B69544A43F008039361534B16
:102844005B68524A43F44C535360504B5B684F4AA5
:1028540043F44C4353604C4BDB694B4A43F48003D1
:10286400D3614B4B1B684A4A43F400431360484B03
:102874001B68474A23F400431360454BDB68444A12
:1028840023F00103D360424B1B68414A23F0400309
:1028940013603F4B1B683E4A23F0800313603C4B9C
:1028A4001B683B4A23F001031360394B5B6823F038
:1028B4003F03374A43F024035360FB79002B12D1C2
:1028C400334B1B6A23F03F03314A43F02503136261
:1028D4002F4BDB6923F44F4323F0FF032C4A43F0CF
:1028E400B403D36129E0FB79012B14D1284B1B6A73
:1028F40023F03F03264A43F00B031362244BDB69A6
:1029040023F44F4323F0FF03214A43F4004343F0ED
:102914001E03D36111E01E4B1B6A23F03F031C4AC4
:1029240043F0250313621A4BDB6923F44F4323F06E
:10293400FF03174A43F0B403D361154B9B6823F498
:10294400434323F0FF03124A43F480439360104B44
:102954001B680F4A23F01A0313600D4B1B680C4AC3
:1029640043F0010313600A4B1B68094A43F4806374
:102974001360074BDB68064A23F0FE03D36000BFF5
:102984000C37BD4680BC704700100240000C01406B
:102994000058004080B485B000AF3B600346FB7133
:1029A4000B46BB801346BB714FF6FF73FB81634B31
:1029B4001B68624A23F400631360604B1B685F4A20
:1029C40043F4806313605D4B1B685C4A43F480737B
:1029D40013604FF6FF73FB8102E0FB89013BFB812F
:1029E400564B5B6903F00103002B02D1FB89002BDA
:1029F400F3D1FB89002B01D101239AE04F4B5B6992
:102A04004E4B1B6923F0FF02FB794C4913430B61C6
:102A14004FF6FF73FB8102E0FB89013BFB81474BCF
:102A24005B6903F00203002B02D1FB89002BF3D175
:102A3400FB89002B01D101237BE0404B5B693F4BB9
:102A44009B69BB79022B20D13C4B1B6923F0FF030C
:102A5400BA88120A92B2D2B21146384A0B431361B1
:102A64004FF6FF73FB8102E0FB89013BFB81334B93
:102A74005B6903F08003002B02D1FB89002BF3D1A7
:102A8400FB89002B01D1012353E02C4B1B6923F05C
:102A9400FF03BA88D2B21146284A0B4313614FF69A
:102AA400FF73FB8102E0FB89013BFB81234B5B69E4
:102AB40003F08003002B02D1FB89002BF3D1FB89A7
:102AC400002B01D1012334E00023BB6026E01B4B23
:102AD4001B6923F0FF03B98BBA680A4411463A68AC
:102AE4000A4412781146154A0B4313614FF6FF73DB
:102AF400FB8102E0FB89013BFB81104B5B6903F026
:102B04008003002B02D1FB89002BF3D1FB89002B1E
:102B140001D101230DE0BB680133BB603B8BBA6874
:102B24009A42D4DB054B1B68044A43F400731360D8
:102B3400002318461437BD4680BC70470058004037
:102B440080B485B000AF3B600346FB710B46BB719C
:102B54001346BB804FF6FF73FB81934B1B68924A6D
:102B640023F400631360904B1B688F4A43F4806323
:102B740013608D4B1B688C4A43F48073136002E02E
:102B8400FB89013BFB81884B5B6903F00103002B4C
:102B940002D1FB89002BF3D1FB89002B01D1012346
:102BA400FCE0814B5B69804B1B6923F0FF02FB79DE
:102BB4007D4913430B614FF6FF73FB8102E0FB89F0
:102BC400013BFB81784B5B6903F00203002B02D1CC
:102BD400FB89002BF3D1FB89002B01D10123DDE01C
:102BE400714B5B69704B9B69BB79022B20D16E4B97
:102BF4001B6923F0FF03BA88120A92B2D2B21146BB
:102C0400694A0B4313614FF6FF73BB8102E0BB8932
:102C1400013BBB81644B5B6903F08003002B02D151
:102C2400BB89002BF3D1BB89002B01D10123B5E073
:102C34005D4B1B6923F0FF03BA88D2B211465A4A8E
:102C44000B4313614FF6FF73FB8102E0FB89013BE9
:102C5400FB81554B5B6903F08003002B02D1FB8998
:102C6400002BF3D1FB89002B01D1012396E04E4BBD
:102C74001B684D4A43F4807313604FF6FF73FB8166
:102C840002E0FB89013BFB81474B5B6903F00103D5
:102C9400002B02D1FB89002BF3D1FB89002B01D13E
:102CA40001237BE0404B5B693F4B1B6923F0FF032F
:102CB400FA7942F00102D2B211463B4A0B43136146
:102CC4004FF6FF73FB8102E0FB89013BFB81364B2E
:102CD4005B6903F00203002B02D1FB89002BF3D1C3
:102CE400FB89002B01D1012358E02F4B5B692E4B4C
:102CF4009B690023BB604CE0BB695A1EBB689A42C7
:102D04001CD94FF6FF73FB8102E0FB89013BFB8179
:102D1400254B5B6903F04003002B02D1FB89002B98
:102D2400F3D1FB89002B01D1012337E01E4B196934
:102D3400BB683A681344CAB21A7027E01A4B1B687E
:102D4400194A23F480631360174B1B68164A43F433
:102D5400007313604FF6FF73FB8102E0FB89013BB4
:102D6400FB81114B5B6903F04003002B02D1FB890B
:102D7400002BF3D1FB89002B01D101230EE00A4B78
:102D84001969BB683A681344CAB21A70BB68013344
:102D9400BB60BB68BA699A42AED8002318461437A0
:102DA400BD4680BC704700BF0058004080B500AFEE
:102DB40004F03CF900F068F8FFF726FB2D4B5B6943
:102DC4002C4A43F0200353610A2004F091F9294B63
:102DD4001B69284A43F020031361642004F088F936
:102DE4000AF054FDFFF7D8FA0020FFF71DFD062076
:102DF40003F074FFFFF7FEFC002000F0C3FF1E4B3E
:102E04005B691D4A43F0800353611A4B1B69194ADD
:102E140043F001031361184B5B69174A43F4807351
:102E24005361154B1B69144A43F020031361114B82
:102E34001B69104A43F004031361104B5B690F4A8A
:102E440043F0100353610E4B5B690D4A43F01003CA
:102E54005361084B1B69074A43F008031361094B8C
:102E64001B78002BFBD000F071F8064B00221A707F
:102E7400F5E700BF000C01400010014000180140BC
:102E840000140140A808002080B596B000AF07F1F7
:102E940030032822002118460BF0F6F907F11C0331
:102EA40000221A605A609A60DA601A613B1D00229F
:102EB4001A605A609A60DA601A615A6101233B63AE
:102EC4004FF480337B630023BB6301233B64022301
:102ED400FB644FF480333B654FF4E0137B6507F1EB
:102EE4003003184605F0F8FE0346002B01D000F02D
:102EF40027F80F23FB6102233B6200237B624FF41C
:102F04008063BB620023FB6207F11C0302211846A5
:102F140006F064F90346002B01D000F011F81023E9
:102F24007B600023BB613B1D184606F0BDFA0346D7
:102F3400002B01D000F004F800BF5837BD4680BD17
:102F440080B400AF72B600BFFEE7000080B582B067
:102F540000AF9C4B1B78DBB2AC2B03D000F0A0FE7F
:102F640000F08CBE974BDB78DBB2A03B5A2B00F20F
:102F74007E8601A252F823F033340008B3340008EB
:102F84002135000881350008E1350008393600088C
:102F9400DD3600080937000865370008C137000826
:102FA40071380008733C0008733C0008733C000847
:102FB400733C0008733C000885380008B7380008E3
:102FC400413900080D3A0008793A00087F3A0008B0
:102FD400733C0008273B0008733C0008733C00085E
:102FE400733C0008733C0008733C0008733C000801
:102FF400733C0008733C0008733C0008733C0008F1
:10300400733C0008733C0008733C0008733C0008E0
:10301400733C0008733C0008733C0008733C0008D0
:10302400733C0008733C0008733C0008733C0008C0
:10303400733C0008733C0008F1300008733C00083E
:10304400733C0008733C0008733C0008733C0008A0
:10305400733C0008733C0008733C0008733C000890
:10306400E9300008733C0008733C0008733C000816
:10307400733C0008733C0008CF3B0008F73B000892
:103084004D3C0008733C0008733C0008733C000886
:10309400733C0008733C0008733C0008733C000850
:1030A400733C0008733C0008733C0008733C000840
:1030B400733C0008733C0008F930000887310008AD
:1030C400E13100080F330008733C0008733C00082A
:1030D40039330008733C0008E1330008733C0008EE
:1030E400F333000800F0F2FD00F0C8BD00F062FE0A
:1030F40000F0C4BDFFF764FB334B5B69324A43F015
:1031040020035361314B1B69304A43F004031361BC
:103114002E4B1B692D4A43F0010313612A4B5B6953
:10312400294A43F480735361264B5B79DBB21A045A
:10313400244B9B79DBB21B021343224AD279D2B2CD
:1031440013431A46224B1A601E4B1B79DAB2214BE9
:103154001A701C4B1B7ADBB21B021AB2194B5B7A36
:10316400DBB21BB213431BB29AB21B4B1A8000F0A2
:10317400DDFE154B1B69144A43F02003136100F074
:103184007DBD124B1B69114A43F0040313610F4BBD
:103194001B690E4A43F0010313610B4B5B690A4A36
:1031A40043F480735361084B1B69074A43F02003BF
:1031B4001361044B1B79DAB2064B1A7002F0FAF968
:1031C40000F05CBD9801002000100140000C01409B
:1031D400C8050020DA050020D80500209D4B1B6996
:1031E4009C4A43F0200313619B4B1B699A4A43F0AA
:1031F40001031361974B5B69964A43F480735361EF
:10320400954B1B69944A43F004031361934B1B6968
:10321400924A43F480431361914B1B69904A43F4EF
:10322400806313618F4B00221A608F4B00221A6057
:10323400FFF7E0FA8D4B5B79DBB21A048B4B9B7979
:10324400DBB21B021343894AD279D2B213431A4622
:10325400874B1A60854B1B7BDBB21B02834A527B74
:10326400D2B213431A46834B1A60804B1B79DAB2ED
:10327400814B1A70804B1B78072B13D07E4B1B7825
:10328400112B0FD07C4B1B78122B0BD07A4B1B7855
:103294001B2B07D0784B1B78252B03D0764B1B7840
:1032A4002F2B0FD16C4B5B696B4A43F001035361C5
:1032B400684B1B69674A43F4807313614FF4487089
:1032C40003F016FF694B1B7ADBB21B021AB2674B81
:1032D4005B7ADBB21BB213431BB29AB2674B1A8000
:1032E400674BAC221A70664B00225A70644B012261
:1032F4009A70634BF322DA70614B00221A71052134
:103304005F4800F0F9FC00F0B9BC584B9B79DBB284
:103314001A46564B5B79DBB21B021A43534B1B799B
:10332400DBB21B0413431A46564B1A6001F054F9DE
:1033340000F0A4BCFFF75EFA464B1B69454A43F014
:1033440020031361444B1B69434A43F00103136197
:10335400404B5B693F4A43F4807353613E4B1B69A6
:103364003D4A43F0040313613E4B00221A603E4B76
:1033740000221A60FFF73EFA3C4B5B79DBB21A0479
:103384003A4B9B79DBB21B021343384AD279D2B24F
:1033940013431A46364B1A60344B9B7ADBB21B023A
:1033A400324AD27AD2B213431A46324B1A602F4BA6
:1033B4001B79DAB2304B1A702C4B1B7BDBB21B022D
:1033C4001AB22A4B5B7BDBB21BB213431BB29AB219
:1033D4002A4B1A8002F01CFD00F050BC234B1B79D1
:1033E400DAB2254B1A7003F0B5F800F047BC1A4B5B
:1033F4001B69194A43F001031361164B5B69154AB3
:1034040043F480735361134B5B69124A43F08003A6
:103414005361104B1B690F4A43F0200313610E4B99
:103424001B690D4A43F00403136100F027BC0F4BE2
:103434001B79DAB2104B1A700F4B1B78032B02D195
:10344400FEF71EFB22E00C4B1B78072B1CD1FEF76A
:1034540069FD1BE000100140000C01400018014010
:1034640000140140D0050020D4050020980100205C
:10347400C8050020CC050020DA050020D80500206E
:10348400AC030020C0050020FDF7DCF8A44BAC22FF
:103494001A70A34B00225A70A14B03229A70A04BBE
:1034A400A022DA7007219E4800F026FCE6E39D4B3B
:1034B4001B79DAB29C4B1A709B4B1B78012B02D1FF
:1034C400FDF7FCF919E0984B1B78032B02D1FEF7AA
:1034D4001DFB12E0944B1B78072B0CD1904B002260
:1034E4001A718F4B00225A718D4B00229A718C4BAA
:1034F4000022DA7101E0FDF73DF9894BAC221A7024
:10350400874B00225A70864B04229A70844BA12266
:10351400DA700821824800F0EFFBAFE3814B1B7A9D
:10352400DAB2814B1A70804B1B78012B02D1FDF764
:1035340051FB0FE07C4B1B78032B02D1FEF730FBD1
:1035440008E0794B1B78072B02D1FEF763FD01E0FD
:10355400FDF758FA724BAC221A70714B00225A7064
:103564006F4B01229A706E4BA222DA706C4B0022D0
:103574001A7105216A4800F0BFFB7FE3694B1B7990
:10358400DAB2694B1A70684B1B78012B02D1FDF734
:103594001FFC0FE0644B1B78032B02D1FEF75AFB90
:1035A40008E0614B1B78072B02D1FEF7C5FD01E053
:1035B400FDF7ECFB5A4BAC221A70594B00225A709F
:1035C400574B01229A70564BA322DA70544BA12216
:1035D4001A710521524800F08FFB4FE3514B1B79C0
:1035E400DBB21A464F4B5B79DBB21B021A434D4BDD
:1035F4009B79DBB21B0413431A464C4B1A60494BAC
:10360400DB79DAB2484B1A70474B1B78012B02D195
:10361400FDF778FC32E3444B1B78032B02D1FEF711
:103624002FFB2BE3404B1B78072B00F02283FDF785
:10363400EDFB23E33E4B00221A603A4B1B79DBB2CD
:103644001A46384B5B79DBB21B021A43354B9B7924
:10365400DBB21B0413431A46344B1A60314BDB793B
:10366400DBB21A46334B1A602E4B1B7ADAB22E4B5E
:103674001A702D4B1B78012B05D1FCF7B9FE1120D4
:10368400FCF74AFF14E0284B1B78032B06D1FEF706
:103694007BF911214C20FEF7FDF809E0224B1B7841
:1036A400072B00F0E882FCF723FE1120FCF706FF4D
:1036B4001B4BAC221A701A4B00225A70184B012271
:1036C4009A70174BA622DA70154B00221A71052145
:1036D400134800F011FBD1E2134B1B78012B02D1EC
:1036E400FDF720FDCAE2104B1B78032B02D1FEF735
:1036F40029FBC3E20C4B1B78072B00F0BE82FDF7BD
:103704007DFCBBE2084B1B78012B02D1FCF7ACFD1E
:10371400B4E2054B1B78032B0ED1FCF7A5FDADE2FB
:10372400AC03002098010020DA050020C805002021
:10373400C4050020CC050020A94B1B78072B0CD115
:10374400A84B1B69A74A43F001031361A64B5B69AD
:10375400A54A43F48073536190E2FCF761FD8DE266
:10376400A24B1B79DBB21A46A04B5B79DBB21B027E
:103774001A439E4B9B79DBB21B0413431A469C4BA2
:103784001A609A4BDB79DAB2954B1A70944B1B781A
:10379400012B02D1FDF706FE70E2914B1B78032B3F
:1037A40002D1FEF74BFB69E28D4B1B78072B02D14C
:1037B400FEF708FD62E2FDF749FD5FE28B4B1B79E2
:1037C400DBB21A46894B5B79DBB21B0213435B0005
:1037D4001A46884B1A60854B9B79DAB2804B1A7073
:1037E400854B00221A60854B00221A607C4B1B78A3
:1037F400012B02D1FCF7FCFD22E0794B1B78032B53
:1038040002D1FEF7C1F81BE0754B1B78072B15D1CD
:10381400784B1B685B08774A1360724B5B69714A8B
:1038240043F001035361704B1B696F4A43F4807387
:1038340013614FF4487003F05BFC01E0FCF758FDA2
:10384400FEF7D8FF6E4BAC221A706D4B00225A70F3
:103854006B4B01229A706A4BAA22DA70684B0022E1
:103864001A710521664800F047FA07E25C4B1B78A1
:10387400072B02D1FEF722FD00E2FDF72BFEFDE14E
:103884005A4B1B79DBB21A46584B5B79DBB21B02ED
:103894001A43564B9B79DBB21B041A43534BDB7917
:1038A400DBB21B0613431A46514B1A6002F020FF89
:1038B400E4E10023FB700023BB7000237B70494BC1
:1038C4005B69484A43F4805353619F2003F00EFB25
:1038D400002003F00BFB03467B70002003F006FB83
:1038E4000346FB70002003F001FB0346BB7000BFDE
:1038F400444B9B6803F08003002BF9D1394B1B69BF
:10390400384A43F4805313613D4BAC221A703C4B4C
:1039140000225A703A4B03229A70394BB122DA7062
:10392400374AFB781371364ABB785371344A7B7833
:1039340093710721324800F0DFF99FE100237B7186
:1039440000233B71274B5B69264A43F48053536140
:10395400052003F0CBFA002003F0C8FA03467B717C
:1039640000BF284B9B6803F08003002BF9D11D4B4B
:103974001B691C4A43F4805313611A4B5B69194A4F
:1039840043F480535361352003F0B0FA002003F070
:10399400ADFA03463B7100BF1A4B9B6803F08003EA
:1039A400002BF9D10F4B1B690E4A43F4805313616A
:1039B400134BAC221A70124B00225A70104B022285
:1039C4009A700F4BB222DA700D4A7B7913710C4A4C
:1039D4003B79537106210A4800F08EF94EE100BF8D
:1039E400DA050020000C014000100140980100207D
:1039F400C8050020CC050020D0050020D4050020F7
:103A0400AC030020003800409E4B1B79DBB21A4601
:103A14009C4B5B79DBB21B021A439A4B9B79DBB25A
:103A24001B041A43974BDB79DBB21B0613431A467C
:103A3400954B1A60934B1B7ADBB21A46914B5B7A17
:103A4400DBB21B0213431A46904B1A60904BAC2214
:103A54001A708F4B00225A708D4B01229A708C4B36
:103A6400B422DA708A4B00221A710521884800F0CA
:103A740043F903E102F0E2FE00E1864B5B69854A0B
:103A840043F480535361062003F030FA00BF824BA5
:103A94009B6803F08003002BF9D17E4B1B697D4AA0
:103AA40043F48053136100BF02F0A0FE034603F009
:103AB4000203002BF8D0774B5B69764A43F48053BA
:103AC4005361C72003F012FA00BF734B9B6803F0E5
:103AD4008003002BF9D16F4B1B696E4A43F480536A
:103AE400136100BF02F082FE034603F00103002BC2
:103AF400F8D041F2707003F0FBFA654BAC221A70F7
:103B0400634B00225A70624B01229A70604BB522BB
:103B1400DA705F4B00221A7105215D4800F0ECF861
:103B2400ACE0584B1B79FB71564B5B79BB71594B1D
:103B34005B69584A43F480535361502003F0D6F92B
:103B440000BF554B9B6803F08003002BF9D1514B08
:103B54001B69504A43F480531361322003F0C8FABE
:103B64004C4B5B694B4A43F480535361012003F08F
:103B7400BDF9BB79184603F0B9F9FB79184603F08F
:103B8400B5F900BF444B9B6803F08003002BF9D1C7
:103B9400404B1B693F4A43F480531361322003F0C6
:103BA400A7FA3B4BAC221A70394B00225A70384B9F
:103BB40001229A70364BB722DA70354B00221A7103
:103BC4000521334800F098F858E02E4B1B79DBB2FE
:103BD4001A462C4B5B79DBB21B021A43294B9B79A7
:103BE400DBB21B0413431A46274B1A6002F0E2FEB1
:103BF40044E0244B1B79DBB21A46224B5B79DBB2DF
:103C04001B021A431F4B9B79DBB21B0413431A4656
:103C14001D4B1A601B4BDB79DBB21A461B4B1A6037
:103C24001B4BAC221A701A4B00225A70184B0122FB
:103C34009A70174BE222DA70154B00221A71052193
:103C4400134800F059F819E00E4B9B79DBB21A4681
:103C54000C4B5B79DBB21B021A430A4B1B79DBB2B8
:103C64001B0413431A460D4B1A6002F051FF00BFA8
:103C740004E000BF02E000BF00E000BF0837BD461B
:103C840080BD00BF98010020C8050020CC0500209D
:103C9400AC030020000C014000380040C0050020A7
:103CA40080B582B000AFAC233B7000237B7001234E
:103CB400BB70EE23FB7000233B713B460521184685
:103CC40000F01AF800BF0837BD4680BD80B582B049
:103CD40000AFAC233B7000237B700123BB70DA235D
:103CE400FB7000233B713B460521184600F004F8A5
:103CF40000BF0837BD4680BD80B584B000AF786092
:103D04000B467B807B881946786809F0BBFE034626
:103D1400FB7397F90F30002BF4D100BF00BF1037AD
:103D2400BD4680BD80B584B000AF03463960FB71E9
:103D34001346BB80AC233B72BB881B0A9BB2DBB22D
:103D44007B72BB88DBB2BB72FB79FB7207F10803A1
:103D54000421184609F096FE0346FB7397F90F30C9
:103D6400002BF3D1BB881946386809F08BFE034653
:103D7400FB7397F90F30002BF4D100BF00BF10374D
:103D8400BD4680BD80B483B000AF7860074A7B68CD
:103D94009BB2D3607B681B0A054A03F47F43D3605C
:103DA40000BF0C37BD4680BC704700BF00180140FF
:103DB4000014014080B500AFFEF71CFD544BDB79C5
:103DC400DAB2544BDA60524B1B79DBB21A04504B13
:103DD4005B79DBB21B0213434D4A9279D2B213438F
:103DE4001A464D4B1A604C4B1B681846FFF7CAFF26
:103DF4004A4BDB68494A03F47F43D360444B1B7B43
:103E0400DAB2464BDB681146444A0B43D360404B5D
:103E14001B7ADBB2002B0CD03F4B1B6803F40073FE
:103E2400002B06D03E4B1B693D4A43F080031361CF
:103E340005E03B4B5B693A4A43F080035361344BE2
:103E44005B7ADBB2FF2B06D1354B1B69344A43F056
:103E54002003136105E0324B5B69314A43F02003D0
:103E640053612B4B9B7ADBB2002B1ED0284B1B7A61
:103E7400DBB2002B0CD02B4B5B692A4A43F00103C5
:103E84005361274B1B69264A43F48073136118E07E
:103E9400244B1B69234A43F001031361204B5B69E4
:103EA4001F4A43F4807353610BE01E4B5B691D4A48
:103EB40043F0010353611A4B5B69194A43F480735D
:103EC4005361134BDB7ADBB2002B06D0154B1B6915
:103ED400144A43F00403136105E0124B5B69114A71
:103EE40043F004035361104BAC221A700E4B0022B2
:103EF4005A700D4B01229A700B4BD022DA700A4B88
:103F0400AC221A7105210848FFF7F6FE00BF80BDF8
:103F14009801002000080140C4050020001401405D
:103F240000100140000C0140AC03002080B500AF3C
:103F3400FEF746FC9A4B1B78013B1A2B00F22D81AD
:103F440001A252F823F000BFB93F00089F410008C6
:103F54009F4100080D400008E33F00083740000877
:103F6400614000088B400008DF4000089F410008C2
:103F74009F4100089F410008094100089F41000833
:103F84009F4100089F4100084B410008B5400008CC
:103F94009F4100089F4100089F4100089F4100087D
:103FA4009F4100089F4100089F4100089F4100086D
:103FB4007541000800F0FAF87A4B1B69794A43F01E
:103FC40001031361784B5B69774A43F4807353614F
:103FD400744B1B69734A43F004031361DEE000F081
:103FE400E5F8704B1B696F4A43F0010313616E4B94
:103FF4005B696D4A43F4807353616A4B1B69694A78
:1040040043F004031361C9E000F0D0F8654B1B6969
:10401400644A43F001031361634B5B69624A43F4EE
:10402400807353615F4B1B695E4A43F00403136161
:10403400B4E000F0BBF85B4B1B695A4A43F0010340
:104044001361594B5B69584A43F480735361554B70
:104054001B69544A43F0040313619FE000F020F904
:10406400504B1B694F4A43F0010313614E4B5B698C
:104074004D4A43F4807353614A4B1B69494A43F0E8
:10408400040313618AE000F0FFF9464B1B69454ABB
:1040940043F001031361444B5B69434A43F4807367
:1040A4005361404B1B693F4A43F00403136175E0BD
:1040B40000F0EAF93B4B1B693A4A43F001031361F0
:1040C400394B5B69384A43F480735361354B1B6940
:1040D400344A43F00403136160E000F067F8314BA5
:1040E4001B69304A43F0010313612F4B5B692E4A6D
:1040F40043F4807353612B4B1B692A4A43F0040336
:1041040013614BE000F056F9264B1B69254A43F036
:1041140001031361244B5B69234A43F480735361A5
:10412400204B1B681F4A23F4407313601D4B1B680C
:104134001C4A23F4406313601A4B1B68194A43F466
:10414400806313602AE000F0ABF8164B1B69154A34
:1041540043F001031361144B5B69134A43F4807306
:104164005361104B1B690F4A43F00403136115E0BC
:1041740000F096F80B4B1B690A4A43F001031361E4
:10418400094B5B69084A43F480735361054B1B690F
:10419400044A43F00403136100E000BF00BF80BD84
:1041A400DA050020000C01400010014080B582B007
:1041B40000AF00237B605DE0334BAC221A70324BBE
:1041C40002225A70304B00229A702F4BF022DA7080
:1041D4002E4B5B692D4A43F02003536100233B605F
:1041E4002DE03A687B6813441846FFF7CBFD284B53
:1041F4005B69274A43F001035361244B5B69234AFB
:1042040043F4807353610120FEF7DCF8214B9A6874
:104214003B680433D1B21C4AD1541D4B1B691C4A60
:1042240043F001031361194B5B69184A43F480732B
:1042340053610120FEF7C6F83B6801333B603B68DD
:10424400B3F5007FCDDB114B1B69104A43F020030B
:1042540013614FF401710C48FFF74EFD00BF0E4B84
:104264001B78002BFBD00C4B00221A707B6803F5E3
:1042740000737B60094B1B687A689A429CD300BF29
:1042840000BF0837BD4680BDAC03002000100140CC
:10429400000C014000080140A9080020C8050020C6
:1042A40080B582B000AF00237B606BE03A4BAC2258
:1042B4001A70394B02225A70374B00229A70364BCF
:1042C400F022DA70354B5B69344A43F020035361C2
:1042D40000233B603BE0324B1B78112B08D13A683A
:1042E4007B68134443F480431846FFF74BFD12E008
:1042F4002B4B1B781B2B08D13A687B68134443F47F
:1043040080231846FFF73EFD05E03A687B681344B6
:104314001846FFF737FD234B5B69224A43F0040339
:1043240053610120FEF74EF81F4B9A683B68043333
:10433400D1B2194AD1541B4B1B691A4A43F00403E6
:1043440013610120FEF73EF83B6801333B603B6894
:10435400B3F5007FBFDB114B1B69104A43F0200308
:1043640013614FF401710C48FFF7C6FC00BF0F4BFB
:104374001B78002BFBD00D4B00221A707B6803F5D1
:1043840000737B600A4B1B687A689A428ED300BF25
:1043940000BF0837BD4680BDAC03002000100140BB
:1043A400DA050020000C014000080140A9080020A3
:1043B400C805002090B583B000AF01F027F82E4B5C
:1043C4001B682D4A23F4407313602B4B1B682A4A45
:1043D40023F440631360284B1B68274A43F480632B
:1043E400136000237B6032E0244BAC221A70234B11
:1043F40002225A70214B00229A70204BF022DA706C
:1044040000233B600EE03A687B681A443B681C1D3D
:10441400104601F083F803461A46184B1A553B68B8
:1044240001333B603B68B3F5007FECDB4FF4017173
:104434001248FFF761FC00BF114B1B78002BFBD027
:104444000F4B00221A707B6803F500737B600D4BE1
:104454001B687A689A42C7D3074B1B68064A43F421
:1044640040731360044B1B68034A23F440631360D6
:1044740000BF0C37BD4690BD000C0140AC030020CA
:10448400A9080020C805002080B582B000AF002331
:104494007B6085E0484B5B69474A43F020035361E6
:1044A400464B1B78122B12D1454B1B69444A43F0EF
:1044B40001031361404B5B693F4A43F480735361CA
:1044C4003F4B5B693E4A43F0040353610BE03C4BB2
:1044D4005B693B4A43F001035361374B5B69364ADE
:1044E40043F480735361374BAC221A70354B02226C
:1044F4005A70344B00229A70324BF022DA70002347
:104504003B601CE07B685A083B6813441846FFF77D
:1045140039FC0520FDF756FF2B4B9A683B685B007E
:104524000533D1B2274AD154284B9A683B680233E9
:104534005B00D1B2234AD1543B6801333B603B68F2
:10454400FF2BDFDD1D4B1B78122B06D11C4B1B6987
:104554001B4A43F0040313610BE0194B1B69184A0F
:1045640043F001031361144B5B69134A43F48073F2
:104574005361114B1B69104A43F0200313614FF43C
:1045840001711048FFF7B8FB00BF114B1B78002BDB
:10459400FBD00F4B00221A707B6803F500737B601D
:1045A4000C4B1B687A689A42FFF474AF00BF00BFDB
:1045B4000837BD4680BD00BF00100140DA05002069
:1045C400000C0140AC03002000080140001401402D
:1045D400A9080020C805002080B500AF4A4B1B780D
:1045E400013B2E2B00F28C8001A252F823F000BF75
:1045F400B14600080547000805470008B74600080B
:10460400BD460008C3460008C9460008CF46000856
:10461400D5460008DB4600080547000805470008A2
:10462400E1460008E746000805470008054700087A
:10463400ED460008F946000805470008054700084C
:104644000547000805470008054700080547000816
:104654000547000805470008F34600080547000819
:1046640005470008054700080547000805470008F6
:1046740005470008054700080547000805470008E6
:1046840005470008054700080547000805470008D6
:1046940005470008054700080547000805470008C6
:1046A4000547000805470008FF46000800F02EF8FB
:1046B40027E000F095F824E000F016F921E000F07E
:1046C40059F91EE000F028FB1BE000F039FA18E06D
:1046D40000F0B6F915E000F0B5FA12E000F008FCBD
:1046E4000FE000F005FC0CE000F06CFB09E000F0CA
:1046F40069FB06E000F088FC03E000F0F9FC00E050
:1047040000BF00BF80BD00BFDA05002080B582B0C5
:1047140000AF00237B603DE02C4B5B692B4A43F0E8
:1047240020035361AA2145F2555000F053FD552151
:1047340042F6AA2000F04EFDA02145F2555000F0AB
:1047440049FD00233B6012E0214B1A683B681A4480
:104754007B68D0183A687B68134407331D4AD35CDE
:10476400DBB2194600F036FD3B6801333B603A6822
:10477400194B1B689A42E7D3144B1B69134A43F045
:10478400200313610C2002F0B3FC7A68124B1B68FF
:1047940013447B607B68B3F5007FBDDB0F4BAC2219
:1047A4001A700E4B00225A700C4B01229A700B4B5C
:1047B400F322DA70094B00221A7105210748FFF72A
:1047C4009BFA002318460837BD4680BD00100140FF
:1047D400C005002098010020CC050020AC03002077
:1047E40080B582B000AF3A4B1B69394A43F02003CD
:1047F4001361384B1B69374A43F001031361344B8F
:104804005B69334A43F480735361324B1B69314A09
:1048140043F00403136100237B603DE07B680733AE
:104824002D4AD35CDBB2FF2B32D02C4B1A687B6849
:1048340013441846FFF7A6FA7B680733264AD35C6D
:10484400DAB2274BDA600A20FDF7BCFD204B5B6926
:104854001F4A43F0200353610A20FDF7B3FD1D4BAB
:104864005B691C4A43F0040353611E20FDF7AAFD53
:10487400184B1B69174A43F004031361144B1B695B
:10488400134A43F0200313616420FDF79BFD00E00D
:1048940000BF7B6801337B607B68B3F5007FBDDBC1
:1048A400104BAC221A700F4B00225A700D4B012290
:1048B4009A700C4BF322DA700A4B00221A7105210C
:1048C4000848FFF719FA002318460837BD4680BD8B
:1048D40000100140000C014098010020C005002098
:1048E40000080140AC03002080B582B000AF1C4B2F
:1048F4005B691B4A43F02003536100237B601FE084
:104904007A68184B1B6813441846FFF73BFA7B6818
:104914000733154AD35CDAB2144BDA60144B5B6983
:10492400134A43F0040353610120FDF74BFD104B80
:104934001B690F4A43F0040313617B6801337B60F6
:104944007B68B3F5007FDBDB054B1B69044A43F04E
:1049540020031361002318460837BD4680BD00BFFD
:1049640000100140C005002098010020000801400B
:10497400000C014080B582B000AF2C4B5B692B4A20
:1049840043F02003536100237B602CE07B680733F2
:10499400274AD35CDBB2FF2B21D0AA2145F2555024
:1049A40000F018FC552142F6AA2000F013FCA021C7
:1049B40045F2555000F00EFC7A681E4B1B681A44F1
:1049C4007B6807331A49CB5CDBB21946104600F00A
:1049D40001FC194B1B881846FDF7F4FC00E000BFEE
:1049E4007B6801337B607B68B3F5007FCEDB0F4BC4
:1049F4001B690E4A43F020031361104BAC221A705A
:104A04000E4B00225A700D4B01229A700B4BF3226D
:104A1400DA700A4B00221A7105210848FFF76CF975
:104A2400002318460837BD4680BD00BF0010014072
:104A340098010020C0050020D8050020AC03002008
:104A440080B582B000AF394B5B69384A43F020032C
:104A5400536100237B6044E07B680833344AD35CB1
:104A6400DBB2FF2B06D17B680733314AD35CDBB260
:104A7400FF2B32D04AF6AA2145F2555000F010FC23
:104A840045F2555142F6AA2000F00AFC4AF2A00170
:104A940045F2555000F004FC0520FDF793FC254B2E
:104AA4001A687B68134458087B680833204AD35C2F
:104AB400DBB21B021AB27B6807331D49CB5CDBB245
:104AC4001BB213431BB29BB2194600F0E9FB1A4B0D
:104AD4001B881846FDF776FC00E000BF7B680233B4
:104AE4007B607B68B3F5007FB6DB104B1B690F4A14
:104AF40043F0200313610A20FDF764FC0F4BAC2242
:104B04001A700E4B00225A700C4B01229A700B4BF8
:104B1400F322DA70094B00221A7105210748FFF7C6
:104B2400EBF8002318460837BD4680BD001001404D
:104B340098010020C0050020D8050020AC03002007
:104B440080B582B000AF00237B6053E0374B5B69D4
:104B5400364A43F0200353614FF42A4145F255503D
:104B640000F09EFB4FF4AA4142F6AA2000F098FB05
:104B74004FF4204145F2555000F092FB00233B6076
:104B840023E02B4B1A683B681A447B68134458088B
:104B94003A687B6813440833264AD35CDBB21B02B1
:104BA4001AB239687B680B4407332249CB5CDBB209
:104BB4001BB213431BB29BB2194600F071FB0520D4
:104BC400FDF700FC3B6802333B603A681A4B1B68F4
:104BD4009A42D6D3154B1B69144A43F02003136140
:104BE400164B1B88184602F083FA7A68124B1B682E
:104BF40013447B607B68B3F5007FA7DB104BAC22CA
:104C04001A700F4B00225A700D4B01229A700C4BF4
:104C1400F322DA700A4B00221A7105210848FFF7C3
:104C24006BF8002318460837BD4680BD00100140CC
:104C3400C005002098010020CC050020D8050020E4
:104C4400AC03002080B582B000AF2E4B5B692D4AC7
:104C540043F02003536100237B6031E04FF42A4189
:104C640040F2555000F01CFB4FF4AA4140F2AA2038
:104C740000F016FB4FF4204140F2555000F010FBB9
:104C8400214B1A687B68134458087B6808331F4A11
:104C9400D35CDBB21B021AB27B6807331B49CB5CC3
:104CA400DBB21BB213431BB29BB2194600F0F8FAF5
:104CB400174B1B881846FDF785FB7B6802337B6026
:104CC4007B68B3F5007FC9DB0E4B1B690D4A43F0CB
:104CD400200313610F4BAC221A700E4B00225A7042
:104CE4000C4B01229A700B4BF322DA70094B002211
:104CF4001A7105210748FEF7FFFF002318460837FD
:104D0400BD4680BD00100140C00500209801002070
:104D1400D8050020AC03002080B582B000AF00238A
:104D24007B6027E0214B1A687B6813441846FFF721
:104D340029F87B6807331E4AD35CDAB21D4BDA606C
:104D44000220FDF73FFB1C4B5B691B4A43F0200329
:104D540053611A4B1B881846FDF734FB164B1B692D
:104D6400154A43F0200313610F20FDF72BFB7B68EA
:104D740001337B607B68B3F5007FD3DB104BAC223F
:104D84001A700F4B00225A700D4B01229A700C4B73
:104D9400F322DA700A4B00221A7105210848FEF743
:104DA400ABFF00BF0837BD4680BD00BFC005002073
:104DB400980100200008014000100140D80500209F
:104DC400AC03002080B582B000AF404B5B693F4A22
:104DD40043F02003536100237B6056E03C4B1B7877
:104DE400112B08D13B4B1A687B68134443F480436E
:104DF4001846FEF7C7FF364B1B781B2B08D1354BE3
:104E04001A687B68134443F480231846FEF7BAFFFC
:104E14007B680733304AD35CDAB2304BDA60022065
:104E2400FDF7D0FA2A4B1B78112B05D12C4B5B696B
:104E34002B4A43F480435361254B1B781B2B05D12C
:104E4400284B5B69274A43F480635361264B1B88D4
:104E54001846FDF7B7FA1E4B1B78112B05D1204BD2
:104E64001B691F4A43F480431361194B1B781B2BA6
:104E740005D11C4B1B691B4A43F4806313610F204B
:104E8400FDF7A0FA7B6801337B607B68B3F5007F94
:104E9400A4DB0E4B1B690D4A43F020031361134B33
:104EA400AC221A70114B00225A70104B01229A70D6
:104EB4000E4BF322DA700D4B00221A7105210B48B8
:104EC400FEF71AFF00BF0837BD4680BD0010014041
:104ED400DA050020C00500209801002000080140E8
:104EE4000018014000140140D8050020AC03002044
:104EF40080B582B000AF00F089FA3D4B1B683C4A94
:104F040023F4407313603A4B1B68394A23F440631B
:104F14001360374B1B68364A43F4806313600023E5
:104F24007B603EE07B680733324AD35CDBB2FF2B05
:104F340033D0AA2145F2555000F09EFA552142F68D
:104F4400AA2000F099FAA02145F2555000F094FAF5
:104F54007A68294B1B681A447B6807332549CB5C64
:104F6400DBB21946104600F087FA0520FDF72AFA4D
:104F7400224B1B780D2B06D100BF1D4B9B6803F001
:104F84000403002BF9D01D4B1B780E2B06D11C4BB0
:104F94001B881846FDF716FA00E000BF7B68013352
:104FA4007B607B68B3F5007FBCDB114B1B68104A48
:104FB40043F4407313600E4B1B680D4A23F44063A3
:104FC4001360104BAC221A700E4B00225A700D4B1A
:104FD40001229A700B4BF322DA700A4B00221A71E9
:104FE40005210848FEF788FE00BF0837BD4680BD8E
:104FF400000C014098010020C0050020DA050020C3
:10500400D8050020AC03002080B582B000AF002397
:105014007B6047E04FF42A4145F2555000F07CF99B
:105024004FF4AA4142F6AA2000F076F94FF4204149
:1050340045F2555000F070F900233B6023E0274B04
:105044001A683B681A447B68134458083A687B68BA
:1050540013440833224AD35CDBB21B021AB2396808
:105064007B680B4407331E49CB5CDBB21BB2134392
:105074001BB29BB2194600F04FF90520FDF7A2F9C7
:105084003B6802333B603A68164B1B689A42D6D39E
:10509400154B1B88184602F02BF87A68114B1B68D5
:1050A40013447B607B68B3F5007FB3DB0F4BAC220A
:1050B4001A700E4B00225A700C4B01229A700B4B43
:1050C400F322DA70094B00221A7105210748FEF712
:1050D40013FE00BF0837BD4680BD00BFC0050020D9
:1050E40098010020CC050020D8050020AC03002046
:1050F40080B582B000AF2F4B1B692E4A43F00403E6
:10510400136100237B6039E02B4B1A687B681344DE
:105114005B081846FEF736FE7B680833274AD35CE3
:10512400DAB2274BDA60274BDB68264A03F47F4365
:10513400D3607B680733214AD35CDAB2214BDB6846
:105144001146204A0B43D3600220FDF73BF91E4B66
:105154005B691D4A43F0200353611C4B1B881846AE
:10516400FDF730F9184B1B69174A43F0200313610C
:105174000A20FDF727F97B6802337B607B68B3F56F
:10518400007FC1DB124BAC221A70114B00225A7003
:105194000F4B01229A700E4BF322DA700C4B002253
:1051A4001A7105210A48FEF7A7FD00BF0837BD465E
:1051B40080BD00BF000C0140C00500209801002004
:1051C400000801400014014000100140D8050020EF
:1051D400AC03002080B582B000AF78600B46FB7052
:1051E4007868FEF7CFFD0E4AFB78D3600520FDF703
:1051F400E9F80C4B5B690B4A43F0040353610F203D
:10520400FDF7E0F8074B1B69064A43F004031361FA
:105214000F20FDF7D7F800BF0837BD4680BD00BF9B
:1052240000080140000C014080B584B000AF7860F4
:105234007868FEF7A7FD174B5B69164A43F0200315
:105244005361154B5B69144A43F001035361114BDD
:105254005B69104A43F4807353610A20FDF7B2F886
:105264000E4B9B68FB730C4B1B690B4A43F0010309
:105274001361084B5B69074A43F480735361054B20
:105284001B69044A43F020031361FB7B1846103763
:10529400BD4680BD00100140000C014000080140E3
:1052A40080B584B000AF78600B467B807B88FB734D
:1052B4007868FEF767FD7B881B0A9AB2134BDA60A5
:1052C400134BDB68124A03F47F43D360104BDA6854
:1052D400FB7B0F491343CB600220FDF773F80D4BA2
:1052E4005B690C4A43F0040353610520FDF76AF837
:1052F400084B1B69074A43F0040313610F20FDF7B1
:1053040061F800BF1037BD4680BD00BF00080140F2
:1053140000140140000C014080B584B000AF7860F7
:105324000B467B807B88FB737868FEF72BFD7B88BC
:105334001B0A9AB2134BDA60134BDB68124A03F46C
:105344007F43D360104BDA68FB7B0F491343CB6078
:105354000220FDF737F80D4B5B690C4A43F020033C
:1053640053610520FDF72EF8084B1B69074A43F0EB
:10537400200313610F20FDF725F800BF1037BD4649
:1053840080BD00BF0008014000140140001001402E
:1053940080B584B000AF78607868FEF7F3FC174BF3
:1053A4005B69164A43F001035361154B5B69144A68
:1053B40043F4807353610520FDF704F8114B9B6897
:1053C4009BB21B02FB81104B9B68DBB29AB2FB8938
:1053D4001343FB81094B1B69084A43F00103136122
:1053E400074B5B69064A43F4807353610120FCF761
:1053F400E9FFFB8918461037BD4680BD000C01400B
:1054040000100140000801400014014080B500AFC5
:10541400164B1B69154A43F020031361144B1B6997
:10542400134A43F001031361104B5B690F4A43F4C1
:10543400807353610F4B4FF47042DA601420FCF711
:10544400C1FF0C4B5B690B4A43F4005353611420B6
:10545400FCF7B8FF074B1B69064A43F4005313617A
:105464001420FCF7AFFF00BF80BD00BF0010014057
:10547400000C01400018014080B582B000AF786094
:105484000B46FB707B68C3F30A03224A43F4704360
:10549400D3600120FCF796FF1E4B5B691D4A43F461
:1054A400804353610120FCF78DFF1A4BDB68194AD6
:1054B40003F47043D360174BDA687B68DB0A154941
:1054C4001343CB600120FCF77DFF124B5B69114A4B
:1054D40043F4805353610120FCF774FF0D4B1B69A7
:1054E4000C4A43F4804313610120FCF76BFF0A4A22
:1054F400FB78D3600120FCF765FF064B1B69054A66
:1055040043F4805313610320FCF75CFF00BF0837AA
:10551400BD4680BD001801400008014080B584B03C
:1055240000AF78607B68C3F30A03204A43F47043F6
:10553400D3600120FCF746FF1C4B5B691B4A43F414
:10554400804353610120FCF73DFF184BDB68174A89
:1055540003F47043D360154BDA687B68DB0A1349A4
:105564001343CB600120FCF72DFF104B1B690F4A3E
:1055740043F4804313610120FCF724FF0B4B5B6968
:105584000A4A43F4004353610220FCF71BFF084B13
:105594009B68FB73054B1B69044A43F40043136186
:1055A400FB7B18461037BD4680BD00BF0018014084
:1055B4000008014080B500AF3C4B1B78013B242B15
:1055C40070D801A252F823F061560008A9560008C9
:1055D400A956000867560008A95600086D56000829
:1055E4007356000879560008A95600087F5600082B
:1055F40085560008A95600088B560008A9560008CD
:10560400A9560008A956000891560008A356000898
:10561400A9560008A9560008A9560008A95600086A
:10562400A9560008A9560008A9560008A95600085A
:1056340097560008A9560008A9560008A95600085C
:10564400A9560008A9560008A9560008A95600083A
:10565400A9560008A95600089D56000800F028F82D
:1056640021E000F025F81EE000F09EF81BE000F0B9
:10567400EFF818E000F0F2F915E000F06BFA12E030
:1056840000F068FA0FE000F0E1FA0CE000F050F9E5
:1056940009E000F04DF906E000F04AF903E000F0FB
:1056A40047FB00E000BF00BF80BD00BFDA0500205B
:1056B40080B500AFFDF79EF8384B5B69374A43F07D
:1056C40020035361AA2145F25550FFF783FD55216C
:1056D40042F6AA20FFF77EFD802145F25550FFF7E0
:1056E40079FDAA2145F25550FFF774FD552142F684
:1056F400AA20FFF76FFD602145F25550FFF76AFDC0
:10570400FDF75EF80A2001F0F3FC0020FFF78CFDA2
:1057140003461A46224B1A710120FFF785FD034602
:105724001A461F4B5A710220FFF77EFD03461A46A4
:105734001B4B9A711B48FFF777FD03461A46184B1B
:10574400DA71FDF757F8AA2145F25550FFF742FDEB
:10575400552142F6AA20FFF73DFDF02145F25550B0
:10576400FFF738FD0D4B1B690C4A43F0200313610E
:105774000A2001F0BDFC0A4BF122DA70084BAC227E
:105784001A70074B00225A70054B04229A700821A4
:105794000348FEF7B1FA00BF80BD00BF001001400E
:1057A400AC030020F2FF030080B500AFFDF722F840
:1057B400254B5B69244A43F020035361AA2145F237
:1057C4005550FFF707FD552142F6AA20FFF702FDC9
:1057D400902145F25550FFF7FDFCFCF7F1FF0A203C
:1057E40001F086FC0020FFF71FFD03461A46174B05
:1057F4001A710120FFF718FD03461A46134B5A711C
:10580400124B00229A71114B0022DA71FCF7F2FF5D
:10581400F0210020FFF7DEFC0B4B1B690A4A43F022
:1058240020031361094BAC221A70084B00225A70F2
:10583400064B04229A70054BF122DA7008210348C2
:10584400FEF75AFA00BF80BD00100140AC030020EF
:1058540080B500AFFCF7B4FF0020FEF793FA304B9D
:105864001B692F4A43F0800313614FF4967001F0D3
:105874003FFC2B4B5B692A4A43F020035361294BBD
:105884005B69284A43F001035361254B5B69244A51
:1058940043F4807353613220FCF794FD224B9B68E0
:1058A400DAB2224B1A710120FEF76CFA3220FCF7AF
:1058B40089FD1D4B9B68DAB21C4B5A711B4B0022AD
:1058C4009A711A4B0022DA71FCF794FF144B1B698E
:1058D400134A43F020031361124B1B69114A43F02E
:1058E400010313610E4B5B690D4A43F480735361EA
:1058F4000B4B5B690A4A43F0800353610B4BAC22A8
:105904001A700A4B00225A70084B04229A70074BF3
:10591400F122DA7008210548FEF7EEF900BF80BDD8
:1059240000100140000C014000080140AC030020BD
:1059340080B500AFFCF744FF434B1B781B2B04D10D
:105944004FF48040FEF71EFA0BE03F4B1B78252BEB
:1059540004D14FF48020FEF715FA02E00020FEF790
:1059640011FA3A4B1B69394A43F001031361384B6E
:105974005B69374A43F480735361354B1B69344A7E
:1059840043F0800313614FF4967001F0B1FB304B88
:105994005B692F4A43F0200353612C4B5B692B4A0C
:1059A40043F0040353613220FCF70CFD294B9B6840
:1059B400DAB2294B1A71244B1B781B2B04D144F205
:1059C4000100FEF7DFF90BE01F4B1B78252B04D1F8
:1059D40044F20100FEF7D6F902E00120FEF7D2F905
:1059E4003220FCF7EFFC1B4B9B68DAB21A4B5A715E
:1059F400194B00229A71184B0022DA71FCF7FAFE57
:105A0400134B1B69124A43F0200313610F4B1B69AC
:105A14000E4A43F0040313610D4B5B690C4A43F0D7
:105A2400800353610C4BAC221A700B4B00225A704A
:105A3400094B04229A70084BF122DA7008210648B7
:105A4400FEF75AF900BF80BDDA050020000C0140C2
:105A54000010014000080140AC03002080B582B072
:105A640000AF0023FB80FCF7C5FE384B5B69374A67
:105A740043F0200353614FF42A4145F25550FFF798
:105A84000FFC4FF4AA4142F6AA20FFF709FC4FF499
:105A9400104145F25550FFF703FC0520FCF792FC3A
:105AA400FCF78EFE0A2001F023FB0020FFF770FCB8
:105AB40003461B0A9BB2DAB2254B1A714FF42A41F2
:105AC40045F25550FFF7ECFB4FF4AA4142F6AA20E9
