:020000040800F2
:1000000000000120C9580008595800085F5800082E
:10001000655800086B58000871580008000000007F
:1000200000000000000000000000000077580008F9
:1000300083580008000000008F5800089B580008F3
:1000400011590008115900081159000811590008E8
:1000500011590008115900081159000811590008D8
:1000600011590008115900081159000811590008C8
:1000700011590008115900081159000811590008B8
:1000800011590008115900081159000811590008A8
:100090001159000811590008115900081159000898
:1000A0001159000811590008115900081159000888
:1000B0001159000811590008115900081159000878
:1000C0001159000811590008115900081159000868
:1000D0001159000811590008115900081159000858
:1000E00011590008115900081159000800000000BA
:1000F0000000000000000000000000000000000000
:10010000000000000000000011590008115900080B
:100110001159000811590008115900081159000817
:100120001159000811590008115900081159000807
:1001300011590008115900081159000811590008F7
:10014000115900081159000811590008A958000850
:10015000000000000000000000000000000000009F
:10016000000000000000000000000000000000008F
:10017000000000000000000000000000000000007F
:10018000000000000000000000000000000000006F
:10019000000000000000000000000000000000005F
:1001A000000000000000000000000000000000004F
:1001B000000000000000000000000000000000003F
:1001C000000000000000000000000000000000002F
:1001D000000000000000000000000000000000001F
:0401E0005FF8E0F1F3
:1001E40010B5054C237833B9044B13B10448AFF36D
:1001F40000800123237010BD7C010020000000005A
:1002040068AF000808B5034B1BB103490348AFF3BB
:10021400008008BD000000008001002068AF0008D5
:1002240053B94AB9002908BF00281CBF4FF0FF3159
:100234004FF0FF3000F076B9ADF1080C6DE904CE53
:1002440000F006F8DDF804E0DDE9022304B07047AD
:100254002DE9F047089E0D4604468846002B4DD1F3
:100264008A42944668D9B2FA82F252B101FA02F390
:10027400C2F1200120FA01F10CFA02FC41EA030860
:1002840094404FEA1C41B8FBF1F71FFA8CFE01FBC6
:10029400178807FB0EF0230C43EA084398420AD957
:1002A4001CEB030307F1FF3580F01E81984240F2F6
:1002B4001B81023F63441B1AB3FBF1F001FB1033B3
:1002C40000FB0EFEA4B244EA0344A6450AD91CEB83
:1002D400040400F1FF3380F00981A64540F2068151
:1002E400644402380021A4EB0E0440EA07401EB126
:1002F4000023D440C6E90043BDE8F0878B4208D907
:10030400002E00F0EE800021C6E900050846BDE895
:10031400F087B3FA83F100294AD1AB4202D3824277
:1003240000F2FC80841A65EB030301209846002E3A
:10033400E2D0C6E90048DFE702B9FFDEB2FA82F292
:10034400002A40F09180A1EB0C0001214FEA1C47E8
:100354001FFA8CFEB0FBF7F307FB1300250C45EAEC
:1003640000450EFB03F0A84208D91CEB050503F178
:10037400FF3802D2A84200F2CE8043462D1AB5FBC4
:10038400F7F007FB10550EFB00FEA4B244EA054447
:10039400A64508D91CEB040400F1FF3502D2A6459A
:1003A40000F2B6802846A4EB0E0440EA03409EE720
:1003B400C1F120078B4022FA07FC4CEA030C25FA12
:1003C40007FA4FEA1C49BAFBF9F820FA07F309FBCC
:1003D40018AA8D401FFA8CFE1D4300FA01F308FB96
:1003E4000EF02C0C44EA0A44A04202FA01F20BD9A2
:1003F4001CEB040408F1FF3A80F08880A04240F22C
:100404008580A8F102086444241AB4FBF9F009FBBE
:10041400104400FB0EFEADB245EA0444A64508D9DB
:100424001CEB040400F1FF356CD2A6456AD90238EE
:10043400644440EA0840A0FB0295A4EB0E04AC42DD
:10044400C846AE4656D353D0002E69D0B3EB08024B
:1004540064EB0E0422FA01F304FA07F71F43CC40BD
:10046400C6E90074002147E70CFA02FCC2F120013E
:1004740025FA01F34FEA1C4720FA01F195400D4398
:10048400B3FBF7F107FB11331FFA8CFE280C40EA8B
:10049400034001FB0EF3834204FA02F408D91CEB77
:1004A400000001F1FF382FD283422DD90239604474
:1004B400C01AB0FBF7F307FB1300ADB245EA0045E1
:1004C40003FB0EF0A84208D91CEB050503F1FF3825
:1004D40016D2A84214D9023B6544281A43EA0141C2
:1004E40038E73146304607E72F46E4E61846F9E692
:1004F4004B45A9D2B9EB020865EB0C0E0138A3E712
:100504004346EAE7284694E74146D1E7D0467BE7ED
:100514006444023847E7023B65442FE7084606E790
:100524003146E9E6704700BF80B500AF0E4B5B690A
:100534000D4A43F0010353610C4B5B690B4A43F4CE
:10054400807353610A2005F045FA074B1B69064A7C
:1005540043F001031361054B5B69044A43F4807360
:10056400536100BF80BD00BF000C0140001001407A
:1005740080B500AF114B5B69104A43F0010353612E
:100584000F4B5B690E4A43F4807353610A2005F0F4
:1005940021FA0A4B1B69094A43F001031361084B12
:1005A4005B69074A43F480735361064B1B69054A30
:1005B40043F01003136100BF80BD00BF000C014075
:1005C400001001400018014080B500AF094B1B69C1
:1005D400084A43F008031361012001F03DFE054B76
:1005E4005B69044A43F008035361012001F034FEBF
:1005F40000BF80BD0018014080B582B000AF3B4B06
:100604001B693A4A43F001031361394B5B69384A69
:1006140043F480735361374B1B69364A43F04003FC
:100624001361344B1B69334A43F080031361314B2C
:100634005B69304A43F0080353612E4B1B692D4A12
:1006440043F0020313612B4B1B692A4A43F0040352
:1006540013610A2005F0BEF9244B5B69234A43F079
:1006640001035361224B5B69214A43F48073536154
:100674000A2005F0AFF900237B6004E0FFF7A4FF34
:100684007B6801337B607B68092BF7DD194B5B6961
:10069400184A43F001035361164B5B69154A43F052
:1006A40002035361134B5B69124A43F00403536121
:1006B400104B5B690F4A43F020035361142005F08B
:1006C40089F90A4B5B69094A43F001035361084BFA
:1006D4001B69074A43F4807313614FF4FA7005F001
:1006E40079F900BF0837BD4680BD00BF000C01404A
:1006F400001001400018014080B500AF2E4B1B696B
:100704002D4A43F010031361C82005F063F92A4B06
:100714005B69294A43F002035361274B5B69264A0C
:1007240043F004035361244B5B69234A43F02003E1
:100734005361214B5B69204A43F0400353611E4BD4
:100744005B691D4A43F0800353611C4B5B691B4A80
:1007540043F0010353611A4B5B69194A43F48073F4
:100764005361142005F036F9134B5B69124A43F0C8
:10077400100353610A2005F02DF9104B5B690F4AF1
:1007840043F0010353610E4B1B690D4A43F480731C
:1007940013614FF4FA7005F01DF9074B1B69064A03
:1007A40043F040031361044B1B69034A43F0800385
:1007B400136100BF80BD00BF00180140000C014060
:1007C4000010014080B582B000AF0346FB71124AAD
:1007D400FB79D360114B1B69104A43F00403136186
:1007E4000E4B5B690D4A43F0020353610B4B5B698B
:1007F4000A4A43F020035361084B5B69074A43F0FC
:1008040010035361012001F027FDFFF7DDFE00BF57
:100814000837BD4680BD00BF0008014000180140F4
:1008240080B582B000AF0346FB710F4AFB79D360F9
:100834000E4B1B690D4A43F0040313610B4B5B69B8
:100844000A4A43F002035361084B5B69074A43F0C9
:1008540020035361012001F0FFFCFFF7B5FE00BF48
:100864000837BD4680BD00BF0008014000180140A4
:1008740080B582B000AF03460A46FB711346BB71D4
:10088400164B5B69154A43F004035361134B5B69D0
:10089400124A43F002035361BB79002B06D00F4B7D
:1008A4001B690E4A43F02003136105E00B4B5B699F
:1008B4000A4A43F020035361084B5B69074A43F03B
:1008C40010035361064AFB79D360012001F0C4FC94
:1008D400FFF77AFE00BF0837BD4680BD001801400F
:1008E4000008014080B582B000AF03460A46FB71A0
:1008F4001346BB71134B5B69124A43F00403536103
:10090400104B5B690F4A43F002035361BB79002B20
:1009140006D00C4B1B690B4A43F02003136105E01E
:10092400084B5B69074A43F020035361064AFB798D
:10093400D360012001F090FCFFF746FE00BF0837AA
:10094400BD4680BD001801400008014080B500AFDD
:10095400464B1B78012B02D1FFF7CEFE01E0FFF7D7
:100964004BFE01F091FE414B1B78012B03D1082073
:10097400FFF756FF02E00820FFF724FF3B4B1B78EC
:10098400012B04D100210020FFF7ACFF03E000217C
:100994000020FFF76DFF01F05DFE354B5B69344AC3
:1009A40043F080035361012005F014F8314B9B6838
:1009B400DAB2314B9A712E4B1B692D4A43F08003F6
:1009C400136101F061FE294B1B78012B04D1002136
:1009D4000120FFF787FF03E000210120FFF748FF14
:1009E40001F038FE224B5B69214A43F080035361D6
:1009F400012004F0EFFF1F4B9B68DAB21E4B5A71C3
:100A04001B4B1B691A4A43F08003136101F03CFE3F
:100A1400164B1B78012B04D100210220FFF762FF43
:100A240003E000210220FFF723FF01F013FE104B27
:100A34005B690F4A43F080035361012004F0CAFF4D
:100A44000C4B9B68DAB20C4B1A71094B1B69084AB0
:100A540043F080031361054B1B78012B02D1FFF790
:100A640087FD01E0FFF760FD00BF80BDDA050020CF
:100A74000018014000080140AC03002080B500AF1D
:100A8400FFF7BAFD01F000FE0420FFF79BFE01F022
:100A9400E1FD012004F09EFF474B5B69464A43F0A9
:100AA40020035361444B5B69434A43F01003536191
:100AB400414B5B69404A43F080035361012004F0D9
:100AC40089FF3E4B9B68DAB23D4B1A713A4B1B6966
:100AD400394A43F080031361322001F0BDFB364BE9
:100AE4001B69354A43F020031361334B1B69324AB7
:100AF40043F010031361304B5B692F4A43F08003CA
:100B04005361012004F066FF2C4B9B68DAB22C4B36
:100B14005A71294B1B69284A43F080031361322020
:100B240001F09AFB244B5B69234A43F02003536191
:100B3400214B1B69204A43F0100313611E4B5B6970
:100B44001D4A43F080035361012004F043FF1B4B13
:100B54009B68DAB21A4B9A71174B1B69164A43F019
:100B640080031361322001F077FB134B1B69124A97
:100B740043F020031361104B5B690F4A43F01003E9
:100B840053610D4B5B690C4A43F0800353610120B0
:100B940004F020FF094B9B68DAB2094BDA71064B6B
:100BA4001B69054A43F080031361322001F054FBB2
:100BB400FFF7BAFC00BF80BD0018014000080140E7
:100BC400AC03002080B500AFFFF796FD01F05CFD9B
:100BD4000420FFF725FE01F03DFD012004F0FAFE9C
:100BE400474B5B69464A43F020035361444B5B69BE
:100BF400434A43F004035361414B5B69404A43F069
:100C040080035361012004F0E5FE3E4B9B68DAB299
:100C14003D4B1A713A4B1B69394A43F08003136107
:100C2400322001F019FB364B1B69354A43F020038F
:100C34001361334B1B69324A43F004031361304B95
:100C44005B692F4A43F080035361012004F0C2FE24
:100C54002C4B9B68DAB22C4B5A71294B1B69284ADE
:100C640043F080031361322001F0F6FA244B5B69F0
:100C7400234A43F020035361214B1B69204A43F06C
:100C8400040313611E4B5B691D4A43F080035361E7
:100C9400012004F09FFE1B4B9B68DAB21A4B9A7139
:100CA400174B1B69164A43F080031361322001F08D
:100CB400D3FA134B1B69124A43F020031361104B00
:100CC4005B690F4A43F0040353610D4B5B690C4AA3
:100CD40043F080035361012004F07CFE094B9B68C0
:100CE400DAB2094BDA71064B1B69054A43F08003FB
:100CF4001361322001F0B0FAFFF73AFC00BF80BD67
:100D04000018014000080140AC03002080B500AF8A
:100D1400FFF772FC01F0B8FC6D4B5B696C4A43F061
:100D2400010353614020FFF74DFD0A2001F094FABE
:100D3400674B5B69664A43F004035361644B1B6968
:100D4400634A43F002031361624B1A79624BDA601F
:100D54000A2001F081FAFFF737FC5D4B5B695C4ABE
:100D640043F040035361012004F034FE584B1B69E7
:100D7400574A43F040031361642004F02BFE544BA4
:100D84005B69534A43F020035361514B5B69504AFA
:100D940043F0100353614020FFF714FD4C4B5B6993
:100DA4004B4A43F004035361494B1B69484A43F0DF
:100DB40002031361474B5A79474BDA600A2001F06A
:100DC4004BFAFFF701FC424B1B69414A43F02003F5
:100DD40013613F4B5B693E4A43F0100353613C4B44
:100DE4005B693B4A43F040035361012004F0F2FD88
:100DF400374B1B69364A43F040031361322004F039
:100E0400E9FD4020FFF7DEFC314B5B69304A43F0DB
:100E1400040353612E4B1B692D4A43F002031361F3
:100E24002C4B9A792C4BDA600A2001F015FAFFF763
:100E3400CBFB274B5B69264A43F020035361244BC9
:100E44001B69234A43F010031361214B5B69204A59
:100E540043F040035361012004F0BCFD1C4B1B69AB
:100E64001B4A43F040031361322004F0B3FD2020F9
:100E7400FFF7A8FC164B5B69154A43F00403536162
:100E8400134B1B69124A43F002031361114BDA79C5
:100E9400114BDA600A2001F0DFF9FFF795FBC82057
:100EA40001F0DAF90A4B5B69094A43F040035361E4
:100EB400012004F08FFD064B1B69054A43F04003F3
:100EC4001361322004F086FDFFF72EFB00BF80BDC6
:100ED40000180140980100200008014080B500AFCF
:100EE400FFF70AFC01F0D0FB4020FFF799FC0A2031
:100EF40001F0B2F9644B5B69634A43F00403536144
:100F0400614B1B69604A43F0020313615F4B1A791A
:100F14005F4BDA600A2001F09FF9FFF755FB5A4B4B
:100F24005B69594A43F020035361574B5B69564A46
:100F340043F004035361544B5B69534A43F0400349
:100F44005361962001F088F94F4B1B694E4A43F0D8
:100F540040031361322004F03DFD4020FFF760FCA4
:100F6400494B5B69484A43F004035361464B1B6990
:100F7400454A43F002031361444B5A79444BDA6007
:100F84000A2001F069F9FFF71FFB3F4B1B693E4A3A
:100F940043F0200313613C4B5B693B4A43F040033D
:100FA4005361012004F016FD374B1B69364A43F0A8
:100FB40040031361322004F00DFD4020FFF730FCA4
:100FC400314B5B69304A43F0040353612E4B1B6978
:100FD4002D4A43F0020313612C4B9A792C4BDA60AF
:100FE4000A2001F039F9FFF7EFFA274B5B69264A2B
:100FF40043F020035361244B1B69234A43F0040349
:101004001361214B5B69204A43F040035361012083
:1010140004F0E0FC1C4B1B691B4A43F040031361C2
:10102400322004F0D7FC2020FFF7FAFB164B5B6953
:10103400154A43F004035361134B1B69124A43F0EE
:1010440002031361114BDA79114BDA600A2001F0C3
:1010540003F9FFF7B9FA0A2001F0FEF80A4B5B69BD
:10106400094A43F040035361012004F0B3FC064BEA
:101074001B69054A43F040031361322004F0AAFCC3
:10108400FFF776FA00BF80BD0018014098010020E8
:101094000008014080B500AFFFF7AEFA01F0F4FAA2
:1010A4008020FFF78FFB0B4B5B690A4A43F0400338
:1010B4005361C82001F0D0F8064B1B69054A43F080
:1010C40040031361322004F085FCFFF72DFA00BFC2
:1010D40080BD00BF0018014080B500AFFFF70CFBD6
:1010E40001F0D2FA8020FFF79BFB094B5B69084AA9
:1010F40043F040035361642004F06CFC044B1B690F
:10110400034A43F040031361FFF732FA00BF80BD86
:101114000018014080B582B000AFFFF76DFA01F00E
:10112400B3FA0320FFF74EFB00237B6056E0002355
:101134003B6035E001F0A8FA3A687B6813441B125F
:10114400DBB201211846FFF793FB3B68DAB27B68F8
:10115400DBB21344DBB200211846FFF789FB01F030
:1011640079FA254B5B69244A43F020035361224BEF
:101174005B69214A43F080035361012001F06CF85C
:101184001E4B9A683B680433D1B21D4AD1541A4BA2
:101194001B69194A43F0800313613B6801333B60C8
:1011A4003B681F2BC6DD164BAC221A70144B002271
:1011B4005A70134B20229A70114BA422DA70242106
:1011C4000F4802F0D9FB00BF0E4B1B78002BFBD05D
:1011D4000C4B00221A707B6820337B607A680A4BC0
:1011E4001B689A42A3D301F04FFAFFF79DF900BFA1
:1011F4000837BD4680BD00BF00180140000801400B
:10120400AC030020A9080020C805002080B582B0E6
:1012140000AFFFF771FA01F037FA0320FFF700FB84
:1012240000237B6056E000233B6035E001F02CFA9C
:101234003A687B6813441B12DBB201211846FFF79E
:1012440051FB3B68DAB27B68DBB21344DBB20021AA
:101254001846FFF747FB01F0FDF9254B5B69244A6B
:1012640043F020035361224B5B69214A43F080031E
:101274005361012000F0F0FF1E4B9A683B68043371
:10128400D1B21D4AD1541A4B1B69194A43F0800349
:1012940013613B6801333B603B681F2BC6DD164B73
:1012A400AC221A70144B00225A70134B20229A70ED
:1012B400114BA422DA7024210F4802F05DFB00BF19
:1012C4000E4B1B78002BFBD00C4B00221A707B6852
:1012D40020337B607A680A4B1B689A42A3D301F0DF
:1012E400D3F9FFF745F900BF0837BD4680BD00BFFD
:1012F4000018014000080140AC030020A9080020A8
:10130400C805002080B582B000AF00237B6062E096
:10131400404B1A687B6813441B0ADBB20121184650
:10132400FFF7A6FA00233B6039E03A4B1B68DAB2B8
:101334007B68DBB21344DAB23B68DBB21344DBB242
:1013440000211846FFF794FA334B1B69324A43F0E5
:1013540002031361304B5B692F4A43F0040353616A
:101364007A683B68134404332C4AD25C2C4BDA6011
:10137400FFF72AF9284B1B69274A43F0010313613D
:10138400012000F069FF244B5B69234A43F0010309
:1013940053610A2000F060FF3B6801333B603A6808
:1013A400204B1B689A42C0D31B4B5B691A4A43F01B
:1013B40040035361C82000F04FFF174B1B69164AC6
:1013C40043F040031361052004F004FB7A68154BD5
:1013D4001B6813447B607B681F2B99DD0D4B1B68D6
:1013E40020330C4A1360104BAC221A700E4B0022AF
:1013F4005A700D4B01229A700B4BA622DA700A4BDD
:1014040000221A710521084802F0B6FA00BF083715
:10141400BD4680BDC405002000180140980100208D
:1014240000080140CC050020AC03002080B582B048
:1014340000AF00237B6062E0404B1A687B68134472
:101444001B0ADBB201211846FFF74CFA00233B606C
:1014540039E03A4B1B68DAB27B68DBB21344DAB288
:101464003B68DBB21344DBB200211846FFF73AFABB
:10147400334B1B69324A43F002031361304B5B69FF
:101484002F4A43F0040353617A683B6813440433DE
:101494002C4AD25C2C4BDA60FFF796F8284B1B6978
:1014A400274A43F020031361012000F0D5FE244BAA
:1014B4005B69234A43F0200353610A2000F0CCFE09
:1014C4003B6801333B603A68204B1B689A42C0D3A7
:1014D4001B4B5B691A4A43F040035361C82000F078
:1014E400BBFE174B1B69164A43F0400313610420EB
:1014F40004F070FA7A68154B1B6813447B607B68B0
:101504001F2B99DD0D4B1B6820330C4A1360104BC5
:10151400AC221A700E4B00225A700D4B01229A70A5
:101524000B4BA622DA700A4B00221A7105210848D7
:1015340002F022FA00BF0837BD4680BDC405002072
:10154400001801409801002000080140CC0500204B
:10155400AC03002080B582B000AFFFF74DF801F076
:1015640093F80220FFF72EF900237B6084E0002328
:101574003B6060E001F088F87B68DA0F13445B108D
:1015840019463B68DA0F13445B100B441A46404B70
:101594001A60404B1B78022B0DD13F4B1B693E4A0E
:1015A40043F0100313613A4B1B681B0CDBB20021A0
:1015B4001846FFF75DF9364B1B681B0ADBB20121A5
:1015C4001846FFF755F9324B1B68DBB20021184669
:1015D400FFF74EF901F03EF82F4B5B692E4A43F0BA
:1015E400200353612C4B5B692B4A43F08003536106
:1015F400012000F031FE294B9A683B680433D1B2D4
:10160400274AD154244B1B69234A43F02003136116
:10161400012000F021FE214B9A683B680533D1B2CA
:101624001F4AD1541C4B1B691B4A43F080031361AE
:101634003B6802333B603B68B3F5007F9ADB184B91
:10164400AC221A70164B02225A70154B00229A7063
:10165400134BA822DA704FF40171114802F08CF98F
:1016640000BF104B1B78002BFBD00E4B00221A70CE
:101674007B6803F500737B607A680B4B1B689A42A6
:10168400FFF475AFFEF750FF00BF0837BD4680BDBD
:10169400C0050020DA0500200018014000080140C0
:1016A400AC030020A9080020C805002080B582B042
:1016B40000AFFFF721F800F0E7FF0220FFF7B0F8D2
:1016C40000237B6072E000233B604EE000F0DCFF0F
:1016D4007B68DA0F13445B1019463B68DA0F134436
:1016E4005B100B441A46374B1A60364B1B681B0AB7
:1016F400DBB201211846FFF7F5F8324B1B68DBB269
:1017040000211846FFF7EEF800F0A4FF2E4B5B69AA
:101714002D4A43F0200353612B4B5B692A4A43F063
:1017240080035361012000F097FD284B9A683B68C1
:101734000433D1B2264AD154234B1B69224A43F0C5
:1017440020031361012000F087FD204B9A683B6859
:101754000533D1B21E4AD1541B4B1B691A4A43F0BC
:10176400800313613B6802333B603B68B3F5007F41
:10177400ACDB174BAC221A70154B02225A70144B77
:1017840000229A70124BA822DA704FF401711048AB
:1017940002F0F2F800BF0F4B1B78002BFBD00D4B6F
:1017A40000221A707B6803F500737B607A680A4B29
:1017B4001B689A4287D3FEF7DBFE00BF0837BD469D
:1017C40080BD00BFC0050020001801400008014092
:1017D400AC030020A9080020C805002080B500AF94
:1017E400124B1B78012B02D100F0D0F808E00F4B0C
:1017F4001B78032B02D100F06BF901E000F01AF81A
:101804000B4BAC221A700A4B00225A70084B01226F
:101814009A70074BAA22DA70054B00221A7105212F
:10182400034802F0A9F800BF80BD00BFDA0500201C
:10183400AC03002080B584B000AF4F4B1B791A0471
:101844004D4B5B791B0213434B4A92791343DA0FD6
:1018540013445B107B600023FB601020FEF7B2FF93
:101864000023BB6043E0FB68DAB27B68DBB213445D
:10187400DBB200211846FEF7FBFF404B1B693F4AD1
:1018840043F0020313613D4B5B693C4A43F004039C
:101894005361BB680733384AD25C394BDA60FEF7D0
:1018A40093FE364B1B69354A43F020031361BB6832
:1018B4000833314AD25C324BDA60FEF785FE2F4B97
:1018C4001B692E4A43F001031361012000F0C4FC9C
:1018D4002A4B5B69294A43F001035361012000F05C
:1018E400BBFCFB680133FB60BB680233BB60BA68B6
:1018F400244B1B689A42B6D37B681B0ADBB20121D6
:101904001846FEF7B5FF204B1B78022B0CD11B4B5E
:101914001B691A4A43F0100313617B681B0CDBB28A
:1019240000211846FEF7A4FF144B5B69134A43F0E9
:1019340040035361012000F08FFC104B1B690F4AD8
:1019440043F040031361082004F044F80B4B1B6977
:101954000A4A43F004031361084B5B69074A43F0E6
:1019640002035361064B0022DA60FEF72DFE00BF2E
:101974001037BD4680BD00BF98010020001801400B
:1019840000080140CC050020DA05002080B584B0B1
:1019940000AF4B4B1B791A04494B5B791B02134371
:1019A400474A92791343DA0F13445B107B60002398
:1019B400FB601020FEF734FF0023BB604CE0FB68A3
:1019C400DAB27B68DBB21344DBB200211846FEF7BF
:1019D40089FF3C4B1B693B4A43F002031361394BBB
:1019E4005B69384A43F004035361BB680733344AE4
:1019F400D25C354BDA60FEF7E7FD324B1B69314AA6
:101A040043F020031361BB6808332D4AD25C2E4B8C
:101A1400DA60FEF7D9FD2B4B5B692A4A43F02003B9
:101A240053610A2000F018FC264B1B69254A43F039
:101A340020031361012000F00FFC224B5B69214A53
:101A440043F020035361012000F006FCFB680133DE
:101A5400FB60BB680233BB60BA681C4B1B689A42CC
:101A6400ADD37B681B0ADBB201211846FEF73AFFAF
:101A7400144B5B69134A43F040035361012000F0A7
:101A8400EBFB104B1B690F4A43F040031361082022
:101A940003F0A0FF0B4B1B690A4A43F004031361D4
:101AA400084B5B69074A43F002035361064B00226B
:101AB400DA60FEF789FD00BF1037BD4680BD00BF68
:101AC400980100200018014000080140CC050020C6
:101AD40080B584B000AF2F4B1B791A042D4B5B7972
:101AE4001B0213432B4A92791343DA0F13445B10FE
:101AF4007B600023FB6010214C2000F04FF8002392
:101B0400BB6027E0FB68DAB27B68DBB21344DBB26C
:101B140019460C2000F042F8BB6807331D4AD35C19
:101B240019462C2000F03AF8BB680833194AD35CF4
:101B340019463C2000F032F800217D2000F02EF8F8
:101B440000217C2000F02AF8FB680133FB60BB68AD
:101B54000233BB60BA68104B1B689A42D2D37B68CD
:101B64001B0ADBB219461C2000F018F8002164207F
:101B740000F014F800216C2000F010F8082003F0A5
:101B840029FF00214C2000F009F800BF1037BD46A2
:101B940080BD00BF98010020CC05002080B586B030
:101BA40000AF03460A46FB711346BB710023FB8258
:101BB400FB799BB29B00FB81BB799BB29B00BB81F1
:101BC40000233B6154E0012000F046FBFA893B69A5
:101BD400C3F10A0342FA03F303F00103002B06D016
:101BE400294B1B69284A43F00203136105E0264B85
:101BF4005B69254A43F002035361BA893B69C3F127
:101C04000A0342FA03F303F00103002B06D01E4B30
:101C14001B691D4A43F00103136105E01A4B5B691C
:101C2400194A43F001035361174B1B69164A43F0E9
:101C340004031361012000F00FFB134B5B69124A8C
:101C440043F004035361114B9B6803F00103002B21
:101C54000BD03B69C3F10A03012202FA03F31AB25F
:101C6400B7F9163013431BB2FB823B6901333B6166
:101C74003B690A2BA7DDFB8ADB089BB2DBB2184663
:101C84001837BD4680BD00BF001801400008014060
:101C940080B500AF264B1B69254A43F0100313613E
:101CA400234B5B69224A43F00403536100F0ECFCCC
:101CB4001F4B5B691E4A43F0010353611C4B5B6974
:101CC4001B4A43F0020353611A4B5B69194A43F000
:101CD40001035361184B5B69174A43F001035361D5
:101CE400164B5B69154A43F4807353610A2003F071
:101CF40071FE0F4B5B690E4A43F0100353610E4BA8
:101D04005B690D4A43F0010353610C4B1B690B4A99
:101D140043F4807313614FF4FA7003F05BFE00F038
:101D240099FC4FF4FA7000F097FA00BF80BD00BF31
:101D34000018014000080140000C0140001001405F
:101D440080B582B000AF0023FB80322000F084FA1B
:101D54000FE00A2000F080FAFB880133FB80FB8847
:101D640040F6FF72934204D101F0DAFDFEF700FC65
:101D740005E0044B9B6803F00103002BE9D008370E
:101D8400BD4680BD0008014080B500AFFFF780FF6D
:101D940008214C20FFF702FF00210C20FFF7FEFE74
:101DA40000216820FFF7FAFE00216C20FFF7F6FE01
:101DB40003461A46164B9A7108214C20FFF7EEFE93
:101DC40001210C20FFF7EAFE00216820FFF7E6FE60
:101DD40000216C20FFF7E2FE03461A460C4B5A71B1
:101DE40008214C20FFF7DAFE02210C20FFF7D6FE73
:101DF40000216820FFF7D2FE00216C20FFF7CEFE01
:101E040003461A46024B1A71FEF7B2FB00BF80BDAF
:101E1400AC03002080B500AFFFF73AFF04214C204B
:101E2400FFF7BCFE00216820FFF7B8FE00216C20FC
:101E3400FFF7B4FE03461A461A4B1A7104214C20CC
:101E4400FFF7ACFE00217A20FFF7A8FE00217E20D8
:101E5400FFF7A4FE03461A46124B5A7104214C2084
:101E6400FFF79CFE00216A20FFF798FE00216E20F8
:101E7400FFF794FE03461A460A4B9A7104214C203C
:101E8400FFF78CFE00217820FFF788FE00217C20DC
:101E9400FFF784FE03461A46024BDA71FEF768FB2D
:101EA40000BF80BDAC03002080B500AFFFF7F0FE9B
:101EB40040214C20FFF772FE274B1B7919462C203A
:101EC400FFF76CFE00216420FFF768FE00216C2000
:101ED400FFF764FEFFF734FF40214C20FFF75EFE5E
:101EE4001D4B5B7919462C20FFF758FE0021742006
:101EF400FFF754FE00217C20FFF750FEFFF720FF80
:101F040040214C20FFF74AFE134B9B7919462C20A5
:101F1400FFF744FE00216620FFF740FE00216E20FB
:101F2400FFF73CFEFFF70CFF20214C20FFF736FEA5
:101F3400094BDB7919462C20FFF730FE0021642081
:101F4400FFF72CFE00216C20FFF728FEFFF7F8FEB8
:101F5400FEF70EFB00BF80BD9801002080B500AFE6
:101F6400FFF796FE80214C20FFF718FE0021642025
:101F7400FFF714FE00216C20FFF710FEFFF7E0FED0
:101F8400FEF7F6FA00BF80BD90B583B000AFFFF74F
:101F94007FFE03214C20FFF701FE00237B6044E019
:101FA40000233B6023E03B68DAB27B68DBB2134476
:101FB400DBB219460C20FFF7F1FD3A687B68134445
:101FC4001B12DBB219461C20FFF7E8FD0021682034
:101FD400FFF7E4FD3B681C1D00216C20FFF7DEFDCC
:101FE40003461A46164B1A553B6801333B603B685F
:101FF4001F2BD8DD124BAC221A70114B00225A70E1
:102004000F4B20229A700E4BA422DA7024210C4824
:1020140001F0B2FC00BF0B4B1B78002BFBD0094B2B
:1020240000221A707B6820337B607A68064B1B6839
:102034009A42B5D3FEF79CFA00BF0C37BD4690BD5B
:10204400AC030020A9080020C805002080B582B098
:1020540000AF00237B604EE0364B1A687B68134464
:102064001B0ADBB201211846FEF73CFC00233B604F
:102074002DE0304B1B68DAB27B68DBB21344DAB272
:102084003B68DBB21344DBB219460C20FFF786FD34
:10209400284B1A687B6813441B0ADBB219461C20C0
:1020A400FFF77CFD7A683B6813440433224AD35C0F
:1020B40019462C20FFF772FD00216D20FFF76EFDFD
:1020C40000216C20FFF76AFD3B6801333B603A68EE
:1020D4001A4B1B689A42CCD300216420FFF75EFDA3
:1020E40000216C20FFF75AFDFFF72AFE7A68134B94
:1020F4001B6813447B607B681F2BADDD0D4B1B6895
:1021040020330C4A13600E4BAC221A700C4B002285
:102114005A700B4B01229A70094BA622DA70084BB5
:1021240000221A710521064801F026FC00BF083779
:10213400BD4680BDC405002098010020CC050020C8
:10214400AC03002090B583B000AFFFF7A1FD0221DE
:102154004C20FFF723FD00237B6056E000233B6007
:102164003AE07B68DA0F13445B1019463B68DA0FD8
:1021740013445B100B441A46294B1A60284B1B6806
:10218400DBB219460C20FFF709FD254B1B681B0A1F
:10219400DBB219461C20FFF701FD00216820FFF780
:1021A400FDFC3B681C1D00216C20FFF7F7FC034677
:1021B4001A461C4B1A5500217820FFF7EFFC3B68A8
:1021C4005C1D00217C20FFF7E9FC03461A46154BF1
:1021D4001A553B6802333B603B68B3F5007FC0DBB4
:1021E400104BAC221A700F4B02225A700D4B002276
:1021F4009A700C4BA822DA704FF40171094801F06F
:10220400BBFB7B6803F500737B607A68064B1B6835
:102214009A42A3D3FEF7ACF900BF0C37BD4690BD7C
:10222400C0050020AC030020C805002080B400AF26
:10223400074BDB69064A43F00403D361054B47228D
:102244009A62044B08221A6000BFBD4680BC7047E6
:10225400001002400008004080B483B000AF7860F2
:102264000D4A7B68D3620C4B00225A620A4B01224E
:102274001A6000BF084B1B6903F00103002BF9D05F
:10228400054B1B69044A23F00103136100BF0C379B
:10229400BD4680BC704700BF0008004080B483B0D6
:1022A40000AF994B9B69984A43F004039361964BA2
:1022B4009B6903F004037B607B68934B9B69924AA0
:1022C40043F008039361904B9B698F4A43F01003DA
:1022D40093618D4B9B698C4A43F0200393618A4B35
:1022E4009B69894A43F040039361884B1B68874A82
:1022F40043F400331360854B1B68844A23F4803312
:102304001360824B1B68814A23F4402313607F4B84
:102314001B687E4A43F4401313607C4B1B687B4A62
:1023240023F4400313607A4B1B68794A43F0030398
:102334001360774B1B68764A23F00C031360734BCE
:102344001B68724A43F030031360704B1B686F4A7A
:1023540023F0C00313606F4B1B686E4A43F0030302
:1023640013606C4B1B686B4A23F00C031360694BBE
:102374001B68684A43F030031360664B1B68654A68
:1023840023F0C0031360634B1B68624A43F4407339
:102394001360604B1B685F4A23F4406313605D4B1A
:1023A4001B685C4A43F4405313605A4B1B68594AF8
:1023B40023F440431360574B1B68564A43F440339D
:1023C4001360544B1B68534A23F440231360514B4E
:1023D4001B68504A43F4401313604E4B1B684D4A2C
:1023E40023F4400313604B4B1B684A4A43F0407389
:1023F4001360484B1B68474A23F040631360454B06
:102404001B68444A43F040531360424B1B68414AE3
:1024140023F0404313603F4B5B683E4A43F00303A1
:1024240053603C4B5B683B4A23F00C035360394BCD
:102434005B68384A43F030035360364B5B68354A77
:1024440023F0C0035360334B5B68324A43F4407358
:102454005360304B5B682F4A23F4406353602D4B29
:102464005B682C4A43F4405353602A4B5B68294A07
:1024740023F440435360274B5B68264A43F44033BC
:102484005360244B5B68234A23F440235360214B5D
:102494005B68204A43F4401353601E4B5B681D4A3B
:1024A40023F4400353601B4B5B681A4A43F04073A8
:1024B4005360184B5B68174A23F040635360154B15
:1024C4005B68144A43F040535360124B5B68114AF3
:1024D40023F040435360104B5B680F4A43F00303FF
:1024E40053600D4B5B680C4A23F00C0353600A4B9A
:1024F4005B68094A43F030035360074B5B68064A44
:1025040023F0C0030AE000BF0010024000100140A5
:10251400000C0140001801400014014053604A4B74
:102524005B68494A43F440735360474B5B68464ACF
:1025340023F440635360444B5B68434A43F4405381
:102544005360414B5B68404A23F4404353603E4B25
:102554005B683D4A43F4403353603B4B5B683A4A03
:1025640023F440235360384B5B68374A43F44013E9
:102574005360354B5B68344A23F440035360324B59
:102584005B68314A43F0407353602F4B5B682E4ABB
:1025940023F0406353602C4B5B682B4A43F0405359
:1025A4005360294B5B68284A23F040435360274B10
:1025B4001B68264A43F440531360244B1B68234A88
:1025C40023F440431360204B1B681F4A43F44033F9
:1025D40013601D4B1B681C4A23F4402313601C4BDF
:1025E4005B681B4A43F003035360194B5B68184A4A
:1025F40023F00C035360164B1B68154A43F04053F9
:102604001360134B1B68124A23F0404313600F4BB3
:102614005B680E4A43F4403353600C4B5B680B4ACF
:1026240023F440235360094B1B68084A43F44013C6
:102634001360064B1B68054A23F44003136000BF74
:102644000C37BD4680BC704700140140000C0140AB
:102654000010014080B400AF084B4FF088321A607C
:10266400074B4FF088321A60064B5B69054A43F00A
:102674001003536100BFBD4680BC70470008014091
:10268400001401400010014080B400AF084B4FF02B
:1026940033321A60074B4FF033321A60064B1B6912
:1026A400054A43F01003136100BFBD4680BC704768
:1026B40000080140001401400010014080B483B0C0
:1026C40000AF0346FB71554B9B69544A43F0080322
:1026D4009361534B5B68524A43F44C535360504BE1
:1026E4005B684F4A43F44C4353604C4BDB694B4AA1
:1026F40043F48003D3614B4B1B684A4A43F40043C1
:102704001360484B1B68474A23F400431360454B4E
:10271400DB68444A23F00103D360424B1B68414AFF
:1027240023F0400313603F4B1B683E4A23F08003B1
:1027340013603C4B1B683B4A23F001031360394B85
:102744005B6823F03F03374A43F024035360FB796B
:10275400002B12D1334B1B6A23F03F03314A43F061
:10276400250313622F4BDB6923F44F4323F0FF034C
:102774002C4A43F0B403D36129E0FB79012B14D133
:10278400284B1B6A23F03F03264A43F00B031362D2
:10279400244BDB6923F44F4323F0FF03214A43F422
:1027A400004343F01E03D36111E01E4B1B6A23F068
:1027B4003F031C4A43F0250313621A4BDB6923F4DD
:1027C4004F4323F0FF03174A43F0B403D361154B7F
:1027D4009B6823F4434323F0FF03124A43F48043EA
:1027E4009360104B1B680F4A23F01A0313600D4BC0
:1027F4001B680C4A43F0010313600A4B1B68094A27
:1028040043F480631360074BDB68064A23F0FE033E
:10281400D36000BF0C37BD4680BC70470010024037
:10282400000C01400058004080B485B000AF3B600C
:102834000346FB710B46BB801346BB714FF6FF7317
:10284400FB81634B1B68624A23F400631360604B93
:102854001B685F4A43F4806313605D4B1B685C4AEA
:1028640043F4807313604FF6FF73FB8102E0FB892E
:10287400013BFB81564B5B6903F00103002B02D142
:10288400FB89002BF3D1FB89002B01D101239AE0B2
:102894004F4B5B694E4B1B6923F0FF02FB794C499C
:1028A40013430B614FF6FF73FB8102E0FB89013B8D
:1028B400FB81474B5B6903F00203002B02D1FB89C8
:1028C400002BF3D1FB89002B01D101237BE0404B8A
:1028D4005B693F4B9B69BB79022B20D13C4B1B6945
:1028E40023F0FF03BA88120A92B2D2B21146384AD0
:1028F4000B4313614FF6FF73FB8102E0FB89013B3D
:10290400FB81334B5B6903F08003002B02D1FB890D
:10291400002BF3D1FB89002B01D1012353E02C4B75
:102924001B6923F0FF03BA88D2B21146284A0B432D
:1029340013614FF6FF73FB8102E0FB89013BFB81CE
:10294400234B5B6903F08003002B02D1FB89002B2E
:10295400F3D1FB89002B01D1012334E00023BB60B8
:1029640026E01B4B1B6923F0FF03B98BBA680A44AA
:1029740011463A680A4412781146154A0B4313610A
:102984004FF6FF73FB8102E0FB89013BFB81104B97
:102994005B6903F08003002B02D1FB89002BF3D188
:1029A400FB89002B01D101230DE0BB680133BB601F
:1029B4003B8BBA689A42D4DB054B1B68044A43F448
:1029C40000731360002318461437BD4680BC70475B
:1029D4000058004080B485B000AF3B600346FB71F3
:1029E4000B46BB711346BB804FF6FF73FB81934BC1
:1029F4001B68924A23F400631360904B1B688F4A50
:102A040043F4806313608D4B1B688C4A43F48073DA
:102A1400136002E0FB89013BFB81884B5B6903F097
:102A24000103002B02D1FB89002BF3D1FB89002B7E
:102A340001D10123FCE0814B5B69804B1B6923F0CE
:102A4400FF02FB797D4913430B614FF6FF73FB8152
:102A540002E0FB89013BFB81784B5B6903F00203D5
:102A6400002B02D1FB89002BF3D1FB89002B01D170
:102A74000123DDE0714B5B69704B9B69BB79022BD1
:102A840020D16E4B1B6923F0FF03BA88120A92B25D
:102A9400D2B21146694A0B4313614FF6FF73BB81EF
:102AA40002E0BB89013BBB81644B5B6903F080039B
:102AB400002B02D1BB89002BF3D1BB89002B01D1A0
:102AC4000123B5E05D4B1B6923F0FF03BA88D2B242
:102AD40011465A4A0B4313614FF6FF73FB8102E020
:102AE400FB89013BFB81554B5B6903F08003002BA1
:102AF40002D1FB89002BF3D1FB89002B01D10123E7
:102B040096E04E4B1B684D4A43F4807313604FF6B6
:102B1400FF73FB8102E0FB89013BFB81474B5B694F
:102B240003F00103002B02D1FB89002BF3D1FB89B5
:102B3400002B01D101237BE0404B5B693F4B1B69B8
:102B440023F0FF03FA7942F00102D2B211463B4A64
:102B54000B4313614FF6FF73FB8102E0FB89013BDA
:102B6400FB81364B5B6903F00203002B02D1FB8926
:102B7400002BF3D1FB89002B01D1012358E02F4B0B
:102B84005B692E4B9B690023BB604CE0BB695A1EFA
:102B9400BB689A421CD94FF6FF73FB8102E0FB89A4
:102BA400013BFB81254B5B6903F04003002B02D101
:102BB400FB89002BF3D1FB89002B01D1012337E0E2
:102BC4001E4B1969BB683A681344CAB21A7027E0ED
:102BD4001A4B1B68194A23F480631360174B1B6854
:102BE400164A43F4007313604FF6FF73FB8102E04F
:102BF400FB89013BFB81114B5B6903F04003002B14
:102C040002D1FB89002BF3D1FB89002B01D10123D5
:102C14000EE00A4B1969BB683A681344CAB21A70C9
:102C2400BB680133BB60BB68BA699A42AED8002363
:102C340018461437BD4680BC704700BF005800409A
:102C440080B500AF02F064FE00F068F8FFF726FBE1
:102C54002D4B5B692C4A43F0200353610A2002F098
:102C6400B9FE294B1B69284A43F0200313616420F1
:102C740002F0B0FE07F046FCFFF7D8FA0020FFF799
:102C84001DFD062002F09CFCFFF7FEFC002000F076
:102C9400B9FE1E4B5B691D4A43F0800353611A4B16
:102CA4001B69194A43F001031361184B5B69174A06
:102CB40043F480735361154B1B69144A43F020039A
:102CC4001361114B1B69104A43F004031361104B49
:102CD4005B690F4A43F0100353610E4B5B690D4A65
:102CE40043F010035361084B1B69074A43F0080380
:102CF4001361094B1B78002BFBD000F079F8064BCD
:102D040000221A70F5E700BF000C014000100140DA
:102D14000018014000140140A808002080B59CB0B0
:102D240000AF07F1380338220021184608F012F9E1
:102D340007F1240300221A605A609A60DA601A616B
:102D44003B1D20220021184608F004F90123BB632F
:102D54004FF480333B6400237B640123FB64002332
:102D6400FB630223BB654FF48033FB654FF4E01330
:102D74003B6600237B6607F13803184603F084FFA3
:102D84000346002B01D000F02DF80F237B620223B1
:102D9400BB620023FB624FF480633B6300237B63CD
:102DA40007F124030221184604F084FA0346002B99
:102DB40001D000F017F810237B6000233B623B1D19
:102DC400184604F09BFC0346002B01D000F00AF8DF
:102DD400034B01221A6000BF7037BD4680BD00BF9F
:102DE4007000424280B400AF72B600BFFEE700003C
:102DF40080B582B000AF944B1B78AC2B03D000F0AD
:102E04008FFD00F07ABD904BDB78A03B562B00F28F
:102E1400738501A252F823F0F93100083532000815
:102E24007F320008CF3200084B330008913300088A
:102E3400213400084334000865340008AB3400082A
:102E440021350008FD380008FD380008FD38000869
:102E5400FD380008FD3800082735000871350008E2
:102E6400FB3500089D360008FD36000803370008CE
:102E7400FD380008C5370008FD380008FD38000893
:102E8400FD380008FD380008FD380008FD3800084A
:102E9400FD380008FD380008FD380008FD3800083A
:102EA400FD380008FD380008FD380008FD3800082A
:102EB400FD380008FD380008FD380008FD3800081A
:102EC400FD380008FD380008FD380008FD3800080A
:102ED400FD380008FD380008812F0008FD3800087F
:102EE400FD380008FD380008FD380008FD380008EA
:102EF400FD380008FD380008FD380008FD380008DA
:102F0400792F0008FD380008FD380008FD38000856
:102F1400FD380008FD3800086D3800088F380008B7
:102F2400DD380008FD380008FD380008FD380008C9
:102F3400FD380008FD380008FD380008FD38000899
:102F4400FD380008FD380008FD380008FD38000889
:102F5400FD380008FD380008892F00080B300008F0
:102F64006530000841310008FD380008FD380008CC
:102F74006331000800F0EAFC00F0BFBC00F05AFD29
:102F840000F0BBBCFFF766FB304B5B692F4A43F094
:102F9400200353612E4B1B692D4A43F00403136134
:102FA4002B4B1B692A4A43F001031361274B5B69CE
:102FB400264A43F480735361234B5B791A04224BF2
:102FC4009B791B021343204AD27913431A46214B9F
:102FD4001A601D4B1A79204B1A701B4B1B7A1B026B
:102FE4001AB2194B5B7A1BB213431BB29AB21B4B36
:102FF4001A8000F0C1FD154B1B69144A43F02003ED
:10300400136100F07ABC124B1B69114A43F00403AC
:1030140013610F4B1B690E4A43F0010313610B4B01
:103024005B690A4A43F480735361084B1B69074A7E
:1030340043F020031361044B1A79074B1A7001F013
:103044008FFB00F05ABC00BF980100200010014023
:10305400000C0140C8050020DA050020D805002036
:103064009F4B1B699E4A43F0200313619D4B1B69D0
:103074009C4A43F001031361994B5B69984A43F4FA
:1030840080735361974B1B69964A43F004031361A1
:10309400954B00221A60954B00221A60FFF7F4FA50
:1030A400934B5B791A04924B9B791B021343904A0E
:1030B400D27913431A468F4B1A608D4B1B7B1B022C
:1030C4008B4A527B13431A468B4B1A60884B1A79EE
:1030D4008A4B1A70894B1B78072B0FD1814B5B6984
:1030E400804A43F0010353617D4B1B697C4A43F4DE
:1030F400807313614FF4487002F06CFC7C4B1B7AB4
:103104001B021AB27A4B5B7A1BB213431BB29AB2FC
:103114007B4B1A807B4BAC221A707A4B00225A707C
:10312400784B01229A70774BF322DA70754B0022A8
:103134001A710521734800F01FFCDEE36C4B9B7988
:103144001A466B4B5B791B021A43694B1B791B04B0
:1031540013431A466C4B1A6000F0B2FECDE3FFF73E
:1031640093FA5F4B1B695E4A43F0200313615D4B86
:103174001B695C4A43F001031361594B5B69584A6C
:1031840043F480735361574B1B69564A43F004035D
:103194001361554B00221A60544B00221A60FFF74A
:1031A40073FA534B5B791A04514B9B791B021343FB
:1031B4004F4AD27913431A464E4B1A604C4B9B7AB2
:1031C4001B024B4AD27A13431A464B4B1A60484BA4
:1031D4001A794A4B1A70464B1B7B1B021AB2444B9A
:1031E4005B7B1BB213431BB29AB2454B1A8001F0AE
:1031F400B1FC82E33E4B1A79404B1A703F4B1B786B
:10320400032B02D1FEF7C0FD01E0FDF79FFB3D4B10
:10321400AC221A703B4B00225A703A4B03229A702C
:10322400384BA022DA700721364800F0A5FB64E38E
:103234002F4B1A79314B1A70304B1B78012B02D16A
:10324400FDF7C0FC08E02D4B1B78032B02D1FEF7E1
:10325400E1FD01E0FDF712FC2A4BAC221A70294B68
:1032640000225A70274B04229A70264BA122DA704E
:103274000821244800F080FB3FE31D4B1A7A1F4BC2
:103284001A701E4B1B78012B02D1FDF727FE08E0B4
:103294001A4B1B78032B02D1FEF706FE01E0FDF763
:1032A40035FD184BAC221A70164B00225A70154B80
:1032B40001229A70134BA222DA70124B00221A7167
:1032C4000521104800F058FB17E3094B1A790B4B02
:1032D4001A700A4B1B78012B18D1FDF7FDFE1EE076
:1032E40000100140000C0140D0050020D40500204E
:1032F40098010020C8050020CC050020DA05002034
:10330400D8050020AC030020C00500208F4B1B789B
:10331400032B02D1FEF722FE01E0FDF7BBFE8C4B2E
:10332400AC221A708A4B00225A70894B01229A707F
:10333400874BA322DA70864BA1221A710521844897
:1033440000F01AFBD9E2834B1B791A46814B5B7957
:103354001B021A437F4B9B791B0413431A467E4B73
:103364001A607C4BDA79794B1A70784B1B78012BF5
:1033740002D1FDF74BFFC0E2744B1B78032B02D143
:10338400FEF702FEB9E2FDF7C5FEB6E2734B00227A
:103394001A60704B1B791A466E4B5B791B021A43F9
:1033A4006C4B9B791B0413431A466B4B1A60694B95
:1033B400DB791A466A4B1A60664B1A7A634B1A70A9
:1033C400624B1B78012B05D1FDF796F91120FDF70F
:1033D40027FA0FE05D4B1B78032B06D1FEF758FC50
:1033E40011214C20FEF7DAFB04E0FDF705F911206A
:1033F400FDF7E8F9564BAC221A70554B00225A706F
:10340400534B01229A70524BA622DA70504B002281
:103414001A7105214E4800F0AFFA6EE24B4B1B784F
:10342400012B02D1FEF702F867E2484B1B78032B0D
:1034340002D1FEF70BFE60E2FDF764FF5DE2434B51
:103444001B78012B02D1FDF793F856E23F4B1B7812
:10345400032B02D1FDF78CF84FE2FDF765F84CE23F
:103464003C4B1B791A463B4B5B791B021A43394B85
:103474009B791B0413431A46374B1A60354BDA7990
:10348400324B1A70314B1B78012B02D1FEF70EF927
:1034940033E22E4B1B78032B02D1FEF753FE2CE2B2
:1034A400FEF758F829E22B4B1B791A46294B5B7916
:1034B4001B0213435B001A46294B1A60254B9A7969
:1034C400224B1A70274B00221A60274B00221A60E5
:1034D4001E4B1B78012B02D1FDF70EF908E01B4BA4
:1034E4001B78032B02D1FEF7D3FB01E0FDF784F830
:1034F400FFF7CAF8164BAC221A70154B00225A700B
:10350400134B01229A70124BAA22DA70104B00223C
:103514001A7105210E4800F02FFAEEE1FEF75EF96C
:10352400EBE10C4B1B791A460A4B5B791B021A43DD
:10353400084B9B791B041A43064BDB791B06134388
:103544001A46054B1A6001F051FDD6E1DA05002058
:10355400AC03002098010020C8050020C405002009
:10356400CC050020D0050020D40500200023FB70EA
:103574000023BB7000237B708B4B5B698A4A43F446
:10358400805353619F2002F023F9002002F020F9B8
:1035940003467B70002002F01BF90346FB700020F9
:1035A40002F016F90346BB7000BF804B9B6803F022
:1035B4008003002BF9D17C4B1B697B4A43F4805375
:1035C40013617B4BAC221A70794B00225A70784BF2
:1035D40003229A70764BB122DA70754AFB78137124
:1035E400734ABB785371724A7B7893710721704890
:1035F40000F0C2F981E100237B7100233B716A4B27
:103604005B69694A43F480535361052002F0E0F892
:10361400002002F0DDF803467B7100BF634B9B681A
:1036240003F08003002BF9D15F4B1B695E4A43F41E
:10363400805313615C4B5B695B4A43F48053536171
:10364400352002F0C5F8002002F0C2F803463B71B1
:1036540000BF564B9B6803F08003002BF9D1524BFB
:103664001B69514A43F480531361514BAC221A70C5
:103674004F4B00225A704E4B02229A704C4BB2228E
:10368400DA704B4A7B791371494A3B7953710621AD
:10369400474800F071F930E1464B1B791A46454B17
:1036A4005B791B021A43434B9B791B041A43414B1E
:1036B400DB791B0613431A463F4B1A603D4B1B7ABA
:1036C4001A463C4B5B7A1B0213431A463B4B1A6067
:1036D400374BAC221A70364B00225A70344B0122FD
:1036E4009A70334BB422DA70314B00221A710521DF
:1036F4002F4800F041F900E101F01EFDFDE02A4BE6
:103704005B69294A43F480535361062002F060F850
:1037140000BF264B9B6803F08003002BF9D1224B9A
:103724001B69214A43F48053136100BF01F0DCFCA0
:10373400034603F00203002BF8D01B4B5B691A4AC3
:1037440043F480535361C72002F042F800BF174B83
:103754009B6803F08003002BF9D1134B1B69124AB9
:1037640043F48053136100BF01F0BEFC034603F031
:103774000103002BF8D041F2707002F02BF90C4BCE
:10378400AC221A700A4B00225A70094B01229A701B
:10379400074BB522DA70064B00221A710521044842
:1037A40000F0EAF8A9E000BF000C01400038004036
:1037B400AC03002098010020C8050020CC0500209F
:1037C400504B1B79FB714F4B5B79BB714E4B5B6963
:1037D4004D4A43F480535361502001F0F9FF00BF78
:1037E4004A4B9B6803F08003002BF9D1464B1B69BD
:1037F400454A43F480531361322002F0EBF8424B04
:103804005B69414A43F480535361012001F0E0FFB6
:10381400BB79184601F0DCFFFB79184601F0D8FFAC
:1038240000BF3A4B9B6803F08003002BF9D1364B61
:103834001B69354A43F480531361322002F0CAF8FD
:10384400334BAC221A70324B00225A70304B012297
:103854009A702F4BB722DA702D4B00221A71052172
:103864002B4800F089F848E0264B1B791A46254B73
:103874005B791B021A43234B9B791B0413431A469F
:10388400244B1A6001F00CFD37E01E4B1B791A46DD
:103894001C4B5B791B021A431A4B9B791B04134381
:1038A4001A461C4B1A60174BDB791A461A4B1A60DE
:1038B400174BAC221A70164B00225A70144B01227B
:1038C4009A70134BE222DA70114B00221A7105210F
:1038D4000F4800F051F810E00A4B9B791A46094B47
:1038E4005B791B021A43074B1B791B0413431A46CB
:1038F4000A4B1A6001F080FD00BF00BF0837BD46C7
:1039040080BD00BF98010020000C01400038004039
:10391400AC030020C8050020CC050020C005002011
:1039240080B582B000AFAC233B7000237B700123D1
:10393400BB70EE23FB7000233B713B460521184608
:1039440000F01AF800BF0837BD4680BD80B582B0CC
:1039540000AFAC233B7000237B700123BB70DA23E0
:10396400FB7000233B713B460521184600F004F828
:1039740000BF0837BD4680BD80B584B000AF786015
:103984000B467B807B881946786806F0B7FE0346B1
:10399400FB7397F90F30002BF4D100BF00BF103731
:1039A400BD4680BD80B584B000AF03463960FB716D
:1039B4001346BB80AC233B72BB881B0A9BB2DBB2B1
:1039C4007B72BB88DBB2BB72FB79FB7207F1080325
:1039D4000421184606F092FE0346FB7397F90F3054
:1039E400002BF3D1BB881946386806F087FE0346DE
:1039F400FB7397F90F30002BF4D100BF00BF1037D1
:103A0400BD4680BD80B483B000AF7860074A7B6850
:103A14009BB2D3607B681B0A054A03F47F43D360DF
:103A240000BF0C37BD4680BC704700BF0018014082
:103A34000014014080B500AFFEF726FE484BDA794A
:103A4400484BDA60464B1B791A04454B5B791B02E1
:103A54001343434A927913431A46434B1A60424B29
:103A64001B681846FFF7CEFF3D4B1B7A002B0CD08A
:103A74003D4B1B6803F40073002B06D03B4B1B69C2
:103A84003A4A43F08003136105E0384B5B69374AD7
:103A940043F080035361324B5B7A002B06D0334BE7
:103AA4001B69324A43F02003136105E02F4B5B6925
:103AB4002E4A43F020035361294B9B7A002B1DD0DF
:103AC400274B1B7A002B0CD0294B5B69284A43F007
:103AD40001035361254B1B69244A43F4807313612A
:103AE40018E0234B1B69224A43F0010313611F4B67
:103AF4005B691E4A43F4807353610BE01C4B5B69A2
:103B04001B4A43F001035361184B5B69174A43F4A2
:103B140080735361124BDB7A002B06D0144B1B6964
:103B2400134A43F00403136105E0114B5B69104A27
:103B340043F0040353610F4BAC221A700D4B002267
:103B44005A700C4B01229A700A4BD022DA70094B3E
:103B5400AC221A7105210748FFF70EFF00BF80BD94
:103B64009801002000080140C40500200010014015
:103B7400000C0140AC03002080B500AFFEF76AFDE5
:103B84004E4B1B78013B082B00F2948001A252F8A3
:103B940023F000BFBD3B0008B93C0008B93C000855
:103BA400113C0008E73B00083B3C0008B93C000816
:103BB400653C00088F3C000800F086F8404B1B6908
:103BC4003F4A43F0010313613E4B5B693D4A43F4B2
:103BD400807353613A4B1B69394A43F00403136100
:103BE40069E000F071F8364B1B69354A43F0010374
:103BF4001361344B5B69334A43F480735361304B34
:103C04001B692F4A43F00403136154E000F05CF88D
:103C14002B4B1B692A4A43F001031361294B5B694F
:103C2400284A43F480735361254B1B69244A43F0AB
:103C3400040313613FE000F047F8214B1B69204A5D
:103C440043F0010313611F4B5B691E4A43F4807305
:103C540053611B4B1B691A4A43F0040313612AE0A6
:103C640000F0ACF8164B1B69154A43F001031361CD
:103C7400144B5B69134A43F480735361104B1B6903
:103C84000F4A43F00403136115E000F01DF80C4BD8
:103C94001B690B4A43F0010313610A4B5B69094A30
:103CA40043F480735361064B1B69054A43F00403D4
:103CB400136100E000BF00BF80BD00BFDA05002033
:103CC400000C01400010014080B582B000AF002319
:103CD4007B605DE0334BAC221A70324B02225A7087
:103CE400304B00229A702F4BF022DA702E4B5B6916
:103CF4002D4A43F02003536100233B602DE03A68D2
:103D04007B6813441846FFF77DFE284B5B69274AFE
:103D140043F001035361244B5B69234A43F48073EA
:103D240053610120FEF798FA214B9A683B680433EB
:103D3400D1B21C4AD1541D4B1B691C4A43F00103E8
:103D44001361194B5B69184A43F480735361012072
:103D5400FEF782FA3B6801333B603B68B3F5007FB2
:103D6400CDDB114B1B69104A43F0200313614FF460
:103D740001710C48FFF700FE00BF0E4B1B78002BAF
:103D8400FBD00C4B00221A707B6803F500737B6038
:103D9400094B1B687A689A429CD300BF00BF08375E
:103DA400BD4680BDAC03002000100140000C014062
:103DB40000080140A9080020C805002080B582B091
:103DC40000AF00237B6063E0364B5B69354A43F008
:103DD40020035361344B5B69334A43F0010353615D
:103DE400304B5B692F4A43F4807353612F4BAC22F1
:103DF4001A702E4B02225A702C4B00229A702B4BB5
:103E0400F022DA7000233B601CE07B685A083B68B0
:103E140013441846FFF7F6FD0120FEF71DFA244B64
:103E24009A683B685B000533D1B2204AD154214BD8
:103E34009A683B6802335B00D1B21C4AD1543B6898
:103E440001333B603B68FF2BDFDD174B1B69164AD0
:103E540043F001031361134B5B69124A43F480730B
:103E64005361104B1B690F4A43F0200313614FF455
:103E740001710E48FFF780FD00BF0F4B1B78002B2C
:103E8400FBD00D4B00221A707B6803F500737B6036
:103E94000A4B1B687A689A4296D300BF00BF083762
:103EA400BD4680BD00100140000C0140AC03002061
:103EB4000008014000140140A9080020C8050020A2
:103EC40080B500AF1B4B1B78013B092B2ED801A2F8
:103ED40052F823F0013F0008313F0008313F000849
:103EE400073F00080D3F0008133F0008193F000872
:103EF4001F3F0008253F00082B3F000800F01CF876
:103F040015E000F083F812E000F00CF90FE000F087
:103F140053F90CE000F000FB09E000F027FA06E09A
:103F240000F0AEF903E000F09BFA00E000BF00BF30
:103F340080BD00BFDA05002080B582B000AF002349
:103F44007B603CE02C4B5B692B4A43F020035361BC
:103F5400AA2145F2555000F023FB552142F6AA2030
:103F640000F01EFBA02145F2555000F019FB002380
:103F74003B6011E0214B1A683B681A447B68D018F7
:103F84003A687B68134407331D4AD35C194600F032
:103F940007FB3B6801333B603A681A4B1B689A4243
:103FA400E8D3154B1B69144A43F0200313610C201A
:103FB40001F010FD7A68134B1B6813447B607B6827
:103FC400B3F5007FBEDB104BAC221A700E4B0022FF
:103FD4005A700D4B01229A700B4BF322DA700A4B84
:103FE40000221A7105210848FFF7C6FC0023184671
:103FF4000837BD4680BD00BF00100140C005002049
:1040040098010020CC050020AC03002080B582B0CC
:1040140000AF3E4B1B693D4A43F0200313613C4B08
:104024001B693B4A43F001031361384B5B69374A10
:1040340043F480735361364B1B69354A43F00403E0
:104044001361324B5B69314A43F02003536100230F
:104054007B6038E07B6807332E4AD35CFF2B2ED07D
:104064002D4B1A687B6813441846FFF7CBFC7B681A
:104074000733284AD25C294BDA60244B5B69234A14
:1040840043F0200353610A20FEF7E6F8204B5B69F6
:104094001F4A43F0040353611E20FEF7DDF81C4B56
:1040A4001B691B4A43F004031361184B1B69174A2D
:1040B40043F0200313616420FEF7CEF800E000BF54
:1040C4007B6801337B60134B9B781A46114B5B78FA
:1040D4001B0213437A689A42BCDB114BAC221A7060
:1040E4000F4B00225A700E4B01229A700C4BF32294
:1040F400DA700B4B00221A7105210948FFF73CFCCA
:10410400002318460837BD4680BD00BF001001409B
:10411400000C014098010020C00500200008014067
:10412400AC03002080B582B000AF1E4B5B691D4A12
:1041340043F02003536100237B601EE07A681A4B2E
:104144001B6813441846FFF75DFC7B680733174A66
:10415400D25C174BDA60174B5B69164A43F00403D1
:1041640053610120FEF778F8124B1B69114A43F0A2
:10417400040313617B6801337B600C4B9B781A4604
:104184000A4B5B781B0213437A689A42D6DB054BD1
:104194001B69044A43F020031361002318460837BF
:1041A400BD4680BD00100140C005002098010020DC
:1041B40000080140000C014080B582B000AF2B4BD9
:1041C4005B692A4A43F02003536100237B602AE0A1
:1041D4007B680733264AD35CFF2B20D0AA2145F203
:1041E400555000F0DDF9552142F6AA2000F0D8F927
:1041F400A02145F2555000F0D3F97A681D4B1B6895
:104204001A447B6807331A49CB5C1946104600F000
:10421400C7F9194B1B881846FEF71EF800E000BFCB
:104224007B6801337B607B68B3F5007FD0DB0F4B89
:104234001B690E4A43F020031361104BAC221A7021
:104244000E4B00225A700D4B01229A700B4BF32235
:10425400DA700A4B00221A7105210848FFF78CFB1B
:10426400002318460837BD4680BD00BF001001403A
:1042740098010020C0050020D8050020AC030020D0
:1042840080B582B000AF00237B604AE07B680833CE
:10429400324AD35CFF2B05D17B6807332F4AD35CAA
:1042A400FF2B3AD02E4B5B692D4A43F02003536118
:1042B4004FF42A4145F2555000F0D8F94FF4AA4181
:1042C40042F6AA2000F0D2F94FF4204145F25550AD
:1042D40000F0CCF9234B1A687B68134458087B68B8
:1042E40008331E4AD35C1B021AB27B6807331B498E
:1042F400CB5C1BB213431BB29BB2194600F0B6F958
:104304000520FDF7A9FF164B1B69154A43F020034E
:1043140013614B20FDF7A0FF00E000BF7B68023370
:104324007B607B68B3F5007FB0DB0F4BAC221A7067
:104334000D4B00225A700C4B01229A700A4BF32247
:10434400DA70094B00221A7105210748FFF714FBA4
:10435400002318460837BD4680BD00BF98010020E1
:1043640000100140C0050020AC03002080B582B0DD
:1043740000AF00237B604CE0344B5B69334A43F06D
:10438400200353614FF42A4145F2555000F06EF971
:104394004FF4AA4142F6AA2000F068F94FF42041F4
:1043A40045F2555000F062F900233B601EE0284BB3
:1043B4001A683B681A447B68134458083A687B6857
:1043C40013440833234AD35C1B021AB239687B684E
:1043D4000B4407331F49CB5C1BB213431BB29BB284
:1043E400194600F043F93B6802333B603A681A4BC4
:1043F4001B689A42DBD3154B1B69144A43F0200314
:1044040013610A2001F0E6FA7A68134B1B6813441F
:104414007B607B68B3F5007FAEDB104BAC221A7077
:104424000E4B00225A700D4B01229A700B4BF32253
:10443400DA700A4B00221A7105210848FFF79CFA2A
:10444400002318460837BD4680BD00BF0010014058
:10445400C005002098010020CC050020AC030020FA
:1044640080B582B000AF2A4B9B781A04284BDB78C6
:104474001B021344264A127913443B6000237B60D9
:104484003EE0244B5B69234A43F0200353614FF41D
:104494002A4140F2555000F0E9F84FF4AA4140F2A5
:1044A400AA2000F0E3F84FF4204140F2555000F008
:1044B400DDF83B685A087B68D90F0B445B10D018B1
:1044C4007B680733124AD35C1B021AB27B6806333B
:1044D4000F49CB5C1BB213431BB29BB2194600F0CD
:1044E400C5F80520FDF7B8FE0A4B1B69094A43F0DD
:1044F400200313614B20FDF7AFFE7B6802337B6022
:104504007B681F2BBDDD002318460837BD4680BDE0
:10451400980100200010014080B582B000AF1D4B0F
:104524009B781A041B4BDB781B021344194A12793B
:1045340013443B606420FDF78FFE00237B6020E082
:104544007A683B6813441846FFF75CFA7B680633C5
:10455400104AD25C104BDA60104B5B690F4A43F08F
:10456400200353616420FDF777FE0C4B1B690B4A53
:1045740043F0200313610420FDF76EFE7B680133D2
:104584007B607B681F2BDBDD002318460837BD46A4
:1045940080BD00BF980100200008014000100140C8
:1045A40080B582B000AF78600B46FB707868FFF787
:1045B40029FA0E4AFB78D3600520FDF74DFE0C4B1B
:1045C4005B690B4A43F0040353610F20FDF744FE7B
:1045D400074B1B69064A43F0040313610F20FDF7E0
:1045E4003BFE00BF0837BD4680BD00BF0008014048
:1045F400000C014080B584B000AF78607868FFF7A4
:1046040001FA174B5B69164A43F020035361154BBB
:104614005B69144A43F001035361114B5B69104A0F
:1046240043F4807353610A20FDF716FE0E4B9B681A
:10463400FB730C4B1B690B4A43F001031361084BDA
:104644005B69074A43F480735361054B1B69044A51
:1046540043F020031361FB7B18461037BD4680BD31
:1046640000100140000C01400008014080B584B0F6
:1046740000AF78600B467B807B88FB737868FFF71C
:10468400C1F97B881B0A9AB2134BDA60134BDB68BF
:10469400124A03F47F43D360104BDA68FB7B0F4963
:1046A4001343CB600220FDF7D7FD0D4B5B690C4A29
:1046B40043F0040353610520FDF7CEFD084B1B694D
:1046C400074A43F0040313610F20FDF7C5FD00BF43
:1046D4001037BD4680BD00BF0008014000140140F2
:1046E400000C014080B584B000AF78607868FFF7B3
:1046F40089F9174B5B69164A43F001035361154B63
:104704005B69144A43F4807353610120FDF7A4FDEF
:10471400114B9B689BB21B02FB81104B9B68DBB265
:104724009AB2FB891343FB81094B1B69084A43F086
:1047340001031361074B5B69064A43F480735361B9
:104744000120FDF789FDFB8918461037BD4680BD61
:10475400000C014000100140000801400014014019
:1047640080B500AF164B1B78013B092B25D801A25D
:1047740052F823F0A1470008BF470008BF470008CC
:10478400A7470008BF470008AD470008BF47000817
:10479400B3470008BF470008B947000800F012F803
:1047A4000CE000F00FF809E000F088F806E000F0F3
:1047B400D9F803E000F052F900E000BF00BF80BD6B
:1047C400DA05002080B500AFFDF75EFF384B5B696A
:1047D400374A43F020035361AA2145F25550FFF7AD
:1047E400DFFE552142F6AA20FFF7DAFE802145F2CA
:1047F4005550FFF7D5FEAA2145F25550FFF7D0FEDC
:10480400552142F6AA20FFF7CBFE602145F2555010
:10481400FFF7C6FEFDF71EFF0A2001F0DBF80020BB
:10482400FFF7E8FE03461A46224B1A710120FFF7F0
:10483400E1FE03461A461F4B5A710220FFF7DAFEC7
:1048440003461A461B4B9A711B48FFF7D3FE0346D7
:104854001A46184BDA71FDF717FFAA2145F2555095
:10486400FFF79EFE552142F6AA20FFF799FEF0219C
:1048740045F25550FFF794FE0D4B1B690C4A43F06B
:10488400200313610A2001F0A5F80A4BF122DA7023
:10489400084BAC221A70074B00225A70054B0422B5
:1048A4009A7008210348FFF767F800BF80BD00BF76
:1048B40000100140AC030020F2FF030080B500AFFC
:1048C400FDF7E2FE254B5B69244A43F02003536164
:1048D400AA2145F25550FFF763FE552142F6AA205E
:1048E400FFF75EFE902145F25550FFF759FEFDF7A4
:1048F400B1FE0A2001F06EF80020FFF77BFE0346AC
:104904001A46174B1A710120FFF774FE03461A4624
:10491400134B5A71124B00229A71114B0022DA7117
:10492400FDF7B2FEF0210020FFF73AFE0B4B1B69A6
:104934000A4A43F020031361094BAC221A70084B56
:1049440000225A70064B04229A70054BF122DA7049
:1049540008210348FFF710F800BF80BD0010014094
:10496400AC03002080B582B000AF0023FB80FDF7CC
:104974008BFE384B5B69374A43F0200353614FF495
:104984002A4145F25550FFF771FE4FF4AA4142F611
:10499400AA20FFF76BFE4FF4104145F25550FFF784
:1049A40065FE0520FDF758FCFDF754FE0A2001F0D2
:1049B40011F80020FFF796FE03461B0A9BB2DAB2F9
:1049C400254B1A714FF42A4145F25550FFF74EFE1C
:1049D4004FF4AA4142F6AA20FFF748FE4FF41041D3
:1049E40045F25550FFF742FE0520FDF735FCFDF773
:1049F40031FE0A2000F0EEFF0120FFF773FE0346AC
:104A0400FB80FB88DAB2144B5A71FB881B0A9BB2F9
:104A1400DAB2114B9A71104B0022DA710D4B1B69FB
:104A24000C4A43F020031361FDF72EFE0A4BAC221F
:104A34001A70094B00225A70074B04229A70064BD5
:104A4400F122DA7008210448FEF796FF00BF083708
:104A5400BD4680BD00100140AC03002080B582B08B
:104A640000AF0023FB80FDF70FFE384B5B69374A2C
:104A740043F0200353614FF42A4140F25550FFF7AD
:104A8400F5FD4FF4AA4140F2AA20FFF7EFFD4FF4E1
:104A9400104140F25550FFF7E9FD0520FDF7DCFB1E
:104AA400FDF7D8FD0A2000F095FF0020FFF71AFE5D
:104AB40003461B0A9BB2DAB2254B1A714FF42A4102
:104AC40040F25550FFF7D2FD4FF4AA4140F2AA201C
:104AD400FFF7CCFD4FF4104140F25550FFF7C6FDEF
:104AE4000520FDF7B9FBFDF7B5FD0A2000F072FFC4
:104AF4000120FFF7F7FD0346FB80FB881B0A9BB2EE
:104B0400DAB2134B9A71FB88DAB2114B5A71104B1B
:104B14000022DA710D4B1B690C4A43F02003136128
:104B2400FDF7B2FD0A4BAC221A70094B00225A70F1
:104B3400074B04229A70064BF122DA7008210448CC
:104B4400FEF71AFF00BF0837BD4680BD00100140C4
:104B5400AC03002080B500AF1B4B1B78013B092B35
:104B64002ED801A252F823F0954B0008C54B00083B
:104B7400C54B00089B4B0008A14B0008A74B00083D
:104B8400BF4B0008AD4B0008B34B0008B94B0008FD
:104B940000F01CF815E000F009F912E000F074F9D7
:104BA4000FE000F013F80CE000F05AF809E000F010
:104BB40057F806E000F0A4F803E000F0A1F900E0E3
:104BC40000BF00BF80BD00BFDA05002080B500AF84
:104BD400214B5B69204A43F020035361AA2145F22B
:104BE4005550FFF7DDFC552142F6AA20FFF7D8FC0B
:104BF400802145F25550FFF7D3FCAA2145F25550C8
:104C0400FFF7CEFC552142F6AA20FFF7C9FC10217C
:104C140045F25550FFF7C4FC0F4B1B690E4A43F095
:104C2400200313614FF4FA6000F0D4FE0B4BAC2266
:104C34001A700A4B00225A70084B01229A70074BD3
:104C4400F622DA70054B00221A7105210348FEF79B
:104C540093FE00BF80BD00BF00100140AC030020E4
:104C640080B500AF244B5B69234A43F020035361B2
:104C74004FF42A4145F25550FFF7F8FC4FF4AA418E
:104C840042F6AA20FFF7F2FC4FF4004145F25550DA
:104C9400FFF7ECFC4FF42A4145F25550FFF7E6FCD0
:104CA4004FF4AA4142F6AA20FFF7E0FC4FF48051EA
:104CB40045F25550FFF7DAFC41F2707000F08AFEBD
:104CC4000D4B1B690C4A43F0200313610B4BAC22C0
:104CD4001A700A4B00225A70084B01229A70074B33
:104CE400F622DA70054B00221A7105210348FEF7FB
:104CF40043FE00BF80BD00BF00100140AC03002094
:104D040080B500AF274B5B69264A43F0200353610B
:104D14004AF6AA2140F25550FFF7A8FC45F2555136
:104D240040F2AA20FFF7A2FC48F2800140F255505D
:104D3400FFF79CFC4AF6AA2140F25550FFF796FC77
:104D440045F2555140F2AA20FFF790FC41F21001C0
:104D540040F25550FFF78AFC41F2707000F03AFEC1
:104D64004FF2F00140F25550FFF780FC0D4B1B69E8
:104D74000C4A43F0200313610B4BAC221A700A4B0C
:104D840000225A70084B01229A70074BF622DA70FF
:104D9400054B00221A7105210348FEF7EDFD00BF03
:104DA40080BD00BF00100140AC03002080B500AFFF
:104DB400324B1B69314A43F020031361304B1B69AA
:104DC4002F4A43F0010313612C4B5B692B4A43F4D4
:104DD400807353612A4B1B69294A43F0040313610E
:104DE400264B5B69254A43F020035361244B5B69DE
:104DF400234A43F001035361204B1B691F4A43F4C8
:104E040080731361022000F0E5FD1D4B5B691C4AB1
:104E140043F004035361C82000F0DCFD184B1B6908
:104E2400174A43F004031361022000F0D3FD144B2E
:104E34001B69134A43F001031361104B5B690F4A6A
:104E440043F4807353610D4B1B690C4A43F02003F8
:104E540013610C4BAC221A700A4B00225A70094B96
:104E640001229A70074BF622DA70064B00221A715F
:104E740005210448FEF780FD00BF80BD00100140FD
:104E8400000C0140AC03002080B582B000AF194B88
:104E94005B69184A43F02003536100237B6007E0F9
:104EA4007B68FF211846FFF77BFB7B6801337B603F
:104EB4007A68114B1B689A42F2D30E4B1B690D4A58
:104EC40043F0200313610D4BAC221A700B4B0022EC
:104ED4005A700A4B01229A70084BF622DA70074B7B
:104EE40000221A7105210548FEF746FD00BF083768
:104EF400BD4680BD00100140C8050020AC03002061
:104F040080B500AFFDF7C0FB344B1B69334A43F057
:104F140001031361324B5B69314A43F4807353617B
:104F24002F4B1B692E4A43F0200313610020FEF728
:104F340069FD2C4BFF22DA60294B1B69284A43F098
:104F440080031361254B5B69244A43F001035361D9
:104F5400234B1B69224A43F4807313616420FDF7D9
:104F64007BF91F4B5B691E4A43F0200353614FF4E6
:104F74007A7000F02FFD1A4B1B69194A43F0200385
:104F840013616420FDF768F9154B5B69144A43F01B
:104F940080035361114B1B69104A43F001031361F1
:104FA4000F4B5B690E4A43F4807353610A2000F08F
:104FB40011FD0D4BAC221A700B4B00225A700A4B98
:104FC40001229A70084BF622DA70074B00221A71FC
:104FD40005210548FEF7D0FC00BF80BD000C014050
:104FE4000010014000080140AC03002090B583B0DC
:104FF40000AF384B5B69374A43F480535361364BF7
:105004001B68B3F1807F0FD9132000F0E1FB00206F
:1050140000F0DEFB002000F0DBFB002000F0D8FBFA
:10502400002000F0D5FB0BE0032000F0D1FB0020B2
:1050340000F0CEFB002000F0CBFB002000F0C8FB0A
:1050440000237B602FE0254BAC221A70234B0222F5
:105054005A70224B00229A70204BB022DA7000233F
:105064003B600BE03B681C1DFF2000F0B1FB0346D6
:105074001A461A4B1A553B6801333B603B68B3F53B
:10508400007FEFDB4FF401711448FEF775FC00BF9D
:10509400134B1B78002BFBD0114B00221A707B683A
:1050A40003F500737B607A680B4B1B689A42CAD382
:1050B40000BF0C4B9B6803F08003002BF9D1054B18
:1050C4001B69044A43F48053136100BF0C37BD4687
:1050D40090BD00BF000C0140C8050020AC030020B7
:1050E400A90800200038004080B582B000AF104B02
:1050F4005B690F4A43F480535361052000F068FB59
:10510400002000F065FB0346FB7100BF094B9B6860
:1051140003F08003002BF9D1054B1B69044A43F4C7
:1051240080531361FB7918460837BD4680BD00BF24
:10513400000C01400038004080B582B000AF524BF3
:105144005B69514A43F480535361062000F040FBED
:1051540000BF4E4B9B6803F08003002BF9D14A4BF0
:105164001B69494A43F48053136100BFFFF7BCFF36
:10517400034603F00203002BF8D0434B5B69424A19
:1051840043F480535361022000F022FB404B1B6820
:10519400B3F1807F14D93F4B1B79184600F018FBFC
:1051A4003C4B5B79184600F013FB3A4B9B7918464D
:1051B40000F00EFB374BDB79184600F009FB0EE0DC
:1051C400344B5B79184600F003FB324B9B7918464D
:1051D40000F0FEFA2F4BDB79184600F0F9FA0023B1
:1051E4007B6009E07B6808332A4AD35C184600F0E8
:1051F400EFFA7B6801337B607A68274B1B689A421D
:10520400F0D300BF214B9B6803F08003002BF9D13E
:105214001D4B1B691C4A43F48053136100BFFFF705
:1052240063FF034603F00103002BF8D1164B5B69BF
:10523400154A43F480535361042000F0C9FA00BFB7
:10524400124B9B6803F08003002BF9D10E4B1B69B2
:105254000D4A43F480531361104BAC221A700F4B68
:1052640000225A700D4B01229A700C4BB422DA7052
:105274000A4B00221A7105210848FEF77DFB00BF86
:105284000837BD4680BD00BF000C01400038004017
:10529400C805002098010020CC050020AC030020A4
:1052A40080B586B002AF504B1B68B3F5007F36D88B
:1052B4004D4B1B6800934D4B00220121A020FDF7AC
:1052C40089FB4B4BAC221A70474B1B681B0ADAB2A2
:1052D400474B5A70444B1B68DAB2454B9A70444BA7
:1052E400E022DA700023FB600AE0FB6804333F49E4
:1052F400FA680A4411783E4AD154FB680133FB60D2
:10530400FA68394B1B689A42EFD3374B1B689BB240
:1053140004339BB219463648FEF72EFB5FE0324B4E
:105324001B68B3F5806F04D02F4B1B68B3F5006F77
:1053340031D10023FB7200237B6026E0FB7A5B0003
:105344005BB263F05F035BB2D8B27B689BB2DBB243
:105354009AB24FF400730093254B0121FDF73AFBF9
:105364004FF400722249E020FEF71CFBFB7A023363
:10537400FB7200BF1F4B1B78002BFBD01D4B002280
:105384001A707B6803F500737B607A68164B1B68A0
:105394009A42D3D323E000233B601BE03B689AB2DC
:1053A4004FF400730093124B0221A020FDF712FB6F
:1053B4004FF400720E49E020FEF7F4FA00BF0D4BE3
:1053C4001B78002BFBD00B4B00221A703B6803F5B3
:1053D40000733B603A68044B1B689A42DED3002397
:1053E40018461037BD4680BDC8050020980100202E
:1053F400AC030020A908002080B588B002AF6B4B35
:105404001B68802B23D100237B611CE07B6999B24C
:10541400674B1B689BB27A6992B2073292B20192CF
:105424000093644B0122A020FDF7FEF90346002BF4
:1054340001D00123B6E00F2000F0CCFA7A695C4B6E
:105444001B6813447B617B697F2BDFDD96E0574B40
:105454001B68B3F5807F28D100233B6121E03B69C1
:105464009AB2554B1B689BB2134499B2504B1B68BC
:105474009BB23A6992B2073292B2019200934D4BB9
:105484000122A020FDF7D0F90346002B01D001230F
:1054940088E00F2000F09EFA3A69454B1B681344DC
:1054A4003B613B697F2BDADD68E0404B1B68B3F559
:1054B400007F09D03D4B1B68B3F5806F04D03B4B94
:1054C4001B68B3F5006F31D13A4B5B795B00FB711C
:1054D4000023FB6026E0FB7963F05F03D8B2364B10
:1054E4001B689BB2DBB29AB2FB689BB2134499B2BD
:1054F4002F4B1B689BB2FA6892B2073292B20192A8
:1055040000932C4B0122FDF78FF90346002B01D0A9
:10551400012347E0142000F05DFAFA68244B1B686D
:105524001344FB60FB687F2BD5DD27E00023BB60C1
:1055340021E0BB689AB2204B1B689BB2134499B21A
:105544001B4B1B689BB2BA6892B2073292B20192AB
:105554000093184B0222A020FDF766F90346002BA6
:1055640001D001231EE0192000F034FABA68104B70
:105574001B681344BB60BB687F2BDADD0F4BAC2286
:105584001A700E4B00225A700C4B01229A700B4B6E
:10559400E222DA70094B00221A7105210748FEF74E
:1055A400EBF9002318461837BD4680BDC805002016
:1055B400CC05002098010020C0050020AC03002089
:1055C40080B483B000AF0346FB717E4B9B697D4A78
:1055D40043F0080393617B4BDB697A4A43F48043CD
:1055E400D361794B5B68784A23F0404323F440034A
:1055F4005360754B5B68744A43F0004343F4000303
:105604005360714B5B68704A43F0405343F440135A
:1056140053606D4B5B686C4A23F0407353606A4B74
:105624005B68694A23F080635360674B5B68664A32
:1056340043F000635360644B5B68634A43F4403354
:105644005360614B5B68604A23F440235360FB79E9
:10565400072B00F2818001A252F823F08156000842
:105664008F560008A9560008C3560008E9560008DA
:1056740003570008295700084F570008534B1B686D
:10568400524A43F0380313606DE0504B1B684F4A95
:1056940043F0380313604D4B1B684C4A23F0080356
:1056A400136060E0494B1B68484A43F038031360B9
:1056B400464B1B68454A23F01003136053E0434BE9
:1056C4001B68424A43F038031360404B1B683F4A4F
:1056D40023F0080313603D4B1B683C4A23F010037E
:1056E400136040E0394B1B68384A43F038031360B9
:1056F400364B1B68354A23F02003136033E0334BE9
:105704001B68324A43F038031360304B1B682F4A3E
:1057140023F0200313602D4B1B682C4A23F008034D
:10572400136020E0294B1B68284A43F038031360B8
:10573400264B1B68254A23F020031360234B1B6868
:10574400224A23F0100313600DE0204B1B681F4A0C
:1057540023F03803136006E01C4B1B681B4A43F01C
:105764003803136000BF194B1B68184A23F0020367
:105774001360164B1B68154A23F001031360134B87
:105784001B68124A23F400631360104B1B680F4A12
:1057940023F0800313600D4B1B680C4A43F44073E1
:1057A40013600A4B1B68094A43F004031360074B58
:1057B4001B68064A43F04003136000BF0C37BD4624
:1057C40080BC704700100240000C014000380040CB
:1057D40080B483B000AF0346FB7100BF0B4B9B68E2
:1057E40003F00203002BF9D0084AFB79D36000BF11
:1057F400064B9B6803F00103002BF9D0034BDB68D5
:10580400DBB218460C37BD4680BC704700380040F8
:1058140080B483B000AF0E4B9B690D4A43F0010383
:1058240093610B4B9B6903F001037B607B68084B1E
:10583400DB69074A43F08053D361054BDB6903F00E
:1058440080533B603B6800BF0C37BD4680BC70474B
:105854000010024080B400AFFEE780B400AFFEE762
:1058640080B400AFFEE780B400AFFEE780B400AFC1
:10587400FEE780B400AF00BFBD4680BC704780B473
:1058840000AF00BFBD4680BC704780B400AF00BF0E
:10589400BD4680BC704780B500AF00F07FF800BF04
:1058A40080BD000080B500AF024800F003FB00BFDC
:1058B40080BD00BFAC0B002080B400AF00BFBD466C
:1058C40080BC70470C480D490D4A002302E0D458AF
:1058D400C4500433C4188C42F9D30A4A0A4C002336
:1058E40001E013600432A242FBD3FFF7E5FF05F0A9
:1058F4000DFBFDF7A5F97047000000207C01002096
:1059040008B000087C010020CC110020FEE7000054
:1059140080B500AF084B1B68074A43F010031360BF
:10592400032000F047F90F2000F008F8FFF770FF9C
:105934000023184680BD00BF0020024080B582B01D
:1059440000AF7860124B1A68124B1B7819464FF45B
:105954007A73B3FBF1F3B2FBF3F3184600F05FF98B
:105964000346002B01D001230EE07B680F2B0AD8DD
:10597400002279684FF0FF3000F027F9064A7B686F
:105984001360002300E0012318460837BD4680BD9C
:1059940000000020080000200400002080B400AFB4
:1059A400054B1B781A46054B1B681344034A1360C6
:1059B40000BFBD4680BC704708000020DC05002005
:1059C40080B400AF024B1B681846BD4680BC7047CC
:1059D400DC05002080B584B000AF7860FFF7F0FFED
:1059E400B8607B68FB60FB68B3F1FF3F05D00A4BEE
:1059F4001B781A46FB681344FB6000BFFFF7E0FF07
:105A04000246BB68D31AFA689A42F7D800BF00BFAF
:105A14001037BD4680BD00BF0800002080B485B0AB
:105A240000AF78607B6803F00703FB600C4BDB6816
:105A3400BB60BA684FF6FF031340BB60FB681A02F1
:105A4400BB68134343F0BF6343F40033BB60044AB1
:105A5400BB68D36000BF1437BD4680BC704700BF2D
:105A640000ED00E080B400AF044BDB681B0A03F0D8
:105A740007031846BD4680BC704700BF00ED00E038
:105A840080B483B000AF0346FB7197F90730002B55
:105A94000BDBFB7903F01F02064997F907305B091A
:105AA400012000FA02F241F8232000BF0C37BD4662
:105AB40080BC704700E100E080B483B000AF0346CF
:105AC4003960FB7197F90730002B0ADB3B68DAB2C7
