:020000040800F2
:10000000000001201D7A0008AD790008B3790008CE
:10001000B9790008BF790008C57900080000000020
:10002000000000000000000000000000CB79000884
:10003000D779000800000000E3790008EF79000894
:10004000657A0008657A0008657A0008657A000814
:10005000657A0008657A0008657A0008657A000804
:10006000657A0008657A0008657A0008657A0008F4
:10007000657A0008657A0008657A0008657A0008E4
:10008000657A0008657A0008657A0008657A0008D4
:10009000657A0008657A0008657A0008657A0008C4
:1000A000657A0008657A0008657A0008657A0008B4
:1000B000657A0008657A0008657A0008657A0008A4
:1000C000657A0008657A0008657A0008657A000894
:1000D000657A0008657A0008657A0008657A000884
:1000E000657A0008657A0008657A0008000000005B
:1000F0000000000000000000000000000000000000
:100100000000000000000000657A0008657A000821
:10011000657A0008657A0008657A0008657A000843
:10012000657A0008657A0008657A0008657A000833
:10013000657A0008657A0008657A0008657A000823
:10014000657A0008657A0008657A0008FD7900087C
:10015000000000000000000000000000000000009F
:10016000000000000000000000000000000000008F
:10017000000000000000000000000000000000007F
:10018000000000000000000000000000000000006F
:10019000000000000000000000000000000000005F
:1001A000000000000000000000000000000000004F
:1001B000000000000000000000000000000000003F
:1001C000000000000000000000000000000000002F
:1001D000000000000000000000000000000000001F
:0401E0005FF8E0F1F3
:1001E40010B5054C237833B9044B13B10448AFF36D
:1001F40000800123237010BD7C010020000000005A
:10020400CCD0000808B5034B1BB103490348AFF336
:10021400008008BD0000000080010020CCD0000850
:1002240053B94AB9002908BF00281CBF4FF0FF3159
:100234004FF0FF3000F072B9ADF1080C6DE904CE57
:1002440000F006F8DDF804E0DDE9022304B07047AD
:100254002DE9F047089E0D4604468E46002B4CD1EE
:100264008A42944667D9B2FA82F353B102FA03FC84
:10027400C3F1200201FA03FE20FA02F242EA0E0E52
:100284009C404FEA1C47BEFBF7F11FFA8CF507FBB5
:1002940011EE01FB05F0220C42EA0E4290420AD90B
:1002A4001CEB020201F1FF3E80F01981904240F202
:1002B400168102396244121AB2FBF7F007FB1022CE
:1002C40000FB05F5A4B244EA0244A5420AD91CEB9A
:1002D400040400F1FF3280F00481A54240F2018160
:1002E4006444023840EA01400021641B1EB1DC4032
:1002F4000023C6E90043BDE8F0878B4208D9002EED
:1003040000F0EA800021C6E900050846BDE8F08750
:10031400B3FA83F1002948D1AB4202D3824200F2FE
:10032400F880841A65EB030201209646002EE2D081
:10033400C6E9004EDFE702B9FFDEB2FA82F3002B12
:1003440040F08E80881A0121170C1FFA82FEB0FB40
:10035400F7F507FB1500220C42EA00420EFB05F0FC
:10036400904208D91CEB020205F1FF3802D29042F8
:1003740000F2CC804546121AB2FBF7F007FB1022BC
:100384000EFB00FEA4B244EA0244A64508D91CEBC5
:10039400040400F1FF3202D2A64500F2B4801046F4
:1003A400A4EB0E0440EA0540A0E7C1F120078B400E
:1003B40022FA07FC4CEA030C25FA07FA4FEA1C4917
:1003C400BAFBF9F88D4020FA07F309FB18AA1FFAC3
:1003D4008CFE2B4300FA01F508FB0EF01C0C44EADA
:1003E4000A44A04202FA01F20BD91CEB040408F1FE
:1003F400FF3A80F08680A04240F28380A8F1020890
:100404006444241A98B2B4FBF9F309FB134403FBC4
:100414000EFE40EA0444A64508D91CEB040403F18B
:10042400FF306AD2A64568D9023B644443EA0840D7
:10043400A0FB0293A4EB0E049C42C8469E4654D3F0
:1004440051D0002E67D0B5EB080364EB0E04CB400B
:1004540004FA07F71F43CC40C6E9007400214AE7B9
:1004640002FA03FCC3F12000C1409D4024FA00F0CD
:100474004FEA1C472843B1FBF7F507FB15111FFA98
:100484008CFE020C42EA014205FB0EF1914204FA91
:1004940003F408D91CEB020205F1FF382FD2914274
:1004A4002DD9023D6244521AB2FBF7F107FB112227
:1004B40080B240EA024001FB0EF2824208D91CEBF2
:1004C400000001F1FF3816D2824214D90239604487
:1004D400801A41EA05413AE7314630460BE7714656
:1004E400E9E61046FEE64D45ABD2B9EB020863EBF4
:1004F4000C0E0138A5E74146EAE7034696E7454670
:10050400D1E7D0467DE76444023849E7023D6244BE
:1005140031E708460AE73146EDE600BF704700BF01
:1005240080B500AF0E4B5B690D4A43F00103536184
:100534000C4B5B690B4A43F4807353610A2007F048
:10054400F3FA074B1B69064A43F001031361054B99
:100554005B69044A43F48073536100BF80BD00BFEC
:10056400000C01400010014080B500AF114B5B69E5
:10057400104A43F0010353610F4B5B690E4A43F485
:10058400807353610A2007F0CFFA0A4B1B69094AAA
:1005940043F001031361084B5B69074A43F480731A
:1005A4005361064B1B69054A43F01003136100BFF6
:1005B40080BD00BF000C0140001001400018014044
:1005C40080B500AF094B1B69084A43F00803136167
:1005D400012002F0A1FA054B5B69044A43F00803C9
:1005E4005361012002F098FA00BF80BD0018014059
:1005F40080B582B000AF3B4B1B693A4A43F001031C
:100604001361394B5B69384A43F480735361374B48
:100614001B69364A43F040031361344B1B69334A68
:1006240043F080031361314B5B69304A43F00803A4
:1006340053612E4B1B692D4A43F0020313612B4B6C
:100644001B692A4A43F0040313610A2007F06CFA79
:10065400244B5B69234A43F001035361224B5B69DA
:10066400214A43F4807353610A2007F05DFA0023A2
:100674007B6004E0FFF7A4FF7B6801337B607B6849
:10068400092BF7DD194B5B69184A43F001035361E9
:10069400164B5B69154A43F002035361134B5B69C4
:1006A400124A43F004035361104B5B690F4A43F051
:1006B40020035361142007F037FA0A4B5B69094A97
:1006C40043F001035361084B1B69074A43F48073E9
:1006D40013614FF4FA7007F027FA00BF0837BD46DC
:1006E40080BD00BF000C0140001001400018014013
:1006F40080B500AF2E4B1B692D4A43F010031361E4
:10070400C82007F011FA2A4B5B69294A43F0020317
:100714005361274B5B69264A43F004035361244B1E
:100724005B69234A43F020035361214B5B69204AF0
:1007340043F0400353611E4B5B691D4A43F0800341
:1007440053611C4B5B691B4A43F0010353611A4B11
:100754005B69194A43F480735361142007F0E4F988
:10076400134B5B69124A43F0100353610A2007F0EC
:10077400DBF9104B5B690F4A43F0010353610E4BE5
:100784001B690D4A43F4807313614FF4FA7007F048
:10079400CBF9074B1B69064A43F040031361044B32
:1007A4001B69034A43F08003136100BF80BD00BF8F
:1007B40000180140000C01400010014080B582B0D7
:1007C40000AF0346FB71124AFB79D360114B1B69DE
:1007D400104A43F0040313610E4B5B690D4A43F066
:1007E400020353610B4B5B690A4A43F020035361D4
:1007F400084B5B69074A43F010035361012002F080
:100804008BF9FFF7DDFE00BF0837BD4680BD00BF92
:10081400000801400018014080B582B000AF0346D3
:10082400FB710F4AFB79D3600E4B1B690D4A43F0F1
:10083400040313610B4B5B690A4A43F002035361DF
:10084400084B5B69074A43F020035361012002F01F
:1008540063F9FFF7B5FE00BF0837BD4680BD00BF92
:10086400000801400018014080B582B000AF034683
:100874000A46FB711346BB71164B5B69154A43F07C
:1008840004035361134B5B69124A43F0020353613F
:10089400BB79002B06D00F4B1B690E4A43F0200393
:1008A400136105E00B4B5B690A4A43F02003536173
:1008B400084B5B69074A43F010035361064AFB790E
:1008C400D360012002F028F9FFF77AFE00BF083751
:1008D400BD4680BD001801400008014080B582B0CB
:1008E40000AF03460A46FB711346BB71134B5B69A9
:1008F400124A43F004035361104B5B690F4A43F0FF
:1009040002035361BB79002B06D00C4B1B690B4AC5
:1009140043F02003136105E0084B5B69074A43F089
:1009240020035361064AFB79D360012002F0F4F8F6
:10093400FFF746FE00BF0837BD4680BD00180140E2
:100944000008014080B500AF464B1B78012B02D153
:10095400FFF7CEFE01E0FFF74BFE02F015FB414B23
:100964001B78012B03D10820FFF756FF02E0082073
:10097400FFF724FF3B4B1B78012B04D100210020FF
:10098400FFF7ACFF03E000210020FFF76DFF02F04A
:10099400E1FA354B5B69344A43F08003536101202B
:1009A40007F0C2F8314B9B68DAB2314B9A712E4B87
:1009B4001B692D4A43F08003136102F0E5FA294BC9
:1009C4001B78012B04D100210120FFF787FF03E0EE
:1009D40000210120FFF748FF02F0BCFA224B5B69BB
:1009E400214A43F080035361012007F09DF81F4B17
:1009F4009B68DAB21E4B5A711B4B1B691A4A43F0AF
:100A04008003136102F0C0FA164B1B78012B04D14A
:100A140000210220FFF762FF03E000210220FFF71C
:100A240023FF02F097FA104B5B690F4A43F08003EF
:100A34005361012007F078F80C4B9B68DAB20C4B39
:100A44001A71094B1B69084A43F080031361054B73
:100A54001B78012B02D1FFF787FD01E0FFF760FD52
:100A640000BF80BDDA0500200018014000080140E5
:100A7400AC03002080B500AFFFF7BAFD02F084FAA2
:100A84000420FFF79BFE02F065FA012007F04CF802
:100A9400474B5B69464A43F020035361444B5B690F
:100AA400434A43F010035361414B5B69404A43F0AE
:100AB40080035361012007F037F83E4B9B68DAB29C
:100AC4003D4B1A713A4B1B69394A43F08003136159
:100AD400322002F021F8364B1B69354A43F02003DB
:100AE4001361334B1B69324A43F010031361304BDB
:100AF4005B692F4A43F080035361012007F014F827
:100B04002C4B9B68DAB22C4B5A71294B1B69284A2F
:100B140043F080031361322001F0FEFF244B5B6934
:100B2400234A43F020035361214B1B69204A43F0BD
:100B3400100313611E4B5B691D4A43F0800353612C
:100B4400012006F0F1FF1B4B9B68DAB21A4B9A7135
:100B5400174B1B69164A43F080031361322001F0DE
:100B6400DBFF134B1B69124A43F020031361104B44
:100B74005B690F4A43F0100353610D4B5B690C4AE8
:100B840043F080035361012006F0CEFF094B9B68BC
:100B9400DAB2094BDA71064B1B69054A43F080034C
:100BA4001361322001F0B8FFFFF7BAFC00BF80BD2B
:100BB4000018014000080140AC03002080B500AFDC
:100BC400FFF796FD02F0E0F90420FFF725FE02F09E
:100BD400C1F9012006F0A8FF474B5B69464A43F080
:100BE40020035361444B5B69434A43F0040353615C
:100BF400414B5B69404A43F080035361012006F096
:100C040093FF3E4B9B68DAB23D4B1A713A4B1B691A
:100C1400394A43F080031361322001F07DFF364BE3
:100C24001B69354A43F020031361334B1B69324A75
:100C340043F004031361304B5B692F4A43F0800394
:100C44005361012006F070FF2C4B9B68DAB22C4BE9
:100C54005A71294B1B69284A43F0800313613220DF
:100C640001F05AFF244B5B69234A43F0200353618C
:100C7400214B1B69204A43F0040313611E4B5B693B
:100C84001D4A43F080035361012006F04DFF1B4BC6
:100C94009B68DAB21A4B9A71174B1B69164A43F0D8
:100CA40080031361322001F037FF134B1B69124A92
:100CB40043F020031361104B5B690F4A43F00403B4
:100CC40053610D4B5B690C4A43F08003536101206F
:100CD40006F02AFF094B9B68DAB2094BDA71064B1E
:100CE4001B69054A43F080031361322001F014FFAD
:100CF400FFF73AFC00BF80BD001801400008014026
:100D0400AC03002080B500AFFFF772FC02F03CF9A1
:100D14006D4B5B696C4A43F0010353614020FFF75C
:100D24004DFD0A2001F0F8FE674B5B69664A43F00B
:100D340004035361644B1B69634A43F00203136168
:100D4400624B1A79624BDA600A2001F0E5FEFFF784
:100D540037FC5D4B5B695C4A43F0400353610120FF
:100D640006F0E2FE584B1B69574A43F040031361F7
:100D7400642006F0D9FE544B5B69534A43F02003C8
:100D84005361514B5B69504A43F010035361402057
:100D9400FFF714FD4C4B5B694B4A43F0040353616A
:100DA400494B1B69484A43F002031361474B5A7984
:100DB400474BDA600A2001F0AFFEFFF701FC424B1B
:100DC4001B69414A43F0200313613F4B5B693E4A70
:100DD40043F0100353613C4B5B693B4A43F04003CF
:100DE4005361012006F0A0FE374B1B69364A43F0DD
:100DF40040031361322006F097FE4020FFF7DEFC2B
:100E0400314B5B69304A43F0040353612E4B1B6939
:100E14002D4A43F0020313612C4B9A792C4BDA6070
:100E24000A2001F079FEFFF7CBFB274B5B69264ACA
:100E340043F020035361244B1B69234A43F01003FE
:100E44001361214B5B69204A43F040035361012045
:100E540006F06AFE1C4B1B691B4A43F040031361F6
:100E6400322006F061FE2020FFF7A8FC164B5B69D8
:100E7400154A43F004035361134B1B69124A43F0B0
:100E840002031361114BDA79114BDA600A2001F085
:100E940043FEFFF795FBC82001F03EFE0A4B5B6959
:100EA400094A43F040035361012006F03DFE064B1E
:100EB4001B69054A43F040031361322006F034FEF7
:100EC400FFF72EFB00BF80BD0018014098010020F1
:100ED4000008014080B500AFFFF70AFC02F054F8A7
:100EE4004020FFF799FC0A2001F016FE644B5B6971
:100EF400634A43F004035361614B1B69604A43F046
:100F0400020313615F4B1A795F4BDA600A2001F028
:100F140003FEFFF755FB5A4B5B69594A43F0200324
:100F24005361574B5B69564A43F004035361544B76
:100F34005B69534A43F040035361962001F0ECFD92
:100F44004F4B1B694E4A43F040031361322006F0B5
:100F5400EBFD4020FFF760FC494B5B69484A43F0D6
:100F640004035361464B1B69454A43F00203136172
:100F7400444B5A79444BDA600A2001F0CDFDFFF767
:100F84001FFB3F4B1B693E4A43F0200313613C4B5C
:100F94005B693B4A43F040035361012006F0C4FD02
:100FA400374B1B69364A43F040031361322006F085
:100FB400BBFD4020FFF730FC314B5B69304A43F006
:100FC400040353612E4B1B692D4A43F00203136142
:100FD4002C4B9A792C4BDA600A2001F09DFDFFF727
:100FE400EFFA274B5B69264A43F020035361244BF5
:100FF4001B69234A43F004031361214B5B69204AB4
:1010040043F040035361012006F08EFD1C4B1B6925
:101014001B4A43F040031361322006F085FD202073
:10102400FFF7FAFB164B5B69154A43F0040353615F
:10103400134B1B69124A43F002031361114BDA7913
:10104400114BDA600A2001F067FDFFF7B9FA0A20B4
:1010540001F062FD0A4B5B69094A43F040035361A6
:10106400012006F061FD064B1B69054A43F040036D
:101074001361322006F058FDFFF776FA00BF80BDF9
:1010840000180140980100200008014080B500AF1D
:10109400FFF7AEFA01F078FF8020FFF78FFB0B4BD0
:1010A4005B690A4A43F040035361C82001F034FDF0
:1010B400064B1B69054A43F040031361322006F0D6
:1010C40033FDFFF72DFA00BF80BD00BF00180140BB
:1010D40080B500AFFFF70CFB01F056FF8020FFF74F
:1010E4009BFB094B5B69084A43F04003536164204E
:1010F40006F01AFD044B1B69034A43F040031361D5
:10110400FFF732FA00BF80BD0018014080B582B0FD
:1011140000AFFFF76DFA01F037FF0320FFF74EFB36
:1011240000237B6056E000233B6035E001F02CFF98
:101134003A687B6813441B12DBB201211846FFF79F
:1011440093FB3B68DAB27B68DBB21344DBB2002169
:101154001846FFF789FB01F0FDFE254B5B69244A25
:1011640043F020035361224B5B69214A43F080031F
:101174005361012001F0D0FC1E4B9A683B68043394
:10118400D1B21D4AD1541A4B1B69194A43F080034A
:1011940013613B6801333B603B681F2BC6DD164B74
:1011A400AC221A70144B00225A70134B20229A70EE
:1011B400114BA422DA7024210F4803F085FB00BFF1
:1011C4000E4B1B78002BFBD00C4B00221A707B6853
:1011D40020337B607A680A4B1B689A42A3D301F0E0
:1011E400D3FEFFF79DF900BF0837BD4680BD00BFA1
:1011F4000018014000080140AC030020AD080020A5
:10120400C805002080B582B000AFFFF771FA01F085
:10121400BBFE0320FFF700FB00237B6056E00023A6
:101224003B6035E001F0B0FE3A687B6813441B1262
:10123400DBB201211846FFF751FB3B68DAB27B6849
:10124400DBB21344DBB200211846FFF747FB01F081
:1012540081FE254B5B69244A43F020035361224BF2
:101264005B69214A43F080035361012001F054FC7F
:101274001E4B9A683B680433D1B21D4AD1541A4BB1
:101284001B69194A43F0800313613B6801333B60D7
:101294003B681F2BC6DD164BAC221A70144B002280
:1012A4005A70134B20229A70114BA422DA70242115
:1012B4000F4803F009FB00BF0E4B1B78002BFBD03B
:1012C4000C4B00221A707B6820337B607A680A4BCF
:1012D4001B689A42A3D301F057FEFFF745F900BFFC
:1012E4000837BD4680BD00BF00180140000801401A
:1012F400AC030020AD080020C805002080B582B0F2
:1013040000AF00237B6062E0404B1A687B681344A3
:101314001B0ADBB201211846FFF7A6FA00233B6043
:1013240039E03A4B1B68DAB27B68DBB21344DAB2B9
:101334003B68DBB21344DBB200211846FFF794FA92
:10134400334B1B69324A43F002031361304B5B6930
:101354002F4A43F0040353617A683B68134404330F
:101364002C4AD25C2C4BDA60FFF72AF9284B1B6914
:10137400274A43F001031361012001F0CDFB244B04
:101384005B69234A43F0010353610A2001F0C4FB63
:101394003B6801333B603A68204B1B689A42C0D3D8
:1013A4001B4B5B691A4A43F040035361C82001F0A8
:1013B400B3FB174B1B69164A43F040031361052026
:1013C40006F0B2FB7A68154B1B6813447B607B689C
:1013D4001F2B99DD0D4B1B6820330C4A1360104BF7
:1013E400AC221A700E4B00225A700D4B01229A70D7
:1013F4000B4BA622DA700A4B00221A710521084809
:1014040003F062FA00BF0837BD4680BDC405002062
:10141400001801409801002000080140CC0500207C
:10142400AC03002080B582B000AF00237B6062E093
:10143400404B1A687B6813441B0ADBB2012118462F
:10144400FFF74CFA00233B6039E03A4B1B68DAB2F1
:101454007B68DBB21344DAB23B68DBB21344DBB221
:1014640000211846FFF73AFA334B1B69324A43F01E
:1014740002031361304B5B692F4A43F00403536149
:101484007A683B68134404332C4AD25C2C4BDA60F0
:10149400FFF796F8284B1B69274A43F02003136192
:1014A400012001F039FB244B5B69234A43F02003FC
:1014B40053610A2001F030FB3B6801333B603A681A
:1014C400204B1B689A42C0D31B4B5B691A4A43F0FA
:1014D40040035361C82001F01FFB174B1B69164AD8
:1014E40043F040031361042006F01EFB7A68154B99
:1014F4001B6813447B607B681F2B99DD0D4B1B68B5
:1015040020330C4A1360104BAC221A700E4B00228D
:101514005A700D4B01229A700B4BA622DA700A4BBB
:1015240000221A710521084803F0CEF900BF0837DC
:10153400BD4680BDC405002000180140980100206C
:1015440000080140CC050020AC03002080B582B027
:1015540000AFFFF74DF801F017FD0220FFF72EF959
:1015640000237B6084E000233B6060E001F00CFD1D
:101574007B68DA0F13445B1019463B68DA0F134497
:101584005B100B441A46404B1A60404B1B78022BED
:101594000DD13F4B1B693E4A43F0100313613A4B94
:1015A4001B681B0CDBB200211846FFF75DF9364BB4
:1015B4001B681B0ADBB201211846FFF755F9324BB1
:1015C4001B68DBB200211846FFF74EF901F0C2FC9C
:1015D4002F4B5B692E4A43F0200353612C4B5B690C
:1015E4002B4A43F080035361012001F095FA294B03
:1015F4009A683B680433D1B2274AD154244B1B69FF
:10160400234A43F020031361012001F085FA214BA2
:101614009A683B680533D1B21F4AD1541C4B1B69ED
:101624001B4A43F0800313613B6802333B603B6811
:10163400B3F5007F9ADB184BAC221A70164B0222CA
:101644005A70154B00229A70134BA822DA704FF48B
:101654000171114803F038F900BF104B1B78002BBF
:10166400FBD00E4B00221A707B6803F500737B607D
:101674007A680B4B1B689A42FFF475AFFEF750FF74
:1016840000BF0837BD4680BDC0050020DA05002034
:101694000018014000080140AC030020AD08002000
:1016A400C805002080B582B000AFFFF721F801F033
:1016B4006BFC0220FFF7B0F800237B6072E000238C
:1016C4003B604EE001F060FC7B68DA0F13445B1072
:1016D40019463B68DA0F13445B100B441A46374B28
:1016E4001A60364B1B681B0ADBB201211846FFF750
:1016F400F5F8324B1B68DBB200211846FFF7EEF811
:1017040001F028FC2E4B5B692D4A43F02003536102
:101714002B4B5B692A4A43F080035361012001F09B
:10172400FBF9284B9A683B680433D1B2264AD1545A
:10173400234B1B69224A43F020031361012001F06B
:10174400EBF9204B9A683B680533D1B21E4AD15459
:101754001B4B1B691A4A43F0800313613B68023335
:101764003B603B68B3F5007FACDB174BAC221A70CF
:10177400154B02225A70144B00229A70124BA82265
:10178400DA704FF40171104803F09EF800BF0F4B5C
:101794001B78002BFBD00D4B00221A707B6803F5DD
:1017A40000737B607A680A4B1B689A4287D3FEF702
:1017B400DBFE00BF0837BD4680BD00BFC00500206A
:1017C4000018014000080140AC030020AD080020CF
:1017D400C805002080B500AF124B1B78012B02D145
:1017E40000F0D0F808E00F4B1B78032B02D100F077
:1017F4006BF901E000F01AF80B4BAC221A700A4B9B
:1018040000225A70084B01229A70074BAA22DA7000
:10181400054B00221A710521034803F055F800BF57
:1018240080BD00BFDA050020AC03002080B584B081
:1018340000AF4F4B1B791A044D4B5B791B021343CA
:101844004B4A92791343DA0F13445B107B600023F5
:10185400FB601020FEF7B2FF0023BB6043E0FB688F
:10186400DAB27B68DBB21344DBB200211846FEF720
:10187400FBFF404B1B693F4A43F0020313613D4B9E
:101884005B693C4A43F004035361BB680733384A3D
:10189400D25C394BDA60FEF793FE364B1B69354A4E
:1018A40043F020031361BB680833314AD25C324BE6
:1018B400DA60FEF785FE2F4B1B692E4A43F00103C5
:1018C4001361012001F028F92A4B5B69294A43F08E
:1018D40001035361012001F01FF9FB680133FB6030
:1018E400BB680233BB60BA68244B1B689A42B6D308
:1018F4007B681B0ADBB201211846FEF7B5FF204BBB
:101904001B78022B0CD11B4B1B691A4A43F01003A2
:1019140013617B681B0CDBB200211846FEF7A4FFA1
:10192400144B5B69134A43F040035361012001F0F7
:10193400F3F8104B1B690F4A43F04003136108206E
:1019440006F0F2F80B4B1B690A4A43F004031361D7
:10195400084B5B69074A43F002035361064B0022BC
:10196400DA60FEF72DFE00BF1037BD4680BD00BF14
:10197400980100200018014000080140CC05002017
:10198400DA05002080B584B000AF4B4B1B791A04F4
:10199400494B5B791B021343474A92791343DA0F8D
:1019A40013445B107B600023FB601020FEF734FFC0
:1019B4000023BB604CE0FB68DAB27B68DBB2134403
:1019C400DBB200211846FEF789FF3C4B1B693B4AFA
:1019D40043F002031361394B5B69384A43F0040353
:1019E4005361BB680733344AD25C354BDA60FEF787
:1019F400E7FD324B1B69314A43F020031361BB6896
:101A040008332D4AD25C2E4BDA60FEF7D9FD2B4BFE
:101A14005B692A4A43F0200353610A2001F07CF8F1
:101A2400264B1B69254A43F020031361012001F072
:101A340073F8224B5B69214A43F020035361012070
:101A440001F06AF8FB680133FB60BB680233BB60DA
:101A5400BA681C4B1B689A42ADD37B681B0ADBB285
:101A640001211846FEF73AFF144B5B69134A43F011
:101A740040035361012001F04FF8104B1B690F4ADA
:101A840043F040031361082006F04EF80B4B1B692A
:101A94000A4A43F004031361084B5B69074A43F0A5
:101AA40002035361064B0022DA60FEF789FD00BF92
:101AB4001037BD4680BD00BF9801002000180140CA
:101AC40000080140CC05002080B584B000AF2F4B46
:101AD4001B791A042D4B5B791B0213432B4A927911
:101AE4001343DA0F13445B107B600023FB60102167
:101AF4004C2000F04FF80023BB6027E0FB68DAB20B
:101B04007B68DBB21344DBB219460C2000F042F8C8
:101B1400BB6807331D4AD35C19462C2000F03AF801
:101B2400BB680833194AD35C19463C2000F032F8EC
:101B340000217D2000F02EF800217C2000F02AF8FE
:101B4400FB680133FB60BB680233BB60BA68104BAF
:101B54001B689A42D2D37B681B0ADBB219461C204D
:101B640000F018F80021642000F014F800216C2023
:101B740000F010F8082005F0D7FF00214C2000F0F9
:101B840009F800BF1037BD4680BD00BF9801002092
:101B9400CC05002080B586B000AF03460A46FB7131
:101BA4001346BB710023FB82FB799BB29B00FB8134
:101BB400BB799BB29B00BB8100233B6154E00120B5
:101BC40000F0AAFFFA893B69C3F10A0342FA03F35E
:101BD40003F00103002B06D0294B1B69284A43F06C
:101BE4000203136105E0264B5B69254A43F00203B7
:101BF4005361BA893B69C3F10A0342FA03F303F060
:101C04000103002B06D01E4B1B691D4A43F0010340
:101C1400136105E01A4B5B69194A43F001035361F0
:101C2400174B1B69164A43F004031361012000F0AB
:101C340073FF134B5B69124A43F004035361114B66
:101C44009B6803F00103002B0BD03B69C3F10A032B
:101C5400012202FA03F31AB2B7F9163013431BB286
:101C6400FB823B6901333B613B690A2BA7DDFB8A9D
:101C7400DB089BB2DBB218461837BD4680BD00BFF7
:101C8400001801400008014080B500AF264B1B69D5
:101C9400254A43F010031361234B5B69224A43F046
:101CA4000403536101F070F91F4B5B691E4A43F052
:101CB400010353611C4B5B691B4A43F002035361EC
:101CC4001A4B5B69194A43F001035361184B5B6972
:101CD400174A43F001035361164B5B69154A43F4F9
:101CE400807353610A2005F01FFF0F4B5B690E4A96
:101CF40043F0100353610E4B5B690D4A43F001033B
:101D040053610C4B1B690B4A43F4807313614FF40A
:101D1400FA7005F009FF01F01DF94FF4FA7000F0B4
:101D2400FBFE00BF80BD00BF001801400008014059
:101D3400000C01400010014080B582B000AF0023C8
:101D4400FB80322000F0E8FE0FE00A2000F0E4FE01
:101D5400FB880133FB80FB8840F6FF72934204D179
:101D640002F086FDFEF700FC05E0044B9B6803F0DF
:101D74000103002BE9D00837BD4680BD00080140AF
:101D840080B500AFFFF780FF08214C20FFF702FF6A
:101D940000210C20FFF7FEFE00216820FFF7FAFE69
:101DA40000216C20FFF7F6FE03461A46164B9A7183
:101DB40008214C20FFF7EEFE01210C20FFF7EAFE7C
:101DC40000216820FFF7E6FE00216C20FFF7E2FE09
:101DD40003461A460C4B5A7108214C20FFF7DAFED1
:101DE40002210C20FFF7D6FE00216820FFF7D2FE67
:101DF40000216C20FFF7CEFE03461A46024B1A71EF
:101E0400FEF7B2FB00BF80BDAC03002080B500AF7D
:101E1400FFF73AFF04214C20FFF7BCFE00216820A5
:101E2400FFF7B8FE00216C20FFF7B4FE03461A4604
:101E34001A4B1A7104214C20FFF7ACFE00217A20C2
:101E4400FFF7A8FE00217E20FFF7A4FE03461A46F2
:101E5400124B5A7104214C20FFF79CFE00216A208A
:101E6400FFF798FE00216E20FFF794FE03461A4602
:101E74000A4B9A7104214C20FFF78CFE0021782034
:101E8400FFF788FE00217C20FFF784FE03461A46F4
:101E9400024BDA71FEF768FB00BF80BDAC03002083
:101EA40080B500AFFFF7F0FE40214C20FFF772FE33
:101EB400274B1B7919462C20FFF76CFE0021642068
:101EC400FFF768FE00216C20FFF764FEFFF734FF84
:101ED40040214C20FFF75EFE1D4B5B7919462C20F8
:101EE400FFF758FE00217420FFF754FE00217C20E8
:101EF400FFF750FEFFF720FF40214C20FFF74AFE7A
:101F0400134B9B7919462C20FFF744FE00216620D1
:101F1400FFF740FE00216E20FFF73CFEFFF70CFFA9
:101F240020214C20FFF736FE094BDB7919462C2083
:101F3400FFF730FE00216420FFF72CFE00216C2007
:101F4400FFF728FEFFF7F8FEFEF70EFB00BF80BD8B
:101F54009801002080B500AFFFF796FE80214C2049
:101F6400FFF718FE00216420FFF714FE00216C2007
:101F7400FFF710FEFFF7E0FEFEF7F6FA00BF80BDA4
:101F840090B583B000AFFFF77FFE03214C20FFF72D
:101F940001FE00237B6044E000233B6023E03B68B8
:101FA400DAB27B68DBB21344DBB219460C20FFF7CC
:101FB400F1FD3A687B6813441B12DBB219461C20FE
:101FC400FFF7E8FD00216820FFF7E4FD3B681C1DD6
:101FD40000216C20FFF7DEFD03461A46164B1A5506
:101FE4003B6801333B603B681F2BD8DD124BAC22AE
:101FF4001A70114B00225A700F4B20229A700E4B0C
:10200400A422DA7024210C4802F05EFC00BF0B4BC2
:102014001B78002BFBD0094B00221A707B682033FD
:102024007B607A68064B1B689A42B5D3FEF79CFA2C
:1020340000BF0C37BD4690BDAC030020AD080020A6
:10204400C805002080B582B000AF00237B6044E067
:1020540000233B602DE0304B1B68DAB27B68DBB2B7
:102064001344DAB23B68DBB21344DBB219460C20EA
:10207400FFF790FD284B1A687B6813441B0ADBB2F8
:1020840019461C20FFF786FD7A683B681344043325
:10209400224AD35C19462C20FFF77CFD00216D20D9
:1020A400FFF778FD00216C20FFF774FD3B680133D6
:1020B4003B603A681A4B1B689A42CCD300216420D7
:1020C400FFF768FD00216C20FFF764FDFFF734FE85
:1020D4007A68134B1B6813447B607B681F2BB7DD46
:1020E4000D4B1B6820330C4A13600E4BAC221A7044
:1020F4000C4B00225A700B4B01229A70094BA622FA
:10210400DA70084B00221A710521064802F0DCFB44
:1021140000BF0837BD4680BDC405002098010020DB
:10212400CC050020AC03002090B583B000AFFFF7CE
:10213400ABFD02214C20FFF72DFD00237B6056E010
:1021440000233B603AE07B68DA0F13445B101946C6
:102154003B68DA0F13445B100B441A46294B1A6090
:10216400284B1B68DBB219460C20FFF713FD254BE7
:102174001B681B0ADBB219461C20FFF70BFD00216C
:102184006820FFF707FD3B681C1D00216C20FFF74A
:1021940001FD03461A461C4B1A5500217820FFF70F
:1021A400F9FC3B685C1D00217C20FFF7F3FC03462F
:1021B4001A46154B1A553B6802333B603B68B3F52E
:1021C400007FC0DB104BAC221A700F4B02225A70F6
:1021D4000D4B00229A700C4BA822DA704FF4017157
:1021E400094802F071FB7B6803F500737B607A6831
:1021F400064B1B689A42A3D3FEF7B6F900BF0C370F
:10220400BD4690BDC0050020AC030020C8050020D9
:1022140080B500AF0F4B5B690E4A43F00103536175
:102224000D4B5B690C4A43F480735361642000F0E6
:1022340073FC084B1B69074A43F001031361064B07
:102244005B69054A43F480735361642000F064FCC5
:1022540000BF80BD000C01400010014080B500AFFC
:10226400012000F059FC0A4B1B69094A43F004039E
:102274001361012000F050FC054B5B69044A43F0F4
:1022840004035361012000F047FC00BF80BD00BF80
:10229400000C014080B500AF00F05CFE354B5B697B
:1022A400344A43F004035361642000F035FC314B9D
:1022B4001B69304A43F004031361642000F02CFCD2
:1022C4002C4B1B692B4A43F0010313612A4B5B69B6
:1022D400294A43F480735361274B1B69264A43F010
:1022E40020031361302002F035FB0A2000F014FCB7
:1022F400224B9B68DAB2224B9A711E4B1B691D4A12
:1023040043F0010313611C4B5B691B4A43F4807364
:102314005361194B1B69184A43F0200313613120A0
:1023240002F018FB0A2000F0F7FB144B9B68DAB2AA
:10233400134B5A710F4B1B690E4A43F0010313618F
:102344000D4B5B690C4A43F4807353610A4B1B6960
:10235400094A43F020031361322002F0FBFA0A20F9
:1023640000F0DAFB054B9B68DAB2054B1A7100BF2B
:1023740080BD00BF000C0140001001400008014076
:10238400AC03002080B500AF1D4B5B691C4A43F0D1
:1023940004035361FFF73CFF00F0DCFD302002F042
:1023A400D9FA174B1B69164A43F001031361154B05
:1023B4005B69144A43F480735361124B1B69114ADD
:1023C40043F0200313610A2000F0A6FB0E4B9B6828
:1023D400DAB20E4B9A710A4B1B69094A43F00403A3
:1023E4001361FFF73BFF0A2000F096FB064B9B6846
:1023F400DAB2064B5A71054BFF221A7100BF80BD39
:10240400000C01400010014000080140AC03002012
:1024140080B500AF00F0B8FD434B1B69424A43F05E
:1024240004031361414B1B69404A43F020031361C9
:102434003D4B5B693C4A43F0010353613B4B1B69D1
:102444003A4A43F4807313614FF4487005F06CFB0F
:10245400374BDB7903F00103002B18D14FF47030B4
:1024640002F078FA0A2000F057FB304B5B692F4AE0
:1024740043F020035361782000F04EFB2B4B1B6983
:102484002A4A43F020031361022005F04DFB284B38
:10249400DB7903F00203002B18D14FF4404002F023
:1024A40059FA0A2000F038FB204B5B691F4A43F0BD
:1024B40020035361782000F02FFB1C4B1B691B4A3F
:1024C40043F020031361022005F02EFB184BDB7947
:1024D40003F00403002B18D14FF4A03002F03AFAB1
:1024E4000A2000F019FB114B5B69104A43F02003EA
:1024F4005361782000F010FB0C4B1B690B4A43F02E
:1025040020031361022005F00FFB074B1B69064AE9
:1025140043F001031361054B5B69044A43F4807380
:10252400536100BF80BD00BF000C0140001001409A
:102534009801002080B500AF384B5B69374A43F0FF
:1025440004035361FFF764FE00F01EFD344B1B6966
:10255400334A43F020031361304B5B692F4A43F045
:10256400010353612E4B1B692D4A43F4807313619D
:102574004FF4487005F0D8FA2A4BDB7903F00103D5
:10258400002B18D14FF4703002F0E4F90A2000F067
:10259400C3FA234B5B69224A43F02003536178203A
:1025A40000F0BAFA1E4B1B691D4A43F02003136165
:1025B400022005F0B9FA1B4BDB7903F00203002B70
:1025C40018D14FF4404002F0C5F90A2000F0A4FAF3
:1025D400134B5B69124A43F020035361782000F0E7
:1025E4009BFA0F4B1B690E4A43F020031361022030
:1025F40005F09AFA094B1B69084A43F00103136179
:10260400074B5B69064A43F480735361034B1B69B0
:10261400024A43F00403136100BF80BD000C014073
:10262400001001409801002080B500AF1F4B1B69CA
:102634001E4A43F0040313611D4B1B691C4A43F0FB
:1026440020031361194B5B69184A43F0010353617A
:10265400174B1B69164A43F4807313614FF480408F
:1026640002F078F94FF4487005F05EFA104B5B699C
:102674000F4A43F0200353610F2005F055FA0C4B29
:102684001B690B4A43F020031361642005F04CFAE4
:10269400064B1B69054A43F001031361044B5B6954
:1026A400034A43F48073536100BF80BD000C0140B2
:1026B4000010014080B500AF224B5B69214A43F012
:1026C40004035361204B1B691F4A43F02003136129
:1026D4001C4B5B691B4A43F0010353611A4B1B6992
:1026E400194A43F4807313614FF4804002F032F9C5
:1026F4004FF4487005F018FA134B5B69124A43F023
:10270400200353610F2005F00FFA0F4B1B690E4A8B
:1027140043F020031361642005F006FA094B1B699A
:10272400084A43F001031361074B5B69064A43F40B
:1027340080735361034B1B69024A43F00403136122
:1027440000BF80BD000C01400010014080B582B084
:1027540000AF00F0FFFB354B5B69344A43F00403E0
:102764005361642000F0D8F9304B1B692F4A43F0C1
:1027740004031361642000F0CFF92C4B1B692B4A2E
:1027840043F0010313612A4B5B69294A43F48073C4
:102794005361274B1B69264A43F02003136100232E
:1027A4007B6038E000233B6014E07A683B681344A4
:1027B40043F44033184602F0CDF80A2000F0ACF997
:1027C4001C4B9A683B680433D1B21B4AD1543B6812
:1027D40001333B603B68B3F5007FE6DB164BAC226C
:1027E4001A70154B02225A70134B00229A70124B26
:1027F400A822DA704FF401710F4802F065F800BFA7
:102804000E4B1B78002BFBD00C4B00221A707B68FC
:1028140003F500737B607A68094B1B689A42C1D345
:1028240000BF00BF0837BD4680BD00BF000C01409B
:102834000010014000080140AC030020AD08002056
:10284400C805002080B582B000AF394B5B69384AB7
:1028540043F004035361FFF7DBFC00F07BFB354BD3
:102864001B69344A43F020031361314B5B69304ADE
:1028740043F0010353612F4B5B692E4A43F4807389
:102884005361642000F048F9294B1B69284A43F03E
:1028940001031361274B5B69264A43F48073536138
:1028A400642000F039F94FF4403002F053F800236B
:1028B4007B6032E000233B600EE00A2000F02CF93C
:1028C4001D4B9A683B680433D1B21C4AD154FFF7BC
:1028D400C5FC3B6801333B603B68B3F5007FECDB30
:1028E400164BAC221A70154B02225A70134B00225D
:1028F4009A70124BA822DA704FF401710F4801F05C
:10290400E3FF00BF0E4B1B78002BFBD00C4B0022C7
:102914001A707B6803F500737B607A68094B1B6847
:102924009A42C7D300BF00BF0837BD4680BD00BF71
:10293400000C01400010014000080140AC030020DD
:10294400AD080020C805002080B582B000AF2F4B31
:102954001B692E4A43F0040313612D4B1B692C4A57
:1029640043F02003136100237B602EE07B68073370
:10297400284AD35CFF2B24D07A68274B1B68134466
:1029840043F46033184601F0E5FF7B680733214ABE
:10299400D25C224BDA600A2000F0BEF81C4B5B6963
:1029A4001B4A43F020035361782000F0B5F8184B1C
:1029B4001B69174A43F020031361022005F0B4F8A1
:1029C40000E000BF7B6801337B607B68B3F5007F68
:1029D400CCDB114B1B6803F500730F4A1360104BDB
:1029E400AC221A700E4B00225A700D4B01229A70C1
:1029F4000B4BAA22DA700A4B00221A7105210848EF
:102A040001F062FF00BF0837BD4680BD000C0140E5
:102A14000010014098010020D0050020000801406A
:102A2400AC03002080B582B000AF4FF4603001F0F9
:102A340091FF294B5B69284A43F004035361274BF8
:102A44001B69264A43F02003136100237B6028E0BE
:102A54007B680733224AD35CFF2B02D1FFF7FEFBCE
:102A64001CE07B6807331E4AD25C1E4BDA600A20E6
:102A740000F052F8194B5B69184A43F02003536184
:102A8400782000F049F8154B1B69144A43F02003E1
:102A94001361022005F048F8FFF7E0FB7B6801337F
:102AA4007B607B68B3F5007FD2DB0F4BAC221A70DE
:102AB4000D4B00225A700C4B01229A700A4BAA2229
:102AC400DA70094B00221A710521074801F0FCFE57
:102AD40000BF0837BD4680BD000C01400010014016
:102AE4009801002000080140AC03002080B400AF2E
:102AF400074BDB69064A43F00403D361054B4722C5
:102B04009A62044B08221A6000BFBD4680BC70471D
:102B1400001002400008004080B483B000AF786029
:102B24000D4A7B68D3620C4B00225A620A4B012285
:102B34001A6000BF084B1B6903F00103002BF9D096
:102B4400054B1B69044A23F00103136100BF0C37D2
:102B5400BD4680BC704700BF0008004080B483B00D
:102B640000AF0E4B9B690D4A43F0100393610B4B6E
:102B74009B6903F010037B607B68084B9B69074AE1
:102B840043F004039361054B9B6903F004033B602A
:102B94003B6800BF0C37BD4680BC70470010024044
:102BA40080B400AF984B9B69974A43F00803936144
:102BB400954B9B69944A43F010039361924B9B6934
:102BC400914A43F0200393618F4B9B698E4A43F0F3
:102BD400400393618D4B1B688C4A43F400331360AC
:102BE4008A4B1B68894A23F480331360874B1B6824
:102BF400864A23F440231360844B1B68834A43F4BE
:102C040040131360814B1B68804A23F44003136014
:102C14007F4B1B687E4A43F0030313607C4B1B68A5
:102C24007B4A23F00C031360784B1B68774A43F00C
:102C340040731360754B1B68744A23F04063136040
:102C4400734B1B68724A43F440731360704B1B68E8
:102C54006F4A23F4406313606E4B1B686D4A43F064
:102C6400030313606B4B1B686A4A23F00C03136065
:102C7400684B1B68674A43F030031360654B1B685D
:102C8400644A23F0C0031360624B1B68614A43F437
:102C9400407313605F4B1B685E4A23F44063136008
:102CA4005C4B1B685B4A43F440531360594B1B68ED
:102CB400584A23F440431360564B1B68554A43F467
:102CC40040331360534B1B68524A23F44023136070
:102CD400504B1B684F4A43F4401313604D4B1B6821
:102CE4004C4A23F4400313604A4B1B68494A43F09F
:102CF40040731360474B1B68464A23F040631360DC
:102D0400444B1B68434A43F040531360414B1B68D8
:102D1400404A23F0404313603E4B5B683D4A43F016
:102D2400030353603B4B5B683A4A23F00C03536044
:102D3400384B5B68374A43F030035360354B5B686C
:102D4400344A23F0C0035360324B5B68314A43F486
:102D5400407353602F4B5B682E4A23F440635360E7
:102D64002C4B5B682B4A43F440535360294B5B68FC
:102D7400284A23F440435360264B5B68254A43F4B6
:102D840040335360234B5B68224A23F4402353604F
:102D9400204B5B681F4A43F4401353601D4B5B6830
:102DA4001C4A23F4400353601A4B5B68194A43F0EE
:102DB40040735360174B5B68164A23F040635360BB
:102DC400144B5B68134A43F040535360114B5B68E8
:102DD400104A23F0404353600F4B5B680E4A43F0A4
:102DE400030353600C4B5B680B4A23F00C035360E2
:102DF400094B5B68084A43F030035360064B5B6839
:102E0400054A23F0C00309E000100240001001400D
:102E1400000C0140001801400014014053604A4B6B
:102E24005B68494A43F440735360474B5B68464AC6
:102E340023F440635360444B5B68434A43F4405378
:102E44005360414B5B68404A23F4404353603E4B1C
:102E54005B683D4A43F4403353603B4B5B683A4AFA
:102E640023F440235360384B5B68374A43F44013E0
:102E74005360354B5B68344A23F440035360324B50
:102E84005B68314A43F0407353602F4B5B682E4AB2
:102E940023F0406353602C4B5B682B4A43F0405350
:102EA4005360294B5B68284A23F040435360274B07
:102EB4001B68264A43F440531360244B1B68234A7F
:102EC40023F440431360204B1B681F4A43F44033F0
:102ED40013601D4B1B681C4A23F4402313601C4BD6
:102EE4005B681B4A43F003035360194B5B68184A41
:102EF40023F00C035360164B1B68154A43F04053F0
:102F04001360134B1B68124A23F0404313600F4BAA
:102F14005B680E4A43F4403353600C4B5B680B4AC6
:102F240023F440235360094B1B68084A43F44013BD
:102F34001360064B1B68054A23F44003136000BF6B
:102F4400BD4680BC704700BF00140140000C014026
:102F54000010014080B400AF084B4FF088321A6073
:102F6400074B4FF088321A60064B5B69054A43F001
:102F74001003536100BFBD4680BC70470008014088
:102F8400001401400010014080B400AF084B4FF022
:102F940033321A60074B4FF033321A60064B1B6909
:102FA400054A43F01003136100BFBD4680BC70475F
:102FB40000080140001401400010014080B483B0B7
:102FC40000AF0346FB71554B9B69544A43F0080319
:102FD4009361534B5B68524A43F44C535360504BD8
:102FE4005B684F4A43F44C4353604C4BDB694B4A98
:102FF40043F48003D3614B4B1B684A4A43F40043B8
:103004001360484B1B68474A23F400431360454B45
:10301400DB68444A23F00103D360424B1B68414AF6
:1030240023F0400313603F4B1B683E4A23F08003A8
:1030340013603C4B1B683B4A23F001031360394B7C
:103044005B6823F03F03374A43F024035360FB7962
:10305400002B12D1334B1B6A23F03F03314A43F058
:10306400250313622F4BDB6923F44F4323F0FF0343
:103074002C4A43F0B403D36129E0FB79012B14D12A
:10308400284B1B6A23F03F03264A43F00B031362C9
:10309400244BDB6923F44F4323F0FF03214A43F419
:1030A400004343F01E03D36111E01E4B1B6A23F05F
:1030B4003F031C4A43F0250313621A4BDB6923F4D4
:1030C4004F4323F0FF03174A43F0B403D361154B76
:1030D4009B6823F4434323F0FF03124A43F48043E1
:1030E4009360104B1B680F4A23F01A0313600D4BB7
:1030F4001B680C4A43F0010313600A4B1B68094A1E
:1031040043F480631360074BDB68064A23F0FE0335
:10311400D36000BF0C37BD4680BC7047001002402E
:10312400000C01400058004080B485B000AF3B6003
:103134000346FB710B46BB801346BB714FF6FF730E
:10314400FB81634B1B68624A23F400631360604B8A
:103154001B685F4A43F4806313605D4B1B685C4AE1
:1031640043F4807313604FF6FF73FB8102E0FB8925
:10317400013BFB81564B5B6903F00103002B02D139
:10318400FB89002BF3D1FB89002B01D101239AE0A9
:103194004F4B5B694E4B1B6923F0FF02FB794C4993
:1031A40013430B614FF6FF73FB8102E0FB89013B84
:1031B400FB81474B5B6903F00203002B02D1FB89BF
:1031C400002BF3D1FB89002B01D101237BE0404B81
:1031D4005B693F4B9B69BB79022B20D13C4B1B693C
:1031E40023F0FF03BA88120A92B2D2B21146384AC7
:1031F4000B4313614FF6FF73FB8102E0FB89013B34
:10320400FB81334B5B6903F08003002B02D1FB8904
:10321400002BF3D1FB89002B01D1012353E02C4B6C
:103224001B6923F0FF03BA88D2B21146284A0B4324
:1032340013614FF6FF73FB8102E0FB89013BFB81C5
:10324400234B5B6903F08003002B02D1FB89002B25
:10325400F3D1FB89002B01D1012334E00023BB60AF
:1032640026E01B4B1B6923F0FF03B98BBA680A44A1
:1032740011463A680A4412781146154A0B43136101
:103284004FF6FF73FB8102E0FB89013BFB81104B8E
:103294005B6903F08003002B02D1FB89002BF3D17F
:1032A400FB89002B01D101230DE0BB680133BB6016
:1032B4003B8BBA689A42D4DB054B1B68044A43F43F
:1032C40000731360002318461437BD4680BC704752
:1032D4000058004080B485B000AF3B600346FB71EA
:1032E4000B46BB711346BB804FF6FF73FB81934BB8
:1032F4001B68924A23F400631360904B1B688F4A47
:1033040043F4806313608D4B1B688C4A43F48073D1
:10331400136002E0FB89013BFB81884B5B6903F08E
:103324000103002B02D1FB89002BF3D1FB89002B75
:1033340001D10123FCE0814B5B69804B1B6923F0C5
:10334400FF02FB797D4913430B614FF6FF73FB8149
:1033540002E0FB89013BFB81784B5B6903F00203CC
:10336400002B02D1FB89002BF3D1FB89002B01D167
:103374000123DDE0714B5B69704B9B69BB79022BC8
:1033840020D16E4B1B6923F0FF03BA88120A92B254
:10339400D2B21146694A0B4313614FF6FF73BB81E6
:1033A40002E0BB89013BBB81644B5B6903F0800392
:1033B400002B02D1BB89002BF3D1BB89002B01D197
:1033C4000123B5E05D4B1B6923F0FF03BA88D2B239
:1033D40011465A4A0B4313614FF6FF73FB8102E017
:1033E400FB89013BFB81554B5B6903F08003002B98
:1033F40002D1FB89002BF3D1FB89002B01D10123DE
:1034040096E04E4B1B684D4A43F4807313604FF6AD
:10341400FF73FB8102E0FB89013BFB81474B5B6946
:1034240003F00103002B02D1FB89002BF3D1FB89AC
:10343400002B01D101237BE0404B5B693F4B1B69AF
:1034440023F0FF03FA7942F00102D2B211463B4A5B
:103454000B4313614FF6FF73FB8102E0FB89013BD1
:10346400FB81364B5B6903F00203002B02D1FB891D
:10347400002BF3D1FB89002B01D1012358E02F4B02
:103484005B692E4B9B690023BB604CE0BB695A1EF1
:10349400BB689A421CD94FF6FF73FB8102E0FB899B
:1034A400013BFB81254B5B6903F04003002B02D1F8
:1034B400FB89002BF3D1FB89002B01D1012337E0D9
:1034C4001E4B1969BB683A681344CAB21A7027E0E4
:1034D4001A4B1B68194A23F480631360174B1B684B
:1034E400164A43F4007313604FF6FF73FB8102E046
:1034F400FB89013BFB81114B5B6903F04003002B0B
:1035040002D1FB89002BF3D1FB89002B01D10123CC
:103514000EE00A4B1969BB683A681344CAB21A70C0
:10352400BB680133BB60BB68BA699A42AED800235A
:1035340018461437BD4680BC704700BF0058004091
:1035440080B500AF04F08EFA00F06CF8FFF728FBAA
:103554002F4B5B692E4A43F0200353610A2004F089
:10356400E3FA2B4B1B692A4A43F0200313616420BE
:1035740004F0DAFAFFF7F2FA09F06EF8FFF7B6FA98
:103584000020FFF71BFD062004F044F900F0B6F814
:10359400FFF7FAFC002001F0DDF91E4B5B691D4AC0
:1035A40043F0800353611A4B1B69194A43F001032A
:1035B4001361184B5B69174A43F480735361154BCD
:1035C4001B69144A43F020031361114B1B69104A11
:1035D40043F004031361104B5B690F4A43F010037B
:1035E40053610E4B5B690D4A43F010035361084B62
:1035F4001B69074A43F008031361094B1B78002B2E
:10360400FBD000F0FFF8064B00221A70F5E700BF6C
:10361400000C01400010014000180140001401405A
:10362400AC08002080B59CB000AF07F13803382205
:103634000021184609F01CFD07F1240300221A603A
:103644005A609A60DA601A613B1D202200211846F4
:1036540009F00EFD0123BB634FF480333B64002368
:103664007B640123FB640023FB630223BB654FF4EB
:103674008033FB654FF4E0133B6600237B6607F160
:103684003803184605F0AAFB0346002B01D000F0CE
:103694002FF80F237B620223BB620023FB624FF4EB
:1036A40080633B6300237B6307F1240302211846F4
:1036B40005F0AAFE0346002B01D000F019F81223EE
:1036C4007B604FF40043FB6000233B623B1D1846C4
:1036D40006F0BEF80346002B01D000F009F8034BB6
:1036E40001221A6000BF7037BD4680BD700042429F
:1036F40080B400AF72B600BFFEE7000080B400AF34
:10370400184B9B69174A43F004039361164B5B689B
:10371400154A43F030035360134B5B68124A23F09D
:10372400C0035360104B5B680F4A43F0800353603F
:103734000C4B9B690B4A43F4804393610B4B082267
:10374400DA600A4B00221A61084B41F64C529A6027
:10375400064BDB68054A43F40053D36000BFBD4603
:1037640080BC70470010024000080140003801404E
:1037740080B483B000AF0346FB71084AFB79536001
:1037840000BF064B1B6803F08003002BF9D000BF79
:1037940000BF0C37BD4680BC704700BF00380140F5
:1037A40080B582B000AF0346FB80FB8840F6F6127A
:1037B400934221D8DC20FFF7DBFFDC20FFF7D8FFA2
:1037C400FB880F4AA2FB03235B099BB2DBB21846BA
:1037D400FFF7CEFFFB880A4AA2FB031252096421B9
:1037E40001FB02F29B1A9BB2DBB21846FFF7C0FF43
:1037F400CD20FFF7BDFF00E000BF0837BD4680BD08
:103804001F85EB5180B584B000AFB64B1B78DBB29B
:10381400AC2B03D001F02CF801F01DB8B14BDB78D0
:10382400DBB2A03B5A2B01F20F8001A252F823F025
:10383400F13E00085D3F0008E53F00088F400008A6
:103844000D4100087F4100083D4200087342000812
:10385400E54200085F430008334400084D4800086F
:103864004D4800084D4800084D4800084D480008E0
:10387400554400088744000839450008D745000826
:1038840043460008494600084D480008ED46000834
:103894004D4800084D4800084D4800084D480008B0
:1038A4004D4800084D4800084D4800084D480008A0
:1038B4004D4800084D4800084D4800084D48000890
:1038C4004D4800084D4800084D4800084D48000880
:1038D4004D4800084D4800084D4800084D48000870
:1038E4004D4800084D4800084D4800084D48000860
:1038F400A93900084D480008B13900084D480008AE
:103904004D4800084D4800084D4800084D4800083F
:103914004D4800084D480008A13900084D480008EA
:103924004D4800084D4800084D4800084D4800081F
:1039340091470008D1470008274800084D4800086F
:103944004D4800084D4800084D4800084D480008FF
:103954004D4800084D4800084D4800084D480008EF
:103964004D4800084D4800084D4800084D480008DF
:10397400133A0008093B0008913B0008033D000886
:103984004D4800084D480008653D00084D480008B2
:10399400533E00084D480008AB3E000800F07EFF8F
:1039A40000F059BF00F0EEFF00F055BF4D4B1B79FE
:1039B400DBB29BB21A46920013441A4691001A468F
:1039C4000B4613449B009AB2464B5B79DBB29BB225
:1039D4001344FB81FB891846FFF7E2FE4FF496700F
:1039E40004F0A2F8404BAC221A703F4B00225A70EC
:1039F4003D4B01229A703C4BD222DA703A4B0022A2
:103A04001A710521384800F05FFF00F024BFFFF76A
:103A1400A1FA364B5B69354A43F020035361344BBA
:103A24001B69334A43F004031361314B1B69304A69
:103A340043F0010313612D4B5B692C4A43F48073FB
:103A44005361284B5B79DBB21A04264B9B79DBB2BA
:103A54001B021343234AD279D2B213431A46254B8D
:103A64001A60204B1B79DAB2234B1A701D4B1B7A58
:103A7400DBB21B021AB21B4B5B7ADBB21BB21343E1
:103A84001BB29AB21D4B1A80164B1B7BDBB29BB246
:103A94001A46920013441A4691001A460B461344E0
:103AA4009B009AB20F4B5B7BDBB29BB213449AB27E
:103AB400134B1A80124B1B88002B08D0104B1B8809
:103AC4001846FFF76DFE4FF4967004F02DF801F0E0
:103AD40015F8064B1B69054A43F02003136100F0F7
:103AE400BABE00BF98010020AC03002000100140C2
:103AF400000C0140C8050020DA050020D80500208C
:103B0400DC050020884B1B69874A43F004031361DA
:103B1400854B1B69844A43F001031361834B5B6942
:103B2400824A43F480735361804B1B697F4A43F09C
:103B3400200313617E4B1B79DAB27E4B1A707C4BE7
:103B44005B79DBB29BB21A46920013441A46910089
:103B54001A460B4613449B009AB2754B9B79DBB211
:103B64009BB213449AB2744B1A80734B1B88002B7C
:103B740008D0714B1B881846FFF712FE4FF496705D
:103B840003F0D2FF02F0C2FA00F065BE674B1B6976
:103B9400664A43F020031361634B1B69624A43F096
:103BA40001031361614B5B69604A43F480735361A1
:103BB4005D4B1B695C4A43F0040313615F4B1B6953
:103BC4005E4A43F4804313615D4B1B695C4A43F4D2
:103BD400806313615B4B00221A605B4B00221A6006
:103BE400FFF7D2F9524B5B79DBB21A04504B9B7945
:103BF400DBB21B0213434E4AD279D2B213431A46A4
:103C0400524B1A604A4B1B7BDBB21B02484A527B65
:103C1400D2B213431A464E4B1A60454B1B79DAB2A3
:103C2400444B1A70424B9B7BDBB29BB21A46920008
:103C340013441A4691001A460B4613449B009AB249
:103C44003B4BDB7BDBB29BB213449AB23A4B1A80F8
:103C5400394B1B88002B08D0374B1B881846FFF7BD
:103C64009FFD4FF4967003F05FFF324B1B78072BD8
:103C740013D0304B1B78112B0FD02E4B1B78122BEB
:103C84000BD02C4B1B781B2B07D02A4B1B78252BD6
:103C940003D0284B1B782F2B0ED1234B5B69224A70
:103CA40043F001035361214B1B69204A43F48073A1
:103CB4001361322003F038FF1D4B1B7ADBB21B0269
:103CC4001AB21B4B5B7ADBB21BB213431BB29AB220
:103CD400204B1A80204BAC221A701F4B00225A70C2
:103CE4001D4B01229A701C4BF322DA701A4B0022EE
:103CF4001A710521184800F0E7FD00F0ACBD0C4B2B
:103D04009B79DBB21A460A4B5B79DBB21B021A437E
:103D1400074B1B79DBB21B0413431A460F4B1A6083
:103D240001F042FA00F097BD000C01400010014080
:103D340098010020DA050020DC050020001801406D
:103D440000140140D0050020D4050020C80500203F
:103D5400CC050020D8050020AC030020C0050020BD
:103D6400FFF712F9A84B1B69A74A43F0200313611C
:103D7400A64B1B69A54A43F001031361A24B5B697F
:103D8400A14A43F480735361A04B1B699F4A43F0DB
:103D9400040313619E4B00221A609E4B00221A609A
:103DA400FFF7F2F89C4B5B79DBB21A049A4B9B79D0
:103DB400DBB21B021343984AD279D2B213431A4698
:103DC400964B1A60944B9B7ADBB21B02924AD27ACE
:103DD400D2B213431A46924B1A608F4B1B79DAB254
:103DE400904B1A708C4B1B7BDBB21B021AB28A4BB2
:103DF4005B7BDBB21BB213431BB29AB28A4B1A80B1
:103E0400854B9B7BDBB29BB21A46920013441A4645
:103E140091001A460B4613449B009AB27E4BDB7BFF
:103E2400DBB29BB213449AB2804B1A807F4B1B883F
:103E3400002B08D07D4B1B881846FFF7B1FC4FF4CC
:103E4400967003F071FE02F08FFD00F004BD724B1A
:103E54001B79DAB2734B1A706F4B5B79DBB29BB28E
:103E64001A46920013441A4691001A460B4613440C
:103E74009B009AB2684B9B79DBB29BB213449AB213
:103E84006A4B1A80694B1B88002B08D0674B1B8830
:103E94001846FFF785FC4FF4967003F045FE03F0D7
:103EA400FBF800F0D8BC594B1B69584A43F0010396
:103EB4001361554B5B69544A43F480735361524B0D
:103EC4005B69514A43F0800353614F4B1B694E4A6F
:103ED40043F0200313614D4B1B694C4A43F0040328
:103EE40013610020FFF75CFC00F0B5BC4A4B1B7962
:103EF400DAB24C4B1A7040F2C440FFF751FC4FF455
:103F0400967003F011FE474B1B78032B02D1FDF78B
:103F140037FF0FE0434B1B78072B02D1FEF7BAF9AA
:103F240008E0404B1B78082B02D1FEF72BFA01E086
:103F3400FCF708FD3E4BAC221A703D4B00225A7030
:103F44003B4B03229A703A4BA022DA70072138487F
:103F540000F0BAFC00F07FBC2F4B1B79DAB2314B76
:103F64001A7040F2C440FFF71BFC4FF4967003F044
:103F7400DBFD2C4B1B78012B02D1FCF71FFE1DE04F
:103F8400284B1B78032B02D1FDF740FF16E0254B8D
:103F94001B78072B03D0234B1B78082B0CD1244B05
:103FA40000221A71224B00225A71214B00229A716D
:103FB4001F4B0022DA7101E0FCF75CFD1C4BAC22C4
:103FC4001A701B4B00225A70194B04229A70184B1A
:103FD400A122DA700821164800F076FC00F03BBC00
:103FE4000D4B1B7ADAB20F4B1A7040F2C440FFF744
:103FF400D7FB4FF4967003F097FD0A4B1B78012B07
:1040040018D1FCF767FF2CE000100140000C0140C0
:10401400D0050020D405002098010020C805002008
:10402400CC050020DA050020D8050020DC0500209E
:10403400AC030020A24B1B78032B02D1FDF730FF09
:104044000FE09F4B1B78072B02D1FEF7E1F908E044
:104054009B4B1B78082B02D1FEF76CFA01E0FCF7AE
:1040640051FE984BAC221A70964B00225A70954B15
:1040740001229A70934BA222DA70924B00221A7199
:104084000521904800F020FCE5E38F4B1B79DAB260
:104094008B4B1A7040F2C440FFF782FB4FF49670CA
:1040A40003F042FD864B1B78012B02D1FDF710F87B
:1040B40016E0834B1B78032B02D1FDF74BFF0FE077
:1040C4007F4B1B78072B02D1FEF7AEFA08E07C4B3E
:1040D4001B78082B02D1FEF7EDFA01E0FCF7D6FFBE
:1040E400784BAC221A70774B00225A70754B012220
:1040F4009A70744BA322DA70724BA1221A710521B3
:10410400704800F0E1FBA6E36F4B1B79DBB21A4663
:104114006D4B5B79DBB21B021A436B4B9B79DBB2B1
:104124001B0413431A46694B1A60674BDB79DAB2F6
:10413400634B1A7040F2C440FFF732FB4FF49670A1
:1041440003F0F2FC5E4B1B78012B02D1FDF75AF809
:1041540081E35B4B1B78032B02D1FDF711FF7AE35C
:10416400574B1B78072B00F07183554B1B78082B9A
:1041740000F06C83FCF7CAFF6DE3554B00221A6014
:10418400514B1B79DBB21A464F4B5B79DBB21B02F6
:104194001A434D4B9B79DBB21B0413431A464B4B1A
:1041A4001A60494BDB79DBB21A464A4B1A60464B1C
:1041B4001B7ADAB2424B1A7040F2C440FFF7F0FAAD
:1041C4004FF4967003F0B0FC3D4B1B78012B05D1E6
:1041D400FCF78EFA1120FCF71FFB19E0384B1B7813
:1041E400032B06D1FDF750FD11214C20FDF7D2FC25
:1041F4000EE0334B1B78072B00F02A83304B1B78DF
:10420400082B00F02583FCF7F3F91120FCF7D6FA0C
:104214002C4BAC221A702B4B00225A70294B0122D2
:104224009A70284BA622DA70264B00221A710521B7
:10423400244800F049FB0EE3214B1B78012B02D1EB
:10424400FDF7F0F807E31E4B1B78032B02D1FDF7B3
:10425400F9FE00E31A4B1B78072B00F0FB82184B86
:104264001B78082B00F0F682FDF748F8F3E20020F3
:10427400FFF796FA124B1B78012B02D1FCF774F965
:10428400E9E20F4B1B78032B02D1FCF76DF9E2E254
:104294000B4B1B78072B03D0094B1B78082B0CD135
:1042A4000D4B1B690C4A43F0010313610B4B5B6913
:1042B4000A4A43F480735361CDE2FCF731F9CAE250
:1042C400DA050020AC03002098010020C805002076
:1042D400C4050020CC050020000C01400010014062
:1042E4008A4B1B79DBB21A46884B5B79DBB21B0223
:1042F4001A43864B9B79DBB21B0413431A46844B47
:104304001A60824BDB79DAB2824B1A7040F2C440F5
:10431400FFF746FA4FF4967003F006FC7D4B1B78CA
:10432400012B02D1FDF7BEF995E27A4B1B78032BE2
:1043340002D1FDF7F9FE8EE2764B1B78072B02D1F2
:10434400FEF704FA87E2734B1B78082B02D1FEF7C1
:1043540079FA80E2FDF7FAF87DE26C4B1B79DBB267
:104364001A466A4B5B79DBB21B0213435B001A46A5
:10437400694B1A60654B9B79DAB2664B1A7040F24E
:10438400C440FFF70DFA4FF4967003F0CDFB634B76
:1043940000221A60624B00221A605E4B1B78012BCC
:1043A40002D1FCF7A5F92CE05A4B1B78032B02D160
:1043B400FDF76AFC25E0574B1B78072B03D0554BC0
:1043C4001B78082B1BD1534B1B78082B01D1FDF70D
:1043D4001FFF514B1B685B084F4A1360514B5B69CD
:1043E400504A43F0010353614F4B1B694E4A43F457
:1043F400807313614FF4487003F096FB01E0FCF7FF
:10440400F7F8FEF7C1FD494BAC221A70474B002266
:104414005A70464B01229A70444BAA22DA70434BDD
:1044240000221A710521414800F04EFA13E2394B7B
:104434001B78072B02D1FEF787FA0CE2354B1B7869
:10444400082B02D1FEF7EEFA05E2FDF7C3F902E20A
:104454002E4B1B79DBB21A462C4B5B79DBB21B0269
:104464001A432A4B9B79DBB21B041A43274BDB7993
:10447400DBB21B0613431A46254B1A6002F0DCFE1E
:10448400E9E100237B7200233B720023FB71254B7F
:104494005B69244A43F4805353619F2003F042FA3A
:1044A400002003F03FFA0346FB71002003F03AFAC0
:1044B40003467B72002003F035FA03463B721C4B23
:1044C4009B6803F08003002BF9D1164B1B69154A36
:1044D40043F480531361154BAC221A70134B002222
:1044E4005A70124B03229A70104BB122DA700F4AA1
:1044F4007B7A13710D4A3B7A53710C4AFB799371A1
:1045040007210A4800F0E0F9A5E100BF9801002066
:10451400C8050020DA050020CC050020D0050020C5
:10452400D4050020000C014000100140AC03002021
:10453400003800400023FB720023BB729D4B5B6973
:104544009C4A43F480535361052003F0EBF90020A7
:1045540003F0E8F90346FB72974B9B6803F0800372
:10456400002BF9D1934B1B69924A43F48053136196
:10457400904B5B698F4A43F480535361352003F0B9
:10458400D1F9002003F0CEF90346BB728A4B9B6835
:1045940003F08003002BF9D1864B1B69854A43F451
:1045A40080531361854BAC221A70844B00225A70DD
:1045B400824B02229A70814BB222DA707F4AFB7AD4
:1045C40013717E4ABB7A537106217C4800F07CF952
:1045D40041E17B4B1B79DBB21A46794B5B79DBB249
:1045E4001B021A43764B9B79DBB21B041A43744BB0
:1045F400DB79DBB21B0613431A46724B1A60704B0D
:104604001B7ADBB21A466E4B5B7ADBB21B02134396
:104614001A466D4B1A60694BAC221A70674B002224
:104624005A70664B01229A70644BB422DA70634B61
:1046340000221A710521614800F046F90BE102F0ED
:104644009DFE08E15B4B5B695A4A43F48053536116
:10465400062003F067F9584B9B6803F08003002B96
:10466400F9D1544B1B69534A43F48053136100BF7F
:1046740002F05EFE034603F00203002BF8D04D4B1C
:104684005B694C4A43F480535361C72003F04AF9F1
:10469400494B9B6803F08003002BF9D1454B1B6900
:1046A400444A43F48053136100BF02F041FE0346C1
:1046B40003F00103002BF8D041F2707003F034FAD8
:1046C4003E4BAC221A703D4B00225A703B4B0122E8
:1046D4009A703A4BB522DA70384B00221A710521D0
:1046E400364800F0F1F8B6E0354B1B797B73344B58
:1046F4005B793B732F4B5B692E4A43F480535361C0
:10470400502003F00FF92C4B9B6803F08003002B1F
:10471400F9D1284B1B69274A43F480531361322093
:1047240003F002FA234B5B69224A43F4805353613A
:10473400012003F0F7F83B7B184603F0F3F87B7B8A
:10474400184603F0EFF81C4B9B6803F08003002B22
:10475400F9D1184B1B69174A43F480531361322073
:1047640003F0E2F9154BAC221A70144B00225A7074
:10477400124B01229A70114BB722DA700F4B0022B0
:104784001A7105210D4800F09FF864E00C4B1B7969
:10479400DBB21A460A4B5B79DBB21B021A43084BA5
:1047A4009B79DBB21B0413431A46064B1A6002F0D2
:1047B4009DFE50E0000C014000380040AC03002096
:1047C40098010020C8050020CC050020234B1B794C
:1047D400DBB21A46214B5B79DBB21B021A431F4B37
:1047E4009B79DBB21B0413431A461D4B1A601B4B07
:1047F400DB79DBB21A461B4B1A601B4BAC221A70D6
:10480400194B00225A70184B01229A70164BE2225F
:10481400DA70154B00221A710521134800F054F880
:1048240019E00E4B9B79DBB21A460C4B5B79DBB279
:104834001B021A43094B1B79DBB21B0413431A46B0
:104844000A4B1A6002F000FF00BF04E000BF02E060
:1048540000BF00E000BF1037BD4680BD98010020B6
:10486400C8050020CC050020AC030020C0050020B2
:1048740080B582B000AFAC233B7000237B70012372
:10488400BB70EE23FB7000233B713B4605211846A9
:1048940000F01AF800BF0837BD4680BD80B582B06D
:1048A40000AFAC233B7000237B700123BB70DA2381
:1048B400FB7000233B713B460521184600F004F8C9
:1048C40000BF0837BD4680BD80B584B000AF7860B6
:1048D4000B467B807B881946786807F0C1FF034646
:1048E400FB7397F90F30002BF4D100BF00BF1037D2
:1048F400BD4680BD80B584B000AF03463960FB710E
:104904001346BB80AC233B72BB881B0A9BB2DBB251
:104914007B72BB88DBB2BB72FB79FB7207F10803C5
:104924000421184607F09CFF0346FB7397F90F30E8
:10493400002BF3D1BB881946386807F091FF034672
:10494400FB7397F90F30002BF4D100BF00BF103771
:10495400BD4680BD80B483B000AF7860074A7B68F1
:104964009BB2D3607B681B0A054A03F47F43D36080
:1049740000BF0C37BD4680BC704700BF0018014023
:104984000014014080B500AFFEF7FEFA544BDB790A
:10499400DAB2544BDA60524B1B79DBB21A04504B37
:1049A4005B79DBB21B0213434D4A9279D2B21343B3
:1049B4001A464D4B1A604C4B1B681846FFF7CAFF4A
:1049C4004A4BDB68494A03F47F43D360444B1B7B67
:1049D400DAB2464BDB681146444A0B43D360404B82
:1049E4001B7ADBB2002B0CD03F4B1B6803F4007323
:1049F400002B06D03E4B1B693D4A43F080031361F4
:104A040005E03B4B5B693A4A43F080035361344B06
:104A14005B7ADBB2FF2B06D1354B1B69344A43F07A
:104A24002003136105E0324B5B69314A43F02003F4
:104A340053612B4B9B7ADBB2002B1ED0284B1B7A85
:104A4400DBB2002B0CD02B4B5B692A4A43F00103E9
:104A54005361274B1B69264A43F48073136118E0A2
:104A6400244B1B69234A43F001031361204B5B6908
:104A74001F4A43F4807353610BE01E4B5B691D4A6C
:104A840043F0010353611A4B5B69194A43F4807381
:104A94005361134BDB7ADBB2002B06D0154B1B6939
:104AA400144A43F00403136105E0124B5B69114A95
:104AB40043F004035361104BAC221A700E4B0022D6
:104AC4005A700D4B01229A700B4BD022DA700A4BAC
:104AD400AC221A7105210848FFF7F6FE00BF80BD1D
:104AE4009801002000080140C40500200014014082
:104AF40000100140000C0140AC03002080B500AF61
:104B0400FEF728FA9A4B1B78013B1A2B00F22D81F1
:104B140001A252F823F000BF894B00086F4D000832
:104B24006F4D0008DD4B0008B34B0008074C00082C
:104B3400314C00085B4C0008AF4C00086F4D000876
:104B44006F4D00086F4D0008D94C00086F4D0008E8
:104B54006F4D00086F4D00081B4D0008854C000880
:104B64006F4D00086F4D00086F4D00086F4D000831
:104B74006F4D00086F4D00086F4D00086F4D000821
:104B8400454D000800F0FAF87A4B1B69794A43F066
:104B940001031361784B5B69774A43F48073536173
:104BA400744B1B69734A43F004031361DEE000F0A5
:104BB400E5F8704B1B696F4A43F0010313616E4BB8
:104BC4005B696D4A43F4807353616A4B1B69694A9C
:104BD40043F004031361C9E000F0D0F8654B1B698E
:104BE400644A43F001031361634B5B69624A43F413
:104BF400807353615F4B1B695E4A43F00403136186
:104C0400B4E000F0BBF85B4B1B695A4A43F0010364
:104C14001361594B5B69584A43F480735361554B94
:104C24001B69544A43F0040313619FE000F020F928
:104C3400504B1B694F4A43F0010313614E4B5B69B0
:104C44004D4A43F4807353614A4B1B69494A43F00C
:104C5400040313618AE000F0FFF9464B1B69454ADF
:104C640043F001031361444B5B69434A43F480738B
:104C74005361404B1B693F4A43F00403136175E0E1
:104C840000F0EAF93B4B1B693A4A43F00103136114
:104C9400394B5B69384A43F480735361354B1B6964
:104CA400344A43F00403136160E000F067F8314BC9
:104CB4001B69304A43F0010313612F4B5B692E4A91
:104CC40043F4807353612B4B1B692A4A43F004035A
:104CD40013614BE000F056F9264B1B69254A43F05B
:104CE40001031361244B5B69234A43F480735361CA
:104CF400204B1B681F4A23F4407313601D4B1B6831
:104D04001C4A23F4406313601A4B1B68194A43F48A
:104D1400806313602AE000F0ABF8164B1B69154A58
:104D240043F001031361144B5B69134A43F480732A
:104D34005361104B1B690F4A43F00403136115E0E0
:104D440000F096F80B4B1B690A4A43F00103136108
:104D5400094B5B69084A43F480735361054B1B6933
:104D6400044A43F00403136100E000BF00BF80BDA8
:104D7400DA050020000C01400010014080B582B02B
:104D840000AF00237B605DE0334BAC221A70324BE2
:104D940002225A70304B00229A702F4BF022DA70A4
:104DA4002E4B5B692D4A43F02003536100233B6083
:104DB4002DE03A687B6813441846FFF7CBFD284B77
:104DC4005B69274A43F001035361244B5B69234A1F
:104DD40043F4807353610120FDF79EFE214B9A68D2
:104DE4003B680433D1B21C4AD1541D4B1B691C4A85
:104DF40043F001031361194B5B69184A43F4807350
:104E040053610120FDF788FE3B6801333B603B683A
:104E1400B3F5007FCDDB114B1B69104A43F020032F
:104E240013614FF401710C48FFF74EFD00BF0E4BA8
:104E34001B78002BFBD00C4B00221A707B6803F507
:104E440000737B60094B1B687A689A429CD300BF4D
:104E540000BF0837BD4680BDAC03002000100140F0
:104E6400000C014000080140AD080020C8050020E6
:104E740080B582B000AF00237B606BE03A4BAC227C
:104E84001A70394B02225A70374B00229A70364BF3
:104E9400F022DA70354B5B69344A43F020035361E6
:104EA40000233B603BE0324B1B78112B08D13A685E
:104EB4007B68134443F480431846FFF74BFD12E02C
:104EC4002B4B1B781B2B08D13A687B68134443F4A3
:104ED40080231846FFF73EFD05E03A687B681344DB
:104EE4001846FFF737FD234B5B69224A43F004035E
:104EF40053610120FDF710FE1F4B9A683B68043391
:104F0400D1B2194AD1541B4B1B691A4A43F004030A
:104F140013610120FDF700FE3B6801333B603B68F1
:104F2400B3F5007FBFDB114B1B69104A43F020032C
:104F340013614FF401710C48FFF7C6FC00BF0F4B1F
:104F44001B78002BFBD00D4B00221A707B6803F5F5
:104F540000737B600A4B1B687A689A428ED300BF49
:104F640000BF0837BD4680BDAC03002000100140DF
:104F7400DA050020000C014000080140AD080020C3
:104F8400C805002090B583B000AF00F0EBFF2E4BB6
:104F94001B682D4A23F4407313602B4B1B682A4A69
:104FA40023F440631360284B1B68274A43F480634F
:104FB400136000237B6032E0244BAC221A70234B35
:104FC40002225A70214B00229A70204BF022DA7090
:104FD40000233B600EE03A687B681A443B681C1D62
:104FE400104601F047F803461A46184B1A553B6819
:104FF40001333B603B68B3F5007FECDB4FF4017198
:105004001248FFF761FC00BF114B1B78002BFBD04B
:105014000F4B00221A707B6803F500737B600D4B05
:105024001B687A689A42C7D3074B1B68064A43F445
:1050340040731360044B1B68034A23F440631360FA
:1050440000BF0C37BD4690BD000C0140AC030020EE
:10505400AD080020C805002080B582B000AF002351
:105064007B6085E0484B5B69474A43F0200353610A
:10507400464B1B78122B12D1454B1B69444A43F013
:1050840001031361404B5B693F4A43F480735361EE
:105094003F4B5B693E4A43F0040353610BE03C4BD6
:1050A4005B693B4A43F001035361374B5B69364A02
:1050B40043F480735361374BAC221A70354B022290
:1050C4005A70344B00229A70324BF022DA7000236B
:1050D4003B601CE07B685A083B6813441846FFF7A2
:1050E40039FC0520FDF718FD2B4B9A683B685B00E3
:1050F4000533D1B2274AD154284B9A683B6802330E
:105104005B00D1B2234AD1543B6801333B603B6816
:10511400FF2BDFDD1D4B1B78122B06D11C4B1B69AB
:105124001B4A43F0040313610BE0194B1B69184A33
:1051340043F001031361144B5B69134A43F4807316
:105144005361114B1B69104A43F0200313614FF460
:1051540001711048FFF7B8FB00BF114B1B78002BFF
:10516400FBD00F4B00221A707B6803F500737B6041
:105174000C4B1B687A689A42FFF474AF00BF00BFFF
:105184000837BD4680BD00BF00100140DA0500208D
:10519400000C0140AC030020000801400014014051
:1051A400AD080020C805002080B500AF4B4B1B782C
:1051B400013B2E2B00F28F8001A252F823F000BF96
:1051C40081520008DB520008DB52000887520008B5
:1051D40093520008995200089F520008A5520008F3
:1051E400AB520008B1520008DB520008DB52000841
:1051F400B7520008BD520008DB520008DB52000819
:10520400C3520008CF520008DB5200088D52000838
:10521400DB520008DB520008DB520008DB520008B6
:10522400DB520008DB520008C9520008DB520008B8
:10523400DB520008DB520008DB520008DB52000896
:10524400DB520008DB520008DB520008DB52000886
:10525400DB520008DB520008DB520008DB52000876
:10526400DB520008DB520008DB520008DB52000866
:10527400DB520008DB520008D552000800F04AF85F
:105284002AE000F09FF827E000F01AF924E000F08B
:105294007FF921E000F0C4F91EE000F049FB1BE0B7
:1052A40000F07EFA18E000F00DFA15E000F0E8FADC
:1052B40012E000F003FC0FE000F000FC0CE000F052
:1052C40079FB09E000F076FB06E000F071FC03E0F6
:1052D40000F0CEFC00E000BF00BF80BDDA05002076
:1052E40080B500AF0A4BAC221A70094B00225A70E9
:1052F400074B01229A70064BF322DA70044B00220A
:105304001A7105210248FFF7DFFA00BF80BD00BF14
:10531400AC03002080B582B000AF00237B603DE089
:10532400244B5B69234A43F020035361AA2145F2CD
:10533400555000F0FBFC552142F6AA2000F0F6FC83
:10534400A02145F2555000F0F1FC00233B6012E02F
:10535400194B1A683B681A447B68D0183A687B6812
:1053640013440733154AD35CDBB2194600F0DEFC64
:105374003B6801333B603A68114B1B689A42E7D3A0
:105384000C4B1B690B4A43F0200313610C2002F001
:10539400CBFB7A680A4B1B6813447B607B68B3F5CC
:1053A400007FBDDBFFF79CFF002318460837BD468E
:1053B40080BD00BF00100140C005002098010020FE
:1053C400CC05002080B582B000AF374B1B69364A4C
:1053D40043F020031361354B1B69344A43F0010346
:1053E4001361314B5B69304A43F4807353612F4B33
:1053F4001B692E4A43F00403136100237B6048E0D9
:1054040000233B6038E02A4B1A687B681A443B68E7
:1054140013441846FFF79EFA7B68DA1D3B68134471
:10542400244AD35CDAB2244BDA600120FDF774FB22
:105434001D4B5B691C4A43F0200353610520FDF7B3
:105444006BFB1A4B5B69194A43F004035361052053
:10545400FDF762FB154B1B69144A43F00403136107
:10546400114B1B69104A43F0200313610520FDF71B
:1054740053FB3B6801333B603A68104B1B689A420C
:10548400C1D3042002F050FB7A680C4B1B68134410
:105494007B607B68B3F5007FB2DBFFF721FF00235D
:1054A40018460837BD4680BD00100140000C01407D
:1054B400C00500209801002000080140CC05002010
:1054C40080B582B000AF2D4B1B692C4A43F02003FA
:1054D40013612B4B1B692A4A43F001031361274BC9
:1054E4005B69264A43F480735361254B1B69244A44
:1054F40043F00403136100237B6034E0214B1A68FA
:105504007B6813441846FFF725FA7B6807331E4A65
:10551400D35CDAB21D4BDA600120FDF7FDFA174BBC
:105524005B69164A43F020035361154B5B69144AC7
:1055340043F0040353610520FDF7EEFA104B1B6999
:105544000F4A43F0040313610520FDF7E5FA0B4B02
:105554001B690A4A43F020031361B420FDF7DCFA07
:105564007B6801337B607B68B3F5007FC6DBFFF7A4
:10557400B7FE00BF0837BD4680BD00BF0010014024
:10558400000C0140C00500209801002000080140E3
:1055940080B582B000AF1D4B5B691C4A43F0200309
:1055A400536100237B601FE07A68194B1B68134426
:1055B4001846FFF7CFF97B680733164AD35CDAB293
:1055C400154BDA60154B5B69144A43F004035361CD
:1055D4000120FDF7A1FA114B1B69104A43F00403A3
:1055E40013617B6801337B607B68B3F5007FDBDB91
:1055F400064B1B69054A43F020031361FFF770FE55
:10560400002318460837BD4680BD00BF0010014086
:10561400C00500209801002000080140000C014052
:1056240080B582B000AF234B5B69224A43F020036C
:10563400536100237B602CE07B6807331E4AD35CF4
:10564400DBB2FF2B21D0AA2145F2555000F06EFBAE
:10565400552142F6AA2000F069FBA02145F25550DD
:1056640000F064FB7A68154B1B681A447B680733A7
:105674001149CB5CDBB21946104600F057FB104BC6
:105684001B881846FDF748FA00E000BF7B68013329
:105694007B607B68B3F5007FCEDB064B1B69054A54
:1056A40043F020031361FFF71BFE0023184608375D
:1056B400BD4680BD0010014098010020C0050020B7
:1056C400D805002080B582B000AF314B5B69304A09
:1056D40043F02003536100237B6044E07B6808337C
:1056E4002C4AD35CDBB2FF2B06D17B680733294AF3
:1056F400D35CDBB2FF2B32D04AF6AA2145F25550D7
:1057040000F07AFB45F2555142F6AA2000F074FBF2
:105714004AF2A00145F2555000F06EFB0520FDF75A
:10572400FBF91D4B1A687B68134458087B680833DF
:10573400184AD35CDBB21B021AB27B6807331549E3
:10574400CB5CDBB21BB213431BB29BB2194600F015
:1057540053FB124B1B881846FDF7DEF900E000BF2F
:105764007B6802337B607B68B3F5007FB6DB084B54
:105774001B69074A43F0200313610A20FDF7CCF9A3
:10578400FFF7AEFD002318460837BD4680BD00BFB5
:105794000010014098010020C0050020D805002019
:1057A40080B582B000AF00237B6053E02F4B5B6970
:1057B4002E4A43F0200353614FF42A4145F25550D9
:1057C40000F01AFB4FF4AA4142F6AA2000F014FBA1
:1057D4004FF4204145F2555000F00EFB00233B608E
:1057E40023E0234B1A683B681A447B681344580827
:1057F4003A687B68134408331E4AD35CDBB21B024D
:105804001AB239687B680B4407331A49CB5CDBB2A4
:105814001BB213431BB29BB2194600F0EDFA0520EC
:10582400FDF77AF93B6802333B603A68124B1B6818
:105834009A42D6D30D4B1B690C4A43F020031361E3
:105844000E4B1B88184602F06FF97A680A4B1B68E6
:1058540013447B607B68B3F5007FA7DBFFF740FD53
:10586400002318460837BD4680BD00BF0010014024
:10587400C005002098010020CC050020D805002098
:1058840080B582B000AF264B5B69254A43F0200304
:10589400536100237B6031E04FF42A4140F25550BC
:1058A40000F0AAFA4FF4AA4140F2AA2000F0A4FAA8
:1058B4004FF4204140F2555000F09EFA194B1A68FB
:1058C4007B68134458087B680833174AD35CDBB2FF
:1058D4001B021AB27B6807331349CB5CDBB21BB2E1
:1058E40013431BB29BB2194600F086FA0F4B1B8878
:1058F4001846FDF711F97B6802337B607B68B3F5CA
:10590400007FC9DB064B1B69054A43F02003136182
:10591400FFF7E6FC002318460837BD4680BD00BFEC
:1059240000100140C005002098010020D805002087
:1059340080B582B000AF00237B6027E0184B1A6863
:105944007B6813441846FFF705F87B680733154A4C
:10595400D35CDAB2144BDA600220FDF7DDF8134BA6
:105964005B69124A43F020035361114B1B881846AC
:10597400FDF7D2F80D4B1B690C4A43F02003136169
:105984000F20FDF7C9F87B6801337B607B68B3F5B2
:10599400007FD3DBFFF7A4FC00BF0837BD4680BD02
:1059A400C0050020980100200008014000100140BB
:1059B400D805002080B582B000AF384B5B69374A08
:1059C40043F02003536100237B6056E0344B1B7883
:1059D400112B08D1334B1A687B68134443F480437A
:1059E4001846FEF7B7FF2E4B1B781B2B08D12D4B07
:1059F4001A687B68134443F480231846FEF7AAFF11
:105A04007B680733284AD35CDAB2284BDA60022079
:105A1400FDF782F8224B1B78112B05D1244B5B69CF
:105A2400234A43F4804353611D4B1B781B2B05D140
:105A3400204B5B691F4A43F4806353611E4B1B88F0
:105A44001846FDF769F8164B1B78112B05D1184B36
:105A54001B69174A43F480431361114B1B781B2BBA
:105A640005D1144B1B69134A43F4806313610F205F
:105A7400FDF752F87B6801337B607B68B3F5007FE8
:105A8400A4DB064B1B69054A43F020031361FFF7AF
:105A940027FC00BF0837BD4680BD00BF0010014091
:105AA400DA050020C005002098010020000801400C
:105AB4000018014000140140D805002080B582B0D0
:105AC40000AF00F04FFA354B1B68344A23F440739F
