:020000040800F2
:100000000000012079620008096200080F62000800
:10001000156200081B620008216200080000000051
:10002000000000000000000000000000276200083F
:1000300033620008000000003F6200084B620008C5
:10004000C1620008C1620008C1620008C162000804
:10005000C1620008C1620008C1620008C1620008F4
:10006000C1620008C1620008C1620008C1620008E4
:10007000C1620008C1620008C1620008C1620008D4
:10008000C1620008C1620008C1620008C1620008C4
:1000900059620008C1620008C1620008C16200081C
:1000A000C1620008C1620008C1620008C1620008A4
:1000B000C1620008C1620008C1620008C162000894
:1000C000C1620008C1620008C1620008C162000884
:1000D000C1620008C1620008C1620008C162000874
:1000E000C1620008C1620008C1620008C162000864
:1000F000C1620008C1620008C1620008C162000854
:10010000C1620008C1620008C1620008C162000843
:10011000C1620008C1620008C1620008C162000833
:10012000C1620008C1620008C1620008C162000823
:1001300000000000000000000000000000000000BF
:1001400000000000000000000000000000000000AF
:10015000000000000000000000000000000000009F
:10016000000000000000000000000000000000008F
:10017000000000000000000000000000000000007F
:10018000000000000000000000000000000000006F
:10019000000000000000000000000000000000005F
:1001A000000000000000000000000000000000004F
:1001B000000000000000000000000000000000003F
:1001C000000000000000000000000000000000002F
:1001D000000000000000000000000000000000001F
:0401E0005FF8E0F1F3
:1001E40010B5054C237833B9044B13B10448AFF36D
:1001F40000800123237010BD7C010020000000005A
:1002040030D5000808B5034B1BB103490348AFF3CD
:10021400008008BD000000008001002030D50008E7
:1002240080B500AF0E4B5B690D4A43F00103536187
:100234000C4B5B690B4A43F4807353610A2006F04C
:10024400A1F8074B1B69064A43F001031361054BF0
:100254005B69044A43F48073536100BF80BD00BFEF
:10026400000C01400010014080B500AF114B5B69E8
:10027400104A43F0010353610F4B5B690E4A43F488
:10028400807353610A2006F07DF80A4B1B69094A02
:1002940043F001031361084B5B69074A43F480731D
:1002A4005361064B1B69054A43F01003136100BFF9
:1002B40080BD00BF000C0140001001400018014047
:1002C40080B500AF094B1B69084A43F0080313616A
:1002D400012001F03DFE054B5B69044A43F008032D
:1002E4005361012001F034FE00BF80BD00180140BD
:1002F40080B582B000AF3B4B1B693A4A43F001031F
:100304001361394B5B69384A43F480735361374B4B
:100314001B69364A43F040031361344B1B69334A6B
:1003240043F080031361314B5B69304A43F00803A7
:1003340053612E4B1B692D4A43F0020313612B4B6F
:100344001B692A4A43F0040313610A2006F01AF8D1
:10035400244B5B69234A43F001035361224B5B69DD
:10036400214A43F4807353610A2006F00BF80023FA
:100374007B6004E0FFF7A4FF7B6801337B607B684C
:10038400092BF7DD194B5B69184A43F001035361EC
:10039400164B5B69154A43F002035361134B5B69C7
:1003A400124A43F004035361104B5B690F4A43F054
:1003B40020035361142005F0E5FF0A4B5B69094AE9
:1003C40043F001035361084B1B69074A43F48073EC
:1003D40013614FF4FA7005F0D5FF00BF0837BD462E
:1003E40080BD00BF000C0140001001400018014016
:1003F40080B500AF2E4B1B692D4A43F010031361E7
:10040400C82005F0BFFF2A4B5B69294A43F0020369
:100414005361274B5B69264A43F004035361244B21
:100424005B69234A43F020035361214B5B69204AF3
:1004340043F0400353611E4B5B691D4A43F0800344
:1004440053611C4B5B691B4A43F0010353611A4B14
:100454005B69194A43F480735361142005F092FFD9
:10046400134B5B69124A43F0100353610A2005F0F1
:1004740089FF104B5B690F4A43F0010353610E4B34
:100484001B690D4A43F4807313614FF4FA7005F04D
:1004940079FF074B1B69064A43F040031361044B81
:1004A4001B69034A43F08003136100BF80BD00BF92
:1004B40000180140000C01400010014080B582B0DA
:1004C40000AF0346FB71124AFB79D360114B1B69E1
:1004D400104A43F0040313610E4B5B690D4A43F069
:1004E400020353610B4B5B690A4A43F020035361D7
:1004F400084B5B69074A43F010035361012001F084
:1005040027FDFFF7DDFE00BF0837BD4680BD00BFF5
:10051400000801400018014080B582B000AF0346D6
:10052400FB710F4AFB79D3600E4B1B690D4A43F0F4
:10053400040313610B4B5B690A4A43F002035361E2
:10054400084B5B69074A43F020035361012001F023
:10055400FFFCFFF7B5FE00BF0837BD4680BD00BFF6
:10056400000801400018014080B582B000AF034686
:100574000A46FB711346BB71164B5B69154A43F07F
:1005840004035361134B5B69124A43F00203536142
:10059400BB79002B06D00F4B1B690E4A43F0200396
:1005A400136105E00B4B5B690A4A43F02003536176
:1005B400084B5B69074A43F010035361064AFB7911
:1005C400D360012001F0C4FCFFF77AFE00BF0837B6
:1005D400BD4680BD001801400008014080B582B0CE
:1005E40000AF03460A46FB711346BB71134B5B69AC
:1005F400124A43F004035361104B5B690F4A43F002
:1006040002035361BB79002B06D00C4B1B690B4AC8
:1006140043F02003136105E0084B5B69074A43F08C
:1006240020035361064AFB79D360012001F090FC5A
:10063400FFF746FE00BF0837BD4680BD00180140E5
:100644000008014080B500AF464B1B78012B02D156
:10065400FFF7CEFE01E0FFF74BFE01F091FE414BA8
:100664001B78012B03D10820FFF756FF02E0082076
:10067400FFF724FF3B4B1B78012B04D10021002002
:10068400FFF7ACFF03E000210020FFF76DFF01F04E
:100694005DFE354B5B69344A43F0800353610120AE
:1006A40005F070FE314B9B68DAB2314B9A712E4BD8
:1006B4001B692D4A43F08003136101F061FE294B4D
:1006C4001B78012B04D100210120FFF787FF03E0F1
:1006D40000210120FFF748FF01F038FE224B5B693F
:1006E400214A43F080035361012005F04BFE1F4B68
:1006F4009B68DAB21E4B5A711B4B1B691A4A43F0B2
:100704008003136101F03CFE164B1B78012B04D1CE
:1007140000210220FFF762FF03E000210220FFF71F
:1007240023FF01F013FE104B5B690F4A43F0800373
:100734005361012005F026FE0C4B9B68DAB20C4B8A
:100744001A71094B1B69084A43F080031361054B76
:100754001B78012B02D1FFF787FD01E0FFF760FD55
:1007640000BF80BDDA0500200018014000080140E8
:10077400AC03002080B500AFFFF7BAFD01F000FE26
:100784000420FFF79BFE01F0E1FD012005F0FAFDD6
:10079400474B5B69464A43F020035361444B5B6912
:1007A400434A43F010035361414B5B69404A43F0B1
:1007B40080035361012005F0E5FD3E4B9B68DAB2EE
:1007C4003D4B1A713A4B1B69394A43F0800313615C
:1007D400322001F0BDFB364B1B69354A43F0200340
:1007E4001361334B1B69324A43F010031361304BDE
:1007F4005B692F4A43F080035361012005F0C2FD79
:100804002C4B9B68DAB22C4B5A71294B1B69284A32
:1008140043F080031361322001F09AFB244B5B699F
:10082400234A43F020035361214B1B69204A43F0C0
:10083400100313611E4B5B691D4A43F0800353612F
:10084400012005F09FFD1B4B9B68DAB21A4B9A718D
:10085400174B1B69164A43F080031361322001F0E1
:1008640077FB134B1B69124A43F020031361104BAF
:100874005B690F4A43F0100353610D4B5B690C4AEB
:1008840043F080035361012005F07CFD094B9B6814
:10089400DAB2094BDA71064B1B69054A43F080034F
:1008A4001361322001F054FBFFF7BAFC00BF80BD96
:1008B4000018014000080140AC03002080B500AFDF
:1008C400FFF796FD01F05CFD0420FFF725FE01F023
:1008D4003DFD012005F056FD474B5B69464A43F058
:1008E40020035361444B5B69434A43F0040353615F
:1008F400414B5B69404A43F080035361012005F09A
:1009040041FD3E4B9B68DAB23D4B1A713A4B1B6971
:10091400394A43F080031361322001F019FB364B4E
:100924001B69354A43F020031361334B1B69324A78
:1009340043F004031361304B5B692F4A43F0800397
:100944005361012005F01EFD2C4B9B68DAB22C4B41
:100954005A71294B1B69284A43F0800313613220E2
:1009640001F0F6FA244B5B69234A43F020035361F8
:10097400214B1B69204A43F0040313611E4B5B693E
:100984001D4A43F080035361012005F0FBFC1B4B1F
:100994009B68DAB21A4B9A71174B1B69164A43F0DB
:1009A40080031361322001F0D3FA134B1B69124AFE
:1009B40043F020031361104B5B690F4A43F00403B7
:1009C40053610D4B5B690C4A43F080035361012072
:1009D40005F0D8FC094B9B68DAB2094BDA71064B77
:1009E4001B69054A43F080031361322001F0B0FA19
:1009F400FFF73AFC00BF80BD001801400008014029
:100A0400AC03002080B500AFFFF772FC01F0B8FC26
:100A14006D4B5B696C4A43F0010353614020FFF75F
:100A24004DFD0A2001F094FA674B5B69664A43F076
:100A340004035361644B1B69634A43F0020313616B
:100A4400624B1A79624BDA600A2001F081FAFFF7EF
:100A540037FC5D4B5B695C4A43F040035361012002
:100A640005F090FC584B1B69574A43F0400313614F
:100A7400642005F087FC544B5B69534A43F0200320
:100A84005361514B5B69504A43F01003536140205A
:100A9400FFF714FD4C4B5B694B4A43F0040353616D
:100AA400494B1B69484A43F002031361474B5A7987
:100AB400474BDA600A2001F04BFAFFF701FC424B86
:100AC4001B69414A43F0200313613F4B5B693E4A73
:100AD40043F0100353613C4B5B693B4A43F04003D2
:100AE4005361012005F04EFC374B1B69364A43F035
:100AF40040031361322005F045FC4020FFF7DEFC83
:100B0400314B5B69304A43F0040353612E4B1B693C
:100B14002D4A43F0020313612C4B9A792C4BDA6073
:100B24000A2001F015FAFFF7CBFB274B5B69264A35
:100B340043F020035361244B1B69234A43F0100301
:100B44001361214B5B69204A43F040035361012048
:100B540005F018FC1C4B1B691B4A43F0400313614E
:100B6400322005F00FFC2020FFF7A8FC164B5B6930
:100B7400154A43F004035361134B1B69124A43F0B3
:100B840002031361114BDA79114BDA600A2001F088
:100B9400DFF9FFF795FBC82001F0DAF90A4B5B692E
:100BA400094A43F040035361012005F0EBFB064B77
:100BB4001B69054A43F040031361322005F0E2FB50
:100BC400FFF72EFB00BF80BD0018014098010020F4
:100BD4000008014080B500AFFFF70AFC01F0D0FB2C
:100BE4004020FFF799FC0A2001F0B2F9644B5B69DD
:100BF400634A43F004035361614B1B69604A43F049
:100C0400020313615F4B1A795F4BDA600A2001F02B
:100C14009FF9FFF755FB5A4B5B69594A43F0200390
:100C24005361574B5B69564A43F004035361544B79
:100C34005B69534A43F040035361962001F088F9FD
:100C44004F4B1B694E4A43F040031361322005F0B9
:100C540099FB4020FFF760FC494B5B69484A43F02D
:100C640004035361464B1B69454A43F00203136175
:100C7400444B5A79444BDA600A2001F069F9FFF7D2
:100C84001FFB3F4B1B693E4A43F0200313613C4B5F
:100C94005B693B4A43F040035361012005F072FB5A
:100CA400374B1B69364A43F040031361322005F089
:100CB40069FB4020FFF730FC314B5B69304A43F05D
:100CC400040353612E4B1B692D4A43F00203136145
:100CD4002C4B9A792C4BDA600A2001F039F9FFF792
:100CE400EFFA274B5B69264A43F020035361244BF8
:100CF4001B69234A43F004031361214B5B69204AB7
:100D040043F040035361012005F03CFB1C4B1B697D
:100D14001B4A43F040031361322005F033FB2020CB
:100D2400FFF7FAFB164B5B69154A43F00403536162
:100D3400134B1B69124A43F002031361114BDA7916
:100D4400114BDA600A2001F003F9FFF7B9FA0A201F
:100D540001F0FEF80A4B5B69094A43F04003536112
:100D6400012005F00FFB064B1B69054A43F04003C5
:100D74001361322005F006FBFFF776FA00BF80BD51
:100D840000180140980100200008014080B500AF20
:100D9400FFF7AEFA01F0F4FA8020FFF78FFB0B4B5C
:100DA4005B690A4A43F040035361C82001F0D0F85C
:100DB400064B1B69054A43F040031361322005F0DA
:100DC400E1FAFFF72DFA00BF80BD00BF0018014013
:100DD40080B500AFFFF70CFB01F0D2FA8020FFF7DB
:100DE4009BFB094B5B69084A43F040035361642051
:100DF40005F0C8FA044B1B69034A43F0400313612E
:100E0400FFF732FA00BF80BD0018014080B582B000
:100E140000AFFFF76DFA01F0B3FA0320FFF74EFBC2
:100E240000237B6056E000233B6035E001F0A8FA24
:100E34003A687B6813441B12DBB201211846FFF7A2
:100E440093FB3B68DAB27B68DBB21344DBB200216C
:100E54001846FFF789FB01F079FA254B5B69244AB0
:100E640043F020035361224B5B69214A43F0800322
:100E74005361012001F06CF81E4B9A683B680433FF
:100E8400D1B21D4AD1541A4B1B69194A43F080034D
:100E940013613B6801333B603B681F2BC6DD164B77
:100EA400AC221A70144B00225A70134B20229A70F1
:100EB400114BA422DA7024210F4802F045FC00BF34
:100EC4000E4B1B78002BFBD00C4B00221A707B6856
:100ED40020337B607A680A4B1B689A42A3D301F0E3
:100EE4004FFAFFF79DF900BF0837BD4680BD00BF2C
:100EF4000018014000080140AC030020A9080020AC
:100F0400C805002080B582B000AFFFF771FA01F088
:100F140037FA0320FFF700FB00237B6056E0002331
:100F24003B6035E001F02CFA3A687B6813441B12ED
:100F3400DBB201211846FFF751FB3B68DAB27B684C
:100F4400DBB21344DBB200211846FFF747FB01F084
:100F5400FDF9254B5B69244A43F020035361224B7E
:100F64005B69214A43F080035361012000F0F0FFE4
:100F74001E4B9A683B680433D1B21D4AD1541A4BB4
:100F84001B69194A43F0800313613B6801333B60DA
:100F94003B681F2BC6DD164BAC221A70144B002283
:100FA4005A70134B20229A70114BA422DA70242118
:100FB4000F4802F0C9FB00BF0E4B1B78002BFBD07F
:100FC4000C4B00221A707B6820337B607A680A4BD2
:100FD4001B689A42A3D301F0D3F9FFF745F900BF88
:100FE4000837BD4680BD00BF00180140000801401D
:100FF400AC030020A9080020C805002080B582B0F9
:1010040000AF00237B6062E0404B1A687B681344A6
:101014001B0ADBB201211846FFF7A6FA00233B6046
:1010240039E03A4B1B68DAB27B68DBB21344DAB2BC
:101034003B68DBB21344DBB200211846FFF794FA95
:10104400334B1B69324A43F002031361304B5B6933
:101054002F4A43F0040353617A683B681344043312
:101064002C4AD25C2C4BDA60FFF72AF9284B1B6917
:10107400274A43F001031361012000F069FF244B68
:101084005B69234A43F0010353610A2000F060FFC7
:101094003B6801333B603A68204B1B689A42C0D3DB
:1010A4001B4B5B691A4A43F040035361C82000F0AC
:1010B4004FFF174B1B69164A43F040031361052089
:1010C40005F060F97A68154B1B6813447B607B68F4
:1010D4001F2B99DD0D4B1B6820330C4A1360104BFA
:1010E400AC221A700E4B00225A700D4B01229A70DA
:1010F4000B4BA622DA700A4B00221A71052108480C
:1011040002F022FB00BF0837BD4680BDC4050020A5
:10111400001801409801002000080140CC0500207F
:10112400AC03002080B582B000AF00237B6062E096
:10113400404B1A687B6813441B0ADBB20121184632
:10114400FFF74CFA00233B6039E03A4B1B68DAB2F4
:101154007B68DBB21344DAB23B68DBB21344DBB224
:1011640000211846FFF73AFA334B1B69324A43F021
:1011740002031361304B5B692F4A43F0040353614C
:101184007A683B68134404332C4AD25C2C4BDA60F3
:10119400FFF796F8284B1B69274A43F02003136195
:1011A400012000F0D5FE244B5B69234A43F0200361
:1011B40053610A2000F0CCFE3B6801333B603A687F
:1011C400204B1B689A42C0D31B4B5B691A4A43F0FD
:1011D40040035361C82000F0BBFE174B1B69164A3D
:1011E40043F040031361042005F0CCF87A68154BF2
:1011F4001B6813447B607B681F2B99DD0D4B1B68B8
:1012040020330C4A1360104BAC221A700E4B002290
:101214005A700D4B01229A700B4BA622DA700A4BBE
:1012240000221A710521084802F08EFA00BF08371F
:10123400BD4680BDC405002000180140980100206F
:1012440000080140CC050020AC03002080B582B02A
:1012540000AFFFF74DF801F093F80220FFF72EF9E5
:1012640000237B6084E000233B6060E001F088F8A9
:101274007B68DA0F13445B1019463B68DA0F13449A
:101284005B100B441A46404B1A60404B1B78022BF0
:101294000DD13F4B1B693E4A43F0100313613A4B97
:1012A4001B681B0CDBB200211846FFF75DF9364BB7
:1012B4001B681B0ADBB201211846FFF755F9324BB4
:1012C4001B68DBB200211846FFF74EF901F03EF827
:1012D4002F4B5B692E4A43F0200353612C4B5B690F
:1012E4002B4A43F080035361012000F031FE294B67
:1012F4009A683B680433D1B2274AD154244B1B6902
:10130400234A43F020031361012000F021FE214B06
:101314009A683B680533D1B21F4AD1541C4B1B69F0
:101324001B4A43F0800313613B6802333B603B6814
:10133400B3F5007F9ADB184BAC221A70164B0222CD
:101344005A70154B00229A70134BA822DA704FF48E
:101354000171114802F0F8F900BF104B1B78002B03
:10136400FBD00E4B00221A707B6803F500737B6080
:101374007A680B4B1B689A42FFF475AFFEF750FF77
:1013840000BF0837BD4680BDC0050020DA05002037
:101394000018014000080140AC030020A908002007
:1013A400C805002080B582B000AFFFF721F800F037
:1013B400E7FF0220FFF7B0F800237B6072E0002310
:1013C4003B604EE000F0DCFF7B68DA0F13445B10F7
:1013D40019463B68DA0F13445B100B441A46374B2B
:1013E4001A60364B1B681B0ADBB201211846FFF753
:1013F400F5F8324B1B68DBB200211846FFF7EEF814
:1014040000F0A4FF2E4B5B692D4A43F02003536187
:101414002B4B5B692A4A43F080035361012000F09F
:1014240097FD284B9A683B680433D1B2264AD154BD
:10143400234B1B69224A43F020031361012000F06F
:1014440087FD204B9A683B680533D1B21E4AD154BC
:101454001B4B1B691A4A43F0800313613B68023338
:101464003B603B68B3F5007FACDB174BAC221A70D2
:10147400154B02225A70144B00229A70124BA82268
:10148400DA704FF40171104802F05EF900BF0F4B9F
:101494001B78002BFBD00D4B00221A707B6803F5E0
:1014A40000737B607A680A4B1B689A4287D3FEF705
:1014B400DBFE00BF0837BD4680BD00BFC00500206D
:1014C4000018014000080140AC030020A9080020D6
:1014D400C805002080B500AF124B1B78012B02D148
:1014E40000F0D0F808E00F4B1B78032B02D100F07A
:1014F4006BF901E000F01AF80B4BAC221A700A4B9E
:1015040000225A70084B01229A70074BAA22DA7003
:10151400054B00221A710521034802F015F900BF9A
:1015240080BD00BFDA050020AC03002080B584B084
:1015340000AF4F4B1B791A044D4B5B791B021343CD
:101544004B4A92791343DA0F13445B107B600023F8
:10155400FB601020FEF7B2FF0023BB6043E0FB6892
:10156400DAB27B68DBB21344DBB200211846FEF723
:10157400FBFF404B1B693F4A43F0020313613D4BA1
:101584005B693C4A43F004035361BB680733384A40
:10159400D25C394BDA60FEF793FE364B1B69354A51
:1015A40043F020031361BB680833314AD25C324BE9
:1015B400DA60FEF785FE2F4B1B692E4A43F00103C8
:1015C4001361012000F0C4FC2A4B5B69294A43F0F3
:1015D40001035361012000F0BBFCFB680133FB6095
:1015E400BB680233BB60BA68244B1B689A42B6D30B
:1015F4007B681B0ADBB201211846FEF7B5FF204BBE
:101604001B78022B0CD11B4B1B691A4A43F01003A5
:1016140013617B681B0CDBB200211846FEF7A4FFA4
:10162400144B5B69134A43F040035361012000F0FB
:101634008FFC104B1B690F4A43F0400313610820D1
:1016440004F0A0FE0B4B1B690A4A43F00403136128
:10165400084B5B69074A43F002035361064B0022BF
:10166400DA60FEF72DFE00BF1037BD4680BD00BF17
:10167400980100200018014000080140CC0500201A
:10168400DA05002080B584B000AF4B4B1B791A04F7
:10169400494B5B791B021343474A92791343DA0F90
:1016A40013445B107B600023FB601020FEF734FFC3
:1016B4000023BB604CE0FB68DAB27B68DBB2134406
:1016C400DBB200211846FEF789FF3C4B1B693B4AFD
:1016D40043F002031361394B5B69384A43F0040356
:1016E4005361BB680733344AD25C354BDA60FEF78A
:1016F400E7FD324B1B69314A43F020031361BB6899
:1017040008332D4AD25C2E4BDA60FEF7D9FD2B4B01
:101714005B692A4A43F0200353610A2000F018FC55
:10172400264B1B69254A43F020031361012000F076
:101734000FFC224B5B69214A43F0200353610120D3
:1017440000F006FCFB680133FB60BB680233BB603E
:10175400BA681C4B1B689A42ADD37B681B0ADBB288
:1017640001211846FEF73AFF144B5B69134A43F014
:1017740040035361012000F0EBFB104B1B690F4A3F
:1017840043F040031361082004F0FCFD0B4B1B697C
:101794000A4A43F004031361084B5B69074A43F0A8
:1017A40002035361064B0022DA60FEF789FD00BF95
:1017B4001037BD4680BD00BF9801002000180140CD
:1017C40000080140CC05002080B584B000AF2F4B49
:1017D4001B791A042D4B5B791B0213432B4A927914
:1017E4001343DA0F13445B107B600023FB6010216A
:1017F4004C2000F04FF80023BB6027E0FB68DAB20E
:101804007B68DBB21344DBB219460C2000F042F8CB
:10181400BB6807331D4AD35C19462C2000F03AF804
:10182400BB680833194AD35C19463C2000F032F8EF
:1018340000217D2000F02EF800217C2000F02AF801
:10184400FB680133FB60BB680233BB60BA68104BB2
:101854001B689A42D2D37B681B0ADBB219461C2050
:1018640000F018F80021642000F014F800216C2026
:1018740000F010F8082004F085FD00214C2000F051
:1018840009F800BF1037BD4680BD00BF9801002095
:10189400CC05002080B586B000AF03460A46FB7134
:1018A4001346BB710023FB82FB799BB29B00FB8137
:1018B400BB799BB29B00BB8100233B6154E00120B8
:1018C40000F046FBFA893B69C3F10A0342FA03F3C9
:1018D40003F00103002B06D0294B1B69284A43F06F
:1018E4000203136105E0264B5B69254A43F00203BA
:1018F4005361BA893B69C3F10A0342FA03F303F063
:101904000103002B06D01E4B1B691D4A43F0010343
:10191400136105E01A4B5B69194A43F001035361F3
:10192400174B1B69164A43F004031361012000F0AE
:101934000FFB134B5B69124A43F004035361114BD1
:101944009B6803F00103002B0BD03B69C3F10A032E
:10195400012202FA03F31AB2B7F9163013431BB289
:10196400FB823B6901333B613B690A2BA7DDFB8AA0
:10197400DB089BB2DBB218461837BD4680BD00BFFA
:10198400001801400008014080B500AF264B1B69D8
:10199400254A43F010031361234B5B69224A43F049
:1019A4000403536100F0ECFC1F4B5B691E4A43F0D7
:1019B400010353611C4B5B691B4A43F002035361EF
:1019C4001A4B5B69194A43F001035361184B5B6975
:1019D400174A43F001035361164B5B69154A43F4FC
:1019E400807353610A2004F0CDFC0F4B5B690E4AEF
:1019F40043F0100353610E4B5B690D4A43F001033E
:101A040053610C4B1B690B4A43F4807313614FF40D
:101A1400FA7004F0B7FC00F099FC4FF4FA7000F08F
:101A240097FA00BF80BD00BF0018014000080140C4
:101A3400000C01400010014080B582B000AF0023CB
:101A4400FB80322000F084FA0FE00A2000F080FAD4
:101A5400FB880133FB80FB8840F6FF72934204D17C
:101A640001F046FEFEF700FC05E0044B9B6803F022
:101A74000103002BE9D00837BD4680BD00080140B2
:101A840080B500AFFFF780FF08214C20FFF702FF6D
:101A940000210C20FFF7FEFE00216820FFF7FAFE6C
:101AA40000216C20FFF7F6FE03461A46164B9A7186
:101AB40008214C20FFF7EEFE01210C20FFF7EAFE7F
:101AC40000216820FFF7E6FE00216C20FFF7E2FE0C
:101AD40003461A460C4B5A7108214C20FFF7DAFED4
:101AE40002210C20FFF7D6FE00216820FFF7D2FE6A
:101AF40000216C20FFF7CEFE03461A46024B1A71F2
:101B0400FEF7B2FB00BF80BDAC03002080B500AF80
:101B1400FFF73AFF04214C20FFF7BCFE00216820A8
:101B2400FFF7B8FE00216C20FFF7B4FE03461A4607
:101B34001A4B1A7104214C20FFF7ACFE00217A20C5
:101B4400FFF7A8FE00217E20FFF7A4FE03461A46F5
:101B5400124B5A7104214C20FFF79CFE00216A208D
:101B6400FFF798FE00216E20FFF794FE03461A4605
:101B74000A4B9A7104214C20FFF78CFE0021782037
:101B8400FFF788FE00217C20FFF784FE03461A46F7
:101B9400024BDA71FEF768FB00BF80BDAC03002086
:101BA40080B500AFFFF7F0FE40214C20FFF772FE36
:101BB400274B1B7919462C20FFF76CFE002164206B
:101BC400FFF768FE00216C20FFF764FEFFF734FF87
:101BD40040214C20FFF75EFE1D4B5B7919462C20FB
:101BE400FFF758FE00217420FFF754FE00217C20EB
:101BF400FFF750FEFFF720FF40214C20FFF74AFE7D
:101C0400134B9B7919462C20FFF744FE00216620D4
:101C1400FFF740FE00216E20FFF73CFEFFF70CFFAC
:101C240020214C20FFF736FE094BDB7919462C2086
:101C3400FFF730FE00216420FFF72CFE00216C200A
:101C4400FFF728FEFFF7F8FEFEF70EFB00BF80BD8E
:101C54009801002080B500AFFFF796FE80214C204C
:101C6400FFF718FE00216420FFF714FE00216C200A
:101C7400FFF710FEFFF7E0FEFEF7F6FA00BF80BDA7
:101C840090B583B000AFFFF77FFE03214C20FFF730
:101C940001FE00237B6044E000233B6023E03B68BB
:101CA400DAB27B68DBB21344DBB219460C20FFF7CF
:101CB400F1FD3A687B6813441B12DBB219461C2001
:101CC400FFF7E8FD00216820FFF7E4FD3B681C1DD9
:101CD40000216C20FFF7DEFD03461A46164B1A5509
:101CE4003B6801333B603B681F2BD8DD124BAC22B1
:101CF4001A70114B00225A700F4B20229A700E4B0F
:101D0400A422DA7024210C4801F01EFD00BF0B4B05
:101D14001B78002BFBD0094B00221A707B68203300
:101D24007B607A68064B1B689A42B5D3FEF79CFA2F
:101D340000BF0C37BD4690BDAC030020A9080020AD
:101D4400C805002080B582B000AF00237B604EE060
:101D5400364B1A687B6813441B0ADBB20121184610
:101D6400FEF73CFC00233B602DE0304B1B68DAB2ED
:101D74007B68DBB21344DAB23B68DBB21344DBB2F8
:101D840019460C20FFF786FD284B1A687B6813441C
:101D94001B0ADBB219461C20FFF77CFD7A683B68FE
:101DA40013440433224AD35C19462C20FFF772FDF6
:101DB40000216D20FFF76EFD00216C20FFF76AFD06
:101DC4003B6801333B603A681A4B1B689A42CCD398
:101DD40000216420FFF75EFD00216C20FFF75AFD0F
:101DE400FFF72AFE7A68134B1B6813447B607B68F9
:101DF4001F2BADDD0D4B1B6820330C4A13600E4BBB
:101E0400AC221A700C4B00225A700B4B01229A70B0
:101E1400094BA622DA70084B00221A7105210648E4
:101E240001F092FC00BF0837BD4680BDC405002008
:101E340098010020CC050020AC03002090B583B0AD
:101E440000AFFFF7A1FD02214C20FFF723FD002383
:101E54007B6056E000233B603AE07B68DA0F134472
:101E64005B1019463B68DA0F13445B100B441A46A7
:101E7400294B1A60284B1B68DBB219460C20FFF76C
:101E840009FD254B1B681B0ADBB219461C20FFF712
:101E940001FD00216820FFF7FDFC3B681C1D0021AB
:101EA4006C20FFF7F7FC03461A461C4B1A55002119
:101EB4007820FFF7EFFC3B685C1D00217C20FFF7D6
:101EC400E9FC03461A46154B1A553B6802333B603E
:101ED4003B68B3F5007FC0DB104BAC221A700F4B8C
:101EE40002225A700D4B00229A700C4BA822DA7011
:101EF4004FF40171094801F027FC7B6803F5007376
:101F04007B607A68064B1B689A42A3D3FEF7ACF950
:101F140000BF0C37BD4690BDC0050020AC030020B7
:101F2400C805002080B400AF074BDB69064A43F0C4
:101F34000403D361054B47229A62044B08221A60BA
:101F440000BFBD4680BC704700100240000800403E
:101F540080B483B000AF78600D4A7B68D3620C4BC9
:101F640000225A620A4B01221A6000BF084B1B6907
:101F740003F00103002BF9D0054B1B69044A23F03D
:101F84000103136100BF0C37BD4680BC704700BF1E
:101F94000008004080B483B000AF994B9B69984A15
:101FA40043F004039361964B9B6903F004037B6045
:101FB4007B68934B9B69924A43F008039361904B6F
:101FC4009B698F4A43F0100393618D4B9B698C4A44
:101FD40043F0200393618A4B9B69894A43F0400391
:101FE4009361884B1B68874A43F400331360854B25
:101FF4001B68844A23F480331360824B1B68814A34
:1020040023F4402313607F4B1B687E4A43F4401340
:1020140013607C4B1B687B4A23F4400313607A4BA8
:102024001B68794A43F003031360774B1B68764AB5
:1020340023F00C031360744B1B68734A43F440731E
:102044001360714B1B68704A23F4406313606F4B39
:102054001B686E4A43F0030313606C4B1B686B4AA6
:1020640023F00C031360694B1B68684A43F0300388
:102074001360664B1B68654A23F0C0031360634B0F
:102084001B68624A43F440731360604B1B685F4AE9
:1020940023F4406313605D4B1B685C4A43F4405374
:1020A40013605A4B1B68594A23F440431360574B3F
:1020B4001B68564A43F440331360544B1B68534A1D
:1020C40023F440231360514B1B68504A43F44013DC
:1020D40013604E4B1B684D4A23F4400313604B4B73
:1020E4001B684A4A43F040731360484B1B68474AD5
:1020F40023F040631360454B1B68444A43F040534C
:102104001360424B1B68414A23F0404313603F4B2A
:102114005B683E4A43F0030353603C4B5B683B4AB5
:1021240023F00C035360394B5B68384A43F03003A7
:102134005360364B5B68354A23F0C0035360334B1E
:102144005B68324A43F440735360304B5B682F4AF8
:1021540023F4406353602D4B5B682C4A43F4405393
:1021640053602A4B5B68294A23F440435360274B4E
:102174005B68264A43F440335360244B5B68234A2C
:1021840023F440235360214B5B68204A43F44013FB
:1021940053601E4B5B681D4A23F4400353601B4B82
:1021A4005B681A4A43F040735360184B5B68174AE4
:1021B40023F040635360154B5B68144A43F040536B
:1021C4005360124B5B68114A23F040435360104B39
:1021D4005B680F4A43F0030353600D4B5B680C4A82
:1021E40023F00C0353600A4B5B68094A43F0300345
:1021F4005360074B5B68064A23F0C0030AE000BF44
:102204000010024000100140000C01400018014081
:102214000014014053604A4B5B68494A43F44073DD
:102224005360474B5B68464A23F440635360444B16
:102234005B68434A43F440535360414B5B68404AF4
:1022440023F4404353603E4B5B683D4A43F44033C0
:1022540053603B4B5B683A4A23F440235360384B4A
:102264005B68374A43F440135360354B5B68344A28
:1022740023F440035360324B5B68314A43F04073AC
:1022840053602F4B5B682E4A23F0406353602C4B02
:102294005B682B4A43F040535360294B5B68284AE0
:1022A40023F040435360274B1B68264A43F44053B2
:1022B4001360244B1B68234A23F440431360204BD0
:1022C4001B681F4A43F4403313601D4B1B681C4AB0
:1022D40023F4402313601C4B5B681B4A43F0030345
:1022E4005360194B5B68184A23F00C035360164B78
:1022F4001B68154A43F040531360134B1B68124A82
:1023040023F0404313600F4B5B680E4A43F44033A1
:1023140053600C4B5B680B4A23F440235360094B16
:102324001B68084A43F440131360064B1B68054AB4
:1023340023F44003136000BF0C37BD4680BC7047D4
:1023440000140140000C01400010014080B400AFB3
:10235400084B4FF088321A60074B4FF088321A60EE
:10236400064B5B69054A43F01003536100BFBD4649
:1023740080BC704700080140001401400010014077
:1023840080B400AF084B4FF033321A60074B4FF064
:1023940033321A60064B1B69054A43F0100313617C
:1023A40000BFBD4680BC70470008014000140140D6
:1023B4000010014080B483B000AF0346FB71554B5D
:1023C4009B69544A43F008039361534B5B68524A38
:1023D40043F44C535360504B5B684F4A43F44C43B3
:1023E40053604C4BDB694B4A43F48003D3614B4B42
:1023F4001B684A4A43F400431360484B1B68474A2E
:1024040023F400431360454BDB68444A23F0010383
:10241400D360424B1B68414A23F0400313603F4B97
:102424001B683E4A23F0800313603C4B1B683B4A05
:1024340023F001031360394B5B6823F03F03374AF1
:1024440043F024035360FB79002B12D1334B1B6AF6
:1024540023F03F03314A43F0250313622F4BDB691A
:1024640023F44F4323F0FF032C4A43F0B403D36116
:1024740029E0FB79012B14D1284B1B6A23F03F037D
:10248400264A43F00B031362244BDB6923F44F43C6
:1024940023F0FF03214A43F4004343F01E03D361B6
:1024A40011E01E4B1B6A23F03F031C4A43F0250333
:1024B40013621A4BDB6923F44F4323F0FF03174ADB
:1024C40043F0B403D361154B9B6823F4434323F0D7
:1024D400FF03124A43F480439360104B1B680F4A76
:1024E40023F01A0313600D4B1B680C4A43F00103DD
:1024F40013600A4B1B68094A43F480631360074B5B
:10250400DB68064A23F0FE03D36000BF0C37BD46E8
:1025140080BC704700100240000C0140005800408D
:1025240080B485B000AF3B600346FB710B46BB80B3
:102534001346BB714FF6FF73FB81634B1B68624A02
:1025440023F400631360604B1B685F4A43F48063A9
:1025540013605D4B1B685C4A43F4807313604FF651
:10256400FF73FB8102E0FB89013BFB81564B5B69F6
:1025740003F00103002B02D1FB89002BF3D1FB896B
:10258400002B01D101239AE04F4B5B694E4B1B6931
:1025940023F0FF02FB794C4913430B614FF6FF73A1
:1025A400FB8102E0FB89013BFB81474B5B6903F044
:1025B4000203002B02D1FB89002BF3D1FB89002BF2
:1025C40001D101237BE0404B5B693F4B9B69BB79A5
:1025D400022B20D13C4B1B6923F0FF03BA88120A5B
:1025E40092B2D2B21146384A0B4313614FF6FF73CD
:1025F400FB8102E0FB89013BFB81334B5B6903F008
:102604008003002B02D1FB89002BF3D1FB89002B23
:1026140001D1012353E02C4B1B6923F0FF03BA883B
:10262400D2B21146284A0B4313614FF6FF73FB8164
:1026340002E0FB89013BFB81234B5B6903F08003D0
:10264400002B02D1FB89002BF3D1FB89002B01D194
:10265400012334E00023BB6026E01B4B1B6923F0FD
:10266400FF03B98BBA680A4411463A680A441278DF
:102674001146154A0B4313614FF6FF73FB8102E0C9
:10268400FB89013BFB81104B5B6903F08003002B4A
:1026940002D1FB89002BF3D1FB89002B01D101234B
:1026A4000DE0BB680133BB603B8BBA689A42D4DB54
:1026B400054B1B68044A43F4007313600023184657
:1026C4001437BD4680BC70470058004080B485B0C4
:1026D40000AF3B600346FB710B46BB711346BB80E6
:1026E4004FF6FF73FB81934B1B68924A23F40063FC
:1026F4001360904B1B688F4A43F4806313608D4BC7
:102704001B688C4A43F48073136002E0FB89013B2D
:10271400FB81884B5B6903F00103002B02D1FB8929
:10272400002BF3D1FB89002B01D10123FCE0814B69
:102734005B69804B1B6923F0FF02FB797D491343DE
:102744000B614FF6FF73FB8102E0FB89013BFB81C8
:10275400784B5B6903F00203002B02D1FB89002B49
:10276400F3D1FB89002B01D10123DDE0714B5B69BF
:10277400704B9B69BB79022B20D16E4B1B6923F0F4
:10278400FF03BA88120A92B2D2B21146694A0B43C5
:1027940013614FF6FF73BB8102E0BB89013BBB8130
:1027A400644B5B6903F08003002B02D1BB89002BCF
:1027B400F3D1BB89002B01D10123B5E05D4B1B692B
:1027C40023F0FF03BA88D2B211465A4A0B4313616D
:1027D4004FF6FF73FB8102E0FB89013BFB81554B04
:1027E4005B6903F08003002B02D1FB89002BF3D13A
:1027F400FB89002B01D1012396E04E4B1B684D4A07
:1028040043F4807313604FF6FF73FB8102E0FB898E
:10281400013BFB81474B5B6903F00103002B02D1B1
:10282400FB89002BF3D1FB89002B01D101237BE031
:10283400404B5B693F4B1B6923F0FF03FA7942F07D
:102844000102D2B211463B4A0B4313614FF6FF73A8
:10285400FB8102E0FB89013BFB81364B5B6903F0A2
:102864000203002B02D1FB89002BF3D1FB89002B3F
:1028740001D1012358E02F4B5B692E4B9B69002348
:10288400BB604CE0BB695A1EBB689A421CD94FF628
:10289400FF73FB8102E0FB89013BFB81254B5B69F4
:1028A40003F04003002B02D1FB89002BF3D1FB89F9
:1028B400002B01D1012337E01E4B1969BB683A682C
:1028C4001344CAB21A7027E01A4B1B68194A23F43E
:1028D40080631360174B1B68164A43F4007313603C
:1028E4004FF6FF73FB8102E0FB89013BFB81114B37
:1028F4005B6903F04003002B02D1FB89002BF3D169
:10290400FB89002B01D101230EE00A4B1969BB6836
:102914003A681344CAB21A70BB680133BB60BB681F
:10292400BA699A42AED8002318461437BD4680BC13
:10293400704700BF0058004080B500AF03F0C0FCF2
:1029440000F068F8FFF726FB2D4B5B692C4A43F037
:10295400200353610A2003F015FD294B1B69284A03
:1029640043F020031361642003F00CFD0AF0D8F84F
:10297400FFF7D8FA0020FFF71DFD062003F0F8FA50
:10298400FFF7FEFC002000F025FF1E4B5B691D4A8B
:1029940043F0800353611A4B1B69194A43F0010346
:1029A4001361184B5B69174A43F480735361154BE9
:1029B4001B69144A43F020031361114B1B69104A2D
:1029C40043F004031361104B5B690F4A43F0100397
:1029D40053610E4B5B690D4A43F010035361084B7E
:1029E4001B69074A43F008031361094B1B78002B4A
:1029F400FBD000F071F8064B00221A70F5E700BF17
:102A0400000C014000100140001801400014014076
:102A1400A808002080B596B000AF07F13003282243
:102A2400002118460AF07AFD07F11C0300221A60FF
:102A34005A609A60DA601A613B1D00221A605A607B
:102A44009A60DA601A615A6101233B634FF4803360
:102A54007B630023BB6301233B640223FB644FF4C9
:102A640080333B654FF4E0137B6507F13003184670
:102A740005F07CFA0346002B01D000F027F80F2361
:102A8400FB6102233B6200237B624FF48063BB62E1
:102A94000023FB6207F11C030221184605F0E8FC41
:102AA4000346002B01D000F011F810237B600023B3
:102AB400BB613B1D184605F041FE0346002B01D0C7
:102AC40000F004F800BF5837BD4680BD80B400AFA5
:102AD40072B600BFFEE7000080B582B000AF9C4B29
:102AE4001B78DBB2AC2B03D000F002FE00F0EDBD8E
:102AF400974BDB78DBB2A03B5A2B00F2E58501A2B1
:102B040052F823F0792F0008B72F00082F3000085F
:102B140081300008D330000821310008BB3100089F
:102B2400DD310008FF3100084D320008E9320008A9
:102B3400CD360008CD360008CD360008CD36000865
:102B4400CD360008EF32000821330008AB3300080B
:102B54004D340008B9340008BF340008CD360008ED
:102B640081350008CD360008CD360008CD36000882
:102B7400CD360008CD360008CD360008CD36000825
:102B8400CD360008CD360008CD360008CD36000815
:102B9400CD360008CD360008CD360008CD36000805
:102BA400CD360008CD360008CD360008CD360008F5
:102BB400CD360008CD360008CD360008CD360008E5
:102BC400CD3600087D2C0008CD360008CD3600082F
:102BD400CD360008CD360008CD360008CD360008C5
:102BE400CD360008CD360008CD360008752C000817
:102BF400CD360008CD360008CD360008CD360008A5
:102C0400CD3600082936000851360008A7360008DA
:102C1400CD360008CD360008CD360008CD36000884
:102C2400CD360008CD360008CD360008CD36000874
:102C3400CD360008CD360008CD360008CD36000864
:102C4400CD360008852C0008132D00086D2D0008D2
:102C54005B2E0008CD360008CD360008852E00080E
:102C6400CD3600082B2F0008CD3600083B2F000876
:102C740000F054FD00F029BD00F0C4FD00F025BDB6
:102C8400FFF764FB334B5B69324A43F02003536123
:102C9400314B1B69304A43F0040313612E4B1B690B
:102CA4002D4A43F0010313612A4B5B69294A43F41B
:102CB40080735361264B5B79DBB21A04244B9B79F6
:102CC400DBB21B021343224AD279D2B213431A460F
:102CD400224B1A601E4B1B79DAB2214B1A701C4B23
:102CE4001B7ADBB21B021AB2194B5B7ADBB21BB242
:102CF40013431BB29AB21B4B1A8000F03FFE154BD4
:102D04001B69144A43F02003136100F0DEBC124B2C
:102D14001B69114A43F0040313610F4B1B690E4AEC
:102D240043F0010313610B4B5B690A4A43F480735C
:102D34005361084B1B69074A43F020031361044B9A
:102D44001B79DAB2064B1A7001F0B8FE00F0BDBC74
:102D54009801002000100140000C0140C80500202B
:102D6400DA050020D80500209B4B1B699A4A43F0E2
:102D740020031361994B1B69984A43F001031361C3
:102D8400954B5B69944A43F480735361934B1B697D
:102D9400924A43F004031361914B00221A60914B51
:102DA40000221A60FFF7ECFA8F4B5B79DBB21A044E
:102DB4008D4B9B79DBB21B0213438B4AD279D2B27F
:102DC40013431A46894B1A60874B1B7BDBB21B02E9
:102DD400854A527BD2B213431A46854B1A60824B02
:102DE4001B79DAB2834B1A70824B1B78072B0FD1F5
:102DF4007A4B5B69794A43F001035361764B1B6953
:102E0400754A43F4807313614FF4487003F0BAFABF
:102E1400754B1B7ADBB21B021AB2734B5B7ADBB2C3
:102E24001BB213431BB29AB2734B1A80734BAC227E
:102E34001A70724B00225A70704B01229A706F4BB9
:102E4400F322DA706D4B00221A7105216B4800F0F1
:102E54007BFC00F03ABC644B9B79DBB21A46624BB4
:102E64005B79DBB21B021A435F4B1B79DBB21B0499
:102E740013431A46624B1A6001F03AF800F025BC7D
:102E8400FFF77EFA544B1B69534A43F02003136146
:102E9400524B1B69514A43F0010313614E4B5B696A
:102EA4004D4A43F4807353614C4B1B694B4A43F0C6
:102EB400040313614A4B00221A604A4B00221A6031
:102EC400FFF75EFA484B5B79DBB21A04464B9B79F9
:102ED400DBB21B021343444AD279D2B213431A46DB
:102EE400424B1A60404B9B7ADBB21B023E4AD27AB9
:102EF400D2B213431A463E4B1A603B4B1B79DAB2EB
:102F04003C4B1A70384B1B7BDBB21B021AB2364B9C
:102F14005B7BDBB21BB213431BB29AB2364B1A80F3
:102F240002F032F9D1E3304B1B79DAB2314B1A702B
:102F340002F05AFCC9E3294B1B69284A43F00103F8
:102F44001361254B5B69244A43F480735361224B1C
:102F54005B69214A43F0800353611F4B1B691E4A7E
:102F640043F0200313611D4B1B691C4A43F0040307
:102F74001361AAE31C4B1B79DAB21E4B1A701D4B6A
:102F84001B78032B02D1FEF77BFD01E0FDF75AFB12
:102F94001A4BAC221A70194B00225A70174B032299
:102FA4009A70164BA022DA700721144800F0CCFB6B
:102FB4008BE30D4B1B79DAB20E4B1A700D4B1B7859
:102FC400012B02D1FDF77AFC1EE00A4B1B78032B80
:102FD40018D1FEF79BFD17E000100140000C0140E2
:102FE400D0050020D405002098010020C805002049
:102FF400CC050020DA050020D8050020AC03002011
:10300400C0050020FDF7B6FBA24BAC221A70A14B01
:1030140000225A709F4B04229A709E4BA122DA70B0
:1030240008219C4800F090FB4FE39B4B1B7ADAB2DB
:103034009A4B1A70994B1B78012B02D1FDF7CAFDEC
:1030440008E0964B1B78032B02D1FEF7A9FD01E0A3
:10305400FDF7D8FC8F4BAC221A708E4B00225A70AD
:103064008C4B01229A708B4BA222DA70894B00227E
:103074001A710521874800F067FB26E3864B1B790C
:10308400DAB2864B1A70854B1B78012B02D1FDF7FF
:103094009FFE08E0814B1B78032B02D1FEF7DAFD7B
:1030A40001E0FDF773FE7B4BAC221A70794B0022D2
:1030B4005A70784B01229A70764BA322DA70754BC2
:1030C400A1221A710521734800F03EFBFDE2724B08
:1030D4001B79DBB21A46704B5B79DBB21B021A43D5
:1030E4006D4B9B79DBB21B0413431A466C4B1A607D
:1030F400694BDB79DAB2694B1A70684B1B78012B88
:1031040002D1FDF7FFFEE0E2644B1B78032B02D1F2
:10311400FEF7B6FDD9E2FDF779FED6E2614B002257
:103124001A605D4B1B79DBB21A465B4B5B79DBB2F1
:103134001B021A43584B9B79DBB21B0413431A46F8
:10314400574B1A60544BDB79DBB21A46564B1A6064
:10315400514B1B7ADAB2514B1A70504B1B78012B2E
:1031640005D1FDF745F91120FDF7D6F90FE04B4BDA
:103174001B78032B06D1FEF707FC11214C20FEF728
:1031840089FB04E0FDF7B4F81120FDF797F9414BF2
:10319400AC221A703F4B00225A703E4B01229A70A7
:1031A4003C4BA622DA703B4B00221A7105213948A8
:1031B40000F0CAFA89E2394B1B78012B02D1FDF7E2
:1031C400B1FF82E2354B1B78032B02D1FEF7BAFD27
:1031D4007BE2FDF713FF78E2304B1B78012B02D121
:1031E400FDF742F871E22D4B1B78032B02D1FDF75A
:1031F4003BF86AE2FDF714F867E2274B1B79DBB270
:103204001A46254B5B79DBB21B021A43224B9B798E
:10321400DBB21B0413431A46214B1A601E4BDB79A5
:10322400DAB21E4B1A701D4B1B78012B02D1FEF72C
:10323400B9F84AE2194B1B78032B02D1FEF7FEFDC5
:1032440043E2FEF703F840E2134B1B79DBB21A4664
:10325400114B5B79DBB21B0213435B001A46124B22
:103264001A600D4B9B79DAB20C4B1A700F4B00228B
:103274001A600F4B00221A60084B1B78012B02D1F5
:10328400FDF7B6F818E0054B1B78032B12D1FEF7B7
:103294007BFB11E0AC03002098010020DA0500203C
:1032A400C8050020C4050020CC050020D00500205E
:1032B400D4050020FDF71CF8FFF762F8A94BAC22F7
:1032C4001A70A84B00225A70A64B01229A70A54B83
:1032D400AA22DA70A34B00221A710521A14800F03A
:1032E40033FAF2E1FEF7F6F8EFE19F4B1B79DBB21C
:1032F4001A469D4B5B79DBB21B021A439A4B9B79AE
:10330400DBB21B041A43984BDB79DBB21B06134375
:103314001A46964B1A6002F035FBD6E10023FB7087
:103324000023BB7000237B70914B5B69904A43F48C
:10333400805353619F2002F023FF002002F020FFFE
:1033440003467B70002002F01BFF0346FB70002045
:1033540002F016FF0346BB7000BF864B9B6803F068
:103364008003002BF9D1824B1B69814A43F48053BB
:1033740013617C4BAC221A707A4B00225A70794B41
:1033840003229A70774BB122DA70764AFB78137174
:10339400744ABB785371734A7B78937107217148DF
:1033A40000F0D2F991E100237B7100233B71704B53
:1033B4005B696F4A43F480535361052002F0E0FED9
:1033C400002002F0DDFE03467B7100BF694B9B6861
:1033D40003F08003002BF9D1654B1B69644A43F465
:1033E40080531361624B5B69614A43F480535361B8
:1033F400352002F0C5FE002002F0C2FE03463B71F8
:1034040000BF5C4B9B6803F08003002BF9D1584B41
:103414001B69574A43F480531361524BAC221A7010
:10342400504B00225A704F4B02229A704D4BB222DD
:10343400DA704C4A7B7913714A4A3B7953710621FD
:10344400484800F081F940E1474B1B79DBB21A464A
:10345400454B5B79DBB21B021A43434B9B79DBB2CE
:103464001B041A43404BDB79DBB21B0613431A4699
:103474003E4B1A603C4B1B7ADBB21A463A4B5B7AE2
:10348400DBB21B0213431A463B4B1A60354BAC228A
:103494001A70344B00225A70324B01229A70314B0D
:1034A400B422DA702F4B00221A7105212D4800F046
:1034B4004BF90AE102F00CFB07E12D4B5B692C4A46
:1034C40043F480535361062002F05AFE00BF294B97
:1034D4009B6803F08003002BF9D1254B1B69244A18
:1034E40043F48053136100BF02F0CAFA034603F0A9
:1034F4000203002BF8D01E4B5B691D4A43F4805332
:103504005361C72002F03CFE00BF1A4B9B6803F0D6
:103514008003002BF9D1164B1B69154A43F48053E1
:10352400136100BF02F0ACFA034603F00103002B61
:10353400F8D041F2707002F025FF0A4BAC221A70E9
:10354400084B00225A70074B01229A70054BB52292
:10355400DA70044B00221A710521024800F0F4F8D5
:10356400B3E000BFAC03002098010020C805002090
:10357400000C014000380040CC050020554B1B795D
:10358400FB71544B5B79BB71534B5B69524A43F4F7
:1035940080535361502002F0F3FD00BF4F4B9B68F2
:1035A40003F08003002BF9D14B4B1B694A4A43F4C7
:1035B40080531361322002F0E5FE474B5B69464AB3
:1035C40043F480535361012002F0DAFDBB791846BD
:1035D40002F0D6FDFB79184602F0D2FD00BF3F4B46
:1035E4009B6803F08003002BF9D13B4B1B693A4ADB
:1035F40043F480531361322002F0C4FE384BAC22F2
:103604001A70374B00225A70354B01229A70344B92
:10361400B722DA70324B00221A710521304800F0CB
:1036240093F852E02B4B1B79DBB21A46294B5B799A
:10363400DBB21B021A43274B9B79DBB21B041343F7
:103644001A46284B1A6002F0FFFA3EE0214B1B7920
:10365400DBB21A461F4B5B79DBB21B021A431D4BCC
:103664009B79DBB21B0413431A461E4B1A60194B99
:10367400DB79DBB21A461C4B1A60194BAC221A7068
:10368400174B00225A70164B01229A70144BE222F7
:10369400DA70134B00221A710521114800F054F816
:1036A40013E00C4B9B79DBB21A460A4B5B79DBB215
:1036B4001B021A43074B1B79DBB21B0413431A4644
:1036C4000A4B1A6002F06EFB00BF00BF0837BD460C
:1036D40080BD00BF98010020000C0140003800406C
:1036E400AC030020C8050020CC050020C005002044
:1036F40080B582B000AFAC233B7000237B70012304
:10370400BB70EE23FB7000233B713B46052118463A
:1037140000F01AF800BF0837BD4680BD80B582B0FE
:1037240000AFAC233B7000237B700123BB70DA2312
:10373400FB7000233B713B460521184600F004F85A
:1037440000BF0837BD4680BD80B584B000AF786047
:103754000B467B807B881946786809F0DDFA0346BE
:10376400FB7397F90F30002BF4D100BF00BF103763
:10377400BD4680BD80B584B000AF03463960FB719F
:103784001346BB80AC233B72BB881B0A9BB2DBB2E3
:103794007B72BB88DBB2BB72FB79FB7207F1080357
:1037A4000421184609F0B8FA0346FB7397F90F3061
:1037B400002BF3D1BB881946386809F0ADFA0346EB
:1037C400FB7397F90F30002BF4D100BF00BF103703
:1037D400BD4680BD80B483B000AF7860074A7B6883
:1037E4009BB2D3607B681B0A054A03F47F43D36012
:1037F40000BF0C37BD4680BC704700BF00180140B5
:103804000014014080B500AFFEF7BAFD544BDB79DC
:10381400DAB2544BDA60524B1B79DBB21A04504BC8
:103824005B79DBB21B0213434D4A9279D2B2134344
:103834001A464D4B1A604C4B1B681846FFF7CAFFDB
:103844004A4BDB68494A03F47F43D360444B1B7BF8
:10385400DAB2464BDB681146444A0B43D360404B13
:103864001B7ADBB2002B0CD03F4B1B6803F40073B4
:10387400002B06D03E4B1B693D4A43F08003136185
:1038840005E03B4B5B693A4A43F080035361344B98
:103894005B7ADBB2FF2B06D1354B1B69344A43F00C
:1038A4002003136105E0324B5B69314A43F0200386
:1038B40053612B4B9B7ADBB2002B1ED0284B1B7A17
:1038C400DBB2002B0CD02B4B5B692A4A43F001037B
:1038D4005361274B1B69264A43F48073136118E034
:1038E400244B1B69234A43F001031361204B5B699A
:1038F4001F4A43F4807353610BE01E4B5B691D4AFE
:1039040043F0010353611A4B5B69194A43F4807312
:103914005361134BDB7ADBB2002B06D0154B1B69CA
:10392400144A43F00403136105E0124B5B69114A26
:1039340043F004035361104BAC221A700E4B002267
:103944005A700D4B01229A700B4BD022DA700A4B3D
:10395400AC221A7105210848FFF7F6FE00BF80BDAE
:103964009801002000080140C40500200014014013
:1039740000100140000C0140AC03002080B500AFF2
:10398400FEF7E4FC6D4B1B78013B0C2B00F2D2805C
:1039940001A252F823F000BFD1390008393B0008D6
:1039A400393B0008253A0008FB3900084F3A000863
:1039B400793A0008A33A0008CD3A0008393B0008D8
:1039C400393B0008393B0008F73A000800F0BCF81E
:1039D4005B4B1B695A4A43F001031361594B5B6902
:1039E400584A43F480735361554B1B69544A43F05E
:1039F400040313619FE000F0A7F8514B1B69504A80
:103A040043F0010313614F4B5B694E4A43F48073E7
:103A140053614B4B1B694A4A43F0040313618AE028
:103A240000F092F8464B1B69454A43F001031361C9
:103A3400444B5B69434A43F480735361404B1B69B5
:103A44003F4A43F00403136175E000F07DF83C4BFA
:103A54001B693B4A43F0010313613A4B5B69394AE2
:103A640043F480735361364B1B69354A43F00403B6
:103A7400136160E000F0E2F8314B1B69304A43F017
:103A8400010313612F4B5B692E4A43F48073536126
:103A94002B4B1B692A4A43F0040313614BE000F0EB
:103AA400A5F9274B1B69264A43F001031361254BF3
:103AB4005B69244A43F480735361214B1B69204A98
:103AC40043F00403136136E000F03EF81C4B1B691D
:103AD4001B4A43F0010313611A4B5B69194A43F40F
:103AE40080735361164B1B69154A43F00403136139
:103AF40021E000F011F9124B1B69114A43F0010354
:103B04001361104B5B690F4A43F4807353610C4B90
:103B14001B680B4A23F440731360094B1B68084A63
:103B240023F440631360064B1B68054A43F4806327
:103B3400136000E000BF00BF80BD00BFDA050020B5
:103B4400000C01400010014080B582B000AF00239A
:103B54007B605DE0334BAC221A70324B02225A7008
:103B6400304B00229A702F4BF022DA702E4B5B6997
:103B74002D4A43F02003536100233B602DE03A6853
:103B84007B6813441846FFF725FE284B5B69274AD8
:103B940043F001035361244B5B69234A43F480736C
:103BA40053610120FEF7D4F9214B9A683B68043332
:103BB400D1B21C4AD1541D4B1B691C4A43F001036A
:103BC4001361194B5B69184A43F4807353610120F4
:103BD400FEF7BEF93B6801333B603B68B3F5007FF9
:103BE400CDDB114B1B69104A43F0200313614FF4E2
:103BF40001710C48FFF7A8FD00BF0E4B1B78002B8A
:103C0400FBD00C4B00221A707B6803F500737B60B9
:103C1400094B1B687A689A429CD300BF00BF0837DF
:103C2400BD4680BDAC03002000100140000C0140E3
:103C340000080140A9080020C805002080B582B012
:103C440000AF00237B6051E02D4BAC221A702C4B4B
:103C540002225A702A4B00229A70294BF022DA7001
:103C6400284B5B69274A43F02003536100233B60E0
:103C740021E03A687B6813441846FFF7ABFD224BFA
:103C84005B69214A43F0040353610120FEF760F9A4
:103C94001E4B9A683B680433D1B2194AD1541A4B6B
:103CA4001B69194A43F0040313610120FEF750F91C
:103CB4003B6801333B603B68B3F5007FD9DB114BB4
:103CC4001B69104A43F0200313614FF401710C483F
:103CD400FFF73AFD00BF0E4B1B78002BFBD00C4BBB
:103CE40000221A707B6803F500737B60094B1B6824
:103CF4007A689A42A8D300BF00BF0837BD4680BD8A
:103D0400AC03002000100140000C014000080140F9
:103D1400A9080020C805002090B583B000AF00F0CA
:103D2400F9FD2E4B1B682D4A23F4407313602B4B73
:103D34001B682A4A23F440631360284B1B68274AF4
:103D440043F48063136000237B6032E0244BAC2295
:103D54001A70234B02225A70214B00229A70204B76
:103D6400F022DA7000233B600EE03A687B681A4464
:103D74003B681C1D104600F055FE03461A46184BBE
:103D84001A553B6801333B603B68B3F5007FECDBBD
:103D94004FF401711248FFF7D7FC00BF114B1B7899
:103DA400002BFBD00F4B00221A707B6803F50073C5
:103DB4007B600D4B1B687A689A42C7D3074B1B681C
:103DC400064A43F440731360044B1B68034A23F40C
:103DD4004063136000BF0C37BD4690BD000C01402A
:103DE400AC030020A9080020C805002080B582B0DB
:103DF40000AF00237B6063E0364B5B69354A43F0D8
:103E040020035361344B5B69334A43F0010353612C
:103E1400304B5B692F4A43F4807353612F4BAC22C0
:103E24001A702E4B02225A702C4B00229A702B4B84
:103E3400F022DA7000233B601CE07B685A083B6880
:103E440013441846FFF7C6FC0520FEF781F8244BFF
:103E54009A683B685B000533D1B2204AD154214BA8
:103E64009A683B6802335B00D1B21C4AD1543B6868
:103E740001333B603B68FF2BDFDD174B1B69164AA0
:103E840043F001031361134B5B69124A43F48073DB
:103E94005361104B1B690F4A43F0200313614FF425
:103EA40001710E48FFF750FC00BF0F4B1B78002B2D
:103EB400FBD00D4B00221A707B6803F500737B6006
:103EC4000A4B1B687A689A4296D300BF00BF083732
:103ED400BD4680BD00100140000C0140AC03002031
:103EE4000008014000140140A9080020C805002072
:103EF40080B500AF224B1B78013B0D2B3CD801A2AF
:103F040052F823F0413F00087D3F00087D3F000840
:103F1400473F00084D3F0008533F0008593F000841
:103F24005F3F0008653F00086B3F00087D3F0008C5
:103F34007D3F0008713F0008773F000800F022F839
:103F44001BE000F089F818E000F00AF915E000F031
:103F54004DF912E000F01CFB0FE000F02DFA0CE02C
:103F640000F0AAF909E000F0A9FA06E000F066FB07
:103F740003E000F063FB00E000BF00BF80BD00BFB2
:103F8400DA05002080B582B000AF00237B603DE0FD
:103F94002C4B5B692B4A43F020035361AA2145F261
:103FA400555000F0D7FB552142F6AA2000F0D2FB71
:103FB400A02145F2555000F0CDFB00233B6012E0F8
:103FC400214B1A683B681A447B68D0183A687B68AE
:103FD400134407331D4AD35CDBB2194600F0BAFB25
:103FE4003B6801333B603A68194B1B689A42E7D33C
:103FF400144B1B69134A43F0200313610C2002F095
:10400400C1F97A68124B1B6813447B607B68B3F573
:10401400007FBDDB0F4BAC221A700E4B00225A708E
:104024000C4B01229A700B4BF322DA70094B0022DD
:104034001A7105210748FFF787FB00231846083744
:10404400BD4680BD00100140C0050020980100203D
:10405400CC050020AC03002080B582B000AF3A4B01
:104064001B69394A43F020031361384B1B69374AF3
:1040740043F001031361344B5B69334A43F48073A7
:104084005361324B1B69314A43F00403136100232B
:104094007B603DE07B6807332D4AD35CDBB2FF2BAA
:1040A40032D02C4B1A687B6813441846FFF792FBF6
:1040B4007B680733264AD35CDAB2274BDA600A20DE
:1040C400FDF746FF204B5B691F4A43F02003536111
:1040D4000A20FDF73DFF1D4B5B691C4A43F00403B6
:1040E40053611E20FDF734FF184B1B69174A43F038
:1040F40004031361144B1B69134A43F02003136137
:104104006420FDF725FF00E000BF7B6801337B607E
:104114007B68B3F5007FBDDB104BAC221A700F4BEC
:1041240000225A700D4B01229A700C4BF322DA7064
:104134000A4B00221A7105210848FFF705FB0023EA
:1041440018460837BD4680BD00100140000C0140F0
:1041540098010020C005002000080140AC030020A5
:1041640080B582B000AF1C4B5B691B4A43F020034F
:10417400536100237B601FE07A68184B1B6813446B
:104184001846FFF727FB7B680733154AD35CDAB27E
:10419400144BDA60144B5B69134A43F00403536114
:1041A4000120FDF7D5FE104B1B690F4A43F00403B1
:1041B40013617B6801337B607B68B3F5007FDBDBD5
:1041C400054B1B69044A43F020031361002318467E
:1041D4000837BD4680BD00BF00100140C005002067
:1041E4009801002000080140000C014080B582B015
:1041F40000AF2C4B5B692B4A43F02003536100232F
:104204007B602CE07B680733274AD35CDBB2FF2B4F
:1042140021D0AA2145F2555000F09CFA552142F6CE
:10422400AA2000F097FAA02145F2555000F092FA26
:104234007A681E4B1B681A447B6807331A49CB5CA7
:10424400DBB21946104600F085FA194B1B88184654
:10425400FDF77EFE00E000BF7B6801337B607B6876
:10426400B3F5007FCEDB0F4B1B690E4A43F02003EE
:104274001361104BAC221A700E4B00225A700D4B76
:1042840001229A700B4BF322DA700A4B00221A7146
:1042940005210848FFF758FA002318460837BD4699
:1042A40080BD00BF0010014098010020C00500201F
:1042B400D8050020AC03002080B582B000AF394B94
:1042C4005B69384A43F02003536100237B6044E078
:1042D4007B680833344AD35CDBB2FF2B06D17B689E
:1042E4000733314AD35CDBB2FF2B32D04AF6AA2122
:1042F40045F2555000F094FA45F2555142F6AA2081
:1043040000F08EFA4AF2A00145F2555000F088FA06
:104314000520FDF71DFE254B1A687B6813445808D9
:104324007B680833204AD35CDBB21B021AB27B6879
:1043340007331D49CB5CDBB21BB213431BB29BB2E8
:10434400194600F06DFA1A4B1B881846FDF700FE5B
:1043540000E000BF7B6802337B607B68B3F5007FBD
:10436400B6DB104B1B690F4A43F0200313610A208C
:10437400FDF7EEFD0F4BAC221A700E4B00225A7063
:104384000C4B01229A700B4BF322DA70094B00227A
:104394001A7105210748FFF7D7F900231846083793
:1043A400BD4680BD0010014098010020C0050020DA
:1043B400D8050020AC03002080B582B000AF0023F4
:1043C4007B6053E0374B5B69364A43F0200353610B
:1043D4004FF42A4145F2555000F022FA4FF4AA4115
:1043E40042F6AA2000F01CFA4FF4204145F2555041
:1043F40000F016FA00233B6023E02B4B1A683B685D
:104404001A447B68134458083A687B681344083399
:10441400264AD35CDBB21B021AB239687B680B44B0
:1044240007332249CB5CDBB21BB213431BB29BB2F2
:10443400194600F0F5F90520FDF78AFD3B680233C3
:104444003B603A681A4B1B689A42D6D3154B1B69DA
:10445400144A43F020031361164B1B88184601F0DD
:1044640091FF7A68124B1B6813447B607B68B3F539
:10447400007FA7DB104BAC221A700F4B00225A703E
:104484000D4B01229A700C4BF322DA700A4B002276
:104494001A7105210848FFF757F900231846083711
:1044A400BD4680BD00100140C005002098010020D9
:1044B400CC050020D8050020AC03002080B582B0D4
:1044C40000AF2E4B5B692D4A43F020035361002358
:1044D4007B6031E04FF42A4140F2555000F0A0F9DE
:1044E4004FF4AA4140F2AA2000F09AF94FF4204177
:1044F40040F2555000F094F9214B1A687B6813443C
:1045040058087B6808331F4AD35CDBB21B021AB21B
:104514007B6807331B49CB5CDBB21BB213431BB272
:104524009BB2194600F07CF9174B1B881846FDF71F
:104534000FFD7B6802337B607B68B3F5007FC9DBCA
:104544000E4B1B690D4A43F0200313610F4BAC2241
:104554001A700E4B00225A700C4B01229A700B4BAE
:10456400F322DA70094B00221A7105210748FFF77C
:10457400EBF8002318460837BD4680BD0010014003
:10458400C005002098010020D8050020AC030020BD
:1045940080B582B000AF00237B6027E0214B1A680E
:1045A4007B6813441846FFF715F97B6807331E4AE6
:1045B400D35CDAB21D4BDA600220FDF7C9FC1C4B58
:1045C4005B691B4A43F0200353611A4B1B8818464E
:1045D400FDF7BEFC164B1B69154A43F0200313611B
:1045E4000A20FDF7B5FC7B6801337B607B68B3F57B
:1045F400007FD3DB104BAC221A700F4B00225A7091
:104604000D4B01229A700C4BF322DA700A4B0022F4
:104614001A7105210848FFF797F800BF0837BD460F
:1046240080BD00BFC00500209801002000080140A3
:1046340000100140D8050020AC03002080B582B0F2
:1046440000AF00F067F93D4B1B683C4A23F440730C
:1046540013603A4B1B68394A23F440631360374BA9
:104664001B68364A43F48063136000237B603EE09A
:104674007B680733324AD35CDBB2FF2B33D0AA21E9
:1046840045F2555000F07CF9552142F6AA2000F07D
:1046940077F9A02145F2555000F072F97A68294B58
:1046A4001B681A447B6807332549CB5CDBB2194687
:1046B400104600F065F90520FDF74AFC224B1B78F3
:1046C4000D2B06D100BF1D4B9B6803F00403002B88
:1046D400F9D01D4B1B780E2B06D11C4B1B8818469A
:1046E400FDF736FC00E000BF7B6801337B607B682C
:1046F400B3F5007FBCDB114B1B68104A43F44073D5
:1047040013600E4B1B680D4A23F440631360104B77
:10471400AC221A700E4B00225A700D4B01229A7073
:104724000B4BF322DA700A4B00221A710521084858
:10473400FFF70AF800BF0837BD4680BD000C0140F2
:1047440098010020C0050020DA050020D8050020CB
:10475400AC03002080B582B000AF78600B46FB70DC
:104764007868FFF737F80E4AFB78D3600520FDF729
:10477400EFFB0C4B5B690B4A43F0040353610F20BE
:10478400FDF7E6FB074B1B69064A43F0040313617C
:104794000F20FDF7DDFB00BF0837BD4680BD00BF1D
:1047A40000080140000C014080B584B000AF78607F
:1047B4007868FFF70FF8174B5B69164A43F020033C
:1047C4005361154B5B69144A43F001035361114B68
:1047D4005B69104A43F4807353610A20FDF7B8FB08
:1047E4000E4B9B68FB730C4B1B690B4A43F0010394
:1047F4001361084B5B69074A43F480735361054BAB
:104804001B69044A43F020031361FB7B18461037ED
:10481400BD4680BD00100140000C0140000801406D
:1048240080B584B000AF78600B467B807B88FB73D7
:104834007868FEF7CFFF7B881B0A9AB2134BDA60C5
:10484400134BDB68124A03F47F43D360104BDA68DE
:10485400FB7B0F491343CB600220FDF779FB0D4B23
:104864005B690C4A43F0040353610520FDF770FBB8
:10487400084B1B69074A43F0040313610F20FDF73B
:1048840067FB00BF1037BD4680BD00BF0008014074
:1048940000140140000C014080B584B000AF786082
:1048A4007868FEF797FF174B5B69164A43F00103DC
:1048B4005361154B5B69144A43F4807353610520BB
:1048C400FDF746FB114B9B689BB21B02FB81104B0F
:1048D4009B68DBB29AB2FB891343FB81094B1B69CA
:1048E400084A43F001031361074B5B69064A43F42A
:1048F400807353610120FDF72BFBFB8918461037A9
:10490400BD4680BD000C014000100140000801407C
:104914000014014080B500AF164B1B69154A43F0E3
:1049240020031361144B1B69134A43F00103136101
:10493400104B5B690F4A43F4807353610F4B4FF480
:104944007042DA601420FDF703FB0C4B5B690B4AE1
:1049540043F4005353611420FDF7FAFA074B1B6923
:10496400064A43F4005313611420FDF7F1FA00BF23
:1049740080BD00BF00100140000C01400018014040
:1049840080B582B000AF78600B46FB707B68C3F3E0
:104994000A03224A43F47043D3600120FDF7D8FA96
:1049A4001E4B5B691D4A43F4804353610120FDF7AC
:1049B400CFFA1A4BDB68194A03F47043D360174BE0
:1049C400DA687B68DB0A15491343CB600120FDF7E5
:1049D400BFFA124B5B69114A43F4805353610120BF
:1049E400FDF7B6FA0D4B1B690C4A43F4804313617F
:1049F4000120FDF7ADFA0A4AFB78D3600120FDF7E8
:104A0400A7FA064B1B69054A43F48053136103203C
:104A1400FDF79EFA00BF0837BD4680BD001801406F
:104A24000008014080B584B000AF78607B68C3F3B0
:104A34000A03204A43F47043D3600120FDF788FA47
:104A44001C4B5B691B4A43F4804353610120FDF70F
:104A54007FFA184BDB68174A03F47043D360154B95
:104A6400DA687B68DB0A13491343CB600120FDF746
:104A74006FFA104B1B690F4A43F480431361012002
:104A8400FDF766FA0B4B5B690A4A43F40043536132
:104A94000220FDF75DFA084B9B68FB73054B1B690D
:104AA400044A43F400431361FB7B18461037BD46A8
:104AB40080BD00BF001801400008014080B500AF70
:104AC400234B1B78013B102B3FD801A252F823F053
:104AD400194B00084F4B00084F4B00081F4B0008B0
:104AE4004F4B0008254B00082B4B0008314B0008A6
:104AF4004F4B0008374B00083D4B00084F4B000854
:104B0400434B00084F4B00084F4B00084F4B000825
:104B1400494B000800F01EF818E000F01BF815E0FF
:104B240000F094F812E000F0E5F80FE000F0C2F9AC
:104B34000CE000F03BFA09E000F038FA06E000F07F
:104B4400B1FA03E000F046F900E000BF00BF80BD09
:104B5400DA05002080B500AFFDF712FC384B5B6925
:104B6400374A43F020035361AA2145F25550FFF719
:104B7400F1FD552142F6AA20FFF7ECFD802145F214
:104B84005550FFF7E7FDAA2145F25550FFF7E2FD26
:104B9400552142F6AA20FFF7DDFD602145F255506C
:104BA400FFF7D8FDFDF7D2FB0A2001F0EBFB002054
:104BB400FFF7FAFD03461A46224B1A710120FFF74C
:104BC400F3FD03461A461F4B5A710220FFF7ECFD12
:104BD40003461A461B4B9A711B48FFF7E5FD034633
:104BE4001A46184BDA71FDF7CBFBAA2145F2555052
:104BF400FFF7B0FD552142F6AA20FFF7ABFDF021E7
:104C040045F25550FFF7A6FD0D4B1B690C4A43F0C6
:104C1400200313610A2001F0B5FB0A4BF122DA707C
:104C2400084BAC221A70074B00225A70054B042221
:104C34009A7008210348FEF787FD00BF80BD00BFBE
:104C440000100140AC030020F2FF030080B500AF68
:104C5400FDF796FB254B5B69244A43F0200353611F
:104C6400AA2145F25550FFF775FD552142F6AA20B9
:104C7400FFF770FD902145F25550FFF76BFDFDF7EE
:104C840065FB0A2001F07EFB0020FFF78DFD034643
:104C94001A46174B1A710120FFF786FD03461A4680
:104CA400134B5A71124B00229A71114B0022DA7184
:104CB400FDF766FBF0210020FFF74CFD0B4B1B6951
:104CC4000A4A43F020031361094BAC221A70084BC3
:104CD40000225A70064B04229A70054BF122DA70B6
:104CE40008210348FEF730FD00BF80BD00100140DD
:104CF400AC03002080B500AFFDF728FB0020FEF7D1
:104D040069FD304B1B692F4A43F0800313614FF454
:104D1400967001F037FB2B4B5B692A4A43F0200362
:104D24005361294B5B69284A43F001035361254BC6
:104D34005B69244A43F4807353613220FDF708F918
:104D4400224B9B68DAB2224B1A710120FEF742FD16
:104D54003220FDF7FDF81D4B9B68DAB21C4B5A71EB
:104D64001B4B00229A711A4B0022DA71FDF708FBE3
:104D7400144B1B69134A43F020031361124B1B6944
:104D8400114A43F0010313610E4B5B690D4A43F46E
:104D9400807353610B4B5B690A4A43F08003536190
:104DA4000B4BAC221A700A4B00225A70084B042297
:104DB4009A70074BF122DA7008210548FEF7C4FC0B
:104DC40000BF80BD00100140000C014000080140FC
:104DD400AC03002080B500AFFDF7B8FA0020FEF761
:104DE400F9FC304B1B692F4A43F0010313612E4B2E
:104DF4005B692D4A43F4807353612B4B1B692A4A28
:104E040043F0800313614FF4967001F0BBFA264B14
:104E14005B69254A43F020035361224B5B69214AB5
:104E240043F0040353613220FDF792F81F4B9B6853
:104E3400DAB21F4B1A710120FEF7CCFC3220FDF7C9
:104E440087F81A4B9B68DAB2194B5A71184B002237
:104E54009A71174B0022DA71FDF792FA124B1B6913
:104E6400114A43F0200313610E4B1B690D4A43F0B2
:104E7400040313610C4B5B690B4A43F080035361D9
:104E84000B4BAC221A700A4B00225A70084B0422B6
:104E94009A70074BF122DA7008210548FEF754FC9A
:104EA40000BF80BD000C014000100140000801401B
:104EB400AC03002080B582B000AF0023FB80FDF777
:104EC4005FFA384B5B69374A43F0200353614FF470
:104ED4002A4145F25550FFF7A3FC4FF4AA4142F68C
:104EE400AA20FFF79DFC4FF4104145F25550FFF7FF
:104EF40097FC0520FDF72CF8FDF728FA0A2001F0AD
:104F040041FA0020FFF7C8FC03461B0A9BB2DAB241
:104F1400254B1A714FF42A4145F25550FFF780FC96
:104F24004FF4AA4142F6AA20FFF77AFC4FF410414D
:104F340045F25550FFF774FC0520FDF709F8FDF71D
:104F440005FA0A2001F01EFA0120FFF7A5FC03462A
:104F5400FB80FB88DAB2144B5A71FB881B0A9BB2A4
:104F6400DAB2114B9A71104B0022DA710D4B1B69A6
:104F74000C4A43F020031361FDF702FA0A4BAC22FA
:104F84001A70094B00225A70074B04229A70064B80
:104F9400F122DA7008210448FEF7D6FB00BF083777
:104FA400BD4680BD00100140AC03002080B582B036
:104FB40000AF0023FB80FDF7E3F9384B5B69374A08
:104FC40043F0200353614FF42A4140F25550FFF758
:104FD40027FC4FF4AA4140F2AA20FFF721FC4FF42A
:104FE400104140F25550FFF71BFC0520FCF7B0FFC1
:104FF400FDF7ACF90A2001F0C5F90020FFF74CFCDD
:1050040003461B0A9BB2DAB2254B1A714FF42A41AC
:1050140040F25550FFF704FC4FF4AA4140F2AA2095
:10502400FFF7FEFB4FF4104140F25550FFF7F8FB39
:105034000520FCF78DFFFDF789F90A2001F0A2F99C
:105044000120FFF729FC0346FB80FB881B0A9BB267
:10505400DAB2134B9A71FB88DAB2114B5A71104BC6
:105064000022DA710D4B1B690C4A43F020031361D3
:10507400FDF786F90A4BAC221A70094B00225A70CC
:10508400074B04229A70064BF122DA700821044877
:10509400FEF75AFB00BF0837BD4680BD0010014033
:1050A400AC03002080B500AF344B1B68334A23F4B3
:1050B40040731360314B1B68304A23F44063136020
:1050C4002E4B1B682D4A43F480631360FFF722FCC8
:1050D400FDF756F9AA2145F25550FFF751FC552129
:1050E40042F6AA20FFF74CFC902145F25550FFF7F9
:1050F40047FC1420FCF72CFFFDF728F90020FFF7EC
:1051040091FC03461A461E4B1A710120FFF78AFCD4
:1051140003461A461A4B5A711A48FFF783FC034692
:105124001A46174B9A71164B0022DA71FDF728F9CB
:10513400F0210020FFF724FC1420FCF709FF104B9A
:10514400AC221A700E4B00225A700D4B04229A7036
:105154000B4BF122DA7008210948FEF7F5FA074BE8
:105164001B68064A43F440731360044B1B68034AEC
:1051740023F44063136000BF80BD00BF000C0140F6
:10518400AC030020F2FF070080B500AF224B1B7870
:10519400013B0D2B3CD801A252F823F0D951000851
:1051A4001552000815520008DF510008E5510008A7
:1051B400EB51000803520008F1510008F7510008B0
:1051C400FD51000815520008155200080952000844
:1051D4000F52000800F022F81BE000F009F918E073
:1051E40000F074F915E000F019F812E000F060F82E
:1051F4000FE000F05DF80CE000F0AAF809E000F020
:10520400A1F906E000F014FA03E000F09FFA00E0D0
:1052140000BF00BF80BD00BFDA05002080B500AF2D
:10522400214B5B69204A43F020035361AA2145F2D4
:105234005550FFF78FFA552142F6AA20FFF78AFA54
:10524400802145F25550FFF785FAAA2145F25550C1
:10525400FFF780FA552142F6AA20FFF77BFA1021C6
:1052640045F25550FFF776FA0F4B1B690E4A43F08F
:10527400200313614FF4FA6001F084F80B4BAC2265
:105284001A700A4B00225A70084B01229A70074B7D
:10529400F622DA70054B00221A7105210348FEF745
:1052A40053FA00BF80BD00BF00100140AC030020D2
:1052B40080B500AF244B5B69234A43F0200353615C
:1052C4004FF42A4145F25550FFF7AAFA4FF4AA4188
:1052D40042F6AA20FFF7A4FA4FF4004145F25550D4
:1052E400FFF79EFA4FF42A4145F25550FFF798FA1A
:1052F4004FF4AA4142F6AA20FFF792FA4FF48051E4
:1053040045F25550FFF78CFA41F2707001F03AF80B
:105314000D4B1B690C4A43F0200313610B4BAC2269
:105324001A700A4B00225A70084B01229A70074BDC
:10533400F622DA70054B00221A7105210348FEF7A4
:1053440003FA00BF80BD00BF00100140AC03002081
:1053540080B500AF244B5B69234A43F020035361BB
:105364004FF42A4140F25550FFF75AFA4FF4AA413C
:1053740040F2AA20FFF754FA4FF4004140F255508E
:10538400FFF74EFA4FF42A4140F25550FFF748FA1E
:105394004FF4AA4140F2AA20FFF742FA4FF4805199
:1053A40040F25550FFF73CFA0F4B1B690E4A43F08D
:1053B4002003136144F6206000F0E4FF0B4BAC22A1
:1053C4001A700A4B00225A70084B01229A70074B3C
:1053D400F622DA70054B00221A7105210348FEF704
:1053E400B3F900BF80BD00BF00100140AC03002032
:1053F40080B500AF324B1B69314A43F0200313617F
:10540400304B1B692F4A43F0010313612C4B5B693A
:105414002B4A43F4807353612A4B1B69294A43F096
:1054240004031361264B5B69254A43F0200353614F
:10543400244B5B69234A43F001035361204B1B69EE
:105444001F4A43F480731361022000F09BFF1D4B3D
:105454005B691C4A43F004035361C82000F092FFC7
:10546400184B1B69174A43F004031361022000F030
:1054740089FF144B1B69134A43F001031361104B5A
:105484005B690F4A43F4807353610D4B1B690C4AEB
:1054940043F0200313610C4BAC221A700A4B002218
:1054A4005A70094B01229A70074BF622DA70064BA8
:1054B40000221A7105210448FEF746F900BF80BD99
:1054C40000100140000C0140AC03002080B582B004
:1054D40000AF194B5B69184A43F020035361002362
:1054E4007B6007E07B68FF211846FFF733F97B6890
:1054F40001337B607A68114B1B689A42F2D30E4BDE
:105504001B690D4A43F0200313610D4BAC221A7042
:105514000B4B00225A700A4B01229A70084BF62258
:10552400DA70074B00221A7105210548FEF70CF9C1
:1055340000BF0837BD4680BD00100140C8050020EB
:10554400AC03002080B500AFFCF71AFF344B1B6995
:10555400334A43F001031361324B5B69314A43F42C
:10556400807353612F4B1B692E4A43F02003136150
:105574000020FEF72FF92C4BFF22DA60294B1B6920
:10558400284A43F080031361254B5B69244A43F0A6
:1055940001035361234B1B69224A43F48073136153
:1055A4006420FCF7D5FC1F4B5B691E4A43F02003C3
:1055B40053614FF47A7000F0E5FE1A4B1B69194AE7
:1055C40043F0200313616420FCF7C2FC154B5B69B4
:1055D400144A43F080035361114B1B69104A43F092
:1055E400010313610F4B5B690E4A43F480735361EB
:1055F4000A2000F0C7FE0D4BAC221A700B4B0022A0
:105604005A700A4B01229A70084BF622DA70074B43
:1056140000221A7105210548FEF796F800BF80BDE7
:10562400000C01400010014000080140AC030020C0
:10563400B0B58AB000AF414B3C1D1D460FCD0FC421
:1056440095E80F0084E80F00FFF764F93C4B1B68F2
:105654003B4A23F440731360394B1B68384A23F4E4
:1056640040631360364B1B68354A43F48063136010
:10567400334B1B69324A43F001031361314B5B69BD
:10568400304A43F48073536100237B622FE0AA21E4
:1056940045F25550FFF774F9552142F6AA20FFF759
:1056A4006FF9802145F25550FFF76AF9AA2145F2B6
:1056B4005550FFF765F9552142F6AA20FFF760F926
:1056C4007B6A9B0028333B4453F8243C3021184622
:1056D400FFF756F9012000F055FE00BF184B9B68F8
:1056E40003F00403002BF9D07B6A01337B627B6AED
:1056F400072BCCDD144BAC221A70134B00225A70CA
:10570400114B01229A70104BF622DA700E4B0022D4
:105714001A7105210C48FEF717F8094B1B68084A53
:1057240043F440731360064B1B68054A23F440633B
:10573400136000BF2837BD46B0BD00BF48D5000880
:10574400000C014000100140AC03002080B500AF04
:10575400FFF7E0F8214B1B69204A43F00103136172
:105764001F4B5B691E4A43F480735361AA2145F2BF
:105774005550FFF705F9552142F6AA20FFF700F925
:10578400802145F25550FFF7FBF8AA2145F2555008
:10579400FFF7F6F8552142F6AA20FFF7F1F8102199
:1057A40045F25550FFF7ECF842F2107000F0EAFDB4
:1057B4000C4BAC221A700B4B00225A70094B01227D
:1057C4009A70084BF622DA70064B00221A710521F2
:1057D4000448FDF7B9FF00BF80BD00BF000C0140C5
:1057E40000100140AC03002080B500AF0A4B1B78C9
:1057F4000A2B0BD00A2B0CDC012B04D0042B08D170
:1058040000F00CF806E000F02FF803E000F070F868
:1058140000E000BF00BF80BDDA05002080B500AF06
:10582400AA2141F25550FEF795FF552140F6AA20D2
:10583400FEF790FF802141F25550FEF78BFFAA211D
:1058440041F25550FEF786FF552140F6AA20FEF797
:1058540081FF202141F25550FEF77CFF6420FCF7C4
:1058640077FB00BF80BD000080B500AFFCF788FD6A
:105874001D4B5B691C4A43F0010353611B4B1B69BD
:105884001A4A43F480731361AA2145F25550FEF776
:1058940061FF552142F6AA20FEF75CFF802145F204
:1058A4005550FEF757FFAA2145F25550FEF752FF17
:1058B400552142F6AA20FEF74DFF202145F255500E
:1058C400FEF748FF0A2000F05DFD074B1B69064AFE
:1058D40043F001031361054B5B69044A43F480738D
:1058E400536100BF80BD00BF000C014000100140A7
:1058F40080B500AF0A2000F045FD4220FDF76AFFA5
:105904001C4B6022DA60012000F03CFD1A4B5B69FD
:10591400194A43F020035361184B5B69174A43F05B
:10592400040353613220FCF713FB144B1B69134A25
:1059340043F004031361104B1B690F4A43F0200327
:105944001361322000F01EFD0D4BAC221A700C4B7B
:1059540000225A700A4B01229A70094BF822DA701D
:10596400074B00221A7105210548FDF7EDFE00BF23
:1059740080BD00BF0008014000100140000C014040
:10598400AC03002090B583B000AF384B5B69374A55
:1059940043F480535361364B1B68B3F1807F0FD9B6
:1059A400132000F0EDFB002000F0EAFB002000F0E3
:1059B400E7FB002000F0E4FB002000F0E1FB0BE03B
:1059C400032000F0DDFB002000F0DAFB002000F0F3
:1059D400D7FB002000F0D4FB00237B602FE0254B95
:1059E400AC221A70234B02225A70224B00229A7066
:1059F400204BB022DA7000233B600BE03B681C1D97
:105A0400FF2000F0BDFB03461A461A4B1A553B68AB
:105A140001333B603B68B3F5007FEFDB4FF401716A
:105A24001448FDF791FE00BF134B1B78002BFBD0ED
:105A3400114B00221A707B6803F500737B607A684F
:105A44000B4B1B689A42CAD300BF0C4B9B6803F0F4
:105A54008003002BF9D1054B1B69044A43F480539E
:105A6400136100BF0C37BD4690BD00BF000C014060
:105A7400C8050020AC030020A9080020003800401D
:105A840080B582B000AF104B5B690F4A43F480537A
:105A94005361052000F074FB002000F071FB034605
:105AA400FB7100BF094B9B6803F08003002BF9D105
:105AB400054B1B69044A43F480531361FB79184670
:105AC4000837BD4680BD00BF000C014000380040CF
